:1000000080314A28053008007E1480310B1F0928F2
:100010000A2848282100111E0E280F281B2820001E
:10002000111E132814281B28220041088A004008AA
:100030000A00803148282100911E1F2820282C28E2
:100040002000911E242825282C2822003F088A0001
:100050003E080A00803148282100921D30283128AE
:100060003D282000921D352836283D2822004508CD
:100070008A0044080A00803148282100911D412847
:10008000422848282000911D46284728482836281D
:100090007E10090080314C2822008731FF278031F3
:1000A000EB00593084009F308500A030860001307D
:1000B000870028309B313C238031BD3084009C3048
:1000C0008500403086000230870014309B313C238D
:1000D0008031FD012000EA01EB01EC012100E30188
:1000E00020308400013085002A309B313623803156
:1000F000C83084000130850025309B3136238031A3
:10010000203084000230850020309B31362380313E
:100110007E1020008D31F22DBA302000AE00A330C9
:10012000AF009A30B000A230B1005930B200A03018
:10013000B3005930B400A030B5009231EA228031CA
:1001400001309C310524803106302100E00013305D
:10015000DF00AD30890BAA28DF0BAA28E00BAA2804
:10016000003200309C310524803124005D080319E1
:10017000BA28BB28EE286108883108208031210088
:10018000DF005F082400E2006208031DC828C928B8
:10019000EE28E301BA302100B000A330B100633093
:1001A000B2000230B3006230B4000230B5009431C6
:1001B000F924803161302100B8000230B900633089
:1001C000BA000230BB006230BC000230BD006030BB
:1001D000BE000230BF009331E42380312400630865
:1001E0000319F328F4285629C2302000AE00A330AA
:1001F000AF008B30B000A230B1005930B200A03057
:10020000B3005930B400A030B5009231EA228031F9
:1002100001309C310524803106302100E00013308C
:10022000DF00AD30890B1229DF0B1229E00B1229F8
:10023000003200309C310524803124005D08031910
:10024000222923295629610888310820803121007C
:10025000DF005F082400E2006208031D3029312915
:100260005629E301C2302100B000A330B100633051
:10027000B2000230B3006230B4000230B5009431F5
:10028000F924803161302100B8000230B9006330B8
:10029000BA000230BB006230BC000230BD006030EA
:1002A000BE000230BF009331E42380312400630894
:1002B00003195B295C29C229CA302000AE00A33093
:1002C000AF002E30B000A330B1005930B200A030E2
:1002D000B3005930B400A030B5009231EA22803129
:1002E00001309C310524803115302100E0004B3075
:1002F000DF00BE30890B7A29DF0B7A29E00B7A29DF
:10030000000000309C310524803115302100E000D0
:100310004B30DF00BE30890B8B29DF0B8B29E00BC4
:100320008B29000001309E317E268031003A03196E
:100330009A299B299C29C2292400E301CA30210063
:10034000B000A330B1006330B2000230B3006230BD
:10035000B4000230B5009431F924803161302100BD
:10036000B8000230B9006330BA000230BB0062301E
:10037000BC000230BD006030BE000230BF009331CF
:10038000E4238031240063080319C729C829372AC8
:10039000D2302000AE00A330AF002E30B000A1302C
:1003A000B1005930B200A030B3005930B400A030D1
:1003B000B5009231EA22803101309C310524803130
:1003C00015302100E0004B30DF00BE30890BE629FC
:1003D000DF0BE629E00BE629000000309C31052404
:1003E000803115302100E0004B30DF00BE30890B3A
:1003F000F729DF0BF729E00BF729000000309E31C9
:100400007E268031003A0319062A072A112A013074
:100410009E31A1268031003A03190F2A102A112A91
:10042000372A2400E301D2302100B000A330B1000C
:100430006330B2000230B3006230B4000230B50065
:100440009431F924803161302100B8000230B900C4
:100450006330BA000230BB006230BC000230BD0025
:100460006030BE000230BF009331E42380312400AD
:10047000630803193C2A3D2AAC2ADA302000AE007A
:10048000A330AF004230B000A130B1005930B2000B
:10049000A030B3005930B400A030B5009231EA2248
:1004A000803101309C310524803115302100E0007D
:1004B0004B30DF00BE30890B5B2ADF0B5B2AE00B81
:1004C0005B2A000000309C3105248031153021006A
:1004D000E0004B30DF00BE30890B6C2ADF0B6C2A4A
:1004E000E00B6C2A000000309E31A1268031003ADA
:1004F00003197B2A7C2A862A01309E31C42680314A
:10050000003A0319842A852A862AAC2A2400E301AA
:10051000DA302100B000A330B1006330B200023005
:10052000B3006230B4000230B5009431F924803158
:1005300061302100B8000230B9006330BA000230E7
:10054000BB006230BC000230BD006030BE00023033
:10055000BF009331E4238031240063080319B12ADA
:10056000B22A512BE2302000AE00A330AF002D3074
:10057000B000A230B100FA30B200A130B30059305F
:10058000B400A030B5009231EA22803101309C31B4
:100590000524803106302100E0001330DF00AD304B
:1005A000890BD02ADF0BD02AE00BD02A0032003092
:1005B0009C31052480310B302100E0002630DF0023
:1005C0005D30890BE12ADF0BE12AE00BE12A0032E2
:1005D0000C309E313C268031200024082400DF00AE
:1005E000200023082400DE00EA302100AD00A33003
:1005F000AE0024005F082100B00024005E08210046
:10060000AF00583091315021803121002E08240054
:10061000D50021002D082400D4005F08803A210075
:10062000DF0083305F02031D182B203024005E02A0
:1006300003181B2B1C2B1F2B22008C17452BE23081
:100640002100B000A330B1006330B2000230B3002B
:100650006230B4000230B5009431F92480312200B8
:100660008C1361302100B8000230B9006330BA0049
:100670000230BB006230BC000230BD006030BE0002
:100680000230BF009331E423803129302100E000A3
:100690009630DF007F30890B4B2BDF0B4B2BE00BB1
:1006A0004B2B240063080319562B572B0A2C393087
:1006B0002000AE00A330AF002D30B000A230B1005A
:1006C0003E30B200A230B3005930B400A030B500C3
:1006D0009231EA22803101309C310524803106308C
:1006E0002100E0001330DF00AD30890B752BDF0BEC
:1006F000752BE00B752B003200309C3105248031C6
:100700000B302100E0002630DF005D30890B862BA6
:10071000DF0B862BE00B862B00320C309E313C2603
:100720008031200024082400DF002000230824005A
:10073000DE00EA302100AD00A330AE0024005F08E7
:100740002100B00024005E082100AF005830913134
:100750005021803121002E082400D70021002D08CF
:100760002400D6005F08803A2100DF0082305F025B
:10077000031DBD2B8A3024005E020318C02BC12B41
:10078000C42B22008C13FE2B39302100B000A33083
:10079000B1006330B2000230B3006230B400023006
:1007A000B5009431F924803139302000AE00A330F7
:1007B000AF002D30B000A230B1005830B20002308E
:1007C000B3005930B400A030B5009231EA22803134
:1007D00022008C1761302100B8000230B90063306C
:1007E000BA000230BB006230BC000230BD00603095
:1007F000BE000230BF009331E42380312930210054
:10080000E0009630DF007F30890B042CDF0B042CD6
:10081000E00B042C2400630803190F2C102CD42C9B
:1008200042302000AE00A330AF000B30B000A33048
:10083000B1005930B200A030B3005930B400A0303C
:10084000B5009231EA2280310B302100E0002630E1
:10085000DF005D30890B2A2CDF0B2A2CE00B2A2CC1
:10086000003201309C310524803106302100E00047
:100870001330DF00AD30890B3B2CDF0B3B2CE00B42
:100880003B2C003200309C31052480313D3021006A
:10089000E000E130DF003F30890B4C2CDF0B4C2CAB
:1008A000E00B4C2C003201309C31052480310630A5
:1008B0002100E0001330DF00AD30890B5D2CDF0B31
:1008C0005D2CE00B5D2C003200309C310524803122
:1008D00010302100E0003930DF000D30890B6E2C24
:1008E000DF0B6E2CE00B6E2C003201309E317E2629
:1008F0008031003A03197D2C7E2C912C01309E31E1
:10090000A1268031003A0319862C872C912C0030C7
:100910009E31C4268031003A03198F2C902C912CE3
:10092000BF2C2400E30100309C31052480310030CD
:100930009C311224803142302100B000A330B1003C
:100940006330B2000230B3006230B4000230B50050
:100950009431F924803161302100B8000230B900AF
:100960006330BA000230BB006230BC000230BD0010
:100970006030BE000230BF009331E4238031153077
:100980002100E0004B30DF00BE30890BC52CDF0BAF
:10099000C52CE00BC52C000000309C3105248031B3
:1009A00000309C3112248031240063080319D92CB3
:1009B000DA2C3F2D54302000AE00A330AF004E3073
:1009C000B000A230B100E330B200A230B3000B306F
:1009D000B400A230B5009231EA22803101309C315E
:1009E0000524803106302100E0001330DF00AD30F7
:1009F000890BF82CDF0BF82CE00BF82C00320030C0
:100A00009C310524803190302100AD00A030AE0033
:100A10009C31E6248031240061088831082080312F
:100A20002100DF005F082400E2006208031D192D89
:100A30001A2D3F2DE30154302100B000A330B10046
:100A40006330B2000230B3006230B4000230B5004F
:100A50009431F924803161302100B8000230B900AE
:100A60006330BA000230BB006230BC000230BD000F
:100A70006030BE000230BF009331E4238031240097
:100A800063080319442D452DBD2D5D302000AE00B7
:100A9000A330AF004B30B000A330B1005930B200EA
:100AA000A030B3005930B400A030B5009231EA2232
:100AB000803101309C311224803106302100E00069
:100AC0001330DF00AD30890B632DDF0B632DE00B9E
:100AD000632D003200309C31122480310B30210014
:100AE000E0002630DF005D30890B742DDF0B742DA4
:100AF000E00B742D003201309E317E268031003AA9
:100B00000319832D842D972D01309E31A12680312C
:100B1000003A03198C2D8D2D972D01309E31C4265E
:100B20008031003A0319952D962D972DBD2D240067
:100B3000E3015D302100B000A330B1006330B200AA
:100B40000230B3006230B4000230B5009431F924B1
:100B5000803161302100B8000230B9006330BA0042
:100B60000230BB006230BC000230BD006030BE000D
:100B70000230BF009331E42380312400630803195D
:100B8000C22DC32D3B2E66302000AE00A330AF0037
:100B9000FE30B000A230B1005930B200A030B30036
:100BA0005930B400A030B5009231EA2280310130D2
:100BB0009C313924803106302100E0001330DF0001
:100BC000AD30890BE12DDF0BE12DE00BE12D003283
:100BD00000309C31392480310B302100E000263078
:100BE000DF005D30890BF22DDF0BF22DE00BF22DD3
:100BF000003200309E317E268031003A0319012EEA
:100C0000022E152E00309E31A1268031003A0319A4
:100C10000A2E0B2E152E00309E31C4268031003A4C
:100C20000319132E142E152E3B2E2400E3016630DB
:100C30002100B000A330B1006330B2000230B30035
:100C40006230B4000230B5009431F9248031613053
:100C50002100B8000230B9006330BA000230BB0096
:100C60006230BC000230BD006030BE000230BF0008
:100C70009331E4238031240063080319402E412E70
:100C8000AB2E6F302000AE00A330AF009A30B00022
:100C9000A330B1005930B200A030B3005930B400D5
:100CA000A030B5009231EA22803101309C311F24FE
:100CB000803119302100E0005A30DF00B130890B5B
:100CC0005F2EDF0B5F2EE00B5F2E003200309C3179
:100CD0001F2480310B302100E0002630DF005D3022
:100CE000890B702EDF0B702EE00B702E003201305E
:100CF0009E317E268031003A03197F2E802E932E5E
:100D000001309E31A1268031003A0319882E892EA8
:100D1000932E01309E31C4268031003A0319912E62
:100D2000922E932EAB2E6F302100D700A330D80027
:100D30006330DF005F08D9006230E0006008DA004D
:100D40006130E1006108DB006030E2006208DC0035
:100D50008931BB218031240063080319B02EB12EE4
:100D6000292F78302000AE00A330AF00AA30B000A9
:100D7000A330B1005930B200A030B3005930B400F4
:100D8000A030B5009231EA22803101309C312C2410
:100D9000803119302100E0005A30DF00B130890B7A
:100DA000CF2EDF0BCF2EE00BCF2E003200309C3148
:100DB0002C2480310B302100E0002630DF005D3034
:100DC000890BE02EDF0BE02EE00BE02E003200302E
:100DD0009E317E268031003A0319EF2EF02E032F2C
:100DE00000309E31A1268031003A0319F82EF92EE9
:100DF000032F00309E31C4268031003A0319012FA1
:100E0000022F032F292F2400E30178302100B000A6
:100E1000A330B1006330B2000230B3006230B400DE
:100E20000230B5009431F924803161302100B800DE
:100E30000230B9006330BA000230BB006230BC003F
:100E40000230BD006030BE000230BF009331E423A9
:100E500080312400630803192E2F2F2F8E2F81300D
:100E60002000AE00A330AF00A930B000A230B10026
:100E70002330B200A330B3000B30B400A230B50071
:100E80009231EA2280319D31FE25803100302100EF
:100E9000AD00A030AE009C31E62480312400610812
:100EA0008831082080312100DF005F082400E20043
:100EB0006208031D5C2F5D2F8E2FE301813021001E
:100EC000B000A330B1006330B2000230B300623032
:100ED000B4000230B5009431F92480316130210032
:100EE000B8000230B9006330BA000230BB00623093
:100EF000BC000230BD006030BE000230BF00933144
:100F0000E423803129302100E0009630DF007F307B
:100F1000890B882FDF0B882FE00B882F24006308B4
:100F20000319932F952F8E31252E17302000AE00F8
:100F3000A330AF00A930B000A130B100D530B2006D
:100F4000A230B3000530B400A130B5009231EA22DE
:100F5000803101309B31DE23803100309B31D12341
:100F600080319E315D26803161302100B000023039
:100F7000B1006330B2000230B30094319724803165
:100F800063302100B0000230B1006230B2000230A4
:100F9000B3006130B4000230B5006030B6000230FA
:100FA000B7009231A022803129302100E000963034
:100FB000DF007F30890BDA2FDF0BDA2FE00BDA2F1F
:100FC000932F80314A2820003708803AB8008030BB
:100FD0003802031DED2F013036020318F02FF12FD8
:100FE000FE2F20003609B8003709B900B80A0319E6
:100FF000B90A3808B6003908B700FE2F08000834CF
:10100000F03021009E009B019C0101309D000800F2
:101010002000A800A901AA012808031910281128F6
:1010200070286A286A080319162817286A28903138
:10103000EA2088312000A5002508A70057280230A3
:101040002000A6000430A500BA30890B2528A50B86
:101050002528A60B252800002000A901A90AAA011D
:10106000AA0A6A2802302000A6000430A500BA307F
:10107000890B3828A50B3828A60B3828000020003B
:10108000A9012F2802302000A6000430A500BA30A4
:10109000890B4828A50B4828A60B482800002000EB
:1010A000A901A90AAA01AA0A22008C136A28270802
:1010B000A500A6012608003A03195F286A2825081A
:1010C000323A03191F28013A031932280A3A031940
:1010D00042286A2820002A0803196F28702812283D
:1010E0002808031D742875289728912801309D3100
:1010F000A9258831003A03197E287F2883282000FB
:10110000A901AA01AA0A01309D31C4258831003AFB
:1011100003198B288C2891282000A901A90AAA016B
:10112000AA0A20002A080319962897287628290851
:1011300008002100A90020005D0886008701403FCB
:10114000DF00413FE0005F08840060088500120076
:10115000253A031DAC28AD2895295D088600870136
:101160000130810741310318810A2200B201B30125
:10117000B601B701FF30B400FF30B50020005D08B4
:1011800086008701403FDF00413FE0005F088400A8
:10119000600885001200643A0319CF28D028E1289E
:1011A0005D0886008701403FDF00413FE0005F08A7
:1011B0008400600885001200693A031DE028E128D8
:1011C0002F295D088600870101308107413103180E
:1011D000810A5E08860087010108840085010230CB
:1011E0008107003FDF00013FE0005F082100A00011
:1011F000200060082100A100890D893B8909A20017
:10120000A300A400A500A600A70020082000BF009E
:10121000210021082000C000210022082000C10078
:10122000210023082000C200210024082000C30060
:10123000210025082000C400210026082000C50048
:10124000210027082000C600210029088B310D232A
:10125000883120004008DE003F08DD00BA295D0823
:1012600086008701403FDF00413FE0005F088400C7
:101270006008850012006E3A031D3F29402960294D
:101280005D08860087010130810741310318810A1A
:101290005E0886008701403F84008501810A0008BE
:1012A000DF005F082100A8002808860087012200CF
:1012B0003008C03F3108C13F2000DD01DE01BA29FE
:1012C0005D0886008701403FDF00413FE0005F0886
:1012D0008400600885001200253A031D70297129D9
:1012E0008C295D0886008701013081074131031890
:1012F000810A2530A6000030A7002100290820001F
:10130000DF005F08A80093313B23883101302000C3
:10131000DD000030DE00BA295D088600870101305B
:10132000810741310318810A5C295D088600870125
:10133000403FDF00413FE0005F0884006008850017
:101340000008E100E2016108A6006208A700210090
:1013500029082000E3006308A80093313B2388316B
:1013600020005D08860087010130810741310318A4
:10137000810A8629080040308600023087005430F8
:1013800084000130850014302100DD0016001A00B1
:10139000DD0BC629B4308600013087004A30840056
:1013A000013085000A30DD0016001A00DD0BD4295B
:1013B00001309B31EB23893101309B31F823893196
:1013C00000309B31DE238931210058082000AF0016
:1013D000210057082000AE00A030B000A130B100BD
:1013E0007C30B200A130B300F030B400A030B500C2
:1013F0009231EA22893154302000B3000130B40028
:10140000210058082000B600210057082000B50030
:101410009C31FC248931200034082200E90020009E
:1014200033082200E80069082000B40022006808A0
:101430002000B3004A30B5000130B6009C31FC24D6
:101440008931200034082100AE002000330821003B
:10145000AD009C31E624893192310F22893121007F
:101460005B08860002308700010888310820893136
:101470002100DD005D082200EA000B302100DE00C3
:101480002630DD005D30890B432ADD0B432ADE0B5D
:10149000432A003222006A0803194F2A502A842A5C
:1014A0002100590886000230870081015A08860011
:1014B0000230870081016F302000AE00A330AF0002
:1014C000A530B000A130B1008E30B200A130B30021
:1014D0000530B400A130B5009231EA228931DB3009
:1014E0002100B8000030B900D930BA000030BB008C
:1014F000DA30BC000030BD00DC30BE000030BF0080
:101500009331E42389310C2B6F302000AE00A330DF
:10151000AF009A30B000A330B1005930B200A03013
:10152000B3005930B400A030B5009231EA228931BD
:1015300000309B31EB23893101309B31F823893115
:1015400000309B31DE23893101309C311F248931E9
:1015500019302100DE005A30DD00B130890BAE2A8F
:10156000DD0BAE2ADE0BAE2A003200309C311F2488
:10157000893115302100DE004B30DD00BE30890B93
:10158000BF2ADD0BBF2ADE0BBF2A000001309E31CF
:101590007E268931003A0319CE2ACF2AF62A013055
:1015A0009E31A1268931003A0319D72AD82AF62A72
:1015B00001309E31C4268931003A0319E02AE12A1C
:1015C000F62A6F302000AE00A330AF009A30B00092
:1015D000A330B1005E30B200A230B3008A30B40054
:1015E000A330B5009231EA2289310C2B2100590831
:1015F00086000230870081016F30B000A330B10057
:10160000D930B2000030B300DA30B4000030B50099
:101610009431F92489316F2A08002000CA003F085C
:10162000D3004008D4004108D5004208D600430842
:10163000D7004408D8004508D9004608DA005330DE
:10164000860000308700473FC700C71B282B2A2B86
:1016500001302B2B00302000C800C9014808D10000
:101660004908D200510852040319372B382B562B46
:10167000D309D409D509D609D709D809D909DA096E
:10168000D30A031D562BD40A031D562BD50A031D5E
:10169000562BD60A031D562BD70A031D562BD80AE4
:1016A000031D562BD90A031D562BDA0A2200B51B3F
:1016B0005A2B5B2B5F2BFD30B605FF30B705350885
:1016C000803A2000C70080304702031D6A2B01309A
:1016D0002200340203186D2B6E2B742B0130200076
:1016E000CD000030CE007C2B220035082000CE003B
:1016F000220034082000CD00220033082000D00052
:10170000220032082000CF0051085204031D892B0B
:101710008A2B8F2B2200361D8E2B8F2B942BFF3084
:101720002000CF07FF30D03D1F302000DB0000300D
:10173000DC002400BF01052CFF302000DB07FF3058
:10174000DC3D0A30A300A401A501A601A701A80160
:10175000A901AA015308AB005408AC005508AD001C
:101760005608AE005708AF005808B0005908B1003D
:101770005A08B20096310E268B3120002408B7009B
:101780002308B6008731E3278B3120003608303E2E
:10179000C7005B08203E86000230870047088100B2
:1017A000FF30CD07FF30CE3DFF30CF07FF30D03DBB
:1017B0000A30A300A401A501A601A701A801A9015F
:1017C000AA015308AB005408AC005508AD005608F8
:1017D000AE005708AF005808B0005908B1005A08C9
:1017E000B2009631FB268B3120002308D300240859
:1017F000D4002508D5002608D6002708D7002808D9
:10180000D8002908D9002A08DA0020005C08803AAC
:10181000C70080304702031D0F2C01305B02031C00
:10182000122C132C402C2000530854045504560449
:101830005704580459045A04031D1F2C202C9C2BB8
:101840004E08803AC70080304702031D292C013022
:101850004D0203182C2C2D2C9C2B20005008803A74
:10186000C70080304702031D372C01304F02031C94
:101870003A2C3B2C402C2200B6183F2C402C9C2BA1
:10188000200051085204031D462C472C4C2C2200EA
:10189000361D4B2C4C2C692CFF302000DB07FF3011
:1018A000DC3D51085204031D562C572C5C2C2B3068
:1018B000CB000030CC00602C2D30CB000030CC00B1
:1018C0004B08C7005B08203E8600023087004708AF
:1018D000810020005B08203EC7004708B600500882
:1018E000B8004F08B7004A0894313B248B312000E0
:1018F0003708C0003608BF0008002100B600B50157
:10190000EB2D20000F19852C862CA12C7630210080
:10191000AD00A030AE009C31E6248C312100B50131
:10192000B50A36088600023087008101310886003A
:101930000230870081013008860002308700810173
:10194000810A20006A080319A62CA72CEB2D9031E0
:10195000EA208C312100B2003208B400D22DF130DF
:10196000AD00A230AE009C31E6248C312100360857
:101970008600023087008101810A3008860002302B
:1019800087008101810A31088600023087008101C9
:1019900002302100B3000430B200BA30890BCE2CE3
:1019A000B20BCE2CB30BCE2C00002100B501B50A32
:1019B000EB2D5A30AD00A030AE009C31E6248C31C6
:1019C00069302000AE00A130AF005930B000A03027
:1019D000B100B630B200A130B3005930B400A0302D
:1019E000B5009231EA228C3121003608860002309F
:1019F00087008101810A300886000230870081015A
:101A00003108860002308700810102302100B300D6
:101A10000430B200BA30890B0B2DB20B0B2DB30B77
:101A20000B2D00002100B501B50A22008C17EB2D0B
:101A30003E30AD00A030AE009C31E6248C316930E0
:101A40002000AE00A130AF005930B000A030B1008E
:101A5000B230B200A130B3005930B400A030B500AC
:101A60009231EA228C31210036088600023087004C
:101A70008101810A02302100B3000430B200BA3083
:101A8000890B402DB20B402DB30B402D00002100DF
:101A9000B501B50A300886000230870081012200B6
:101AA0008C13EB2DAA30AD00A030AE009C31E624A3
:101AB0008C3169302000AE00A130AF005930B00049
:101AC000A030B1007130B200A230B3005930B40080
:101AD000A030B5009231EA228C3121003608860010
:101AE000023087008101810A3008860002308700B9
:101AF000810131088600023087008101810A0230AD
:101B00002100B3000430B200BA30890B852DB20B2E
:101B1000852DB30B852D00002100B501B50A2200EB
:101B20008C17EB2DC330AD00A030AE009C31E62405
:101B30008C3169302000AE00A130AF005930B000C8
:101B4000A030B1006D30B200A230B3005930B40003
:101B5000A030B5009231EA228C312100360886008F
:101B6000023087008101810A300886000230870038
:101B7000810131088600023087008101810A02302C
:101B80002100B3000430B200BA30890BC52DB20B6E
:101B9000C52DB30BC52D00002100B501B50A2200EB
:101BA0008C13EB2D3408B200B3013308003A03194B
:101BB000DA2DEB2D3208313A0319AF2C043A031910
:101BC000922D023A0319D92C0F3A0319522D013ADA
:101BD0000319182DEB2D210035080319F02DF12DD7
:101BE000812C08009C31AA248D318B170B179B3157
:101BF000A1238D314E30953182258D312400E301B2
:101C0000E201E101E001E00A69302000AE00A1300C
:101C1000AF00D630B000A130B100B830B200A23071
:101C2000B3005930B400A030B5009231EA228D31B2
:101C300015302100E0004B30DF00BE30890B1E2E36
:101C4000DF0B1E2EE00B1E2E000022008C13200046
:101C50000E1C2B2E2C2E302E2400DD01DD0A322E00
:101C60002400DD0120008E18362E372E382E382E17
:101C70006930AE00A130AF00C430B000A130B10077
:101C80005930B200A030B300B830B400A230B50073
:101C90009231EA228D3103302100E0000830DF006C
:101CA0007730890B512EDF0B512EE00B512E652E14
:101CB00063302100DF005F08B0006030E0006008A2
:101CC000B10061308C317D248D312400630803190B
:101CD0006A2E6B2E582EE0019F310C278D319230E9
:101CE0002000AE00A330AF001C30B000A230B10025
:101CF0005930B200A030B3005930B400A030B50064
:101D00009231EA228D312400E301E30A00309B3155
:101D1000DE238D3100309B31EB238D3101309B313F
:101D2000F8238D3101309C3105248D3101309C31F7
:101D300012248D3115302100E0004B30DF00BE3021
:101D4000890BA02EDF0BA02EE00BA02E000001308F
:101D50009B31D1238D3129302100E0009630DF0006
:101D60007F30890BB12EDF0BB12EE00BB12E01308D
:101D70009E317E268D31003A0319BF2EC02ED32E00
:101D800001309E31A1268D31003A0319C82EC92E8B
:101D9000D32E01309E31C4268D31003A0319D12E45
:101DA000D22ED32E012F2400E30100309C310524D4
:101DB0008D3100309C3112248D3192302100B000E1
:101DC000A330B1006330B2000230B3006230B4001F
:101DD0000230B5009431F9248D3161302100B80012
:101DE0000230B9006330BA000230BB006230BC0080
:101DF0000230BD006030BE000230BF009331E423EA
:101E00008D3115302100E0004B30DF00BE30890BF2
:101E1000072FDF0B072FE00B072F000000309C314E
:101E200005248D3100309C3112248D31240063084B
:101E300003191B2F1C2F872FA2302000AE00A330C8
:101E4000AF00E830B000A130B1005930B200A0308E
:101E5000B3005930B400A030B5009231EA228D3180
:101E600000309C3105248D3100309C3112248D319D
:101E70000B302100E0002630DF005D30890B3E2F63
:101E8000DF0B3E2FE00B3E2F003201309E317E26CD
:101E90008D31003A031D4D2F4E2F612F01309E31A1
:101EA000A1268D31003A031D562F572F612F013087
:101EB0009E31C4268D31003A031D5F2F602F612FA4
:101EC000872F2400E301A2302100B000A330B1002D
:101ED0006330B2000230B3006230B4000230B500AB
:101EE0009431F9248D3161302100B8000230B900FD
:101EF0006330BA000230BB006230BC000230BD006B
:101F00006030BE000230BF009331E4238D312400E5
:101F1000630803198C2F8D2FF82FB2302000AE00EC
:101F2000A330AF007C30B000A230B1005930B20015
:101F3000A030B3005930B400A030B5009231EA228D
:101F40008D3101309C3105248D3106302100E000B7
:101F50001330DF00AD30890BAB2FDF0BAB2FE00B65
:101F6000AB2F003200309C3105248D3124005D08F8
:101F70000319BB2FBC2FF82F1F302100AD00A0305C
:101F8000AE009C31E6248D312400610888310820A0
:101F90008D312100DF005F082400E2006208031D8C
:101FA000D22FD32FF82FE301B2302100B000A3309D
:101FB000B1006330B2000230B3006230B4000230CE
:101FC000B5009431F9248D3161302100B800023020
:101FD000B9006330BA000230BB006230BC0002308E
:101FE000BD006030BE000230BF009331E4238D316C
:101FF000240063080319FE2F80318C288031EE28DD
:10200000200091110800230064100230FA007A08C1
:10201000E30012289B31062390312F289B310B239C
:1020200090312F285608FA007A08F9000430C83E8B
:10203000860001308700413F8A00403F0A0090310E
:10204000FB00FC017C08003A031927280E287B08B6
:10205000023A03190A28013A03190A280E2808002F
:102060009031002090312300641C372838284628FE
:102070009B3124239031003A03193F2840284628F9
:102080000F302000A00020082300E2002300620897
:102090002000A000A101A035A10D00302007840080
:1020A0009830213D8500013F8A00003F0A009031B1
:1020B0002000A20022082300E20008002000A40063
:1020C0002200490803196528662860282100111A92
:1020D0006A286B2870282000240823009A00892889
:1020E000111220002408A3007D08283E860001303C
:1020F0008700230881000130A3002308FD07083072
:102100007D02031C842885288628FD0101302200D9
:10211000C9022100111608002300E4159C289B31F8
:1021200006239031BA289A31D72290310330BA2849
:102130009B310B239031BA285408FA007A08F90031
:1021400049088A0048080A009031FB00FC017C081D
:10215000003A0319AC2898287B08013A03199828FB
:10216000033A03198F28013A03198F28073A0319F4
:102170009328982808002000AC00D6282908BF3EE4
:102180009D3143259031E9282908933E9D3143250F
:102190009031E9282908D33E9D3143259031E92823
:1021A00029087F3E9D3143259031E9282C08AA005B
:1021B000AB012B08003A0319DE28D0282A08023A7E
:1021C0000319BE28013A0319C428073A0319CA287B
:1021D000D028080020006A080319EF28F028EA2810
:1021E0006B08203E8600013087000108A300230809
:1021F0002200C80020006B08E53E86000130870001
:102200000108A3002308A4000130A3002308EB0762
:1022100008306B02031C0D290E290F29EB01210048
:10222000911201302000EA022100911620002408BA
:1022300008002100AA00200065082100AC00200051
:1022400064082100AB002200B001B1013D29AB3090
:102250002000E7006708DD006608E8006808DE0087
:1022600021002A0888319920913120005D08220040
:10227000B00720005E082200B13D21002B08840039
:102280002C0885001200031D462947292729220012
:1022900031082000E500220030082000E40008009A
:1022A0002100B400AF302000E90069082100B3002C
:1022B00034082000E90069082100B500B601B70123
:1022C000B801B9012E082000E50021002D082000EA
:1022D000E400B330E9006908E600B5309131192116
:1022E0009131200065082100B2002000640821001F
:1022F000B100360834072000E90069088600023082
:102300008700810121003208AE003108AD000800CD
:1023100020006C08203E86000130870081012300E8
:102320001D1D93299429A12920006C08203E8600B8
:1023300001308700811422003D088A003C080A0011
:10234000913123009D1CA529A629B32920006C08E2
:10235000203E860001308700011522003B088A00DC
:102360003A080A00913120006C08203E86000130B6
:10237000870001080319BD29BE29C5292200390893
:102380008A0038080A009131C8299D318E25913183
:1023900008009A31D4229131FA0023005F088600A8
:1023A00087017A0881000130FA007A08DF070130DE
:1023B000E0020030E13B600861040319E029E129F3
:1023C000E6299A31E622913105300E2AE415F029EA
:1023D0009B311A2391310E2A9B31152391310E2AFC
:1023E0005408FA007A08F90049088A0048080A00E7
:1023F0009131FB00FC017C08003A0319002AEC290A
:102400007B08013A0319EC29033A0319E829013A38
:102410000319E829073A0319EC29EC2908002000E0
:10242000A801A9012000AA01AB019F31D427923154
:102430000B302000A7002630A6005D30890B1E2A35
:10244000A60B1E2AA70B1E2A003201302000AA0765
:102450000030AB3D2B08803AA60080302602031DD9
:10246000332A04302A02031C362A372A152A0B3055
:102470002000A7002630A6005D30890B3D2AA60B60
:102480003D2AA70B3D2A003201302000A80700306A
:10249000A93D2908803AA60080302602031D522A51
:1024A00004302802031C552A562A122A080021004B
:1024B000911288302000A3001130A4009B317C23AE
:1024C000923121001112E7302000A3001E30A40039
:1024D0009B3185239231083023009F0090309D006E
:1024E00024309E0040309B0003309C00C830200008
:1024F000A3001A30A4009B316A239231DE30200001
:10250000A3001A30A4009B3173239231DA302000EB
:10251000A3001A30A4009B31612392312200C8012C
:10252000FD012100E30108302000A500250822005C
:10253000C9002000EC01EB01EA012100911608001E
:10254000210034088600350887000108031DA92AE8
:10255000AA2AB12ADB30AD00A030AE009C31E624BF
:10256000923121003008860031088700810132084D
:10257000860033088700810134088600350887000B
:10258000810136088600370887000130810000305D
:102590009B31DE23923100309B31EB2392310030AE
:1025A0009B31F823923100309B31D123923100309E
:1025B0009C310524923100309C311224923100303C
:1025C0009C311F24923100309C312C249231220006
:1025D0008C1308009B318E23923106309D314325A8
:1025E000923102302000B7000430B600BA30890BB7
:1025F000F72AB60BF72AB70BF72A00002000A9012B
:10260000A90A01309031BB20923120002F08AA0086
:102610002E08A9009E311D2692312000A901A90A89
:1026200002309031BB20923120003108AA003008DE
:10263000A9009E311D2692312000A901A90A03306C
:102640009031BB20923120003308AA003208A90043
:102650009E311D2692312000A901A90A0430903133
:10266000BB20923120003508AA003408A9009E3111
:102670001D2692310800200028080319402B412B09
:10268000462B2808031D452B462B4B2B26089B3138
:10269000492393318C2B2808033E860087011600BE
:1026A00001040319542B552B722B2808033E860076
:1026B0008701403FA900413FAA00280A8600870100
:1026C000403FAB00413FAC002C08803AAD002A08E7
:1026D000803A2D02031D6E2B29082B020318712B43
:1026E000722B8C2B20002608A90028088600870161
:1026F000280A8400850100080107AA002A0886002C
:102700000230870029088100280A860087010130ED
:10271000810741310318810A08009B31242393313A
:10272000003A0319942B952BC62BA22B9A31FC222D
:102730009331E32B9B3101239331E32B9B310B230B
:102740009331E32B23005708FA007A08F90006308A
:10275000C83E860001308700413F8A00403F0A00A2
:102760009331FB00FC017C08003A0319B82B9E2B27
:102770007B08013A03199E2B033A0319962B013A61
:1027800003199A2B073A03199E2B9E2B23006410E2
:102790001730C83E860001308700403F8400850125
:1027A000810A00089A31F222933101302300E002BD
:1027B0000030E13B60086104031DDF2BE02BE22BBE
:1027C0000630E32B03300800210038088600390862
:1027D00087000108C000C1014008B0004108B100F5
:1027E0003A0886003B0887000108C200C30142087E
:1027F000B2004308B30094319724933121003A0882
:1028000086003B0887000108C000C1014008B000F5
:102810004108B1003C0886003D0887000108C2005D
:10282000C3014208B2004308B300380886003908E3
:1028300087000108C400C5014408B4004508B5007C
:102840003E0886003F0887000108C600C701460809
:10285000B6004708B7009231A022933129302100F9
:10286000C1009630C0007F30890B342CC00B342C53
:10287000C10B342C08002000BE002200361C412C65
:10288000422C4B2C20003E08B9003908AE00360817
:102890009F31812794312000B81B4F2C502C552C90
:1028A0003808BD003708BC00572CBC01BD01BA0177
:1028B000BB016B2C20302000A6000030A7003E0892
:1028C000B9003908A80093313B239431013020002E
:1028D000BA070030BB3D3B08803AB9003D08803A5A
:1028E0003902031D752C3C083A02031C782C792C04
:1028F0005A2C220036187D2C7E2C872C20003E0876
:10290000B9003908AE0036089F3181279431200084
:102910003608A3000230A4009D31742594312000B4
:102920003C082307B6003D08243DB70008002100FD
:10293000B701F22C20000F199E2C9F2CB42CDB30F9
:102940002100AD00A030AE009C31E624943121007E
:10295000B701B70A300886003108870081013208C4
:10296000860033088700810120006A080319B92C0A
:10297000BA2CF22C9031EA2094312100B4003408B2
:10298000B600E52C5630AD00A130AE009C31E624F7
:102990009431210030088600310887008101320817
:1029A000860033088700810102302100B500043021
:1029B000B400BA30890BDA2CB40BDA2CB50BDA2C54
:1029C00000002100B701B70AF22C3608B400B501A7
:1029D0003508003A0319ED2CF22C3408343A031967
:1029E000C22CF22C210037080319F72CF82C9A2C52
:1029F0000800A030860001308700C130840000301C
:102A0000850014302100B60016001A00B60B042D04
:102A1000BE30860001308700B7308400003085006A
:102A20000A30B60016001A00B60B122D01309B3189
:102A3000EB23943101309B31F823943100309B31EA
:102A4000DE23943100309B31D123943121003108B1
:102A50002000AF00210030082000AE00A030B00000
:102A6000A130B1000530B200A130B3005930B4003C
:102A7000A030B5009231EA229431C1302000B30079
:102A80000030B400210031082000B60021003008D9
:102A90002000B5009C31FC24943120003408210032
:102AA000D600200033082100D50056082000B400CD
:102AB000210055082000B300B730B5000030B60043
:102AC0009C31FC249431200034082100AE00200009
:102AD00033082100AD009C31E624943192310F225D
:102AE000943120000F1D752D762D712D2100320897
:102AF0008600330887008101340886003508870086
:102B0000810108002000AB002B08A9002908220041
:102B1000C60000309C31D12495319C302000A900A2
:102B2000D730890B912DA90B912D03309D31432571
:102B300095311A302000A900F830890B9D2DA90B82
:102B40009D2D000003309D31432595311A30200022
:102B5000A900F830890BAA2DA90BAA2D000003307B
:102B60009D31432595311A302000A900F830890B9A
:102B7000B72DA90BB72D000002309D3143259531AB
:102B80001A302000A900F830890BC42DA90BC42DE0
:102B9000000028309D314325953102302000AA00E5
:102BA0000430A900BA30890BD32DA90BD32DAA0B61
:102BB000D32D00000C309D3143259531023020008B
:102BC000AA000430A900BA30890BE42DA90BE42D2A
:102BD000AA0BE42D000001309D31432595310230D0
:102BE0002000AA000430A900BA30890BF52DA90BEA
:102BF000F52DAA0BF52D000006309D3143259531AA
:102C000002302000AA000430A900BA30890B062E39
:102C1000A90B062EAA0B062E000008002000B50105
:102C20002B30860000308700473FB300B31F192EBA
:102C30001A2E3C2E2000AB09AC09AD09AE09AF0934
:102C4000B009B109B209AB0A031D392EAC0A031D44
:102C5000392EAD0A031D392EAE0A031D392EAF0AD7
:102C6000031D392EB00A031D392EB10A031D392E5A
:102C7000B20A2000B501B50A233086000030870073
:102C8000473F2000B300B31F462E472E662E20007C
:102C9000A309A409A509A609A709A809A909AA09B8
:102CA000A30A031D662EA40A031D662EA50A031D92
:102CB000662EA60A031D662EA70A031D662EA80A05
:102CC000031D662EA90A031D662EAA0A20002308EA
:102CD0002404250426042704280429042A040319AB
:102CE000722E732EC62EB401B40A822EA335A40D03
:102CF000A50DA60DA70DA80DA90DAA0D0130B300B5
:102D00003308B407AA1F852E862E762E2A08320293
:102D1000031DA42E29083102031DA42E2808300209
:102D2000031DA42E27082F02031DA42E26082E0201
:102D3000031DA42E25082D02031DA42E24082C02F9
:102D4000031DA42E23082B02031CA72EA82EB82E89
:102D50002308AB022408AC3B2508AD3B2608AE3B5C
:102D60002708AF3B2808B03B2908B13B2A08B23BF3
:102D7000AA36A90CA80CA70CA60CA50CA40CA30C95
:102D80000130B402031DC52EC62E862E3508031948
:102D9000CA2ECB2EE92EAB09AC09AD09AE09AF099D
:102DA000B009B109B209AB0A031DE92EAC0A031D33
:102DB000E92EAD0A031DE92EAE0A031DE92EAF0A66
:102DC000031DE92EB00A031DE92EB10A031DE92EE9
:102DD000B20A20002B08A3002C08A4002D08A5008F
:102DE0002E08A6002F08A7003008A8003108A90067
:102DF0003208AA0008002000B50123308600003008
:102E00008700473FB300B31F062F072F292F20004D
:102E1000A309A409A509A609A709A809A909AA0936
:102E2000A30A031D262FA40A031D262FA50A031D8E
:102E3000262FA60A031D262FA70A031D262FA80A40
:102E4000031D262FA90A031D262FAA0A2000B5015B
:102E5000B50A2B30860000308700473F2000B300C2
:102E6000B31F332F342F582F2000AB09AC09AD0905
:102E7000AE09AF09B009B109B209AB0A031D532F5E
:102E8000AC0A031D532FAD0A031D532FAE0A031DB9
:102E9000532FAF0A031D532FB00A031D532FB10A3E
:102EA000031D532FB20A01302000B3003308B506CA
:102EB000363086000030870008302000B300003034
:102EC0001E00B30B602F23082404250426042704C6
:102ED000280429042A0403196E2F6F2FCB2FB40165
:102EE000B40A7E2FA335A40DA50DA60DA70DA80D20
:102EF000A90DAA0D0130B3003308B407AA1F812F12
:102F0000822F722FB635B70DB80DB90DBA0DBB0DA6
:102F1000BC0DBD0D2A083202031DA82F290831025D
:102F2000031DA82F28083002031DA82F27082F02F1
:102F3000031DA82F26082E02031DA82F25082D02E9
:102F4000031DA82F24082C02031DA82F23082B02E1
:102F5000031CAB2FAC2FBD2F2308AB022408AC3BC6
:102F60002508AD3B2608AE3B2708AF3B2808B03B01
:102F70002908B13B2A08B23B3614AA36A90CA80C82
:102F8000A70CA60CA50CA40CA30C0130B402031DC5
:102F9000CA2FCB2F822F35080319CF2FD02FEE2F1A
:102FA000B609B709B809B909BA09BB09BC09BD090D
:102FB000B60A031DEE2FB70A031DEE2FB80A031D34
:102FC000EE2FB90A031DEE2FBA0A031DEE2FBB0A1E
:102FD000031DEE2FBC0A031DEE2FBD0A200036088C
:102FE000A3003708A4003808A5003908A6003A084D
:102FF000A7003B08A8003C08A9003D08AA0008005B
:10300000F7341A3458341B3450341B348D34133491
:10301000C934113442341B348C341034FC341A3427
:1030200001341B3406341B340B341B3410341B3472
:1030300015341B341A341B341F341B34033410343E
:103040002D343E34203454344534533454342034F5
:1030500043344F344E3446344F3452344D34453477
:1030600020342D34203441345434543445344E34D7
:103070005434453420344134433451345534493484
:103080005434543445344D3445344E3454340D3472
:043090000A340034CA
:1035900008000130080024009614080024001615C5
:1035A00008002400961508002400110808002000D7
:1035B000911508009D318E259A31080023001D12B7
:1035C0001D160800240096161616080024009612F0
:1035D00016160800903130209A310800163021006C
:1035E00097000800F00070082400910008002300F4
:1035F000E410E3010E3008009A31CB229A310130F9
:1036000008009A31CB229B31023008009A31CB223C
:103610009B31013008009A31CE229B3100300800E6
:103620009A31E6229B31053008009A31E2229B3123
:103630000A3008009A31E2229B3109300800230049
:10364000E410E3010E3008002400160E890C890CEA
:10365000013908009B31AC239B312400161408006B
:103660009B31AC239B3124001615080064008001B7
:103670000131890B372B0034FE0012001E00FE0BB7
:103680003D2B0034230064109A31D1229B31043049
:1036900008002000A500250890315E209B3108001D
:1036A000230064145E359A31F2229B310330080006
:1036B0002300641403145E0D9A31F2229B3105300D
:1036C0000800200024082200B9002000230822005E
:1036D000B8000800200024082200BD0020002308B4
:1036E0002200BC000800200024082200BB002000AB
:1036F00023082200BA000800200024082200BF008E
:10370000200023082200BE00080020002408220018
:10371000C100200023082200C000080001309D31B4
:1037200043259B313530890B932B00000800C030B6
:10373000240094000830950096014F3092009512B5
:10374000080028302400950096019401273092004B
:1037500021008E150E16080024001419B02BB12B71
:10376000AC2B16081F39031DB62BB72BAC2B08004A
:1037700070302100990098012200960121001A1F43
:10378000C22BC32BBE2B08007608F1007508F00091
:103790007708F8007808F20000309F31AA279B31A3
:1037A00008002000A30023080319D72BD82BDB2BFC
:1037B00022000C14DD2B22000C1008002000A300B6
:1037C00023080319E42BE52BE82B22001014EA2B25
:1037D0002200101008002000A30023080319F12B79
:1037E000F22BF52B22009014F72B220090100800EA
:1037F0002000A30023080319FE2BFF2B022C22001C
:103800001015042C2200101108002000A30023082A
:1038100003190B2C0C2C0F2C22008C14112C2200C1
:103820008C1008002000A30023080319182C192C61
:103830001C2C22000C151E2C22000C11080020004C
:10384000A30023080319252C262C292C22000C1652
:103850002B2C22000C1208002000A30023080319BF
:10386000322C332C362C22008C16382C22008C1251
:1038700008002000A300230803193F2C402C432CF0
:1038800022008C15452C22008C110800F300230027
:10389000E41D4B2C4C2C552C7308F2007208DF00F1
:1038A0007108E1007008E000E41108002000A300A6
:1038B0009B31AC239C312000230824009100200080
:1038C000911D632C642C5F2C911108000230F000D4
:1038D0000030F10079089C3146249C310030F5001D
:1038E000F600F7019B31C4239C31043008000130FD
:1038F000F0000030F10079089C3146249C31003002
:10390000F500F600F7019B31C4239C31023008001A
:103910000230F0000030F10079089C3146249C31DF
:103920000030F500F600F7019B31C4239C310230D2
:1039300008000130F0000030F10079089C31462485
:103940009C310030F500F600F7019B31C4239C3117
:10395000043008009B3197239C319D31DF259C3139
:103960009B31B8239C319A31EE229C318831002062
:103970009C31923157229C3108002D343E34203442
:103980004534523452344534553452343A34203468
:103990000034003400340034003400340034003487
:1039A00000342000A4009B312A239C3122004608C9
:1039B0009C3156249C312000240822006B049C3149
:1039C00056249C319B3130239C310800AF302000BD
:1039D000E90069082100AF002E082000E500210061
:1039E0002D082000E400AF30E9006908E60000304F
:1039F000913119219C31080020003408A4003308BB
:103A0000A3009D3174259C31200023083307A700B3
:103A10002408343DA8003608AA003508A9009F31C3
:103A200032279C310800790886008701403FF0006A
:103A3000413FF1007908023E8600870101089C3170
:103A400046249D310030F500F600F7019B31C42378
:103A50009D31023008002000A60022004708200007
:103A6000A5002508A604260804389C31D1249D31E0
:103A700020002608FB399C31D1249D314230890B2E
:103A80003F2D003208002000A8002200C7012000BE
:103A90002808F0399D312B259D3120002808A700EA
:103AA0000330A735FF3E031D512D2735F0399D31D9
:103AB0002B259D3108002000A8002200C701C70A5D
:103AC00020002808F0399D312B259D312000280841
:103AD000A7000330A735FF3E031D6A2D2735F039B7
:103AE0009D312B259D31080020002408A6002308C5
:103AF000A5007E2D0130A3070030A43D23088600D9
:103B0000240887000108031D862D872D7A2D25089E
:103B10002302A3002608243BA40008002300190860
:103B2000F00020006C08E53E860001308700700838
:103B300081000130F0007008EC0708306C02031CB3
:103B4000A22DA32DA42DEC010130F0007008EA078E
:103B500008002000A400A30124080319B02DB12DF2
:103B6000B72D8F1BB42DB52DB72DA301A30A2408A3
:103B7000031DBB2DBC2DC22D8F1FBF2DC02DC22DEF
:103B8000A301A30A230808002000A400A30124081D
:103B90000319CB2DCC2DD22D0F19CF2DD02DD22DF9
:103BA000A301A30A2408031DD62DD72DDD2D0F1D3B
:103BB000DA2DDB2DDD2DA301A30A23080800220046
:103BC00090018F018C018D018E0108302100900041
:103BD0008C01EF308D00BF308E00FF308F0023004E
:103BE0008F013F308D0090013C308C00240090010B
:103BF0008D012100951722009D01080022000C175D
:103C000006302000A4001330A300AD30890B062E2F
:103C1000A30B062EA40B062E003222000C13063036
:103C20002000A4001330A300AD30890B152EA30B88
:103C3000152EA40B152E003208002000AC01AD019A
:103C4000302E29082C0784002A082D3D8500000805
:103C50009D315B259E3101302000AC070030AD3D29
:103C600029082C0784002A082D3D85001200031D19
:103C70003A2E3B2E212E08002000A6002608A50083
:103C8000A50DA50D21001D08200025068339250658
:103C900021009D001D140D30890B4C2E00002100C9
:103CA0009D149D18542E552E512E1C082000A40042
:103CB00021001B082000A300080020302100AD00D7
:103CC0009830AE009C31E6249E312100B101B20152
:103CD0009F310C279E3101302100B1070030B23DE9
:103CE0003208803AB00080303002031D792E023055
:103CF0003102031C7C2E7D2E682E08002000A400BB
:103D0000A30124080319852E862E902E0F1C892EC0
:103D10008A2E902E8F188D2E8E2E902EA301A30A00
:103D20002408031D942E952E9F2E0F18982E992E41
:103D30009F2E8F1C9C2E9D2E9F2EA301A30A23082D
:103D400008002000A400A30124080319A82EA92E0E
:103D5000B32E8F1DAC2EAD2EB32E0F1AB02EB12E5A
:103D6000B32EA301A30A2408031DB72EB82EC22E1A
:103D70008F19BB2EBC2EC22E0F1EBF2EC02EC22EE0
:103D8000A301A30A230808002000A400A30124081B
:103D90000319CB2ECC2ED62E8F1ECF2ED02ED62E64
:103DA0000F1BD32ED42ED62EA301A30A2408031D45
:103DB000DA2EDB2EE52E8F1ADE2EDF2EE52E0F1FDC
:103DC000E22EE32EE52EA301A30A23080800083003
:103DD000220049020318ED2EEE2E092F2100630860
:103DE000283E860001308700010823009A00013038
:103DF000F00070082100E30708306302031C012F64
:103E0000022F032FE3010130F00070082200C907E0
:103E10000B2F2100111208002000A801A9019F31D9
:103E2000D4279F310B302000A7002630A6005D303C
:103E3000890B182FA60B182FA70B182F0032013053
:103E40002000A8070030A93D2908803AA60080304C
:103E50002602031D2D2F02302802031C302F312F84
:103E60000F2F080020002A08B0002908AF002808FA
:103E7000B2002708B1003208AC003108AB00B10A2B
:103E80000319B20A2B0886002C0887003008AE0000
:103E90002F08AD00AF0A0319B00A2D0884002E08C0
:103EA00085000008C03F8908031D572F582F3B2F5E
:103EB00008002D343E3420344534523452344534D5
:103EC000553452343A342034003400340034003451
:103ED000003400340034003400340D340A3400342B
:103EE00000340034003400340034003400340D3425
:103EF0000A34003400340034003400340034003418
:103F000000342000B500B301B401992F3208AF008E
:103F1000B0012F08A6003008A7002E08B100310814
:103F2000A80093313B239F3101302000B3070030BC
:103F3000B43D33083507AF002F08860002308700F4
:103F40000108B0003008B2003208031DA82FA92FC5
:103F5000862F0800F400700871040319B02FB12FE8
:103F6000C42F7435C83E8600013087007008C03FFA
:103F70007108C13F7208F3007408D43E8600013016
:103F8000870073088100D32F7435C83E8600013046
:103F90008700C930C03F1A30C13F7408D43E860044
:103FA00001308700810108002000A401A501220042
:103FB0000D1606302000A3003030890BDD2FA30B37
:103FC000DD2F000022000D1206302000A30030304B
:103FD000890BE82FA30BE82F000001302000A40775
:103FE0000030A53D2508803AA30080302302031D40
:103FF000FB2F32302402031CFE2FFF2FD72F080087
:1040000041345434543445344E34543445342034DB
:10401000563441344C3449344434413454344934B2
:104020004F344E34203442344C34553445345434B7
:104030004F344F34543448340D340A34003441344E
:104040007434743465346E347434653420347634A6
:1040500061346C34693464346134743469346F3479
:104060006E3420346C3465346434203472346F34EC
:104070007534673465340D340A3400342D343E34DD
:104080002034503452344F344734523441344D3458
:104090004D344134543449344F344E342034543444
:1040A000453452344D3449344E34453445340D345E
:1040B0000A3400342D343E342034503452344F34DA
:1040C0004734523441344D344D34413454344934FE
:1040D0004F344E34203445344E34203443344F343E
:1040E0005534523453340D340A3400342D343E34B4
:1040F0002034543445345334543420344D34413412
:104100004E34553445344C34203445344E34203408
:1041100043344F345534523453340D340A3400345C
:1041200041345434543445344E34543445342034BA
:10413000563441344C344934443441345434493491
:104140004F344E3420344C344534443453340D34DD
:104150000A3400342D343E34203445344634463459
:104160004134433445344D3445344E345434203492
:1041700045344E34203443344F3455345234533460
:104180000D340A3400342D343E3420344534463462
:1041900046344134433445344D3445344E3454343C
:1041A00020345434453452344D3449344E3445343B
:1041B0000D340A3400342D343E342034463449342E
:1041C0004E342034543445345334543420344D3434
:1041D00041344E34553445344C340D340A340034B3
:1041E00050345234453453345334453452342034EB
:1041F0004F344B3420344F3455342034453452340A
:1042000052344534553452340034413454345434E7
:1042100045344E34543445342034413443345134DD
:10422000553449345434543445344D3445344E3483
:10423000543400342D343E342034413470347034DE
:10424000753479346534723420347334753472348F
:1042500020344F344B340D340A3400345434453454
:104260005334543420345234313420344F344634AF
:10427000463420342D3420345234323420344F34F8
:104280004E3400345434453453345434203452348E
:10429000323420344F344634463420342D342034E4
:1042A0005234333420344F344E3400342D343E34C1
:1042B000203454344534533454342034413443345A
:1042C0005134553449345434543445340D340A345B
:1042D000003454344534533454342034433441345A
:1042E000523454344534203444343934323435343F
:1042F000453444343434003456344534523449342B
:104300004634493445345234203450343134203426
:10431000453454342034503432340034523445342B
:10432000533455344C3454344134543420344334AD
:104330004F344E344634493452344D3445340034CD
:10434000543445345334543420344E344F344E3482
:10435000203443344F344E3446344F3452344D3489
:1043600045340034463449344E34203450345234C9
:104370004F344734523441344D344D344134543445
:1043800049344F344E340034413454345434453479
:104390004E34543445342034443445344D3441345F
:1043A00052345234413447344534003450344F345D
:1043B00053344934543449344F344E344E344534F4
:1043C000523420344334413452345434453400346C
:1043D0005434453453345434203433342034523438
:1043E00045344C3441344934533420344F3446340A
:1043F0004634003443344C34413456344934453423
:1044000052342034453443344C34413449345234EA
:1044100045343F34003450345234453453345334EB
:104420004534523420344F344B3420342F3420342C
:104430004E344F344B3400345434453453345434B4
:10444000203433342034523445344C3441344934EC
:10445000533420344F344E340034543445345334C0
:10446000543420344C3445344434203443344C34B4
:1044700041345634493445345234003443344C3496
:10448000413456344934453452342034453454345C
:10449000453449344E3454343F3400345434453474
:1044A0005334543420344C3445344434533420345D
:1044B0004334413452345434453400344534523456
:1044C00052344534553452342034563441344C340B
:1044D00049344434453445340034463449344E3448
:1044E00020344534463446344134433445344D3425
:1044F00045344E34543400345434453453345434F5
:1045000020344C3445344434203452344F34553400
:10451000473445340034543445345334543420340F
:104520004C344534443420345634453452345434B5
:1045300045340034543445345334543420344C34EA
:1045400045344434203442344C34453455344534B5
:1045500000345434453453345434203442344C34CD
:104560005534453454344F344F3454344834003483
:104570004134503450345534593445345234203455
:1045800053345534523420344F344B3400342D34AA
:104590003E342034543445345334543420344F346E
:1045A000463446340D340A340034523445345434DD
:1045B0004934523445345234203443344134523433
:1045C0005434453400344C3445344434533420346A
:1045D00041344C344C3455344D34453445345334E3
:1045E00000342D343E342034543445345334543460
:1045F00020344F344E340D340A34003454344534AE
:1046000053345434203448344F3452344C344F34BF
:10461000473445340034543445345334543420340E
:10462000533446344C3441345334483400344634E3
:1046300049344E34203444344534203454344534E1
:1046400053345434003456344F34493452342034C3
:104650004134503450344C344934003454344534AB
:104660005334543420345234313420344F344E34A3
:1046700000344534543441345034453420343134DA
:1046800030340034453454344134503445342034CB
:1046900031343234003454344534533454342034B7
:1046A000423450343234003445345434413450347C
:1046B00045342034313433340034453454344134B7
:1046C0005034453420343134343400344534543497
:1046D0004134503445342034313435340034453499
:1046E0005434413450344534203431343634003479
:1046F0004534543441345034453420343134373423
:104700000034453454344134503445342034313449
:1047100038340034543445345334543420344F3412
:104720004B3400344534543441345034453420340F
:1047300031340034543445345334543420345034F8
:104740003134003445345434413450344534203409
:1047500032340034543445345334543420345034D7
:1047600032340034453454344134503445342034E8
:1047700033340034453454344134503445342034D7
:1047800034340034453454344134503445342034C6
:1047900035340034453454344134503445342034B5
:1047A00036340034453454344134503445342034A4
:1047B0003734003445345434413450344534203493
:1047C0003834003445345434413450344534203482
:0A47D0003934003425346434003419
:020000040001F9
:08000000FF3FFF3FFF3FFF3F00
:04000E00E43FFF3F8D
:00000001FF
