:1000000080314728053008007E1480310B1F0928F5
:100010000A2845282100111E0E280F281A28200022
:10002000111E132814281A2839088A0038080A00D3
:10003000803145282100911E1E281F282A282000D3
:10004000911E232824282A2837088A0036080A0007
:10005000803145282100921D2E282F283A28200083
:10006000921D332834283A283D088A003C080A00AB
:10007000803145282100911D3E283F284528200039
:10008000911D43284428452834287E1009008031DA
:10009000492889312B218031E900FD01203084007D
:1000A0000030850026308931C0218031A0308400A5
:1000B0000030850025308931C02180317E1020003C
:1000C000803162288B31022380318B170B178931E5
:1000D000F92180314E308F31752780312000E701C2
:1000E0005D30D4009030D5009430D6009030D700E9
:1000F0006930D8009130D900D730DA009130DB0078
:100100008F312427803115302000E3004B30E2008E
:10011000BE30890B8928E20B8928E30B892800006F
:1001200020000E1C942895289B2822008C17200064
:10013000E601E60A9E28E60122008C135D302000CD
:10014000D4009030D5008230D6009030D700B8303F
:10015000D8009030D9006930DA009130DB008F315F
:100160002427803103302000E3000830E20077309C
:10017000890BB828E20BB828E30BB8288931BA21DB
:10018000803120302000D4009230D500EB30D600F2
:100190009030D700D730D8009130D900D730DA006E
:1001A0009130DB008F31242780312000E801E80AFC
:1001B00000308A312922803100308A313622803164
:1001C00001308A314322803122008C1301308A3180
:1001D0005D22803101308A316A2280310330200073
:1001E000E3000830E2007730890BF428E20BF428B2
:1001F000E30BF42801308A3150228031293020006D
:10020000E3009630E2007F30890B0429E20B0429D9
:10021000E30B042901308C3174248031003A031936
:1002200012291329262901308C3197248031003A74
:1002300003191B291C29262901308C31BA2480314D
:10024000003A031924292529262940292000E801FC
:1002500000308A315D22803100308A316A2280315B
:1002600020302000DE009230DF006830E2006208BB
:10027000E0006730E3006308E1008D31E62580315E
:1002800015302000E3004B30E200BE30890B4629D8
:10029000E20B4629E30B4629000000308A315D223B
:1002A000803100308A316A228031200068080319C9
:1002B0005A295B29B0293030D4009230D500A630BD
:1002C000D6009030D700D730D8009130D900D73041
:1002D000DA009130DB008F312427803100308A3101
:1002E0005D22803100308A316A2280310B3020005B
:1002F000E3002630E2005D30890B7C29E20B7C298B
:10030000E30B7C29003201308C3174248031003AB7
:10031000031D8B298C299F2901308C319724803132
:10032000003A031D942995299F2901308C31BA2464
:100330008031003A031D9D299E299F29B029200064
:10034000E8013030DE009230DF006830E200620801
:10035000E0006730E3006308E1008D31E62580317D
:10036000200068080319B529B629002A4030D400B6
:100370009230D5002D30D6009130D700D730D8003C
:100380009130D900D730DA009130DB008F3124274B
:10039000803101308A315D22803106302000E30057
:1003A0001330E200AD30890BD329E20BD329E30BE4
:1003B000D329003200308A315D2280312000660866
:1003C0000319E329E429002A8E31592680312000BF
:1003D000E2006208E7006708031DEF29F029002A00
:1003E000E8014030DE009230DF006830E200620851
:1003F000E0006730E3006308E1008D31E6258031DD
:10040000200068080319052A062A502A4830D4001B
:100410009230D5004B30D6009130D700D730D8007D
:100420009130D900D730DA009130DB008F312427AA
:10043000803101308A315D22803106302000E300B6
:100440001330E200AD30890B232AE20B232AE30BA1
:10045000232A003200308A315D2280312000660874
:100460000319332A342A502A8E315926803120002C
:10047000E2006208E7006708031D3F2A402A502A6D
:10048000E8014830DE009230DF006830E2006208A8
:10049000E0006730E3006308E1008D31E62580313C
:1004A000200068080319552A562AA02A5030D40083
:1004B0009230D5003C30D6009130D700D730D800EC
:1004C0009130D900D730DA009130DB008F3124270A
:1004D000803101308A315D22803106302000E30016
:1004E0001330E200AD30890B732AE20B732AE30B61
:1004F000732A003200308A315D2280312000660884
:100500000319832A842AA02A8E315926803120009B
:10051000E2006208E7006708031D8F2A902AA02ADC
:10052000E8015030DE009230DF006830E2006208FF
:10053000E0006730E3006308E1008D31E62580319B
:10054000200068080319A52AA62AF62A5830D400E4
:100550009230D500C430D6009130D700D730D800C3
:100560009130D900D730DA009130DB008F31242769
:10057000803101308A315D22803115302000E30066
:100580004B30E200BE30890BC32AE20BC32AE30BD7
:10059000C32A000000308A315D22803115302000EE
:1005A000E3004B30E200BE30890BD42AE20BD42AA0
:1005B000E30BD42A000001308C3174248031003ADE
:1005C0000319E32AE42AE52AF62A2000E801583034
:1005D000DE009230DF006830E2006208E000673041
:1005E000E3006308E1008D31E625803120006808D2
:1005F0000319FB2AFC2A552B6030D4009230D50019
:100600003530D6009030D700D730D8009130D9009F
:10061000D730DA009130DB008F3124278031013070
:100620008A315D22803115302000E3004B30E2003A
:10063000BE30890B192BE20B192BE30B192B000091
:1006400000308A315D22803115302000E3004B30CC
:10065000E200BE30890B2A2BE20B2A2BE30B2A2B5C
:10066000000000308C3174248031003A0319392B9A
:100670003A2B442B01308C3197248031003A0319F6
:10068000422B432B442B552B2000E8016030DE0029
:100690009230DF006830E2006208E0006730E3007B
:1006A0006308E1008D31E6258031200068080319D8
:1006B0005A2B5B2BB42B6830D4009230D5004930D4
:1006C000D6009030D700D730D8009130D900D7303D
:1006D000DA009130DB008F312427803101308A31FC
:1006E0005D22803115302000E3004B30E200BE3047
:1006F000890B782BE20B782BE30B782B0000003072
:100700008A315D22803115302000E3004B30E20059
:10071000BE30890B892BE20B892BE30B892B000060
:1007200000308C3197248031003A0319982B992B93
:10073000A32B01308C31BA248031003A0319A12B4C
:10074000A22BA32BB42B2000E8016830DE009230EE
:10075000DF006830E2006208E0006730E300630811
:10076000E1008D31E6258031200068080319B92B9E
:10077000BA2B262C7030D4009230D500FC30D60035
:100780009030D700C930D8009030D900D730DA0087
:100790009130DB008F312427803101308A315D2296
:1007A000803106302000E3001330E200AD30890BC9
:1007B000D72BE20BD72BE30BD72B003200308A313B
:1007C0005D2280310B302000E3002630E2005D30F6
:1007D000890BE82BE20BE82BE30BE82B00320C3003
:1007E0008C313124803120004A08E5004908E400BA
:1007F0006508803AE20081306202031D012CE0307E
:1008000064020318042C052C082C22008C171A2CC7
:1008100070302000DE009230DF006830E2006208B5
:10082000E0006730E3006308E1008D31E6258031A8
:1008300022008C1329302000E3009630E2007F3044
:10084000890B202CE20B202CE30B202C20006808C5
:1008500003192B2C2C2C982CCF30D4009130D500A0
:10086000FC30D6009030D7000D30D8009130D90040
:10087000D730DA009130DB008F312427803101300E
:100880008A315D22803106302000E3001330E2001F
:10089000AD30890B492CE20B492CE30B492C00327B
:1008A00000308A315D2280310B302000E300263099
:1008B000E2005D30890B5A2CE20B5A2CE30B5A2CC8
:1008C00000320C308C313124803120004A08E500A0
:1008D0004908E4006508803AE20081306202031DA5
:1008E000732CE1306402031C762C772C7A2C2200C6
:1008F0008C138C2CCF302000DE009130DF0068306C
:10090000E2006208E0006730E3006308E1008D3137
:10091000E625803122008C1729302000E300963034
:10092000E2007F30890B922CE20B922CE30B922C8D
:100930002000680803199D2C9E2C4D2DD830D40022
:100940009130D500A130D6009130D700D730D800F3
:100950009130D900D730DA009130DB008F31242775
:1009600080310B302000E3002630E2005D30890B3F
:10097000B72CE20BB72CE30BB72C003201308A31D5
:100980005D22803106302000E3001330E200AD30FC
:10099000890BC82CE20BC82CE30BC82C00320030AA
:1009A0008A315D2280313D302000E300E130E200F9
:1009B0003F30890BD92CE20BD92CE30BD92C003218
:1009C00001308A315D22803106302000E30013308F
:1009D000E200AD30890BEA2CE20BEA2CE30BEA2CA7
:1009E000003200308A315D22803110302000E30077
:1009F0003930E2000D30890BFB2CE20BFB2CE30BB2
:100A0000FB2C003201308C3174248031003A031900
:100A10000A2D0B2D1E2D01308C3197248031003A88
:100A20000319132D142D1E2D00308C31BA24803162
:100A3000003A03191C2D1D2D1E2D382D2000E80114
:100A400000308A315D22803100308A316A22803163
:100A5000D8302000DE009130DF006830E20062080C
:100A6000E0006730E3006308E1008D31E625803166
:100A700015302000E3004B30E200BE30890B3E2DE4
:100A8000E20B3E2DE30B3E2D000000308A315D224B
:100A9000803100308A316A228031200068080319D1
:100AA000522D532D972DEA30D4009130D5001D30B2
:100AB000D6009130D7008630D8009130D900DA3096
:100AC000DA009030DB008F312427803101308A3109
:100AD0005D22803106302000E3001330E200AD30AB
:100AE000890B702DE20B702DE30B702D003200305E
:100AF0008A315D2280318E31592680312000E2001A
:100B00006208E7006708031D862D872D972DE801F1
:100B1000EA30DE009130DF006830E2006208E00079
:100B20006730E3006308E1008D31E6258031200065
:100B3000680803199C2D9D2DFF2DF330D4009130B2
:100B4000D500E130D6009130D700D730D8009130B1
:100B5000D900D730DA009130DB008F312427803183
:100B600001308A316A22803106302000E3001330E0
:100B7000E200AD30890BBA2DE20BBA2DE30BBA2D92
:100B8000003200308A316A2280310B302000E300CD
:100B90002630E2005D30890BCB2DE20BCB2DE30B31
:100BA000CB2D003201308C3174248031003A03198E
:100BB000DA2DDB2DEE2D01308C3197248031003A77
:100BC0000319E32DE42DEE2D01308C31BA24803150
:100BD000003A0319EC2DED2DEE2DFF2D2000E8013C
:100BE000F330DE009130DF006830E2006208E000A0
:100BF0006730E3006308E1008D31E6258031200095
:100C000068080319042E052E672EFC30D40091309D
:100C1000D5009430D6009130D700D730D80091302D
:100C2000D900D730DA009130DB008F3124278031B2
:100C300001308A319122803106302000E3001330E8
:100C4000E200AD30890B222EE20B222EE30B222E86
:100C5000003200308A31912280310B302000E300D5
:100C60002630E2005D30890B332EE20B332EE30B8E
:100C7000332E003200308C3174248031003A031955
:100C8000422E432E562E00308C3197248031003A6C
:100C900003194B2E4C2E562E00308C31BA24803145
:100CA000003A0319542E552E562E672E2000E801C7
:100CB000FC30DE009130DF006830E2006208E000C6
:100CC0006730E3006308E1008D31E62580312000C4
:100CD000680803196C2E6D2ECF2E0530D40092308B
:100CE000D5002830D6009230D700D730D8009130C8
:100CF000D900D730DA009130DB008F3124278031E2
:100D000001308A317722803119302000E3005A30D7
:100D1000E200B130890B8A2EE20B8A2EE30B8A2E79
:100D2000003200308A31772280310B302000E3001E
:100D30002630E2005D30890B9B2EE20B9B2EE30BED
:100D40009B2E003201308C3174248031003A03191B
:100D5000AA2EAB2EBE2E01308C3197248031003A62
:100D60000319B32EB42EBE2E01308C31BA2480313B
:100D7000003A0319BC2EBD2EBE2ECF2E2000E80156
:100D80000530DE009230DF006830E2006208E000EB
:100D90006730E3006308E1008D31E62580312000F3
:100DA00068080319D42ED52E372F0E30D400923078
:100DB000D5003830D6009230D700D730D8009130E7
:100DC000D900D730DA009130DB008F312427803111
:100DD00001308A318422803119302000E3005A30FA
:100DE000E200B130890BF22EE20BF22EE30BF22E71
:100DF000003200308A31842280310B302000E30041
:100E00002630E2005D30890B032FE20B032FE30B4A
:100E1000032F003200308C3174248031003A0319E2
:100E2000122F132F262F00308C3197248031003A57
:100E300003191B2F1C2F262F00308C31BA24803130
:100E4000003A0319242F252F262F372F2000E801E1
:100E50000E30DE009230DF006830E2006208E00011
:100E60006730E3006308E1008D31E6258031200022
:100E7000680803193C2F3D2F6F2F1730D400923094
:100E8000D5005A30D6009130D700B930D800913013
:100E9000D900DA30DA009030DB008F31242780313E
:100EA0008B31F32380318E31592680312000E200CE
:100EB0006208E7006708031D5E2F5F2F6F2FE801B0
:100EC0001730DE009230DF006830E2006208E00098
:100ED0006730E3006308E1008D31E62580312000B2
:100EE00068080319742F752F9028AD30D400913005
:100EF000D5007930D6009030D7007830D8009130C6
:100F0000D9002030DA009030DB008F312427803187
:100F100001308A312922803100308A3150228031DB
:100F20008931BA21803167302000E2006208CA00AE
:100F300068308D310325803129302000E300963060
:100F4000E2007F30890BA22FE20BA22FE30BA22F2E
:100F500090288031472889318A218731003A031946
:100F6000B22FB32FE32FC02F893162218731FF2F9A
:100F7000893167218731FF2F893171218731FF2F17
:100F800021002F08FA007A08F9000630A03E8600FA
:100F90008701413F8A00403F0A008731FB00FC0186
:100FA0007C08003A0319D52FBC2F7B08013A03199E
:100FB000BC2F033A0319B42F013A0319B82F073A8B
:100FC0000319BC2FBC2F21003C101730A03E860017
:100FD0008701403F84008501810A0008893158213A
:100FE000873101302100B8020030B93B380839049C
:100FF000031DFB2FFC2FFE2F0630FF2F03300800B0
:101254000800083401300800240096140800240013
:10126400161508002400961508002400110808002B
:101274002000911508002000911108008B3184236F
:101284008931080023001D121D160800240096163B
:101294001616080024009612161608008D315A25D9
:1012A400893108001630210097000800F00070080A
:1012B4002400910008002100BC10BB010E3008007E
:1012C40089312E2189310130080089312E2189315B
:1012D4000230080089312E2189310130080089311A
:1012E400312189310030080089314C2189310530A0
:1012F40008008931482189310A30080089314821A0
:101304008931093008002100BC10BB010E300800EF
:101314002400160E890C890C013908008A31042234
:1013240089312400161408008A31042289312400EA
:101334001615080020004A08B1004908B00008004A
:1013440020004A08B5004908B400080020004A08F3
:10135400B3004908B200080020004A08B700490851
:10136400B600080020004A08B9004908B80008007F
:1013740020000F19BE29BF29BA2908006400800182
:101384000131890BC129003421003C1089313421F9
:1013940089310430080021003C1436358931582144
:1013A400893103300800F03021009E009B019C012C
:1013B40001309D00080021003C140314360D8931CE
:1013C400582189310530080001308B313F238931A0
:1013D4003530890BEB2900000800C030240094004C
:1013E4000830950096014F3092009512080028307D
:1013F40024009500960194012730920021008E1557
:101404000E16080024001419082A092A042A1608AA
:101414001F39031D0E2A0F2A042A080070302100E8
:10142400990098012200960121001A1F1A2A1B2AEA
:10143400162A08007608F1007508F0007708F8000D
:101444007808F20000308C31DD248A310800200055
:10145400C900490803192F2A302A332A22001014FC
:10146400352A2200101008002000C9004908031979
:101474003C2A3D2A402A22009014422A220090103D
:1014840008002000C90049080319492A4A2A4D2A9C
:10149400220010154F2A2200101108002000C90054
:1014A40049080319562A572A5A2A22000C145C2A7E
:1014B40022000C1008002000C90049080319632AFF
:1014C400642A672A22008C14692A22008C100800DE
:1014D4002000C90049080319702A712A742A2200BD
:1014E4000C15762A22000C1108002000C9004908B6
:1014F40003197D2A7E2A812A22000C16832A2200BF
:101504000C1208002000C900490803198A2A8B2AF2
:101514008E2A22008C16902A22008C1208002000A9
:10152400C90049080319972A982A9B2A22008C1576
:101534009D2A22008C110800F3002100BC1DA32A5F
:10154400A42AAD2A7308F2007208B7007108B90022
:101554007008B800BC1108002000C9008A310422B8
:101564008A3120004908240091002000911DBB2AE3
:10157400BC2AB72A911108000230F0000030F100B3
:1015840079088A319E228A310030F500F600F7018D
:101594008A311C228A31043008000130F000003006
:1015A400F10079088A319E228A310030F500F60074
:1015B400F7018A311C228A31023008000230F0001F
:1015C4000030F10079088A319E228A310030F5001A
:1015D400F600F7018A311C228A31023008000130FA
:1015E400F0000030F10079088A319E228A310030FF
:1015F400F500F600F7018A311C228A310430080014
:101604008931EF218B318B31D4238B318A311022F4
:101614008B31893154218B318931D5218B318E31F4
:1016240099268B3108002000CA00893190218B3122
:1016340020003E088A31AE228B3120004A0869041A
:101644008A31AE228B31893196218B3108002000FA
:10165400CC003F08CB004B08CC044C0804388B3139
:1016640015238B3120004C08FB398B3115238B312A
:101674004230890B3B2B003208002000CE00BF0112
:101684004E08F0398B3129238B3120004E08CD00D0
:101694000330CD35FF3E031D4B2B4D35F0398B31D7
:1016A40029238B3108002000CE00BF01BF0A4E0859
:1016B400F0398B3129238B3120004E08CD000330C3
:1016C400CD35FF3E031D622B4D35F0398B31292377
:1016D4008B310800790886008701403FF000413FC4
:1016E400F1007908023E8600870101088A319E22B2
:1016F4008B310030F500F600F7018A311C228B3162
:101704000230080023001908F00020004208BD3E02
:1017140086008701700881000130F0007008C2075C
:1017240008304202031C972B982B992BC2010130DD
:10173400F0007008C10708002000CA00C9014A0867
:101744000319A52BA62BAC2B8F1BA92BAA2BAC2BD7
:10175400C901C90A4A08031DB02BB12BB72B8F1F2F
:10176400B42BB52BB72BC901C90A490808002000BE
:10177400CA00C9014A080319C02BC12BC72B0F1972
:10178400C42BC52BC72BC901C90A4A08031DCB2B7F
:10179400CC2BD22B0F1DCF2BD02BD22BC901C90A96
:1017A40049080800220090018F018C018D018E01EF
:1017B4000830210090008C01EF308D00BF308E0086
:1017C400FF308F0023008F013F308D0090013C30AB
:1017D4008C00240090018D012100951722009D01A9
:1017E400080022000C1706302000CA001330C9007C
:1017F400AD30890BFB2BC90BFB2BCA0BFB2B003227
:1018040022000C1306302000CA001330C900AD308A
:10181400890B0A2CC90B0A2CCA0B0A2C00320800AB
:101824002000D201D301252C4F0852078400500810
:10183400533D850000088B3155238C310130200045
:10184400D2070030D33D4F08520784005008533D5F
:1018540085001200031D2F2C302C162C08002000AC
:10186400CC004C08CB00CB0DCB0D21001D08200073
:101874004B0683394B0621009D001D140D30890B46
:10188400412C000021009D149D18492C4A2C462C03
:101894001C082000CA0021001B082000C900080001
:1018A4000830200043020318582C592C712C44088A
:1018B400283E86008701010823009A000130F000C9
:1018C40070082000C40708304402031C6A2C6B2CE7
:1018D4006C2CC4010130F0007008C307732C210084
:1018E400111208002000CA00C9014A0803197B2C00
:1018F4007C2C862C0F1C7F2C802C862C8F18832C00
:10190400842C862CC901C90A4A08031D8A2C8B2CF5
:10191400952C0F188E2C8F2C952C8F1C922C932C7D
:10192400952CC901C90A490808002000CA00C90148
:101934004A0803199E2C9F2CA92C8F1DA22CA32C82
:10194400A92C0F1AA62CA72CA92CC901C90A4A082C
:10195400031DAD2CAE2CB82C8F19B12CB22CB82C85
:101964000F1EB52CB62CB82CC901C90A49080800A9
:101974002000CA00C9014A080319C12CC22CCC2C6E
:101984008F1EC52CC62CCC2C0F1BC92CCA2CCC2CBE
:10199400C901C90A4A08031DD02CD12CDB2C8F1A8B
:1019A400D42CD52CDB2C0F1FD82CD92CDB2CC90123
:1019B400C90A49080800F400700871040319E32CEB
:1019C400E42CF52C7435A03E860087017008C03FD6
:1019D4007108C13F7208F3007408AC3E86008701A9
:1019E40073088100022D7435A03E860087012C30D7
:1019F400C03F0930C13F7408AC3E860087018101B5
:101A040008002000CB004B088600870181014A08AA
:101A140086008701810100308A3129228D3100300E
:101A24008A3136228D3100308A3143228D310030A3
:101A34008A3150228D3100308A315D228D3100305F
:101A44008A316A228D3100308A3177228D3100301B
:101A54008A3184228D31080021003C100230FA00C2
:101A64007A08BB003D2D89316C218D31592D893186
:101A740071218D31592D2E08FA007A08F9000430AD
:101A8400A03E86008701413F8A00403F0A008D3115
:101A9400FB00FC017C08003A0319512D392D7B0809
:101AA400023A0319352D013A0319352D392D080051
:101AB40089313D218D3121003C1C612D622D702D19
:101AC40089318A218D31003A0319692D6A2D702DCF
:101AD4000F302000C60046082100BA0021003A0851
:101AE4002000C600C701C635C70D00304607840074
:101AF4009030473D8500013F8A00003F0A008D3148
:101B04002000C80048082100BA0008002100BC15C4
:101B1400982D89316C218D31B62D89313A218D3141
:101B24000330B62D893171218D31B62D2C08FA0080
:101B34007A08F90021088A0020080A008D31FB0088
:101B4400FC017C08003A0319A82D942D7B08013A66
:101B54000319942D033A03198B2D013A03198B2D84
:101B6400073A03198F2D942D08002000D200D22D9E
:101B74004F08BF3E8B313F238D31E52D4F08933EF7
:101B84008B313F238D31E52D4F08D33E8B313F23DD
:101B94008D31E52D4F087F3E8B313F238D31E52D6F
:101BA4005208D000D1015108003A0319DA2DCC2D86
:101BB4005008023A0319BA2D013A0319C02D073A05
:101BC4000319C62DCC2D080001308A3136228D31FF
:101BD40000308A3143228D3100308A3129228D31FF
:101BE40020005F08D5005E08D4007030D600903025
:101BF400D7002030D8009030D900D730DA009130A7
:101C0400DB008F3124278D3122000C1020000F19A6
:101C14000C2E0D2E082E0F1D102E112E0D2E003001
:101C24008A3136228D3120006008860087018101C7
:101C34006108860087018101080020004208203ED7
:101C440086008701810123001D1D292E2A2E352E91
:101C540020004208203E86008701811435088A004E
:101C640034080A008E3123009D1C392E3A2E452E4D
:101C740020004208203E86008701011533088A00AF
:101C840032080A008E3120004208203E8600870177
:101C9400010803194E2E4F2E552E31088A003008A4
:101CA4000A008E31582E8B3184238E310800200097
:101CB400CB0100308B31B9238E31003A0319632EE6
:101CC400642E6D2E00308B319E238E31003A031D1D
:101CD4006C2E6D2E5B2E01308B319E238E31003A9B
:101CE4000319752E762E782E2000CB0101308B310E
:101CF400B9238E31003A0319802E812E842E2000C0
:101D0400CB01CB0A01308B31B9238E31003A031D4C
:101D14008C2E8D2E842E01308B319E238E31003AF1
:101D2400031D952E962E842E20004B0808002100BA
:101D340091121F302000C9000E30CA008931AE2133
:101D44008E312100111252302000C9000C30CA001B
:101D54008931B4218E31083023009F0090309D00DA
:101D640024309E0040309B0003309C002A30200029
:101D7400C9000930CA008931A2218E3144302000C3
:101D8400C9000930CA008931A8218E3140302000B1
:101D9400C9000930CA0089319C218E312000C0015C
:101DA400C501C4010830CB004B08C300C201FD01CA
:101DB400C101210091160800893137218E31FA00C2
:101DC40021003708860087017A0881000130FA0073
:101DD4007A08B7070130B8020030B93B3808390433
:101DE4000319F52EF62EFB2E89314C218E31053048
:101DF400232FBC15052F893180218E31232F893162
:101E04007B218E31232F2C08FA007A08F90021084F
:101E14008A0020080A008F31FB00FC017C08003A8C
:101E24000319152F012F7B08013A0319012F033AD7
:101E34000319FD2E013A0319FD2E073A0319012F48
:101E4400012F08008931E6218F3106308B313F2381
:101E54008F3102302000DD000430DC00BA30890B01
:101E6400312FDC0B312FDD0B312F00002000CF018F
:101E7400CF0A01308D31B7258F3120005508D000AD
:101E84005408CF008C3112248F312000CF01CF0AA7
:101E940002308D31B7258F3120005708D000560805
:101EA400CF008C3112248F312000CF01CF0A0330B0
:101EB4008D31B7258F3120005908D0005808CF0044
:101EC4008C3112248F312000CF01CF0A04308D31A0
:101ED400B7258F3120005B08D0005A08CF008C3121
:101EE40012248F3108002000D1005108CF004F0880
:101EF400BE0000308B3115238F319C302000CF0081
:101F0400D730890B832FCF0B832F03308B313F23A3
:101F14008F311A302000CF00F830890B8F2FCF0B70
:101F24008F2F000003308B313F238F311A30200074
:101F3400CF00F830890B9C2FCF0B9C2F000003306F
:101F44008B313F238F311A302000CF00F830890BBA
:101F5400A92FCF0BA92F000002308B313F238F31E3
:101F64001A302000CF00F830890BB62FCF0BB62FD4
:101F7400000028308B313F238F3102302000D00005
:101F84000430CF00BA30890BC52FCF0BC52FD00B2F
:101F9400C52F00000C308B313F238F3102302000DD
:101FA400D0000430CF00BA30890BD62FCF0BD62FF8
:101FB400D00BD62F000001308B313F238F310230FC
:101FC4002000D0000430CF00BA30890BE72FCF0BAC
:101FD400E72FD00BE72F000006308B313F238F31E2
:101FE40002302000D0000430CF00BA30890BF82F23
:101FF400CF0BF82FD00BF82F000008005D34093404
:10200400DD340934CD340934AB340734DE340E34D2
:10201400C634093488340D346234093467340934DD
:102024006C34093471340934763409347B3409341A
:1020340080340934853409342E340D344134543415
:10204400543445344E3454344534203441344334C8
:102054005134553449345434543445344D3445346E
:102064004E345434003454344534533454342034CA
:102074005234313420344F344634463420342D34F1
:1020840020345234323420344F344E3400345434F7
:1020940045345334543420345234323420344F349D
:1020A4004634463420342D342034523433342034EE
:1020B4004F344E340034543445345334543420347F
:1020C4004334413452345434453420344434393460
:1020D400323435344534443434340034543445349F
:1020E4005334543420344E344F344E342034433437
:1020F4004F344E3446344F3452344D344534003426
:1021040041345434543445344E34543445342034F6
:10211400443445344D3441345234523441344734D8
:102124004534003450344F345334493454344934EE
:102134004F344E344E3445345234203443344134D5
:1021440052345434453400345434453453345434C0
:10215400203433342034523445344C3441344934FB
:10216400533420344F3446344634003452344534E6
:102174005434493452344534523420345034313494
:1021840020346534743420345034323400344334CD
:102194004C34413456344934453452342034453473
:1021A40043344C3441344934523445343F3400349C
:1021B4005034523445345334533445345234203437
:1021C4004F344B3420342F3420344E344F344B347A
:1021D40000345434453453345434203433342034A8
:1021E400523445344C3441344934533420344F341C
:1021F4004E340034543445345334543420344C3441
:1022040045344434203443344C3441345634493412
:1022140045345234003443344C3441345634493414
:1022240045345234203445345434453449344E34DE
:1022340054343F3400345434453453345434203407
:102244004C344534443453342034433441345234CC
:1022540054344534003454344534533454342034E1
:102264004C3445344434203452344F345534473498
:1022740045340034543445345334543420344C34C9
:10228400453444342034563445345234543445347B
:102294000034543445345334543420344C344534A9
:1022A4004434203442344C344534553445340034B9
:1022B4005434453453345434203442344C34553437
:1022C400453454344F344F34543448340034413456
:1022D4005034503455345934453452342034533402
:1022E4005534523420344F344B3400345234453452
:1022F4005434493452344534523420344334413410
:1023040052345434453400344C3445344434533416
:10231400203441344C344C3455344D3445344534F4
:10232400533400345434453453345434203448340E
:102334004F3452344C344F344734453400345434DD
:102344004534533454342034533446344C344134B7
:10235400533448340034463449344E3420344434FD
:1023640045342034543445345334543400345634CE
:102374004F344934523420344134503450344C3482
:1023840049340034543445345334543420345234AE
:10239400313420344F344E340034453454344134D1
:1023A40050344534203431343034003445345434DA
:1023B40041345034453420343134323400345434CC
:1023C4004534533454342034423450343234003499
:1023D4004534543441345034453420343134333466
:1023E4000034453454344134503445342034313489
:1023F4003434003445345434413450344534203476
:102404003134353400344534543441345034453453
:102414002034313436340034453454344134503467
:102424004534203431343734003445345434413461
:102434005034453420343134383400344534543441
:102444004134503445342034313400345434453428
:1024540053345434203450343134003445345434F7
:102464004134503445342034323400345434453407
:1024740053345434203450343234003445345434D6
:1024840041345034453420343334003445345434E6
:1024940041345034453420343434003445345434D5
:1024A40041345034453420343534003445345434C4
:1024B40041345034453420343634003445345434B3
:1024C40041345034453420343734003445345434A2
:1024D4004134503445342034383400344534543491
:0C24E40041345034453420343934003485
:020000040001F9
:08000000FF3FFF3FFF3FFF3F00
:04000E00E43FFF3F8D
:00000001FF
