:1000000080314A28053008007E1480310B1F0928F2
:100010000A2848282100111E0E280F281B2820001E
:10002000111E132814281B28220047088A0046089E
:100030000A00803148282100911E1F2820282C28E2
:100040002000911E242825282C28220045088A00FB
:1000500044080A00803148282100921D30283128A8
:100060003D282000921D352836283D2822004B08C7
:100070008A004A080A00803148282100911D412841
:10008000422848282000911D46284728482836281D
:100090007E10090080314C2822009B31C023803122
:1000A000EF007D30840090308500A0308600013064
:1000B000870028309C3133248031A23084009D3069
:1000C0008500403086000230870014309C31332494
:1000D0008031FD012000EA01EB01EC012100E1018A
:1000E000E201E301E401E5012030840001308500F4
:1000F0002E309C312D248031C830840001308500A1
:100100001D309C312D248031203084000230850048
:1001100020309C312D2480317E10200080319028A9
:100120009D318F2580318B170B179C31A024803196
:100130004E309631872680312400E301E201E1014F
:1001400000302000AE00A130AF005B30B000A13025
:10015000B1002E30B200A230B300FF30B400A030A6
:10016000B50094314E24803115302100DF004B3032
:10017000DE00BE30890BBA28DE0BBA28DF0BBA28A6
:10018000000020000E1CC528C628CC2822008C1791
:100190002400DD01DD0AD0282400DD0122008C13BB
:1001A00020008E18D428D528D9282400E001E00AA0
:1001B000DB282400E00100302000AE00A130AF00B9
:1001C0004930B000A130B100FF30B200A030B30020
:1001D0002E30B400A230B50094314E24803103306B
:1001E0002100DF000830DE007730890BF528DE0BB8
:1001F000F528DF0BF52863302100DE005E08B00033
:10020000613095314825803190313020803108307F
:100210002000AE00A330AF00A130B000A130B1008B
:10022000FF30B200A030B300FF30B400A030B50002
:1002300094314E2480312400E301E30A00309C31E4
:10024000DD24803100309C31EA24803101309C3142
:10025000F724803122008C1324006008031931290F
:10026000322935299E315926803101309D310425AE
:10027000803101309D311125803103302100DF00B4
:100280000830DE007730890B4329DE0B4329DF0B72
:10029000432901309C31D024803129302100DF00F6
:1002A0009630DE007F30890B5329DE0B5329DF0B9C
:1002B000532901309F31BA278031003A031961294F
:1002C0006229752901309F31DD278031003A0319F9
:1002D0006A296B297529013090310D208031003A4F
:1002E00003197329742975299F292400E30100301B
:1002F0009D310425803100309D3111258031083039
:100300002100B000A330B1006330B2000230B3006E
:100310006230B4000230B5009531FE258031613085
:100320002100B8000230B9006330BA000230BB00CF
:100330006230BC000230BD0094310224803115309F
:100340002100DF004B30DE00BE30890BA529DE0B1B
:10035000A529DF0BA529000000309D31042580313F
:1003600000309D3111258031240060080319B9291E
:10037000BA29BD299E31592680312400630803190A
:10038000C229C3292A2A18302000AE00A330AF00AA
:100390006D30B000A130B100FF30B200A030B3002A
:1003A000FF30B400A030B50094314E2480310030CD
:1003B0009D310425803100309D31112580310B3075
:1003C0002100DF002630DE005D30890BE529DE0BE1
:1003D000E529DF0BE529003201309F31BA27803152
:1003E000003A031DF429F529082A01309F31DD2741
:1003F0008031003A031DFD29FE29082A0130903181
:100400000D208031003A031D062A072A082A2A2ACD
:100410002400E30118302100B000A330B1006330A4
:10042000B2000230B3006230B4000230B500953142
:10043000FE25803161302100B8000230B900633000
:10044000BA000230BB006230BC000230BD00943103
:10045000022480312400600803192F2A302A332A0D
:100460009E3159268031240063080319382A392A1D
:10047000A02A28302000AE00A330AF00F230B00038
:10048000A130B100FF30B200A030B300FF30B400A3
:10049000A030B50094314E24803101309D310425C7
:1004A000803106302100DF001330DE00AD30890BD3
:1004B000572ADE0B572ADF0B572A003200309D31B6
:1004C0000425803124005D080319672A682AA02AC0
:1004D0001F302100AD00A030AE009D31CB25803112
:1004E000240061088831042080312100DE005E088C
:1004F0002400E2006208031D7E2A7F2AA02AE3016D
:1005000028302100B000A330B1006330B2000230C7
:10051000B3006230B4000230B5009531FE25803161
:1005200061302100B8000230B9006330BA000230F7
:10053000BB006230BC000230BD0094310224803127
:10054000240060080319A62A88317C2888317F2876
:100550002000CA003F08D3004008D4004108D5005D
:100560004208D6004308D7004408D8004508D900FF
:100570004608DA005330860000308700473FC70046
:10058000C71BC32AC52A0130C62A00302000C80074
:10059000C9014808D1004908D20051085204031982
:1005A000D22AD32AF12AD309D409D509D609D709E1
:1005B000D809D909DA09D30A031DF12AD40A031D7F
:1005C000F12AD50A031DF12AD60A031DF12AD70AFA
:1005D000031DF12AD80A031DF12AD90A031DF12AA5
:1005E000DA0A2200BD1BF52AF62AFB2AFD3021007B
:1005F000E105FF30E20522003D08803A2000C700F7
:1006000080304702031D072B013022003C020318F3
:100610000A2B0B2B112B01302000CD000030CE0017
:10062000192B22003D082000CE0022003C082000AB
:10063000CD0022003B082000D00022003A08200014
:10064000CF0051085204031D262B272B2C2B2100F1
:10065000611D2B2B2C2B312BFF302000CF07FF30BF
:10066000D03D1F302000DB000030DC002400BF0143
:10067000A22BFF302000DB07FF30DC3D0A30A30057
:10068000A401A501A601A701A801A901AA01530877
:10069000AB005408AC005508AD005608AE00570832
:1006A000AF005808B0005908B1005A08B20097319D
:1006B0001327823120002408B7002308B6009E319A
:1006C000DD26823120003608303EC7005B08203E20
:1006D00086000230870047088100FF30CD07FF30D9
:1006E000CE3DFF30CF07FF30D03D0A30A300A4013C
:1006F000A501A601A701A801A901AA015308AB0001
:100700005408AC005508AD005608AE005708AF00BD
:100710005808B0005908B1005A08B20086318C263A
:10072000823120002308D3002408D4002508D500F6
:100730002608D6002708D7002808D8002908D9009D
:100740002A08DA0020005C08803AC700803047029F
:10075000031DAC2B01305B02031CAF2BB02BDD2B38
:1007600020005308540455045604570458045904EF
:100770005A04031DBC2BBD2B392B4E08803AC700F1
:1007800080304702031DC62B01304D020318C92BD0
:10079000CA2B392B20005008803AC700803047020E
:1007A000031DD42B01304F02031CD72BD82BDD2B7C
:1007B0002100E118DC2BDD2B392B200051085204DD
:1007C000031DE32BE42BE92B2100611DE82BE92B12
:1007D000062CFF302000DB07FF30DC3D51085204BF
:1007E000031DF32BF42BF92B2B30CB000030CC0066
:1007F000FD2B2D30CB000030CC004B08C7005B0830
:10080000203E8600023087004708810020005B08F8
:10081000203EC7004708B6005008B8004F08B70090
:100820004A089531A225823120003708C0003608D9
:10083000BF00080040308600023087005830840036
:100840000130850014302100DC0016001A00DC0B9A
:10085000252CB4308600013087004E3084000130F2
:1008600085000A30DC0016001A00DC0B332C013046
:100870009C31EA24843101309C31F72484310030EA
:100880009C31DD248431210058082000AF00210074
:1008900057082000AE003730B000A130B10013304F
:1008A000B200A130B3008730B400A030B50094315D
:1008B0004E24843158302000B3000130B4002100B0
:1008C00058082000B600210057082000B5009D31CF
:1008D000E1258431200034082200ED002000330897
:1008E0002200EC006D082000B40022006C082000FB
:1008F000B3004E30B5000130B6009D31E1258431A2
:10090000200034082100AE00200033082100AD0093
:100910009D31CB25843193317123843121005B08D3
:1009200086000230870001088831042084312100CC
:10093000DC005C082200EE000B302100DD002630D8
:10094000DC005D30890BA22CDC0BA22CDD0BA22C71
:10095000003222006E080319AE2CAF2CDF2C2100D0
:10096000590886000230870081015A08860002304B
:1009700087008101E5302000AE00A230AF003C309E
:10098000B000A130B1002530B200A130B3009C30DE
:10099000B400A030B50094314E248431DB30210006
:1009A000B8000030B900D930BA000030BB00DA30EE
:1009B000BC000030BD00943102248431672DE53045
:1009C0002000AE00A230AF001030B000A330B10064
:1009D000FF30B200A030B300FF30B400A030B5004B
:1009E00094314E24843100309C31EA24843101302A
:1009F0009C31F724843100309C31DD248431013076
:100A00009D311E25843119302100DD005A30DC0073
:100A1000B130890B092DDC0B092DDD0B092D0032BE
:100A200000309D311E25843115302100DD004B3012
:100A3000DC00BE30890B1A2DDC0B1A2DDD0B1A2DB4
:100A4000000001309F31BA278431003A0319292D63
:100A50002A2D512D01309F31DD278431003A0319B1
:100A6000322D332D512D013090310D208431003A3B
:100A700003193B2D3C2D512DE5302000AE00A23056
:100A8000AF001030B000A330B100E330B200A130AD
:100A9000B3000030B400A330B50094314E2484314B
:100AA000672D210059088600023087008101E5305A
:100AB000B000A230B100D930B2000030B300DA305B
:100AC000B4000030B5009531FE258431CE2C0800ED
:100AD0002100A90020005D0886008701403FDF005B
:100AE000413FE0005F088400600885001200253A5D
:100AF000031D7B2D7C2D662E5D088600870101304D
:100B0000810741310318810A2200BA01BB0121008B
:100B1000E101E201FF302200BC00FF30BD002000F7
:100B20005D0886008701403FDF00413FE0005F082D
:100B30008400600885001200643A0319A02DA12DDD
:100B4000B22D5D0886008701403FDF00413FE00095
:100B50005F088400600885001200693A031DB12D0A
:100B6000B22D002E5D0886008701013081074131DA
:100B70000318810A5E088600870101088400850148
:100B800002308107003FDF00013FE0005F082100E5
:100B9000A000200060082100A100890D893B89097F
:100BA000A200A300A400A500A600A7002008200022
:100BB000BF00210021082000C000210022082000E1
:100BC000C100210023082000C200210024082000C9
:100BD000C300210025082000C400210026082000B1
:100BE000C500210027082000C60021002908823105
:100BF000A822853120004008DE003F08DD008B2E52
:100C00005D0886008701403FDF00413FE0005F084C
:100C100084006008850012006E3A031D102E112E0C
:100C2000312E5D08860087010130810741310318AC
:100C3000810A5E0886008701403F84008501810AA1
:100C40000008DF005F082100A8002808860087014F
:100C500022003808C03F3908C13F2000DD01DE0115
:100C60008B2E5D0886008701403FDF00413FE0009A
:100C70005F088400600885001200253A031D412E9C
:100C8000422E5D2E5D0886008701013081074131CB
:100C90000318810A2530A6000030A700210029088A
:100CA0002000DF005F08A80094319F2485310130C7
:100CB0002000DD000030DE008B2E5D0886008701FD
:100CC0000130810741310318810A2D2E5D0886000D
:100CD0008701403FDF00413FE0005F08840060087B
:100CE00085000008E100E2016108A6006208A70093
:100CF000210029082000E3006308A80094319F2404
:100D0000853120005D08860087010130810741316F
:100D10000318810A572E08002000B50123308600F1
:100D200000308700473FB300B31F972E982EBA2E8E
:100D30002000A309A409A509A609A709A809A909CA
:100D4000AA09A30A031DB72EA40A031DB72EA50ADC
:100D5000031DB72EA60A031DB72EA70A031DB72E23
:100D6000A80A031DB72EA90A031DB72EAA0A200040
:100D7000B501B50A2B30860000308700473F2000C0
:100D8000B300B31FC42EC52EE92E2000AB09AC0959
:100D9000AD09AE09AF09B009B109B209AB0A031D2B
:100DA000E42EAC0A031DE42EAD0A031DE42EAE0AA8
:100DB000031DE42EAF0A031DE42EB00A031DE42E2A
:100DC000B10A031DE42EB20A01302000B30033083B
:100DD000B506363086000030870008302000B300AA
:100DE00000301E00B30BF12E230824042504260432
:100DF0002704280429042A040319FF2E002F5C2F3E
:100E0000B401B40A0F2FA335A40DA50DA60DA70D8F
:100E1000A80DA90DAA0D0130B3003308B407AA1F0D
:100E2000122F132F032FB635B70DB80DB90DBA0D0C
:100E3000BB0DBC0DBD0D2A083202031D392F290838
:100E40003102031D392F28083002031D392F2708CE
:100E50002F02031D392F26082E02031D392F2508C6
:100E60002D02031D392F24082C02031D392F2308BE
:100E70002B02031C3C2F3D2F4E2F2308AB022408CE
:100E8000AC3B2508AD3B2608AE3B2708AF3B280806
:100E9000B03B2908B13B2A08B23B3614AA36A90C4C
:100EA000A80CA70CA60CA50CA40CA30C0130B40232
:100EB000031D5B2F5C2F132F35080319602F612F43
:100EC0007F2FB609B709B809B909BA09BB09BC0926
:100ED000BD09B60A031D7F2FB70A031D7F2FB80A6D
:100EE000031D7F2FB90A031D7F2FBA0A031D7F2F11
:100EF000BB0A031D7F2FBC0A031D7F2FBD0A2000E4
:100F00003608A3003708A4003808A5003908A60051
:100F10003A08A7003B08A8003C08A9003D08AA0021
:100F200008002100B701EC2F20000F19982F992FEE
:100F3000AE2F72302100AD00A030AE009D31CB2528
:100F400087312100B701B70A3008860031088700D1
:100F500081013208860033088700810120006A0879
:100F60000319B32FB42FEC2F92310A2287312100BD
:100F7000B4003408B600DF2FED30AD00A030AE0075
:100F80009D31CB258731210030088600310887004C
:100F90008101320886003308870081010230210078
:100FA000B5000430B400BA30890BD42FB40BD42F61
:100FB000B50BD42F00002100B701B70AEC2F36087B
:100FC000B400B5013508003A0319E72FEC2F3408B7
:100FD000343A0319BC2FEC2F210037080319F12FE5
:100FE000F22F942F08002000A30023080319F92FE3
:100FF000FA2FFD2F22008C15FF2F22008C110800E4
:1010000016302100970008002000A800A901AA01BD
:10101000280803190C280D2853284E286A0803199C
:10102000122813284E2892310A2288312000A50068
:101030002508A7003E2802302000A6000430A500A5
:10104000BA30890B2128A50B2128A60B21280000E6
:101050002000A901A90AAA01AA0A4E2802302000EC
:10106000A6000430A500BA30890B3428A50B34281B
:10107000A60B342800002000A9012B282708A50072
:10108000A6012608003A031946284E282508323AB8
:1010900003191B28013A03192E284E282A08031980
:1010A000522853280E282808031D572858287A2824
:1010B000742801309E31A7268831003A031961282F
:1010C000622866282000A901AA01AA0A01309E31DF
:1010D000C2268831003A03196E286F287428200030
:1010E000A901A90AAA01AA0A20002A080319792835
:1010F0007A285928290808009E3159268831240069
:101100006308031984288528E32830302000AE00C6
:10111000A330AF001030B000A230B100FF30B200F9
:10112000A030B300FF30B400A030B50094314E249D
:10113000883101309D310425883106302100DF00DF
:101140001330DE00AD30890BA328DE0BA328DF0BA4
:10115000A328003200309D310425883124005D0829
:101160000319B328B428E3286108883104208831A2
:101170002100DE005E082400E2006208031DC12891
:10118000C228E328E30130302100B000A330B100D1
:101190006330B2000230B3006230B4000230B500F8
:1011A0009531FE25883161302100B8000230B90048
:1011B0006330BA000230BB006230BC000230BD00B8
:1011C000943102248831240060080319E828E928B2
:1011D000EC289E3159268831240063080319F12830
:1011E000F228502938302000AE00A330AF00013083
:1011F000B000A230B100FF30B200A030B300FF3029
:10120000B400A030B50094314E24883101309D31B6
:101210000425883106302100DF001330DE00AD30B8
:10122000890B1029DE0B1029DF0B1029003200304A
:101230009D310425883124005D08031920292129C6
:10124000502961088831042088312100DE005E08C1
:101250002400E2006208031D2E292F295029E301F2
:1012600038302100B000A330B1006330B20002304A
:10127000B3006230B4000230B5009531FE258831EC
:1012800061302100B8000230B9006330BA0002308A
:10129000BB006230BC000230BD00943102248831B2
:1012A0002400600803195529562959299E315926C9
:1012B00088312400630803195E295F29C029403062
:1012C0002000AE00A330AF00A430B000A230B100C7
:1012D000FF30B200A030B300FF30B400A030B50042
:1012E00094314E24883101309D31042588312930D4
:1012F0002100DF009630DE007F30890B7D29DE0B78
:101300007D29DF0B7D2900309D3104258831153082
:101310002100DF004B30DE00BE30890B8D29DE0B53
:101320008D29DF0B8D29000001309F31BA278831CC
:10133000003A03199C299D299E29C0292400E30114
:1013400040302100B000A330B1006330B200023061
:10135000B3006230B4000230B5009531FE2588310B
:1013600061302100B8000230B9006330BA000230A9
:10137000BB006230BC000230BD00943102248831D1
:10138000240060080319C529C629C9299E31592698
:101390008831240063080319CE29CF293A2A48301E
:1013A0002000AE00A330AF00C530B000A030B100C7
:1013B000FF30B200A030B300FF30B400A030B50061
:1013C00094314E24883101309D3104258831153007
:1013D0002100DF004B30DE00BE30890BED29DE0B33
:1013E000ED29DF0BED29000000309D310425883107
:1013F00015302100DF004B30DE00BE30890BFE29A6
:10140000DE0BFE29DF0BFE29000000309F31BA27DA
:101410008831003A03190D2A0E2A182A01309F310B
:10142000DD278831003A0319162A172A182A3A2A82
:101430002400E30148302100B000A330B100633044
:10144000B2000230B3006230B4000230B500953112
:10145000FE25883161302100B8000230B9006330C8
:10146000BA000230BB006230BC000230BD009431D3
:10147000022488312400600803193F2A402A432AA5
:101480009E3159268831240063080319482A492AC5
:10149000B42A50302000AE00A330AF00D930B000E5
:1014A000A030B100FF30B200A030B300FF30B40074
:1014B000A030B50094314E24883101309D3104258F
:1014C000883115302100DF004B30DE00BE30890B43
:1014D000672ADE0B672ADF0B672A000000309D3188
:1014E0000425883115302100DF004B30DE00BE308E
:1014F000890B782ADE0B782ADF0B782A000000306F
:101500009F31DD278831003A0319872A882A922AD9
:10151000013090310D208831003A0319902A912A28
:10152000922AB42A2400E30150302100B000A330F5
:10153000B1006330B2000230B3006230B400023058
:10154000B5009531FE25883161302100B8000230A8
:10155000B9006330BA000230BB006230BC00023018
:10156000BD00943102248831240060080319B92A8F
:10157000BA2ABD2A9E3159268831240063080319EE
:10158000C22AC32A5E2B58302000AE00A330AF0021
:10159000B230B000A130B1007F30B200A130B30052
:1015A000FF30B400A030B50094314E2488310130B2
:1015B0009D310425883106302100DF001330DE0024
:1015C000AD30890BE12ADE0BE12ADF0BE12A003284
:1015D00000309D31042588310B302100DF0026309A
:1015E000DE005D30890BF22ADE0BF22ADF0BF22AD5
:1015F00000320C309F315627883120002408240007
:10160000DF00200023082400DE0060302100AD0050
:10161000A330AE0024005F082100B00024005E0863
:101620002100AF00583092317022883121002E08FD
:101630002400D50021002D082400D4005F08803A42
:101640002100DE0083305E02031D292B20302400A0
:101650005E0203182C2B2D2B302B22008C17522BC3
:1016600058302100B000A330B1006330B200023026
:10167000B3006230B4000230B5009531FE258831E8
:1016800022008C1361302100B8000230B9006330B1
:10169000BA000230BB006230BC000230BD009431A1
:1016A0000224883129302100DF009630DE007F30AF
:1016B000890B582BDE0B582BDF0B582B24006008AE
:1016C0000319632B642B672B9E3159268831240024
:1016D000630803196C2B6D2B082CAF302000AE0073
:1016E000A230AF00B230B000A130B100C330B200C0
:1016F000A130B300FF30B400A030B50094314E24C7
:10170000883101309D310425883106302100DF0009
:101710001330DE00AD30890B8B2BDE0B8B2BDF0BF8
:101720008B2B003200309D31042588310B30210095
:10173000DF002630DE005D30890B9C2BDE0B9C2BFE
:10174000DF0B9C2B00320C309F3156278831200054
:1017500024082400DF00200023082400DE0060307D
:101760002100AD00A330AE0024005F082100B000CE
:1017700024005E082100AF00583092317022883179
:1017800021002E082400D70021002D082400D600B7
:101790005F08803A2100DE0082305E02031DD32BF9
:1017A000583024005E020318D62BD72BDA2B2200E8
:1017B0008C13FC2BAF302100B000A230B10063309D
:1017C000B2000230B3006230B4000230B50095318F
:1017D000FE25883122008C1761302100B8000230CC
:1017E000B9006330BA000230BB006230BC00023086
:1017F000BD0094310224883129302100DF00963069
:10180000DE007F30890B022CDE0B022CDF0B022C5A
:101810002400600803190D2C0E2C112C9E31592622
:101820008831240063080319162C172CD72CB830E4
:101830002000AE00A230AF008130B000A230B10075
:10184000FF30B200A030B300FF30B400A030B500CC
:1018500094314E2488310B302100DF002630DE0029
:101860005D30890B312CDE0B312CDF0B312C00323B
:1018700001309D310425883106302100DF0013300E
:10188000DE00AD30890B422CDE0B422CDF0B422CEC
:10189000003200309D31042588313D302100DF00C9
:1018A000E130DE003F30890B532CDE0B532CDF0B75
:1018B000532C003201309D3104258831063021003F
:1018C000DF001330DE00AD30890B642CDE0B642C9E
:1018D000DF0B642C003200309D310425883110303C
:1018E0002100DF003930DE000D30890B752CDE0B56
:1018F000752CDF0B752C003201309F31BA278831EF
:10190000003A0319842C852C982C01309F31DD2757
:101910008831003A03198D2C8E2C982C0030903190
:101920000D208831003A0319962C972C982CC22C44
:101930002400E30100309D310425883100309D31C1
:1019400011258831B8302100B000A230B1006330D9
:10195000B2000230B3006230B4000230B5009531FD
:10196000FE25883161302100B8000230B9006330B3
:10197000BA000230BB006230BC000230BD009431BE
:101980000224883115302100DF004B30DE00BE30EC
:10199000890BC82CDE0BC82CDF0BC82C00000030D4
:1019A0009D310425883100309D3111258831240076
:1019B00060080319DC2CDD2CE02C9E31592688317F
:1019C000240063080319E52CE62C472DCA302000BB
:1019D000AE00A230AF00D330B000A130B10059301A
:1019E000B200A230B3009030B400A130B500943101
:1019F0004E24883101309D31042588310630210084
:101A0000DF001330DE00AD30890B042DDE0B042D1A
:101A1000DF0B042D003200309D3104258831583011
:101A20002100AD00A030AE009D31CB2588312400CF
:101A300061088831042088312100DE005E0824001E
:101A4000E2006208031D252D262D472DE301CA3033
:101A50002100B000A230B1006330B2000230B30008
:101A60006230B4000230B5009531FE258831613016
:101A70002100B8000230B9006330BA000230BB0068
:101A80006230BC000230BD00943102248831240051
:101A9000600803194C2D4D2D502D9E31592688314B
:101AA000240063080319552D562DCA2DD33020006C
:101AB000AE00A230AF00C130B000A230B100FF30A4
:101AC000B200A030B300FF30B400A030B5009431B4
:101AD0004E24883101309D31112588310630210096
:101AE000DF001330DE00AD30890B742DDE0B742D5A
:101AF000DF0B742D003200309D31112588310B3001
:101B00002100DF002630DE005D30890B852DDE0BE5
:101B1000852DDF0B852D003201309F31BA278831AA
:101B2000003A0319942D952DA82D01309F31DD2702
:101B30008831003A03199D2D9E2DA82D013090313A
:101B40000D208831003A0319A62DA72DA82DCA2DE6
:101B50002400E301D3302100B000A230B100633093
:101B6000B2000230B3006230B4000230B5009531EB
:101B7000FE25883161302100B8000230B9006330A1
:101B8000BA000230BB006230BC000230BD009431AC
:101B900002248831240060080319CF2DD02DD32DC5
:101BA0009E3159268831240063080319D82DD92D78
:101BB0004D2EDC302000AE00A230AF007430B000FB
:101BC000A230B100FF30B200A030B300FF30B4004B
:101BD000A030B50094314E24883101308731F3278D
:101BE000883106302100DF001330DE00AD30890B74
:101BF000F72DDE0BF72DDF0BF72D0032003087318C
:101C0000F32788310B302100DF002630DE005D3005
:101C1000890B082EDE0B082EDF0B082E0032003059
:101C20009F31BA278831003A0319172E182E2B2E10
:101C300000309F31DD278831003A0319202E212EF4
:101C40002B2E003090310D208831003A0319292EB7
:101C50002A2E2B2E4D2E2400E301DC302100B00073
:101C6000A230B1006330B2000230B3006230B40081
:101C70000230B5009531FE25883161302100B80071
:101C80000230B9006330BA000230BB006230BC00E1
:101C90000230BD0094310224883124006008031909
:101CA000522E532E562E9E31592688312400630819
:101CB00003195B2E5C2EC22EE5302000AE00A23050
:101CC000AF001030B000A330B100FF30B200A03040
:101CD000B300FF30B400A030B50094314E248831F9
:101CE00001309D311E25883119302100DF005A3026
:101CF000DE00B130890B7A2EDE0B7A2EDF0B7A2EC6
:101D0000003200309D311E2588310B302100DF006C
:101D10002630DE005D30890B8B2EDE0B8B2EDF0B29
:101D20008B2E003201309F31BA278831003A0319D7
:101D30009A2E9B2EAE2E01309F31DD278831003A3E
:101D40000319A32EA42EAE2E013090310D20883120
:101D5000003A0319AC2EAD2EAE2EC22EE530210076
:101D6000D700A230D8006330DE005E08D9006230B0
:101D7000DF005F08DA006130E0006008DB008431DA
:101D80001A248831240060080319C72EC82ECB2ED0
:101D90009E3159268831240063080319D02ED12E94
:101DA000452FEE302000AE00A230AF002030B00052
:101DB000A330B100FF30B200A030B300FF30B40058
:101DC000A030B50094314E2488310130903100208C
:101DD000883119302100DF005A30DE00B130890B24
:101DE000EF2EDE0BEF2EDF0BEF2E003200309031A6
:101DF000002088310B302100DF002630DE005D300E
:101E0000890B002FDE0B002FDF0B002F003200307C
:101E10009F31BA278831003A03190F2F102F232F33
:101E200000309F31DD278831003A0319182F192F10
:101E3000232F003090310D208831003A0319212FD3
:101E4000222F232F452F2400E301EE302100B00084
:101E5000A230B1006330B2000230B3006230B4008F
:101E60000230B5009531FE25883161302100B8007F
:101E70000230B9006330BA000230BB006230BC00EF
:101E80000230BD0094310224883124006008031917
:101E90004A2F4B2F4E2F9E3159268831240063083C
:101EA0000319532F542FAF2FF7302000AE00A2306C
:101EB000AF001F30B000A230B1009930B200A230A4
:101EC000B3009030B400A130B50094314E24883175
:101ED0009F311827883100302100AD00A030AE00BE
:101EE0009D31CB2588312400610888310420883158
:101EF0002100DE005E082400E2006208031D812F3D
:101F0000822FAF2FE301F7302100B000A230B100E3
:101F10006330B2000230B3006230B4000230B5006A
:101F20009531FE25883161302100B8000230B900BA
:101F30006330BA000230BB006230BC000230BD002A
:101F400094310224883129302100DF009630DE00F0
:101F50007F30890BA92FDE0BA92FDF0BA92F2400BF
:101F600063080319B42FB62F8031C1288D302000AB
:101F7000AE00A230AF004030B000A130B1004B3015
:101F8000B200A230B3009C30B400A030B500943150
:101F90004E24883101309C31DD24883100309C3161
:101FA000D02488319F317727883161302100B000FB
:101FB0000230B1006330B2000230B30087319127A4
:101FC000883163302100B0000230B1006230B200CD
:101FD0000230B3006130B4000230B5009231E92222
:101FE000883129302100DF009630DE007F30890BF8
:101FF000F72FDE0BF72FDF0BF72FB42F80314A2896
:102000002000A30023080319062807280A28220015
:102010008C160C2822008C1208002000A400A301BA
:1020200024080319142815281F288F1E182819287A
:102030001F280F1B1C281D281F28A301A30A2408E2
:10204000031D232824282E288F1A272828282E28E5
:102050000F1F2B282C282E28A301A30A23080800D1
:102060002000A801A9019031F82090310B30200008
:10207000A7002630A6005D30890B3C28A60B3C2823
:10208000A70B3C28003201302000A8070030A93DF2
:102090002908803AA60080302602031D512802300C
:1020A0002802031C542855283328080020002A0839
:1020B000B0002908AF002808B2002708B100320894
:1020C000AC003108AB00B10A0319B20A2B08860034
:1020D0002C0887003008AE002F08AD00AF0A0319A6
:1020E000B00A2D0884002E0885000008C03F89082A
:1020F000031D7B287C285F2808002D343E342034C3
:102100004534523452344534553452343A34203400
:10211000003400340034003400340034003400341F
:1021200000340D340A3400340034003400340034F8
:102130000034003400340D340A34003400340034E8
:10214000003400340034003400342000B500B30102
:10215000B401BD283208AF00B0012F08A600300836
:10216000A7002E08B1003108A80094319F249031B7
:1021700001302000B3070030B43D33083507AF000D
:102180002F088600023087000108B0003008B20036
:102190003208031DCC28CD28AA280800F4007008B6
:1021A00071040319D428D528E8287435C83E860060
:1021B000013087007008C03F7108C13F7208F3000A
:1021C0007408D43E86000130870073088100F72828
:1021D0007435C83E860001308700C130C03F1B30D7
:1021E000C13F7408D43E8600013087008101080099
:1021F0002000A401A50122000D1606302000A30036
:102200003030890B0129A30B0129000022000D1297
:1022100006302000A3003030890B0C29A30B0C29B9
:10222000000001302000A4070030A53D2508803AB9
:10223000A30080302302031D1F2932302402031C17
:1022400022292329FB280800230064100230FA0009
:102250007A08E30033299B31FD23913150299C31C9
:102260000224913150295608FA007A08F900043006
:10227000C83E860001308700413F8A00403F0A0087
:102280009131FB00FC017C08003A031948292F29F1
:102290007B08023A03192B29013A03192B292F290C
:1022A00008002000A40021006408031958295929B6
:1022B0005329111A5C295D29622920002408230072
:1022C0009A007B29111220002408A3007D08303ECB
:1022D000860001308700230881000130A300230815
:1022E000FD0708307D02031C762977297829FD0136
:1022F00001302100E4022100111608009B31D22395
:1023000091312300641C8529862994299C311B2442
:102310009131003A03198D298E2994290F3020001C
:10232000A00020082300E200230062082000A00093
:10233000A101A035A10D0030200784009830213D77
:102340008500013F8A00003F0A0091312000A20071
:1023500022082300E20008002300E415BC299B3179
:10236000FD239131DA299B31CF2391310330DA29D2
:102370009C3102249131DA295408FA007A08F900D4
:1023800049088A0048080A009131FB00FC017C08DA
:10239000003A0319CC29B8297B08013A0319B82956
:1023A000033A0319AF29013A0319AF29073A031970
:1023B000B329B82908002000AC00F6292908BF3E3F
:1023C0009E3128269131092A2908933E9E312826DC
:1023D0009131092A2908D33E9E3128269131092AB4
:1023E00029087F3E9E3128269131092A2C08AA000F
:1023F000AB012B08003A0319FE29F0292A08023AFA
:102400000319DE29013A0319E429073A0319EA29D5
:10241000F029080020006A0803190F2A102A0A2A46
:102420006B08203E8600013087000108A3002308C6
:102430002200CD0020006B08283E86000130870076
:102440000108A3002308A4000130A3002308EB0720
:1024500008306B02031C2D2A2E2A2F2AEB012100A3
:10246000911201302000EA02210091162000240878
:1024700008002100AA00200065082100AC0020000F
:1024800064082100AB002200B801B9015D2AAB301D
:102490002000E7006708DD006608E8006808DE0045
:1024A00021002A0885316825923120005D0822002C
:1024B000B80720005E082200B93D21002B088400E7
:1024C0002C0885001200031D662A672A472A22006D
:1024D00039082000E500220038082000E400080048
:1024E0002100B400AF302000E90069082100B300EA
:1024F00034082000E90069082100B500B601B701E1
:10250000B801B9012E082000E50021002D082000A7
:10251000E400B330E9006908E600B53092313922B1
:102520009231200065082100B200200064082100DB
:10253000B100360834072000E9006908860002303F
:102540008700810121003208AE003108AD0008008B
:1025500020006C08203E86000130870081012300A6
:102560001D1DB32AB42AC12A20006C08203E860013
:10257000013087008114220043088A0042080A00C3
:10258000923123009D1CC52AC62AD32A20006C083C
:10259000203E8600013087000115220041088A0094
:1025A00040080A00923120006C08203E860001306D
:1025B000870001080319DD2ADE2AE52A22003F08E8
:1025C0008A003E080A009231E82A9E318C26923118
:1025D0000800210034088600350887000108031D23
:1025E000F22AF32AFA2A7230AD00A030AE009D31F3
:1025F000CB25923121003008860031088700810107
:1026000032088600330887008101340886003508C7
:102610008700810100309C31DD24923100309C31F3
:10262000EA24923100309C31F724923100309C3101
:10263000D024923100309D310425923100309D31FB
:102640001125923100309D311E259231003090319C
:102650000020923108009B31CC239331FA002300F3
:102660005F08860087017A0881000130FA007A0845
:10267000DF070130E0020030E13B6008610403192C
:10268000422B432B482B9B31E12393310530702B98
:10269000E415522B9C3111249331702B9C310C2466
:1026A0009331702B5408FA007A08F90049088A001F
:1026B00048080A009331FB00FC017C08003A03192A
:1026C000622B4E2B7B08013A03194E2B033A031958
:1026D0004A2B013A03194A2B073A03194E2B4E2B6A
:1026E00008002000A801A9012000AA01AB01903137
:1026F000F82093310B302000A7002630A6005D3073
:10270000890B802BA60B802BA70B802B003201306E
:102710002000AA070030AB3D2B08803AA60080308D
:102720002602031D952B04302A02031C982B992B9B
:10273000772B0B302000A7002630A6005D30890BD8
:102740009F2BA60B9F2BA70B9F2B00320130200045
:10275000A8070030A93D2908803AA600803026024B
:10276000031DB42B04302802031CB72BB82B742B89
:10277000080021009112A8302000A3001230A4000C
:102780009C317B2493312100111298302000A3004A
:102790001F30A4009C3184249331083023009F0013
:1027A00090309D0024309E0040309B0003309C0000
:1027B000BF302000A3001B30A4009C31692493315A
:1027C000D9302000A3001B30A4009C317224933127
:1027D000D5302000A3001B30A4009C31602493312D
:1027E0002200CD01FD012100E50108302000A500F7
:1027F00025082100E4002000EC01EB01EA012100A2
:102800009116080021003808860039088700010861
:10281000BE00BF013E08B0003F08B1003A08860084
:102820003B0887000108C000C1014008B200410810
:10283000B30087319127943121003A0886003B0884
:1028400087000108BE00BF013E08B0003F08B1008C
:102850003C0886003D0887000108C000C10140080F
:10286000B2004108B3003808860039088700010823
:10287000C200C3014208B4004308B5009231E92206
:10288000943129302100BF009630BE007F30890B83
:10289000472CBE0B472CBF0B472C08009C318D24C6
:1028A000943106309E312826943102302000B70042
:1028B0000430B600BA30890B5B2CB60B5B2CB70B1F
:1028C0005B2C00002000A901A90A01309131DB2115
:1028D000943120002F08AA002E08A9009F31372725
:1028E00094312000A901A90A02309131DB219431F1
:1028F00020003108AA003008A9009F313727943101
:102900002000A901A90A03309131DB219431200074
:102910003308AA003208A9009F31372794312000DC
:10292000A901A90A04309131DB2194312000350836
:10293000AA003408A9009F313727943108002000ED
:1029400028080319A42CA52CAA2C2808031DA92C9F
:10295000AA2CAF2C26089C3140249431F02C280856
:10296000033E86008701160001040319B82CB92C18
:10297000D62C2808033E86008701403FA900413F2E
:10298000AA00280A86008701403FAB00413FAC0007
:102990002C08803AAD002A08803A2D02031DD22C63
:1029A00029082B020318D52CD62CF02C2000260841
:1029B000A900280886008701280A840085010008EC
:1029C0000107AA002A088600023087002908810032
:1029D000280A860087010130810741310318810AE6
:1029E00008009C311B249431003A0319F82CF92C6F
:1029F0002A2D062D9B31F3239431472D9B31F8234B
:102A00009431472D9C3102249431472D23005708DF
:102A1000FA007A08F9000630C83E860001308700C7
:102A2000413F8A00403F0A009531FB00FC017C08D1
:102A3000003A03191C2D022D7B08013A0319022DBF
:102A4000033A0319FA2C013A0319FE2C073A031929
:102A5000022D022D230064101730C83E860001307D
:102A60008700403F84008501810A00089B31E923EB
:102A7000943101302300E0020030E13B6008610442
:102A8000031D432D442D462D0630472D03300800ED
:102A90002100B500B4019B2D20000F19502D512DA0
:102AA000612D3E302100AD00A030AE009D31CB2520
:102AB00095312100B401B40A350886000230870040
:102AC000810120006A080319662D672D9B2D923124
:102AD0000A2295312100B1003108B3008E2D6730F4
:102AE000AD00A230AE009D31CB25953121003508D7
:102AF0008600023087008101810A02302100B20085
:102B00000430B100BA30890B832DB10B832DB20B89
:102B1000832D00002100B401B40A9B2D3308B100BD
:102B2000B2013208003A0319962D9B2D3108313A33
:102B300003196F2D9B2D210034080319A02DA12D01
:102B40004C2D08002000BE002100611CA82DA92DDD
:102B5000B22D20003E08B9003908AE003608903189
:102B6000A52095312000B81BB62DB72DBC2D3808F7
:102B7000BD003708BC00BE2DBC01BD01BA01BB01C0
:102B8000D22D20302000A6000030A7003E08B9005A
:102B90003908A80094319F24953101302000BA07EC
:102BA0000030BB3D3B08803AB9003D08803A39020D
:102BB000031DDC2D3C083A02031CDF2DE02DC12D46
:102BC00021006118E42DE52DEE2D20003E08B9000E
:102BD0003908AE0036089031A5209531200036081E
:102BE000A3000230A4009E317226953120003C08DB
:102BF0002307B6003D08243DB7000800A03086003A
:102C000001308700C130840000308500143021007D
:102C1000B60016001A00B60B092EBE308600013031
:102C20008700B7308400003085000A30B6001600F7
:102C30001A00B60B172E01309C31EA249531013071
:102C40009C31F724953100309C31DD2495310030E2
:102C50009C31D0249531210031082000AF002100A3
:102C600030082000AE003730B000A130B1009C30F9
:102C7000B200A030B300FF30B400A030B5009431F2
:102C80004E249531C1302000B3000030B400210043
:102C900031082000B600210030082000B5009D3129
:102CA000E1259531200034082100D60020003308AA
:102CB0002100D50056082000B4002100550820004E
:102CC000B300B730B5000030B6009D31E125953135
:102CD000200034082100AE00200033082100AD00A0
:102CE0009D31CB25953193317123953120000F1DF6
:102CF0007A2E7B2E762E210032088600330887003C
:102D00008101340886003508870081010800200011
:102D1000AB002B08A90029082200CC0000309D310F
:102D2000B62596319C302000A900D730890B962E0D
:102D3000A90B962E03309E31282696311A3020009A
:102D4000A900F830890BA22EA90BA22E0000033097
:102D50009E31282696311A302000A900F830890BC0
:102D6000AF2EA90BAF2E000003309E3128269631DE
:102D70001A302000A900F830890BBC2EA90BBC2EFC
:102D8000000002309E31282696311A302000A9001A
:102D9000F830890BC92EA90BC92E000028309E31AE
:102DA0002826963102302000AA000430A900BA304B
:102DB000890BD82EA90BD82EAA0BD82E00000C30C8
:102DC0009E312826963102302000AA000430A90046
:102DD000BA30890BE92EA90BE92EAA0BE92E0000C7
:102DE00001309E312826963102302000AA0004309E
:102DF000A900BA30890BFA2EA90BFA2EAA0BFA2ECB
:102E0000000006309E312826963102302000AA00AC
:102E10000430A900BA30890B0B2FA90B0B2FAA0B7A
:102E20000B2F000008002000B5012B308600003079
:102E30008700473FB300B31F1E2F1F2F412F2000D5
:102E4000AB09AC09AD09AE09AF09B009B109B209C6
:102E5000AB0A031D3E2FAC0A031D3E2FAD0A031D16
:102E60003E2FAE0A031D3E2FAF0A031D3E2FB00AB0
:102E7000031D3E2FB10A031D3E2FB20A2000B501EB
:102E8000B50A2330860000308700473F2000B3009A
:102E9000B31F4B2F4C2F6B2F2000A309A409A509AA
:102EA000A609A709A809A909AA09A30A031D6B2F46
:102EB000A40A031D6B2FA50A031D6B2FA60A031D71
:102EC0006B2FA70A031D6B2FA80A031D6B2FA90ADE
:102ED000031D6B2FAA0A20002308240425042604BE
:102EE0002704280429042A040319772F782FCB2FCD
:102EF000B401B40A872FA335A40DA50DA60DA70D07
:102F0000A80DA90DAA0D0130B3003308B407AA1FFC
:102F10008A2F8B2F7B2F2A083202031DA92F290805
:102F20003102031DA92F28083002031DA92F2708ED
:102F30002F02031DA92F26082E02031DA92F2508E5
:102F40002D02031DA92F24082C02031DA92F2308DD
:102F50002B02031CAC2FAD2FBD2F2308AB0224087E
:102F6000AC3B2508AD3B2608AE3B2708AF3B280805
:102F7000B03B2908B13B2A08B23BAA36A90CA80CE1
:102F8000A70CA60CA50CA40CA30C0130B402031DC5
:102F9000CA2FCB2F8B2F35080319CF2FD02FEE2F11
:102FA000AB09AC09AD09AE09AF09B009B109B20965
:102FB000AB0A031DEE2FAC0A031DEE2FAD0A031D55
:102FC000EE2FAE0A031DEE2FAF0A031DEE2FB00A3F
:102FD000031DEE2FB10A031DEE2FB20A20002B08AD
:102FE000A3002C08A4002D08A5002E08A6002F0879
:102FF000A7003008A8003108A9003208AA0008007C
:10300000EE341B3457341C3447341C34F13414343C
:103010002B34133439341C34AC341134F3341B34B2
:10302000F8341B34FD341B3402341C3407341C3494
:103030000C341C3411341C3416341C342434113434
:103040002D343E34203454344534533454342034F5
:1030500043344F344E3446344F3452344D34453477
:1030600020342D34203441345434543445344E34D7
:103070005434453420344134433451345534493484
:103080005434543445344D3445344E3454340D3472
:043090000A340034CA
:10377E0008000834013008002400961408002400C4
:10378E0016150800240096150800240011080800DC
:10379E002000911508002000911108009E318C2602
:1037AE009B31080023001D121D16080024009616DA
:1037BE0016160800240096121616080091317E2166
:1037CE009B310800F00070082400910008002300CF
:1037DE00E410E3010E3008009B31C3239B3101300E
:1037EE0008009B31C3239B31023008009B31C32359
:1037FE009B31013008009B31C6239C3100300800FC
:10380E009B31E1239C31053008009B31DD239C3137
:10381E000A3008009B31DD239C310930080023005B
:10382E00E410E3010E3008002400160E890C890CFA
:10383E00013908009C31AB249C3124001614080079
:10384E009C31AB249C3124001615080064008001C5
:10385E000131890B2E2C0034FE0012001E00FE0BCF
:10386E00342C0034230064109B31C9239C31043066
:10387E0008002000A5002508913151219C31080037
:10388E00230064145E359B31E9239C31033008001C
:10389E00F03021009E009B019C0101309D0008002C
:1038AE002300641403145E0D9B31E9239C31053013
:1038BE000800200024082200BF0020002308220058
:1038CE00BE000800200024082200C30020002308A8
:1038DE002200C2000800200024082200C10020009F
:1038EE0023082200C0000800200024082200C50082
:1038FE00200023082200C400080020002408220013
:10390E00C700200023082200C600080001309E31A7
:10391E0028269C313530890B922C00000800C030CF
:10392E00240094000830950096014F3092009512B5
:10393E00080028302400950096019401273092004B
:10394E0021008E150E16080024001419AF2CB02C71
:10395E00AB2C16081F39031DB52CB62CAB2C08004A
:10396E0070302100990098012200960121001A1F43
:10397E00C12CC22CBD2C08007608F1007508F00091
:10398E007708F8007808F20000309031CE209C3194
:10399E0008002000A30023080319D62CD72CDA2CFC
:1039AE0022000C14DC2C22000C1008002000A300B6
:1039BE0023080319E32CE42CE72C22001014E92C25
:1039CE002200101008002000A30023080319F02C79
:1039DE00F12CF42C22009014F62C220090100800EA
:1039EE002000A30023080319FD2CFE2C012D22001C
:1039FE001015032D2200101108002000A30023082B
:103A0E0003190A2D0B2D0E2D22008C14102D2200C1
:103A1E008C1008002000A30023080319172D182D61
:103A2E001B2D22000C151D2D22000C11080020004C
:103A3E00A30023080319242D252D282D22000C1652
:103A4E002A2D22000C120800F3002300E41D302D55
:103A5E00312D3A2D7308F2007208DF007108E10073
:103A6E007008E000E41108002000A3009C31AB2494
:103A7E009D3120002308240091002000911D482D27
:103A8E00492D442D911108000230F0000030F10054
:103A9E0079089D312B259D310030F500F600F70198
:103AAE009C31C3249D31043008000130F0000030F9
:103ABE00F10079089D312B259D310030F500F6007F
:103ACE00F7019C31C3249D31023008000230F00012
:103ADE000030F10079089D312B259D310030F50025
:103AEE00F600F7019C31C3249D31023008000130ED
:103AFE00F0000030F10079089D312B259D3100300A
:103B0E00F500F600F7019C31C3249D310430080006
:103B1E009C3196249D319E31F9269D319C31B724DE
:103B2E009D31883100209D319C314F249D31933140
:103B3E00B9239D3108002D343E342034453452349F
:103B4E0052344534553452343A342034003400342F
:103B5E0000340034003400340034003400342000CB
:103B6E00A4009C3121249D3122004C089D313B251F
:103B7E009D312000240822006F049D313B259D318C
:103B8E009C3127249D310800AF302000E9006908E0
:103B9E002100AF002E082000E50021002D08200096
:103BAE00E400AF30E9006908E600003092313922B6
:103BBE009D31080020003408A4003308A3009E3174
:103BCE0072269D31200023083307A7002408343DB8
:103BDE00A8003608AA003508A900903156209D315C
:103BEE000800790886008701403FF000413FF10050
:103BFE007908023E8600870101089D312B259D31F3
:103C0E000030F500F600F7019C31C3249D310230DF
:103C1E0008002000A600210063082000A50025084A
:103C2E00A604260804389D31B6259E3120002608AC
:103C3E00FB399D31B6259E314230890B242E003240
:103C4E0008002000A8002100E30120002808F03918
:103C5E009E3110269E3120002808A7000330A7357C
:103C6E00FF3E031D362E2735F0399E3110269E312C
:103C7E0008002000A8002100E301E30A2000280824
:103C8E00F0399E3110269E3120002808A7000330FF
:103C9E00A735FF3E031D4F2E2735F0399E311026D6
:103CAE009E3108002100B001B130AD00A030AE0051
:103CBE009D31CB259E316B2E20000F19672E682E5D
:103CCE006B2E2100B001B00A210030080319702EAE
:103CDE00712E632E080020002408A6002308A500DC
:103CEE007C2E0130A3070030A43D23088600240853
:103CFE0087000108031D842E852E782E25082302A9
:103D0E00A3002608243BA400080023001908F00095
:103D1E0020006C08283E8600013087007008810064
:103D2E000130F0007008EC0708306C02031CA02E66
:103D3E00A12EA22EEC010130F0007008EA07080057
:103D4E002000A400A30124080319AE2EAF2EB52E19
:103D5E008F1BB22EB32EB52EA301A30A2408031D6A
:103D6E00B92EBA2EC02E8F1FBD2EBE2EC02EA30171
:103D7E00A30A230808002000A400A30124080319A5
:103D8E00C92ECA2ED02E0F19CD2ECE2ED02EA30177
:103D9E00A30A2408031DD42ED52EDB2E0F1DD82EDC
:103DAE00D92EDB2EA301A30A230808002000370812
:103DBE00803AB80080303802031DE72E01303602FB
:103DCE000318EA2EEB2EF82E20003609B80037091C
:103DDE00B900B80A0319B90A3808B6003908B7008D
:103DEE00F82E0800220090018F018C018D018E01AA
:103DFE000830210090008C01EF308D00BF308E0016
:103E0E00FF308F0023008F013F308D0090013C303A
:103E1E008C00240090018D012100951722009D0138
:103E2E00080022000C1706302000A4001330A30057
:103E3E00AD30890B202FA30B202FA40B202F003287
:103E4E0022000C1306302000A4001330A300AD3066
:103E5E00890B2F2FA30B2F2FA40B2F2F003208000F
:103E6E002000AC01AD014A2F29082C0784002A0836
:103E7E002D3D850000089E3140269F3101302000E7
:103E8E00AC070030AD3D29082C0784002A082D3DD3
:103E9E0085001200031D542F552F3B2F08002000C4
:103EAE00A6002608A500A50DA50D21001D082000C1
:103EBE0025068339250621009D001D140D30890B22
:103ECE00662F000021009D149D186E2F6F2F6B2FF3
:103EDE001C082000A40021001B082000A3000800DD
:103EEE0020302100AD009830AE009D31CB259F31A2
:103EFE002100B101B201903130209F3101302100FB
:103F0E00B1070030B23D3208803AB0008030300246
:103F1E00031D932F02303102031C962F972F822FF1
:103F2E00080008302100640203189E2F9F2FB82F1F
:103F3E006508303E860001308700010823009A0094
:103F4E000130F00070082100E50708306502031CFF
:103F5E00B12FB22FB32FE5010130F0007008E40746
:103F6E00B92F111208002000A400A3012408031980
:103F7E00C12FC22FCC2F0F1CC52FC62FCC2F8F18A1
:103F8E00C92FCA2FCC2FA301A30A2408031DD02F9B
:103F9E00D12FDB2F0F18D42FD52FDB2F8F1CD82F1F
:103FAE00D92FDB2FA301A30A230808002000A400A9
:103FBE00A30124080319E42FE52FEF2F8F1DE82FFF
:103FCE00E92FEF2F0F1AEC2FED2FEF2FA301A30ADE
:103FDE002408031DF32FF42FFE2F8F19F72FF82F20
:103FEE00FE2F0F1EFB2FFC2FFE2FA301A30A23086B
:103FFE00080041345434543445344E34543445342A
:10400E002034563441344C344934443441345434DD
:10401E0049344F344E34203442344C3455344534C4
:10402E0054344F344F34543448340D340A3400343D
:10403E0041347434743465346E34743465342034DD
:10404E00763461346C346934643461347434693474
:10405E006F346E3420346C346534643420347234EE
:10406E006F347534673465340D340A3400342D34AE
:10407E003E342034543445345334543420344D3487
:10408E0041344E34553445344C34203445344E345A
:10409E00203443344F345534523453340D340A34AF
:1040AE00003441345434543445344E34543445344D
:1040BE002034563441344C3449344434413454342D
:1040CE0049344F344E3420344C3445344434533414
:1040DE000D340A3400342D343E3420344634493401
:1040EE004E342034543445345334543420344D3407
:1040FE0041344E34553445344C340D340A34003486
:10410E0050345234453453345334453452342034BD
:10411E004F344B3420344F345534203445345234DC
:10412E0052344534553452340034413454345434BA
:10413E0045344E34543445342034413443345134B0
:10414E00553449345434543445344D3445344E3456
:10415E00543400342D343E342034413470347034B1
:10416E007534793465347234203473347534723462
:10417E0020344F344B340D340A3400345434453427
:10418E005334543420345234313420344F34463482
:10419E00463420342D3420345234323420344F34CB
:1041AE004E34003454344534533454342034523461
:1041BE00323420344F344634463420342D342034B7
:1041CE005234333420344F344E3400342D343E3494
:1041DE00203454344534533454342034413443342D
:1041EE005134553449345434543445340D340A342E
:1041FE00003454344534533454342034433441342D
:10420E005234543445342034443439343234353411
:10421E0045344434343400345634453452344934FD
:10422E0046344934453452342034503431342034F9
:10423E0045345434203450343234003452344534FE
:10424E00533455344C345434413454342034433480
:10425E004F344E344634493452344D3445340034A0
:10426E00543445345334543420344E344F344E3455
:10427E00203443344F344E3446344F3452344D345C
:10428E004534003441345434543445344E3454346B
:10429E0045342034443445344D3441345234523450
:1042AE00413447344534003450344F345334493458
:1042BE00543449344F344E344E3445345234203411
:1042CE004334413452345434453400345434453438
:1042DE0053345434203433342034523445344C3433
:1042EE0041344934533420344F3446344634003448
:1042FE0043344C34413456344934453452342034EA
:10430E00453443344C3441344934523445343F34CB
:10431E0000345034523445345334533445345234CB
:10432E0020344F344B3420342F3420344E344F3419
:10433E004B340034543445345334543420343334F1
:10434E002034523445344C344134493453342034BF
:10435E004F344E34003454344534533454342034B2
:10436E004C3445344434203443344C344134563484
:10437E00493445345234003443344C344134563489
:10438E004934453452342034453454344534493458
:10439E004E3454343F34003454344534533454344E
:1043AE0020344C3445344434533420344334413473
:1043BE005234543445340034453452345234453436
:1043CE00553452342034563441344C344934443408
:1043DE004534453400345434453453345434203445
:1043EE004C3445344434203452344F3455344734ED
:1043FE0045340034543445345334543420344C341E
:10440E0045344434203456344534523454344534CF
:10441E000034543445345334543420344C344534FD
:10442E004434203442344C3445345534453400340D
:10443E005434453453345434203442344C3455348B
:10444E00453454344F344F345434483400344134AA
:10445E005034503455345934453452342034533456
:10446E005534523420344F344B3400342D343E34D2
:10447E002034543445345334543420344F34463479
:10448E0046340D340A3400345234453454344934ED
:10449E00523445345234203443344134523454343B
:1044AE00453400344C344534443453342034413490
:1044BE004C344C3455344D34453445345334003437
:1044CE002D343E3420345434453453345434203453
:1044DE004F344E340D340A3400345434453453348E
:1044EE005434203448344F3452344C344F344734DF
:1044FE004534003454344534533454342034533416
:10450E0046344C3441345334483400344634493400
:10451E004E342034443445342034543445345334EA
:10452E005434003456344F344934523420344134E8
:10453E00503450344C3449340034543445345334AC
:10454E00543420345234313420344F344E34003409
:10455E0045345434413450344534203431343034BD
:10456E0000344534543441345034453420343134DD
:10457E0032340034543445345334543420344234B9
:10458E00503432340034453454344134503445348C
:10459E0020343134333400344534543441345034BF
:1045AE0045342034313434340034453454344134B9
:1045BE005034453420343134353400344534543499
:1045CE00413450344534203431343634003445349B
:1045DE00543441345034453420343134373400347B
:1045EE004534543441345034453420343134383425
:1045FE000034543445345334543420344F344B3413
:10460E00003445345434413450344534203431343C
:10461E00003454344534533454342034503431340B
:10462E00003445345434413450344534203432341B
:10463E0000345434453453345434203450343234EA
:10464E0000344534543441345034453420343334FA
:10465E0000344534543441345034453420343434E9
:10466E0000344534543441345034453420343534D8
:10467E0000344534543441345034453420343634C7
:10468E0000344534543441345034453420343734B6
:10469E0000344534543441345034453420343834A5
:1046AE000034453454344134503445342034393494
:0846BE0000342534643400349B
:020000040001F9
:08000000FF3FFF3FFF3FFF3F00
:04000E00E43FFF3F8D
:00000001FF
