:1000000080314A28053008007E1480310B1F0928F2
:100010000A2848282100111E0E280F281B2820001E
:10002000111E132814281B28210063088A00620867
:100030000A00803148282100911E1F2820282C28E2
:100040002000911E242825282C28210061088A00E0
:1000500060080A00803148282100921D302831288C
:100060003D282000921D352836283D2821006708AC
:100070008A0066080A00803148282100911D412825
:10008000422848282000911D46284728482836281D
:100090007E10090080314C2821009131A42180314B
:1000A000EC00AB308400933085004D308600013089
:1000B0008700143092311B22803100308400883058
:1000C0008500A030860001308700283092311B2245
:1000D0008031FD012000E901EA01EB01EC01CA30A9
:1000E000840000308500223092311522803120308A
:1000F0008400013085002D30923115228031C830C6
:1001000084000130850020309231152280317E102C
:1001100020008E310E2E29302000AE009B30AF0023
:100120000930B0009A30B100EB30B2009830B30023
:10013000EB30B4009830B5008931CD2180310130E9
:100140009231E122803106302100C8001330C7000F
:10015000AD30890BA928C70BA928C80BA9280032E4
:1001600000309231E1228031220063080319B9285E
:10017000BA28E928640887317D2780312100C7002B
:1001800047082200E5006508031DC728C828E9289C
:10019000E60129302000C3009B30C4006630C50052
:1001A0000130C6006530C7000130C8008B312923FB
:1001B000803164302000CB000130CC006630CD00AF
:1001C0000130CE006530CF000130D000893181216F
:1001D0008031220066080319EE28EF284D293130BE
:1001E0002000AE009B30AF00FA30B0009930B10073
:1001F000EB30B2009830B300EB30B4009830B5006B
:100200008931CD21803101309231E12280310630B7
:100210002100C8001330C700AD30890B0D29C70B72
:100220000D29C80B0D29003200309231E1228031B6
:100230002200630803191D291E294D2964088731EE
:100240007D2780312100C70047082200E5006508AE
:10025000031D2B292C294D29E60131302000C30034
:100260009B30C4006630C5000130C6006530C70051
:100270000130C8008B312923803164302000CB004D
:100280000130CC006630CD000130CE006530CF00AB
:100290000130D000893181218031220066080319A4
:1002A00052295329B52939302000AE009B30AF00C8
:1002B0009D30B0009A30B100EB30B2009830B300FE
:1002C000EB30B4009830B5008931CD218031013058
:1002D0009231E122803115302100C8004B30C70037
:1002E000BE30890B7129C70B7129C80B7129000019
:1002F00000309231E122803115302100C8004B30AE
:10030000C700BE30890B8229C70B8229C80B8229FE
:1003100000000130953199258031003A0319912967
:1003200092299329B5292200E60139302000C30023
:100330009B30C4006630C5000130C6006530C70080
:100340000130C8008B312923803164302000CB007C
:100350000130CC006630CD000130CE006530CF00DA
:100360000130D000893181218031220066080319D3
:10037000BA29BB29262A41302000AE009B30AF00AD
:10038000B130B0009830B100EB30B2009830B3001B
:10039000EB30B4009830B5008931CD218031013087
:1003A0009231E122803115302100C8004B30C70066
:1003B000BE30890BD929C70BD929C80BD929000010
:1003C00000309231E122803115302100C8004B30DD
:1003D000C700BE30890BEA29C70BEA29C80BEA29F6
:1003E00000000030953199258031003A0319F92930
:1003F000FA29042A01309531BC258031003A0319CD
:10040000022A032A042A262A2200E601413020007B
:10041000C3009B30C4006630C5000130C6006530A3
:10042000C7000130C8008B3129238031643020009F
:10043000CB000130CC006630CD000130CE006530FD
:10044000CF000130D000893181218031220066083F
:1004500003192B2A2C2A972A49302000AE009B3002
:10046000AF00C530B0009830B100EB30B20098302A
:10047000B300EB30B4009830B5008931CD21803124
:1004800001309231E122803115302100C8004B301B
:10049000C700BE30890B4A2AC70B4A2AC80B4A2A12
:1004A000000000309231E122803115302100C80077
:1004B0004B30C700BE30890B5B2AC70B5B2AC80BC9
:1004C0005B2A000000309531BC258031003A0319C9
:1004D0006A2A6B2A752A01309531DF258031003A6E
:1004E0000319732A742A752A972A2200E6014930D3
:1004F0002000C3009B30C4006630C5000130C60038
:100500006530C7000130C8008B3129238031643049
:100510002000CB000130CC006630CD000130CE0091
:100520006530CF000130D000893181218031220037
:10053000660803199C2A9D2A1F2B51302000AE000B
:100540009B30AF008B30B0009930B1005830B20012
:100550009930B300EB30B4009830B5008931CD212B
:10056000803101309231E122803106302100C80013
:100570001330C700AD30890BBB2AC70BBB2AC80B91
:10058000BB2A003200309231E12280310B30210051
:10059000C8002630C7005D30890BCC2AC70BCC2A97
:1005A000C80BCC2A00320C30953114258031200044
:1005B00024082200E200200023082200E100620853
:1005C000803A2100C70083304702031DEA2A203009
:1005D000220061020318ED2AEE2AF12A22008C176C
:1005E000132B51302000C3009B30C4006630C5007F
:1005F0000130C6006530C7000130C8008B312923A7
:10060000803122008C1364302000CB000130CC00FC
:100610006630CD000130CE006530CF000130D00013
:1006200089318121803129302100C8009630C700EE
:100630007F30890B192BC70B192BC80B192B2200E4
:1006400066080319242B252BA72BA8302000AE0009
:100650009A30AF008B30B0009930B100BC30B2009E
:100660009930B300EB30B4009830B5008931CD211A
:10067000803101309231E122803106302100C80002
:100680001330C700AD30890B432BC70B432BC80B6E
:10069000432B003200309231E12280310B302100B7
:1006A000C8002630C7005D30890B542BC70B542B74
:1006B000C80B542B00320C309531142580312000AA
:1006C00024082200E200200023082200E100620842
:1006D000803A2100C70081304702031D722B2C3065
:1006E000220061020318752B762B792B22008C13C4
:1006F0009B2BA8302000C3009A30C4006630C50090
:100700000130C6006530C7000130C8008B31292395
:10071000803122008C1764302000CB000130CC00E7
:100720006630CD000130CE006530CF000130D00002
:1007300089318121803129302100C8009630C700DD
:100740007F30890BA12BC70BA12BC80BA12B22003B
:1007500066080319AC2BAD2B6D2CB1302000AE0018
:100760009A30AF007A30B0009A30B100EB30B2006E
:100770009830B300EB30B4009830B5008931CD210A
:1007800080310B302100C8002630C7005D30890B56
:10079000C72BC70BC72BC80BC72B003201309231B8
:1007A000E122803106302100C8001330C700AD308F
:1007B000890BD82BC70BD82BC80BD82B0032003095
:1007C0009231E12280313D302100C800E130C70084
:1007D0003F30890BE92BC70BE92BC80BE92B003203
:1007E00001309231E122803106302100C8001330FF
:1007F000C700AD30890BFA2BC70BFA2BC80BFA2BAD
:10080000003200309231E122803110302100C800E6
:100810003930C7000D30890B0B2CC70B0B2CC80BC4
:100820000B2C00320130953199258031003A0319A3
:100830001A2C1B2C2E2C01309531BC258031003A0E
:100840000319232C242C2E2C00309531DF258031E8
:10085000003A03192C2C2D2C2E2C582C2200E601AA
:1008600000309231E122803100309231EE2280312D
:10087000B1302000C3009A30C4006630C50001309A
:10088000C6006530C7000130C8008B312923803194
:1008900064302000CB000130CC006630CD00013048
:1008A000CE006530CF000130D00089318121803108
:1008B00015302100C8004B30C700BE30890B5E2CBC
:1008C000C70B5E2CC80B5E2C000000309231E12279
:1008D000803100309231EE22803122006608031907
:1008E000722C732CD42CC3302000AE009A30AF0091
:1008F000CC30B0009930B1005230B2009A30B30021
:100900006930B4009930B5008931CD218031013092
:100910009231E122803106302100C8001330C70037
:10092000AD30890B912CC70B912CC80B912C003248
:1009300000309231E122803158302000BF009830E1
:10094000C0009331862380312200640887317D27DF
:1009500080312100C70047082200E5006508031D1B
:10096000B22CB32CD42CE601C3302000C3009A3043
:10097000C4006630C5000130C6006530C7000130D4
:10098000C8008B312923803164302000CB00013036
:10099000CC006630CD000130CE006530CF00013094
:1009A000D000893181218031220066080319D92CB9
:1009B000DA2C4E2DCC302000AE009A30AF00BA3089
:1009C000B0009A30B100EB30B2009830B300EB3099
:1009D000B4009830B5008931CD2180310130923199
:1009E000EE22803106302100C8001330C700AD3040
:1009F000890BF82CC70BF82CC80BF82C00320030F0
:100A00009231EE2280310B302100C8002630C70021
:100A10005D30890B092DC70B092DC80B092D00323C
:100A20000130953199258031003A0319182D192D7F
:100A30002C2D01309531BC258031003A0319212D30
:100A4000222D2C2D01309531DF258031003A0319FC
:100A50002A2D2B2D2C2D4E2D2200E601CC302000EE
:100A6000C3009A30C4006630C5000130C60065304E
:100A7000C7000130C8008B31292380316430200049
:100A8000CB000130CC006630CD000130CE006530A7
:100A9000CF000130D00089318121803122006608E9
:100AA0000319532D542DC82DD5302000AE009A3097
:100AB000AF006D30B0009A30B100EB30B20098302A
:100AC000B300EB30B4009830B5008931CD218031CE
:100AD000013093311523803106302100C8001330D6
:100AE000C700AD30890B722DC70B722DC80B722D4C
:100AF000003200309331152380310B302100C800C3
:100B00002630C7005D30890B832DC70B832DC80BA2
:100B1000832D00320030953199258031003A031938
:100B2000922D932DA62D00309531BC258031003AB1
:100B300003199B2D9C2DA62D00309531DF2580318A
:100B4000003A0319A42DA52DA62DC82D2200E601DB
:100B5000D5302000C3009A30C4006630C500013093
:100B6000C6006530C7000130C8008B3129238031B1
:100B700064302000CB000130CC006630CD00013065
:100B8000CE006530CF000130D00089318121803125
:100B9000220066080319CD2DCE2D512E15302100CF
:100BA000C8004B30C700BE30890BD42DC70BD42DE5
:100BB000C80BD42D0000DE302000AE009A30AF000C
:100BC0000930B0009B30B100EB30B2009830B30078
:100BD000EB30B4009830B5008931CD21803101303F
:100BE0009231FB22803103302100C8000830C70059
:100BF0007730890BF92DC70BF92DC80BF92D003073
:100C00009231FB2280310B302100C8002630C70012
:100C10005D30890B092EC70B092EC80B092E003237
:100C20000130953199258031003A0319182E192E7B
:100C30002C2E01309531BC258031003A0319212E2C
:100C4000222E2C2E01309531DF258031003A0319F8
:100C50002A2E2B2E2C2E402EDE302100A0009A3082
:100C6000A1006630C7004708A2006530C8004808E8
:100C7000A3006430C9004908A4008C31D12480311C
:100C800000309231FB2280310B302100C800263029
:100C9000C7005D30890B4A2EC70B4A2EC80B4A2E5F
:100CA0000032220066080319562E572ECB2EE7304D
:100CB0002000AE009A30AF001930B0009B30B10078
:100CC000EB30B2009830B300EB30B4009830B50090
:100CD0008931CD21803101309331082380311930A1
:100CE0002100C8005A30C700B130890B752EC70BE0
:100CF000752EC80B752E00320030933108238031D9
:100D00000B302100C8002630C7005D30890B862ECD
:100D1000C70B862EC80B862E0032003095319925E0
:100D20008031003A0319952E962EA92E0030953168
:100D3000BC258031003A03199E2E9F2EA92E00302B
:100D40009531DF258031003A0319A72EA82EA92E50
:100D5000CB2E2200E601E7302000C3009A30C40009
:100D60006630C5000130C6006530C7000130C800DC
:100D70008B312923803164302000CB000130CC003E
:100D80006630CD000130CE006530CF000130D0009C
:100D9000893181218031220066080319D02ED12E9D
:100DA0002C2FF0302000AE009A30AF001830B00089
:100DB0009A30B1009230B2009A30B3006930B4007A
:100DC0009930B5008931CD2180319431D6248031DC
:100DD00000302000BF009830C0009331862380315E
:100DE0002200640887317D2780312100C700470831
:100DF0002200E5006508031DFE2EFF2E2C2FE601C4
:100E0000F0302000C3009A30C4006630C5000130C5
:100E1000C6006530C7000130C8008B3129238031FE
:100E200064302000CB000130CC006630CD000130B2
:100E3000CE006530CF000130D00089318121803172
:100E400029302100C8009630C7007F30890B262F3B
:100E5000C70B262FC80B262F220066080319312F37
:100E6000332F8E313F2E86302000AE009A30AF00F7
:100E70001930B0009930B1004430B2009A30B3005C
:100E80009C30B4009830B5008931CD2180310130DB
:100E90009231BA22803100309231AD2280319531C9
:100EA0005625803164302000C3000130C400663014
:100EB000C5000130C6008A31CB2280316630200067
:100EC000C3000130C4006530C5000130C600643085
:100ED000C7000130C80088316920803129302100E5
:100EE000C8009630C7007F30890B742FC70B742F52
:100EF000C80B742F312F80314A282000A800A90187
:100F0000AA0128080319852F862FCC2FC72F69081F
:100F100003198B2F8C2FC72F97310627873120007D
:100F2000A5002508A700B72F02302000A600043036
:100F3000A500BA30890B9A2FA50B9A2FA60B9A2FD2
:100F400000002000A901A90AAA01AA0AC72F02309D
:100F50002000A6000430A500BA30890BAD2FA50BE8
:100F6000AD2FA60BAD2F00002000A901A42F27084C
:100F7000A500A6012608003A0319BF2FC72F250890
:100F8000323A0319942F013A0319A72FC72F2A08C1
:100F90000319CB2FCC2F872F2808031DD02FD12F3B
:100FA000F32FED2F0130943181248731003A03195A
:100FB000DA2FDB2FDF2F2000A901AA01AA0A0130B6
:100FC00094319C248731003A0319E72FE82FED2F45
:100FD0002000A901A90AAA01AA0A20002A080319C7
:100FE000F22FF32FD22F2908080028302400950073
:100FF000960194012730920021008E150E160800EC
:101000002D343E3420344534523452344534553432
:1010100052343A3420340034003400340034003484
:1010200000340034003400342D343E342034453450
:10103000523452344534553452343A342034003426
:101040000034003400340034003400340034003400
:101050002000280803192D282E2833282808031DCE
:1010600032283328382826089231282288316828E7
:101070002808033E86008701160001040319412851
:1010800042285F282808033E86008701403FA900C8
:10109000413FAA00280A86008701403FAB00413F3C
:1010A000AC002C08803AAD002A08803A2D02031DBE
:1010B0005B2829082B0203185E285F286828200077
:1010C000280A860087010130810741310318810A0F
:1010D0000800200047088600480887000108031D13
:1010E000722873287A287230BF009830C00093317C
:1010F0008623883120004308860044088700810148
:101100004508860046088700810147088600480890
:101110008700810100309231BA228831003092314B
:10112000C722883100309231D42288310030923188
:10113000AD22883100309231E12288310030923185
:10114000EE22883100309231FB2288310030933119
:101150000823883108009131B0218831FA0022003B
:101160003708860087017A0881000130FA007A0882
:10117000B7070130B8020030B93B38083904031909
:10118000C228C328C8289131C52188310530F028EC
:10119000BC15D2289131F9218831F0289131F42100
:1011A0008831F0282C08FA007A08F90021088A0012
:1011B00020080A008831FB00FC017C08003A031972
:1011C000E228CE287B08013A0319CE28033A0319F6
:1011D000CA28013A0319CA28073A0319CE28CE288B
:1011E000080021009112C3302000A3001730A40092
:1011F0009231632288312100111277302000A30040
:101200001530A40092316C228831083023009F00F1
:1012100090309D0024309E0040309B0003309C00A5
:10122000A3302000A3001130A40092315122883154
:10123000BD302000A3001130A40092315A22883121
:10124000B9302000A3001130A40092314822883127
:101250002100EA012000EC01FD010830A50025086D
:101260002100EB002000EB01EA01E90121009116C9
:1012700008002000A801A9012000AA01AB019631B5
:10128000522689310B302000A7002630A6005D30A1
:10129000890B4829A60B4829A70B482900320130A1
:1012A0002000AA070030AB3D2B08803AA600803012
:1012B0002602031D5D2904302A02031C60296129CE
:1012C0003F290B302000A7002630A6005D30890B97
:1012D0006729A60B6729A70B672900320130200078
:1012E000A8070030A93D2908803AA60080302602D0
:1012F000031D7C2904302802031C7F2980293C29F6
:10130000080020004B0886004C0887000108D10027
:10131000D2015108C3005208C4004D0886004E088F
:1013200087000108D300D4015308C5005408C60043
:101330008A31CB22893120004D0886004E08870073
:101340000108D100D2015108C3005208C4004F085F
:101350008600500887000108D300D4015308C50057
:101360005408C6004B0886004C0887000108D500C9
:10137000D6015508C7005608C80088316920893150
:1013800029302000D2009630D1007F30890BC62949
:10139000D10BC629D20BC62908009231752289319A
:1013A000063094311B24893102302000B70004300C
:1013B000B600BA30890BDA29B60BDA29B70BDA296D
:1013C00000002000A901A90A013097316327893163
:1013D00020002F08AA002E08A9009431F524893195
:1013E0002000A901A90A0230973163278931200022
:1013F0003108AA003008A9009431F5248931200071
:10140000A901A90A033097316327893120003308E5
:10141000AA003208A9009431F52489312000A901DD
:10142000A90A043097316327893120003508AA00C2
:101430003408A9009431F524893108002000C8003F
:10144000C7016E2A0F19252A262A352A3E30BF00E9
:101450009830C000933186238A312000C701C70A23
:101460004808860001308700810169080319392A7C
:101470003A2A6E2A973106278A312000C400440890
:10148000C600612A6030BF009A30C00093318623C5
:101490008A31200048088600013087008101810AD6
:1014A00002302000C5000430C400BA30890B562A2F
:1014B000C40B562AC50B562A00002000C701C70AD4
:1014C0006E2A4608C400C5014508003A0319692A76
:1014D0006E2A4408313A0319422A6E2A4708031932
:1014E000722A732A222A0800923103228A31003A92
:1014F00003197B2A7C2AAD2A892A9131DB218A3182
:10150000CA2A9131E0218A31CA2A9131EA218A31ED
:10151000CA2A22002F08FA007A08F9000630203E75
:10152000860001308700413F8A00403F0A008A312F
:10153000FB00FC017C08003A03199F2A852A7B08DE
:10154000013A0319852A033A03197D2A013A03193E
:10155000812A073A0319852A852A22003C10173070
:10156000203E860001308700403F84008501810ACB
:1015700000089131D1218A3101302200B8020030B7
:10158000B93B38083904031DC62AC72AC92A0630C0
:10159000CA2A033008002000CA01232B0F19D12AC0
:1015A000D22AE62A7230BF009830C00093318623D9
:1015B0008A312000CA01CA0A43088600440887000D
:1015C00081014508860046088700810169080319E2
:1015D000EA2AEB2A232B973106278A312000C700FD
:1015E0004708C900162BD930BF009830C00093318E
:1015F00086238A3120004308860044088700810141
:101600004508860046088700810102302000C80096
:101610000430C700BA30890B0B2BC70B0B2BC80B40
:101620000B2B00002000CA01CA0A232B4908C7005F
:10163000C8014808003A03191E2B232B4708343AE7
:101640000319F32A232B4A080319272B282BCE2A08
:101650000800B4308600013087004A308400003032
:10166000850014302000C90016001A00C90B342B65
:1016700057308600013087005E30840000308500DE
:101680000A30C90016001A00C90B422B01309231F2
:10169000C7228B3101309231D4228B31003092310C
:1016A000BA228B3100309231AD228B3120004408B8
:1016B000AF004308AE001030B0009930B1009C304C
:1016C000B2009830B300EB30B4009830B5008931E7
:1016D000CD218B3120004408B1004308B0004A30CE
:1016E0009331D4238B312000C9004908E8005E30D3
:1016F000B0000030B10068089331D4238B31200052
:10170000BF000030C000933186238B3189313921ED
:101710008B3120000F1D8D2B8E2B892B45088600C9
:101720004608870081014708860048088700810134
:1017300008002000AB002B08A90029082100E800C0
:1017400000309331BF238B319C302000A900D7306B
:10175000890BA82BA90BA82B033094311B248B31A8
:101760001A302000A900F830890BB42BA90BB42B38
:101770000000033094311B248B311A302000A90063
:10178000F830890BC12BA90BC12B00000330943119
:101790001B248B311A302000A900F830890BCE2B86
:1017A000A90BCE2B0000023094311B248B311A3050
:1017B0002000A900F830890BDB2BA90BDB2B0000E4
:1017C000283094311B248B3102302000AA000430D1
:1017D000A900BA30890BEA2BA90BEA2BAA0BEA2B3A
:1017E00000000C3094311B248B3102302000AA0001
:1017F0000430A900BA30890BFB2BA90BFB2BAA0BD9
:10180000FB2B0000013094311B248B31023020006F
:10181000AA000430A900BA30890B0C2CA90B0C2C9F
:10182000AA0B0C2C0000063094311B248B310230A3
:101830002000AA000430A900BA30890B1D2CA90B86
:101840001D2CAA0B1D2C000008002000B6002E083D
:1018500086008701403FB000413FB100300884005E
:10186000310885001200253A031D372C382CAD2C89
:101870002E08860087010130810741310318810A53
:101880002100D401D501D801D901FF30D600FF30A5
:10189000D70020002E0886008701403FB000413F5E
:1018A000B100300884003108850012006E3A031D33
:1018B0005A2C5B2C7A2C2E08860087010130810778
:1018C00041310318810A2F0886008701403F8400B8
:1018D0008501810A0008B0003008B500350886008F
:1018E000870121005208C03F5308C13F2000AE01CC
:1018F000AF01D02C2E0886008701403FB000413F49
:10190000B10030088400310885001200253A031D1B
:101910008A2C8B2CA42C2E0886008701013081078D
:1019200041310318810A2530A6000030A70036088F
:10193000B0003008A800883128208C310130200008
:10194000AE000030AF00D02C2E0886008701013099
:10195000810741310318810A762C2E088600870101
:10196000403FB000413FB10030088400310885009D
:101970000008B200B3013208A6003308A7003608F9
:10198000B4003408A800883128208C3120002E08AB
:10199000860087010130810741310318810A9E2C9E
:1019A0000800A030860001308700A7308400003096
:1019B000850014302100A50016001A00A50BDC2CB0
:1019C0004D30860001308700BB3084000030850038
:1019D0000A30A50016001A00A50BEA2C013092313E
:1019E000C7228C3101309231D4228C3100309231B7
:1019F000BA228C31210021082000AF0021002008EC
:101A00002000AE001030B0009930B100EC30B200D0
:101A10009830B3008730B4009830B5008931CD21BB
:101A20008C31210021082000B10021002008200075
:101A3000B000A7309331D4238C312100A5002508B4
:101A4000C600BB302000B0000030B10021004608C5
:101A50009331D4238C312000BF000030C00093317B
:101A600086238C31893139218C312100240886006C
:101A700001308700010887317D278C312100A500C6
:101A80002508C5000B302100A6002630A5005D30DA
:101A9000890B482DA50B482DA60B482D003221009F
:101AA00045080319542D552D842D22088600013038
:101AB0008700810123088600013087008101DE3024
:101AC0002000AE009A30AF001530B0009930B10060
:101AD000FE30B2009830B3009C30B4009830B500AE
:101AE0008931CD218C31A4302000CB000030CC00D6
:101AF000A230CD000030CE00A330CF000030D000A7
:101B0000893181218C310D2EDE302000AE009A30DB
:101B1000AF000930B0009B30B100EB30B20098301C
:101B2000B300EB30B4009830B5008931CD218C3151
:101B300000309231C7228C3101309231D4228C3165
:101B400000309231BA228C3101309231FB228C313B
:101B500019302100A6005A30A500B130890BAE2DF6
:101B6000A50BAE2DA60BAE2D003200309231FB221C
:101B70008C3115302100A6004B30A500BE30890BFA
:101B8000BF2DA50BBF2DA60BBF2D00000130953139
:101B900099258C31003A0319CE2DCF2DF62D013029
:101BA0009531BC258C31003A0319D72DD82DF62D4F
:101BB00001309531DF258C31003A0319E02DE12DFC
:101BC000F62DDE302000AE009A30AF000930B000B4
:101BD0009B30B100DC30B2009930B300F930B40072
:101BE0009A30B5008931CD218C310D2E210022088B
:101BF0008600013087008101DE302000C3009A306A
:101C0000C400A230C5000030C600A330C7000030B9
:101C1000C8008B3129238C31732D08009331982310
:101C20008E318B170B178731F5278E314E308B3164
:101C300099238E312200E601E501E4019C30200069
:101C4000AE009930AF003430B0009930B100273089
:101C5000B2009A30B300EB30B4009830B50089314F
:101C6000CD218E3115302100C8004B30C700BE3069
:101C7000890B382EC70B382EC80B382E00002000D9
:101C80000E1C432E442E492E22008C17E301E30A3A
:101C90004C2E2200E3018C139C302000AE009930C2
:101CA000AF002230B0009930B100AC30B2009930B2
:101CB000B3002730B4009A30B5008931CD218E3180
:101CC00003302100C8000830C7007730890B662E2A
:101CD000C70B662EC80B662E66302100C70047086A
:101CE0002000C30064308A311E228E3196310226D4
:101CF0008E3101302000AE009B30AF007A30B00052
:101D00009930B100EB30B2009830B300EB30B40042
:101D10009830B5008931CD218E312200E601E60AE6
:101D200000309231BA228E3100309231C7228E318A
:101D300001309231D4228E3122008C130130923145
:101D4000E1228E3101309231EE228E3103302100BA
:101D5000C8000830C7007730890BAC2EC70BAC2EFB
:101D6000C80BAC2E01309231AD228E31CB30210028
:101D7000C800EC30C7008430890BBC2EC70BBC2ECA
:101D8000C80BBC2E00000130953199258E31003AE8
:101D90000319CB2ECC2EDF2E01309531BC258E3190
:101DA000003A0319D42ED52EDF2E01309531DF25D0
:101DB0008E31003A0319DD2EDE2EDF2E092F220090
:101DC000E60100309231E1228E3100309231EE2274
:101DD0008E3101302000C3009B30C4006630C50046
:101DE0000130C6006530C7000130C8008B3129239F
:101DF0008E3164302000CB000130CC006630CD0045
:101E00000130CE006530CF000130D0008931812112
:101E10008E3115302100C8004B30C700BE30890B11
:101E20000F2FC70B0F2FC80B0F2F00000030923160
:101E3000E1228E3100309231EE228E31220066088E
:101E40000319232F242F8B2F11302000AE009B303D
:101E5000AF004630B0009930B100EB30B20098309E
:101E6000B300EB30B4009830B5008931CD218E310C
:101E700000309231E1228E3100309231EE228E31EB
:101E80000B302100C8002630C7005D30890B462F7B
:101E9000C70B462FC80B462F0032013095319925CC
:101EA0008E31003A031D552F562F692F0130953181
:101EB000BC258E31003A031D5E2F5F2F692F013044
:101EC0009531DF258E31003A031D672F682F692F6A
:101ED0008B2F2200E60111302000C3009B30C4008C
:101EE0006630C5000130C6006530C7000130C8004B
:101EF0008B3129238E3164302000CB000130CC009F
:101F00006630CD000130CE006530CF000130D0000A
:101F1000893181218E31220066080319902F912F7B
:101F2000F82F21302000AE009B30AF00EB30B00026
:101F30009930B100EB30B2009830B300EB30B40010
:101F40009830B5008931CD218E3101309231E122B6
:101F50008E3106302100C8001330C700AD30890B28
:101F6000AF2FC70BAF2FC80BAF2F0032003092310D
:101F7000E1228E31220063080319BF2FC02FF82FF2
:101F80001F302000BF009830C000933186238E316F
:101F90002200640887317D278E312100C700470861
:101FA0002200E5006508031DD62FD72FF82FE60184
:101FB00021302000C3009B30C4006630C5000130D2
:101FC000C6006530C7000130C8008B3129238E312F
:101FD00064302000CB000130CC006630CD000130F1
:101FE000CE006530CF000130D000893181218E31A3
:101FF000220066080319FE2F80318B288031E928E2
:10200000D63411343F3412342F34123474340A3439
:10201000AB3408342134123434341734DB34113403
:10202000E0341134E5341134EA341134EF3411342E
:10203000F4341134F9341134FE3411347E3416344E
:102040002D343E3420345434453453345434203405
:1020500043344F344E3446344F3452344D34453487
:1020600020342D34203441345434543445344E34E7
:102070005434453420344134433451345534493494
:102080005434543445344D3445344E3454340D3482
:042090000A340034DA
:102346000800083401300800240096140800240010
:102356001615080024009615080024001108080028
:102366002000911508002000911108009431662480
:102376009131080023001D121D1608002400961630
:102386001616080024009612161608009631D8264E
:10239600913108001630210097000800F0007008FF
:1023A6002400910008002200BC10BB010E3008007A
:1023B6009131A7219131013008009131A721913146
:1023C600023008009131A721913101300800913186
:1023D600AA219131003008009131C5219131053093
:1023E60008009131C12191310A3008009131C12193
:1023F6009131093008002200BC10BB010E300800E4
:102406002400160E890C890C0139080092318822A5
:102416009231240016140800923188229231240049
:1024260016150800640080010131890B162A003454
:10243600FE0012001E00FE0B1C2A003422003C1077
:102446009131AD219231043008002000A500250805
:102456009631AB269231080022003C143635913174
:10246600D121923103300800F03021009E009B01FB
:102476009C0101309D00080022003C140314360D17
:102486009131D12192310530080020002408210025
:10249600DB00200023082100DA00080020002408C1
:1024A6002100DF00200023082100DE0008002000B4
:1024B60024082100DD00200023082100DC0008009C
:1024C600200024082100E100200023082100E0006C
:1024D6000800200024082100E30020002308210032
:1024E600E2000800013094311B2492313530890B0B
:1024F6007A2A00000800C0302400940008309500B5
:1025060096014F30920095120800240014198C2A67
:102516008D2A882A16081F39031D922A932A882A8B
:1025260008007030210099009801220096012100D0
:102536001A1F9E2A9F2A9A2A08007608F100750813
:10254600F0007708F8007808F20000309631282667
:10255600923108002000A30023080319B32AB42AE5
:10256600B72A22000C14B92A22000C1008002000F9
:10257600A30023080319C02AC12AC42A2200101462
:10258600C62A2200101008002000A3002308031901
:10259600CD2ACE2AD12A22009014D32A22009010C6
:1025A60008002000A30023080319DA2ADB2ADE2A02
:1025B60022001015E02A2200101108002000A300B6
:1025C60023080319E72AE82AEB2A22008C14ED2AAD
:1025D60022008C1008002000A30023080319F42A07
:1025E600F52AF82A22000C15FA2A22000C110800F6
:1025F6002000A30023080319012B022B052B220020
:102606000C16072B22000C1208002000A30023083A
:1026160003190E2B0F2B122B22008C16142B2200C3
:102626008C1208002000A300230803191B2B1C2B67
:102636001F2B22008C15212B22008C110800F30081
:102646002200BC1D272B282B312B7308F2007208A1
:10265600B7007108B9007008B800BC110800200066
:10266600A300923188229331200023082400910090
:102676002000911D3F2B402B3B2B9111080002306F
:10268600F0000030F10079089331222393310030B5
:10269600F500F600F7019231A022933104300800CC
:1026A6000130F0000030F100790893312223933194
:1026B6000030F500F600F7019231A0229331023086
:1026C60008000230F0000030F1007908933122232F
:1026D60093310030F500F600F7019231A0229331D4
:1026E600023008000130F0000030F1007908933123
:1026F600222393310030F500F600F7019231A02233
:1027060093310430080041302000C1004108C20066
:102716004008B8003F08B7004230C1004108B90080
:102726000030973192279331080092317E229331FF
:102736009431B72493319231942293319131CD2142
:1027460093319231372293318831F1209331080049
:102756000D340A34003400340034003400340034BC
:10276600003400340D340A340034003400340034AC
:1027760000340034003400342000A40092310922D1
:1027860093312100680893313223933120002408C5
:1027960021006C0493313223933192310F2293310D
:1027A60008002000B4003108A9003008A800340849
:1027B60094314C24933120002308B2002408B3003E
:1027C6003408320795313525933120003408080046
:1027D600790886008701403FF000413FF100790803
:1027E600023E86008701010893312223933100308F
:1027F600F500F600F7019231A0229331023008006D
:102806002000A600210069082000A5002508A604CE
:10281600260804389331BF23943120002608FB395B
:102826009331BF2394314230890B172C00320800B4
:102836002000A8002100E90120002808F039943181
:102846000324943120002808A7000330A735FF3E53
:10285600031D292C2735F0399431032494310800BF
:102866002000A8002100E901E90A20002808F03923
:1028760094310324943120002808A7000330A7359B
:10288600FF3E031D422C2735F03994310324943141
:1028960008002000A7002708A5002508A600572C39
:1028A6000130A5002508A70727088600870101082B
:1028B600031D5E2C5F2C532C26082702A300A401BF
:1028C600A31BA403080023001908F00020006B08CE
:1028D6003D3E860001308700700881000130F0001F
:1028E6007008EB0708306B02031C7A2C7B2C7C2CBF
:1028F600EB010130F0007008E90708002000A40091
:10290600A30124080319882C892C8F2C8F1B8C2C4F
:102916008D2C8F2CA301A30A2408031D932C942C21
:102926009A2C8F1F972C982C9A2CA301A30A230864
:1029360008002000A400A30124080319A32CA42C3A
:10294600AA2C0F19A72CA82CAA2CA301A30A240889
:10295600031DAE2CAF2CB52C0F1DB22CB32CB52CF1
:10296600A301A30A23080800220090018F018C010D
:102976008D018E010830210090008C01EF308D0012
:10298600BF308E00FF308F0023008F013F308D0057
:1029960090013C308C00240090018D012100951798
:1029A60022009D01080022000C1706302000A4001A
:1029B6001330A300AD30890BDE2CA30BDE2CA40B49
:1029C600DE2C003222000C1306302000A400133047
:1029D600A300AD30890BED2CA30BED2CA40BED2C35
:1029E600003208002000AC01AD01082D29082C0793
:1029F60084002A082D3D8500000894313324943143
:102A060001302000AC070030AD3D29082C078400BA
:102A16002A082D3D85001200031D122D132DF92CB9
:102A260008002000A6002608A500A50DA50D21007A
:102A36001D08200025068339250621009D001D144A
:102A46000D30890B242D000021009D149D182C2D7E
:102A56002D2D292D1C082000A40021001B08200074
:102A6600A30008002000AF002908AD002808AC002C
:102A76002F08AA002A08AE002E0886008701AE0A93
:102A86002D08AB002C08AA00AC0A0319AD0A2A08C7
:102A960084002B0885000008C03F8908031D542DBB
:102AA600552D3F2D080020302000BF009030C0007B
:102AB6009331862395312000C401C5019631022643
:102AC600953101302000C4070030C53D4508803AE5
:102AD600C30080304302031D722D02304402031CE2
:102AE600752D762D612D0800083021006B02031824
:102AF6007D2D7E2D972D7D08453E86000130870071
:102B0600010823009A000130F0007008FD07083024
:102B16007D02031C8F2D902D912DFD010130F000BB
:102B260070082100EB07982D111208002000A40060
:102B3600A30124080319A02DA12DAB2D0F1CA42D34
:102B4600A52DAB2D8F18A82DA92DAB2DA301A30A5A
:102B56002408031DAF2DB02DBA2D0F18B32DB42D9B
:102B6600BA2D8F1CB72DB82DBA2DA301A30A2308A1
:102B760008002000A400A30124080319C32DC42DB6
:102B8600CE2D8F1DC72DC82DCE2D0F1ACB2DCC2D9A
:102B9600CE2DA301A30A2408031DD22DD32DDD2D8E
:102BA6008F19D62DD72DDD2D0F1EDA2DDB2DDD2D20
:102BB600A301A30A230808002000A400A3012408F7
:102BC6000319E62DE72DF12D8F1EEA2DEB2DF12DA4
:102BD6000F1BEE2DEF2DF12DA301A30A2408031DD3
:102BE600F52DF62D002E8F1AF92DFA2D002E0F1F1A
:102BF600FD2DFE2D002EA301A30A230808002000A8
:102C0600A801A9019631522696310B302000A70063
:102C16002630A6005D30890B0E2EA60B0E2EA70BB6
:102C26000E2E003201302000A8070030A93D2908E9
:102C3600803AA60080302602031D232E0230280289
:102C4600031C262E272E052E0800F400700871049A
:102C560003192E2E2F2E422E7435203E860001306B
:102C660087007008C03F7108C13F7208F3007408FE
:102C76002C3E86000130870073088100512E743582
:102C8600203E860001308700A530C03F1130C13F8D
:102C960074082C3E86000130870081010800200060
:102CA600A401A50122000D1606302000A300303035
:102CB600890B5B2EA30B5B2E000022000D12063043
:102CC6002000A3003030890B662EA30B662E000071
:102CD60001302000A4070030A53D2508803AA30056
:102CE60080302302031D792E32302402031C7C2EF1
:102CF6007D2E552E080022003C100230FA007A087C
:102D0600BB008D2E9131E5219631AA2E9131EA2113
:102D16009631AA2E2E08FA007A08F9000430203ED1
:102D2600860001308700413F8A00403F0A00963105
:102D3600FB00FC017C08003A0319A22E892E7B08B1
:102D4600023A0319852E013A0319852E892E0800A9
:102D56002000A40021006B080319B22EB32EAD2E5D
:102D6600111AB62EB72EBC2E2000240823009A0076
:102D7600D52E111220002408A3006C08453E8600BB
:102D860001308700230881000130A3002308EC07E7
:102D960008306C02031CD02ED12ED22EEC0101304D
:102DA6002100EB022100111608009131B62196315F
:102DB60022003C1CDF2EE02EEE2E923103229631AD
:102DC600003A0319E72EE82EEE2E0F302000A00061
:102DD60020082200BA0022003A082000A000A10123
:102DE600A035A10D0030200784009030213D8500DC
:102DF600013F8A00003F0A0096312000A200220807
:102E06002200BA0008002000690803190B2F0C2FB6
:102E1600062F6A08CA3E860087010108A300230818
:102E26002100EA0020006A083D3E86000130870046
:102E36000108A3002308A4000130A3002308EA0721
:102E460008306A02031C282F292F2A2FEA012100A5
:102E5600911201302000E902210091162000240879
:102E660008002200BC15442F9131E5219731622FCD
:102E76009131B32197310330622F9131EA21973195
:102E8600622F2C08FA007A08F90021088A00200827
:102E96000A009731FB00FC017C08003A0319542F05
:102EA600402F7B08013A0319402F033A0319372FA5
:102EB600013A0319372F073A03193B2F402F080011
:102EC6002000AC007E2F2908BF3E94311B24973189
:102ED600912F2908933E94311B249731912F29086D
:102EE600D33E94311B249731912F29087F3E94318C
:102EF6001B249731912F2C08AA00AB012B08003A0E
:102F06000319862F782F2A08023A0319662F013AE9
:102F160003196C2F073A0319722F782F0800200027
:102F2600BC003808BE003708BD002100D201D3011D
:102F3600B02F3D30BA003A08AE003908BB003B0856
:102F4600AF003C088C312524973120002E08210043
:102F5600D20720002F082100D33D20003D08840021
:102F66003E0885001200031DB92FBA2F9C2F2100A1
:102F760053082000B800210052082000B7000800BE
:102F860020006B08CA3E86008701810123001D1DB3
:102F9600CD2FCE2FDA2F20006B08CA3E8600870180
:102FA600811421005F088A005E080A009731230019
:102FB6009D1CDE2FDF2FEB2F20006B08CA3E8600FC
:102FC6008701011521005D088A005C080A00973117
:102FD60020006B08CA3E8600870101080319F42FFA
:102FE600F52FFC2F21005B088A005A080A0097314A
:102FF600FF2F9431662497310800413454345434F9
:1030060045344E34543445342034563441344C34EB
:10301600493444344134543449344F344E342034E2
:1030260042344C345534453454344F344F3454348C
:1030360048340D340A3400344134743474346534FD
:103046006E34743465342034763461346C346934C7
:1030560064346134743469346F346E3420346C34BF
:1030660065346434203472346F34753467346534AF
:103076000D340A3400342D343E342034543445346F
:103086005334543420344D3441344E34553445345D
:103096004C34203445344E34203443344F34553484
:1030A600523453340D340A340034413454345434D5
:1030B60045344E34543445342034563441344C343B
:1030C600493444344134543449344F344E34203432
:1030D6004C344534443453340D340A3400342D34DE
:1030E6003E342034463449344E3420345434453446
:1030F6005334543420344D3441344E3455344534ED
:103106004C340D340A34003450345234453453347C
:1031160053344534523420344F344B3420344F34F6
:1031260055342034453452345234453455345234AF
:10313600003441345434543445344E3454344534D4
:10314600203441344334513455344934543454349E
:1031560045344D3445344E345434003454344534B7
:103166005334543420345234313420344F344634BA
:10317600463420342D3420345234323420344F3403
:103186004E34003454344534533454342034523499
:10319600323420344F344634463420342D342034EF
:1031A6005234333420344F344E3400342D343E34CC
:1031B6002034543445345334543420344134433465
:1031C6005134553449345434543445340D340A3466
:1031D600003456344534523449344634493445343F
:1031E600523420345034313420344534543420346D
:1031F60050343234003452344534533455344C341C
:10320600543441345434203443344F344E344634E9
:10321600493452344D3445340034543445345334EF
:10322600543420344E344F344E34203443344F34E7
:103236004E3446344F3452344D34453400344134E0
:103246005434543445344E345434453420344434A0
:1032560045344D3441345234523441344734453484
:10326600003450344F3453344934543449344F3491
:103276004E344E344534523420344334413452347F
:10328600543445340034543445345334543420349F
:1032960033342034523445344C3441344934533475
:1032A60020344F3446344634003443344C344134AD
:1032B60056344934453452342034453443344C343E
:1032C60041344934523445343F3400345034523456
:1032D6004534533453344534523420344F344B340C
:1032E60020342F3420344E344F344B34003454348D
:1032F6004534533454342034333420345234453432
:103306004C3441344934533420344F344E34003431
:10331600543445345334543420344C3445344434D2
:10332600203443344C3441345634493445345234D1
:103336000034543445345334543420344334413403
:1033460052345434453420344434383435343034EB
:10335600003450344C3441344334453452342034F0
:1033660050343134203445345434203450343234DB
:10337600003443344C3441345634493445345234A1
:10338600203445345434453449344E3454343F346F
:103396000034543445345334543420344C34453496
:1033A6004434533420344334413452345434453451
:1033B6000034453452345234453455345234203472
:1033C600563441344C34493444344534453400345D
:1033D600543445345334543420344C344534443412
:1033E600203452344F345534473445340034543441
:1033F60045345334543420344C3445344434203426
:1034060056344534523454344534003454344534F7
:103416005334543420344C34453444342034423408
:103426004C344534553445340034543445345334DF
:103436005434203442344C345534453454344F34A7
:103446004F345434483400344134503450345534B5
:10345600593445345234203453345534523420349C
:103466004F344B3400342D343E34203454344534F8
:103476005334543420344F34463446340D340A34ED
:103486000034523445345434493452344534523479
:1034960020344334413452345434453400344C34AB
:1034A600453444345334203441344C344C3455344C
:1034B6004D3445344534533400342D343E342034B1
:1034C600543445345334543420344F344E340D344C
:1034D6000A34003454344534533454342034483494
:1034E6004F3452344C344F3447344534003454341A
:1034F6004534533454342034533446344C344134F4
:10350600533448340034463449344E342034443439
:10351600453420345434453453345434003456340A
:103526004F344934523420344134503450344C34BE
:1035360049340034543445345334543420345234EA
:10354600313420344F344E3400344534543441340D
:103556005034453420343134303400344534543416
:103566004134503445342034313432340034543408
:1035760045345334543420344234503432340034D5
:1035860045345434413450344534203431343334A2
:1035960000344534543441345034453420343134C5
:1035A60034340034453454344134503445342034B2
:1035B6003134353400344534543441345034453490
:1035C60020343134363400344534543441345034A4
:1035D600453420343134373400344534543441349E
:1035E600503445342034313438340034543445347E
:1035F6005334543420344F344B340034453454342B
:103606004134503445342034313400345434453454
:103616005334543420345034313400344534543423
:103626004134503445342034323400345434453433
:103636005334543420345034323400344534543402
:103646004134503445342034333400344534543412
:103656004134503445342034343400344534543401
:1036660041345034453420343534003445345434F0
:1036760041345034453420343634003445345434DF
:1036860041345034453420343734003445345434CE
:1036960041345034453420343834003445345434BD
:0C36A600413450344534203439340034B1
:020000040001F9
:08000000FF3FFF3FFF3FFF3F00
:04000E00E43FFF3F8D
:00000001FF
