:1000000080314728053008007E1480310B1F0928F5
:100010000A2845282100111E0E280F281A28200022
:10002000111E132814281A2839088A0038080A00D3
:10003000803145282100911E1E281F282A282000D3
:10004000911E232824282A2837088A0036080A0007
:10005000803145282100921D2E282F283A28200083
:10006000921D332834283A283D088A003C080A00AB
:10007000803145282100911D3E283F284528200039
:10008000911D43284428452834287E1009008031DA
:100090004928893173218031E800FD012030840036
:1000A0000030850026308A3108228031A03084005B
:1000B0000030850025308A31082280317E102000F2
:1000C000803162288B313A2380318B170B178A31AC
:1000D000412280314E308731652780312000E60192
:1000E0005D30D4009030D5009430D6009030D700E9
:1000F0006930D8009130D900D730DA009130DB0078
:100100008F315A27803115302000E3004B30E20058
:10011000BE30890B8928E20B8928E30B892800006F
:100120005D302000D4009030D5008230D600903071
:10013000D700B830D8009030D9006930DA0091305B
:10014000DB008F315A27803103302000E300083074
:10015000E2007730890BAA28E20BAA28E30BAA2831
:100160008A310222803120302000D4009230D50024
:10017000EB30D6009030D700D730D8009130D9007E
:10018000D730DA009130DB008F315A2780312000E0
:10019000E701E70A00308A317122803100308A316C
:1001A0007E22803101308A318B22803101308A31C8
:1001B000A522803101308A31B22280310330200003
:1001C000E3000830E2007730890BE428E20BE428F2
:1001D000E30BE42801308A31982280312930200055
:1001E000E3009630E2007F30890BF428E20BF4281C
:1001F000E30BF42801308C31AC248031003A031930
:1002000002290329162901308C31CF248031003A8C
:1002100003190B290C29162901308C31F224803165
:10022000003A031914291529162930292000E7015D
:1002300000308A31A522803100308A31B2228031EB
:1002400020302000DE009230DF006730E2006208DC
:10025000E0006630E3006308E1008E311E26803145
:1002600015302000E3004B30E200BE30890B362908
:10027000E20B3629E30B3629000000308A31A52233
:10028000803100308A31B2228031200067080319A2
:100290004A294B29A0293030D4009230D500A6300D
:1002A000D6009030D700D730D8009130D900D73061
:1002B000DA009130DB008F315A27803100308A31EB
:1002C000A522803100308A31B22280310B302000EB
:1002D000E3002630E2005D30890B6C29E20B6C29CB
:1002E000E30B6C29003201308C31AC248031003AB0
:1002F000031D7B297C298F2901308C31CF2480314B
:10030000003A031D842985298F2901308C31F2247C
:100310008031003A031D8D298E298F29A0292000C4
:10032000E7013030DE009230DF006730E200620823
:10033000E0006630E3006308E1008E311E26803164
:10034000200067080319A529A629EA294030D4000E
:100350009230D5002D30D6009130D700D730D8005C
:100360009130D900D730DA009130DB008F315A2735
:10037000803101308A31A522803106302000E3002F
:100380001330E200AD30890BC329E20BC329E30B24
:10039000C329003200308A31A52280318E318F2668
:1003A00080312000E2006208E6006608031DD929BA
:1003B000DA29EA29E7014030DE009230DF006730B9
:1003C000E2006208E0006630E3006308E1008E317D
:1003D0001E268031200067080319EF29F029342AEE
:1003E0004830D4009230D5004B30D6009130D70041
:1003F000D730D8009130D900D730DA009130DB0007
:100400008F315A27803101308A31A5228031063060
:100410002000E3001330E200AD30890B0D2AE20B1F
:100420000D2AE30B0D2A003200308A31A5228031DB
:100430008E318F2680312000E2006208E6006608D7
:10044000031D232A242A342AE7014830DE00923093
:10045000DF006730E2006208E0006630E300630816
:10046000E1008E311E268031200067080319392AE9
:100470003A2A7E2A5030D4009230D5003C30D60043
:100480009130D700D730D8009130D900D730DA007A
:100490009130DB008F315A27803101308A31A5221B
:1004A000803106302000E3001330E200AD30890BCC
:1004B000572AE20B572AE30B572A003200308A31C1
:1004C000A52280318E318F2680312000E200620823
:1004D000E6006608031D6D2A6E2A7E2AE701503069
:1004E000DE009230DF006730E2006208E000663034
:1004F000E3006308E1008E311E268031200067088A
:100500000319832A842AD42A5830D4009230D50083
:10051000C430D6009130D700D730D8009130D90000
:10052000D730DA009130DB008F315A27803101302B
:100530008A31A522803115302000E3004B30E200E3
:10054000BE30890BA12AE20BA12AE30BA12A0000ED
:1005500000308A31A522803115302000E3004B3075
:10056000E200BE30890BB22AE20BB22AE30BB22AB8
:10057000000001308C31AC248031003A0319C12ACB
:10058000C22AC32AD42A2000E7015830DE00923064
:10059000DF006730E2006208E0006630E3006308D5
:1005A000E1008E311E268031200067080319D92A08
:1005B000DA2A332B6030D4009230D5003530D600A3
:1005C0009030D700D730D8009130D900D730DA003A
:1005D0009130DB008F315A27803101308A31A522DA
:1005E000803115302000E3004B30E200BE30890B33
:1005F000F72AE20BF72AE30BF72A000000308A31D2
:10060000A522803115302000E3004B30E200BE30DF
:10061000890B082BE20B082BE30B082B00000030A2
:100620008C31AC248031003A0319172B182B222B64
:1006300001308C31CF248031003A0319202B212B3B
:10064000222B332B2000E7016030DE009230DF00E8
:100650006730E2006208E0006630E3006308E10012
:100660008E311E268031200067080319382B392B64
:10067000922B6830D4009230D5004930D6009030AB
:10068000D700D730D8009130D900D730DA00913078
:10069000DB008F315A27803101308A31A522803129
:1006A00015302000E3004B30E200BE30890B562BA2
:1006B000E20B562BE30B562B000000308A31A522AB
:1006C000803115302000E3004B30E200BE30890B52
:1006D000672BE20B672BE30B672B000000308C319C
:1006E000CF248031003A0319762B772B812B0130F0
:1006F0008C31F2248031003A03197F2B802B812B1F
:10070000922B2000E7016830DE009230DF00673076
:10071000E2006208E0006630E3006308E1008E3129
:100720001E268031200067080319972B982BF42B85
:100730007030D4009230D500FC30D6009030D70015
:10074000C930D8009030D900D730DA009130DB00C2
:100750008F315A27803101308A31A522803106300D
:100760002000E3001330E200AD30890BB52BE20B23
:10077000B52BE30BB52B003200308A31A522803136
:100780000B302000E3002630E2005D30890BC62BE1
:10079000E20BC62BE30BC62B00320C308C316924E4
:1007A000803120004A08E5004908E4006508803AE5
:1007B000E20081306202031DDF2BE0306402031887
:1007C000E22BE32BE62B22008C17E82B22008C1364
:1007D00029302000E3009630E2007F30890BEE2BB9
:1007E000E20BEE2BE30BEE2B200067080319F92B2D
:1007F000FA2B562CCF30D4009130D500FC30D600E7
:100800009030D7000D30D8009130D900D730DA00C1
:100810009130DB008F315A27803101308A31A52297
:10082000803106302000E3001330E200AD30890B48
:10083000172CE20B172CE30B172C003200308A31F7
:10084000A52280310B302000E3002630E2005D302D
:10085000890B282CE20B282CE30B282C00320C30BF
:100860008C316924803120004A08E5004908E40001
:100870006508803AE20081306202031D412CE130BC
:100880006402031C442C452C482C22008C134A2C57
:1008900022008C1729302000E3009630E2007F30E0
:1008A000890B502CE20B502CE30B502C20006708D6
:1008B00003195B2C5C2C0B2DD830D4009130D50063
:1008C000A130D6009130D700D730D8009130D90070
:1008D000D730DA009130DB008F315A2780310B306E
:1008E0002000E3002630E2005D30890B752CE20B1E
:1008F000752CE30B752C003201308A31A522803132
:1009000006302000E3001330E200AD30890B862C66
:10091000E20B862CE30B862C003200308A31A522B4
:1009200080313D302000E300E130E2003F30890BB0
:10093000972CE20B972CE30B972C003201308A3175
:10094000A522803106302000E3001330E200AD30F4
:10095000890BA82CE20BA82CE30BA82C003200304A
:100960008A31A522803110302000E3003930E200C6
:100970000D30890BB92CE20BB92CE30BB92C0032EA
:1009800001308C31AC248031003A0319C82CC92CB9
:10099000DC2C01308C31CF248031003A0319D12C6A
:1009A000D22CDC2C00308C31F2248031003A031937
:1009B000DA2CDB2CDC2CF62C2000E70100308A310D
:1009C000A522803100308A31B2228031D830200017
:1009D000DE009130DF006730E2006208E000663040
:1009E000E3006308E1008E311E26803115302000BF
:1009F000E3004B30E200BE30890BFC2CE20BFC2CF8
:100A0000E30BFC2C000000308A31A522803100303D
:100A10008A31B2228031200067080319102D112D70
:100A2000552DEA30D4009130D5001D30D6009130DC
:100A3000D7008630D8009130D900DA30DA00903013
:100A4000DB008F315A27803101308A31A522803175
:100A500006302000E3001330E200AD30890B2E2D6C
:100A6000E20B2E2DE30B2E2D003200308A31A52211
:100A700080318E318F2680312000E2006208E6004E
:100A80006608031D442D452D552DE701EA30DE0093
:100A90009130DF006730E2006208E0006630E3007A
:100AA0006308E1008E311E2680312000670803199B
:100AB0005A2D5B2DBD2DF330D4009130D500E1309F
:100AC000D6009130D700D730D8009130D900D73038
:100AD000DA009130DB008F315A27803101308A31C2
:100AE000B222803106302000E3001330E200AD3046
:100AF000890B782DE20B782DE30B782D0032003036
:100B00008A31B22280310B302000E3002630E2002F
:100B10005D30890B892DE20B892DE30B892D003285
:100B200001308C31AC248031003A0319982D992D75
:100B3000AC2D01308C31CF248031003A0319A12D26
:100B4000A22DAC2D01308C31F2248031003A0319F2
:100B5000AA2DAB2DAC2DBD2D2000E701F330DE001A
:100B60009130DF006730E2006208E0006630E300A9
:100B70006308E1008E311E268031200067080319CA
:100B8000C22DC32D252EFC30D4009130D5009430D9
:100B9000D6009130D700D730D8009130D900D73067
:100BA000DA009130DB008F315A27803101308A31F1
:100BB000D922803106302000E3001330E200AD304E
:100BC000890BE02DE20BE02DE30BE02D003200302D
:100BD0008A31D92280310B302000E3002630E20038
:100BE0005D30890BF12DE20BF12DE30BF12D00327D
:100BF00000308C31AC248031003A0319002E012ED4
:100C0000142E00308C31CF248031003A0319092E84
:100C10000A2E142E00308C31F2248031003A031950
:100C2000122E132E142E252E2000E701FC30DE009C
:100C30009130DF006730E2006208E0006630E300D8
:100C40006308E1008E311E268031200067080319F9
:100C50002A2E2B2E8D2E0530D4009230D500283030
:100C6000D6009230D700D730D8009130D900D73095
:100C7000DA009130DB008F315A27803101308A3120
:100C8000BF22803119302000E3005A30E200B13039
:100C9000890B482EE20B482EE30B482E0032003021
:100CA0008A31BF2280310B302000E3002630E20081
:100CB0005D30890B592EE20B592EE30B592E003271
:100CC00001308C31AC248031003A0319682E692E32
:100CD0007C2E01308C31CF248031003A0319712EE3
:100CE000722E7C2E01308C31F2248031003A0319AF
:100CF0007A2E7B2E7C2E8D2E2000E7010530DE0023
:100D00009230DF006730E2006208E0006630E30006
:100D10006308E1008E311E26803120006708031928
:100D2000922E932EF52E0E30D4009230D50038300E
:100D3000D6009230D700D730D8009130D900D730C4
:100D4000DA009130DB008F315A27803101308A314F
:100D5000CC22803119302000E3005A30E200B1305B
:100D6000890BB02EE20BB02EE30BB02E0032003018
:100D70008A31CC2280310B302000E3002630E200A3
:100D80005D30890BC12EE20BC12EE30BC12E003268
:100D900000308C31AC248031003A0319D02ED12E92
:100DA000E42E00308C31CF248031003A0319D92E43
:100DB000DA2EE42E00308C31F2248031003A03190F
:100DC000E22EE32EE42EF52E2000E7010E30DE00A9
:100DD0009230DF006730E2006208E0006630E30036
:100DE0006308E1008E311E26803120006708031958
:100DF000FA2EFB2E2D2F1730D4009230D5005A300A
:100E0000D6009130D700B930D8009130D900DA300F
:100E1000DA009030DB008F315A2780318C312B245F
:100E200080318E318F2680312000E2006208E6009A
:100E30006608031D1C2F1D2F2D2FE7011730DE0024
:100E40009230DF006730E2006208E0006630E300C5
:100E50006308E1008E311E268031200067080319E7
:100E6000322F332F9028AD30D4009130D500793017
:100E7000D6009030D7007830D8009130D90020309B
:100E8000DA009030DB008F315A27803101308A310F
:100E9000712280318A310222803166302000E200E6
:100EA0006208CA0067308D313B258031293020002F
:100EB000E3009630E2007F30890B5C2FE20B5C2F61
:100EC000E30B5C2F9028803147282000D100510887
:100ED000CF004F08BE0000308B314D2387319C304E
:100EE0002000CF00D730890B732FCF0B732F033027
:100EF0008B31772387311A302000CF00F830890BEF
:100F00007F2FCF0B7F2F000003308B31772387316A
:100F10001A302000CF00F830890B8C2FCF0B8C2F8C
:100F2000000003308B31772387311A302000CF0047
:100F3000F830890B992FCF0B992F000002308B319D
:100F4000772387311A302000CF00F830890BA62F85
:100F5000CF0BA62F000028308B317723873102304A
:100F60002000D0000430CF00BA30890BB52FCF0B52
:100F7000B52FD00BB52F00000C308B317723873184
:100F800002302000D0000430CF00BA30890BC62FC9
:100F9000CF0BC62FD00BC62F000001308B3177232B
:100FA000873102302000D0000430CF00BA30890BE6
:100FB000D72FCF0BD72FD00BD72F000006308B3178
:100FC0007723873102302000D0000430CF00BA30C0
:100FD000890BE82FCF0BE82FD00BE82F000008007B
:100FE0002000C9008A314C228731200049082400A2
:100FF00091002000911DFD2FFE2FF92F9111080067
:1012E4000800083401300800240096140800240083
:1012F400161508002400961508002400110808009B
:101304002000911508002000911108008B31BC23A6
:101314008931080023001D121D16080024009616AA
:101324001616080024009612161608008D31922510
:10133400893108001630210097000800F000700879
:101344002400910008002100BC10BB010E300800ED
:10135400893176218931013008008931762189313A
:101364000230080089317621893101300800893141
:10137400792189310030080089319421893105307F
:1013840008008931902189310A300800893190217F
:101394008931093008002100BC10BB010E3008005F
:1013A4002400160E890C890C013908008A314C225C
:1013B40089312400161408008A314C228931240012
:1013C4001615080020004A08B1004908B0000800BA
:1013D40020004A08B5004908B400080020004A0863
:1013E400B3004908B200080020004A08B7004908C1
:1013F400B600080020004A08B9004908B8000800EF
:1014040020000F19062A072A022A08006400800116
:101414000131890B092A003421003C1089317C21D7
:101424008A310430080021003C1436358931A0216A
:101434008A3103300800F03021009E009B019C019A
:1014440001309D00080021003C140314360D89313D
:10145400A0218A310530080001308B3177238A318D
:101464003530890B332A00000800C0302400940072
:101474000830950096014F309200951208002830EC
:1014840024009500960194012730920021008E15C6
:101494000E16080024001419502A512A4C2A160842
:1014A4001F39031D562A572A4C2A08007030210080
:1014B400990098012200960121001A1F622A632ACA
:1014C4005E2A08007608F1007508F0007708F80035
:1014D4007808F20000308D3115258A31080020008B
:1014E400C90049080319772A782A7B2A2200101494
:1014F4007D2A2200101008002000C90049080319A1
:10150400842A852A882A220090148A2A220090108C
:1015140008002000C90049080319912A922A952A33
:1015240022001015972A2200101108002000C9007B
:10153400490803199E2A9F2AA22A22000C14A42ACD
:1015440022000C1008002000C90049080319AB2A26
:10155400AC2AAF2A22008C14B12A22008C10080075
:101564002000C90049080319B82AB92ABC2A220054
:101574000C15BE2A22000C1108002000C9004908DD
:101584000319C52AC62AC92A22000C16CB2A22000E
:101594000C1208002000C90049080319D22AD32AD2
:1015A400D62A22008C16D82A22008C120800200089
:1015B400C90049080319DF2AE02AE32A22008C150E
:1015C400E52A22008C110800F3002100BC1DEB2A3F
:1015D400EC2AF52A7308F2007208B7007108B90002
:1015E4007008B800BC1108000230F0000030F100AF
:1015F40079088A31E6228A310030F500F600F701D5
:101604008A3164228A31043008000130F00000304D
:10161400F10079088A31E6228B310030F500F600BA
:10162400F7018A3164228B31023008000230F00065
:101634000030F10079088A31E6228B310030F50060
:10164400F600F7018A3164228B3102300800013040
:10165400F0000030F10079088A31E6228B31003045
:10166400F500F600F7018A3164228B31043008005A
:101674008A3137228B318C310C248B318A315822B8
:101684008B3189319C218B318A311D228B318E31F2
:10169400CF268B3108002000CA008931D8218B3134
:1016A40020003E088731F0278B3120004A08680467
:1016B4008731F0278B318931DE218B3108002000FE
:1016C400CC003F08CB004B08CC044C0804388B31C9
:1016D4004D238B3120004C08FB398B314D238B314A
:1016E4004230890B732B003208002000CE00BF016A
:1016F4004E08F0398B3161238B3120004E08CD0028
:101704000330CD35FF3E031D832B4D35F0398B312E
:1017140061238B3108002000CE00BF01BF0A4E08B0
:10172400F0398B3161238B3120004E08CD0003301A
:10173400CD35FF3E031D9A2B4D35F0398B31612396
:101744008B310800790886008701403FF000413F53
:10175400F1007908023E8600870101088A31E622F9
:101764008B310030F500F600F7018A3164228B31A9
:101774000230080023001908F00020004208BD3E92
:1017840086008701700881000130F0007008C207EC
:1017940008304202031CCF2BD02BD12BC2010130C5
:1017A400F0007008C10708002000CA00C9014A08F7
:1017B4000319DD2BDE2BE42B8F1BE12BE22BE42B17
:1017C400C901C90A4A08031DE82BE92BEF2B8F1F17
:1017D400EC2BED2BEF2BC901C90A490808002000A6
:1017E400CA00C9014A080319F82BF92BFF2B0F195A
:1017F400FC2BFD2BFF2BC901C90A4A08031D032C2E
:10180400042C0A2C0F1D072C082C0A2CC901C90A08
:1018140049080800220090018F018C018D018E017E
:101824000830210090008C01EF308D00BF308E0015
:10183400FF308F0023008F013F308D0090013C303A
:101844008C00240090018D012100951722009D0138
:10185400080022000C1706302000CA001330C9000B
:10186400AD30890B332CC90B332CCA0B332C00320B
:1018740022000C1306302000CA001330C900AD301A
:10188400890B422CC90B422CCA0B422C0032080093
:101894002000D201D3015D2C4F0852078400500868
:1018A400533D850000088B318D238C31013020009D
:1018B400D2070030D33D4F08520784005008533DEF
:1018C40085001200031D672C682C4E2C0800200094
:1018D400CC004C08CB00CB0DCB0D21001D08200003
:1018E4004B0683394B0621009D001D140D30890BD6
:1018F400792C000021009D149D18812C822C7E2CB3
:101904001C082000CA0021001B082000C900080090
:101914000830200043020318902C912CA92C440871
:10192400283E86008701010823009A000130F00058
:1019340070082000C40708304402031CA22CA32C06
:10194400A42CC4010130F0007008C307AB2C2100A3
:10195400111208002000CA00C9014A080319B32C57
:10196400B42CBE2C0F1CB72CB82CBE2C8F18BB2C3F
:10197400BC2CBE2CC901C90A4A08031DC22CC32CA5
:10198400CD2C0F18C62CC72CCD2C8F1CCA2CCB2CBD
:10199400CD2CC901C90A490808002000CA00C901A0
:1019A4004A080319D62CD72CE12C8F1DDA2CDB2CFA
:1019B400E12C0F1ADE2CDF2CE12CC901C90A4A08DC
:1019C400031DE52CE62CF02C8F19E92CEA2CF02CC5
:1019D4000F1EED2CEE2CF02CC901C90A4908080091
:1019E4002000CA00C9014A080319F92CFA2C042D55
:1019F4008F1EFD2CFE2C042D0F1B012D022D042DFA
:101A0400C901C90A4A08031D082D092D132D8F1A6F
:101A14000C2D0D2D132D0F1F102D112D132DC9015C
:101A2400C90A49080800F4007008710403191B2D41
:101A34001C2D2D2D7435A03E860087017008C03FF3
:101A44007108C13F7208F3007408AC3E8600870138
:101A5400730881003A2D7435A03E860087017430E6
:101A6400C03F0930C13F7408AC3E86008701810144
:101A740008002000CB004B088600870181014A083A
:101A840086008701810100308A3171228D31003056
:101A94008A317E228D3100308A318B228D310030A3
:101AA4008A3198228D3100308A31A5228D3100305F
:101AB4008A31B2228D3100308A31BF228D3100301B
:101AC4008A31CC228D31080021003C100230FA000A
:101AD4007A08BB00752D8931B4218D31912D89315E
:101AE400B9218D31912D2E08FA007A08F9000430BD
:101AF400A03E86008701413F8A00403F0A008D31A5
:101B0400FB00FC017C08003A0319892D712D7B0828
:101B1400023A03196D2D013A03196D2D712D080038
:101B2400893185218D3121003C1C992D9A2DA82DB8
:101B34008931D2218D31003A0319A12DA22DA82D6E
:101B44000F302000C60046082100BA0021003A08E0
:101B54002000C600C701C635C70D00304607840003
:101B64009030473D8500013F8A00003F0A008D31D7
:101B74002000C80048082100BA0008002100BC1554
:101B8400D02D8931B4218D31EE2D893182218D31D1
:101B94000330EE2D8931B9218D31EE2D2C08FA0058
:101BA4007A08F90021088A0020080A008D31FB0018
:101BB400FC017C08003A0319E02DCC2D7B08013A86
:101BC4000319CC2D033A0319C32D013A0319C32D6C
:101BD400073A0319C72DCC2D08002000D2000A2E85
:101BE4004F08BF3E8B3177238D311D2E4F08933E16
:101BF4008B3177238D311D2E4F08D33E8B317723C4
:101C04008D311D2E4F087F3E8B3177238D311D2E54
:101C14005208D000D1015108003A0319122E042EA3
:101C24005008023A0319F22D013A0319F82D073A24
:101C34000319FE2D042E080001308A317E228E31D4
:101C440000308A318B228E3100308A3171228E31FC
:101C540020005F08D5005E08D4007030D6009030B4
:101C6400D7002030D8009030D900D730DA00913036
:101C7400DB008F315A278E3120000F19422E432E5C
:101C84003E2E0F1D462E472E432E00308A317E22D3
:101C94008E3120006008860087018101610886007A
:101CA40087018101080020004208203E8600870148
:101CB400810123001D1D5F2E602E6B2E2000420823
:101CC400203E86008701811435088A0034080A0002
:101CD4008E3123009D1C6F2E702E7B2E2000420817
:101CE400203E86008701011533088A0032080A0065
:101CF4008E3120004208203E860087010108031926
:101D0400842E852E8B2E31088A0030080A008E31ED
:101D14008E2E8B31BC238E3108002000CB01003085
:101D24008B31F1238E31003A0319992E9A2EA32E6A
:101D340000308B31D6238E31003A031DA22EA32E00
:101D4400912E01308B31D6238E31003A0319AB2EFC
:101D5400AC2EAE2E2000CB0101308B31F1238E311D
:101D6400003A0319B62EB72EBA2E2000CB01CB0AA7
:101D740001308B31F1238E31003A031DC22EC32E64
:101D8400BA2E01308B31D6238E31003A031DCB2E6F
:101D9400CC2EBA2E20004B08080021009112553099
:101DA4002000C9000E30CA008931F6218E3121008D
:101DB40011128A302000C9000C30CA008931FC217C
:101DC4008E31083023009F0090309D0024309E0007
:101DD40040309B0003309C0072302000C900093061
:101DE400CA008931EA218E318C302000C9000930C3
:101DF400CA008931F0218E3188302000C9000930B1
:101E0400CA008931E4218E312000C001C501C4011A
:101E14000830CB004B08C300C201FD01C101210001
:101E24009116080089317F218F31FA00210037088B
:101E3400860087017A0881000130FA007A08B70722
:101E44000130B8020030B93B3808390403192B2F8C
:101E54002C2F312F893194218F310530592FBC1506
:101E64003B2F8931C8218F31592F8931C3218F31BB
:101E7400592F2C08FA007A08F90021088A00200852
:101E84000A008F31FB00FC017C08003A03194B2F38
:101E9400372F7B08013A0319372F033A0319332FDD
:101EA400013A0319332F073A0319372F372F080044
:101EB4008A312E228F3106308B3177238F310230D5
:101EC4002000DD000430DC00BA30890B672FDC0B06
:101ED400672FDD0B672F00002000CF01CF0A0130F0
:101EE4008D31EF258F3120005508D0005408CF00E4
:101EF4008C314A248F312000CF01CF0A02308D313A
:101F0400EF258F3120005708D0005608CF008C31C0
:101F14004A248F312000CF01CF0A03308D31EF25C1
:101F24008F3120005908D0005808CF008C314A2442
:101F34008F312000CF01CF0A04308D31EF258F314E
:101F440020005B08D0005A08CF008C314A248F311E
:101F540008008931D2218F31003A0319B22FB32FEF
:101F6400E32FC02F8931AA218F31FF2F8931AF216F
:101F74008F31FF2F8931B9218F31FF2F21002F0895
:101F8400FA007A08F9000630A03E86008701413F36
:101F94008A00403F0A008F31FB00FC017C08003AB4
:101FA4000319D52FBC2F7B08013A0319BC2F033A20
:101FB4000319B42F013A0319B82F073A0319BC2F98
:101FC400BC2F21003C101730A03E86008701403F03
:101FD40084008501810A00088931A0218F310130F4
:101FE4002100B8020030B93B38083904031DFB2F27
:101FF400FC2FFE2F0630FF2F03300800A5340934D0
:1020040025340A3415340A34AB340F3414340F3401
:102014000E340A34C0340D34AA340934AF340934CC
:10202400B4340934B9340934BE340934C3340934FA
:10203400C8340934CD34093466340D34413454344D
:10204400543445344E3454344534203441344334C8
:102054005134553449345434543445344D3445346E
:102064004E345434003454344534533454342034CA
:102074005234313420344F344634463420342D34F1
:1020840020345234323420344F344E3400345434F7
:1020940045345334543420345234323420344F349D
:1020A4004634463420342D342034523433342034EE
:1020B4004F344E340034543445345334543420347F
:1020C4004334413452345434453420344434393460
:1020D400323435344534443434340034543445349F
:1020E4005334543420344E344F344E342034433437
:1020F4004F344E3446344F3452344D344534003426
:1021040041345434543445344E34543445342034F6
:10211400443445344D3441345234523441344734D8
:102124004534003450344F345334493454344934EE
:102134004F344E344E3445345234203443344134D5
:1021440052345434453400345434453453345434C0
:10215400203433342034523445344C3441344934FB
:10216400533420344F3446344634003452344534E6
:102174005434493452344534523420345034313494
:1021840020346534743420345034323400344334CD
:102194004C34413456344934453452342034453473
:1021A40043344C3441344934523445343F3400349C
:1021B4005034523445345334533445345234203437
:1021C4004F344B3420342F3420344E344F344B347A
:1021D40000345434453453345434203433342034A8
:1021E400523445344C3441344934533420344F341C
:1021F4004E340034543445345334543420344C3441
:1022040045344434203443344C3441345634493412
:1022140045345234003443344C3441345634493414
:1022240045345234203445345434453449344E34DE
:1022340054343F3400345434453453345434203407
:102244004C344534443453342034433441345234CC
:1022540054344534003454344534533454342034E1
:102264004C3445344434203452344F345534473498
:1022740045340034543445345334543420344C34C9
:10228400453444342034563445345234543445347B
:102294000034543445345334543420344C344534A9
:1022A4004434203442344C344534553445340034B9
:1022B4005434453453345434203442344C34553437
:1022C400453454344F344F34543448340034413456
:1022D4005034503455345934453452342034533402
:1022E4005534523420344F344B3400345234453452
:1022F4005434493452344534523420344334413410
:1023040052345434453400344C3445344434533416
:10231400203441344C344C3455344D3445344534F4
:10232400533400345434453453345434203448340E
:102334004F3452344C344F344734453400345434DD
:102344004534533454342034533446344C344134B7
:10235400533448340034463449344E3420344434FD
:1023640045342034543445345334543400345634CE
:102374004F344934523420344134503450344C3482
:1023840049340034543445345334543420345234AE
:10239400313420344F344E340034453454344134D1
:1023A40050344534203431343034003445345434DA
:1023B40041345034453420343134323400345434CC
:1023C4004534533454342034423450343234003499
:1023D4004534543441345034453420343134333466
:1023E4000034453454344134503445342034313489
:1023F4003434003445345434413450344534203476
:102404003134353400344534543441345034453453
:102414002034313436340034453454344134503467
:102424004534203431343734003445345434413461
:102434005034453420343134383400344534543441
:102444004134503445342034313400345434453428
:1024540053345434203450343134003445345434F7
:102464004134503445342034323400345434453407
:1024740053345434203450343234003445345434D6
:1024840041345034453420343334003445345434E6
:1024940041345034453420343434003445345434D5
:1024A40041345034453420343534003445345434C4
:1024B40041345034453420343634003445345434B3
:1024C40041345034453420343734003445345434A2
:1024D4004134503445342034383400344534543491
:0C24E40041345034453420343934003485
:020000040001F9
:08000000FF3FFF3FFF3FFF3F00
:04000E00E43FFF3F8D
:00000001FF
