:1000000080314A28053008007E1480310B1F0928F2
:100010000A2848282100111E0E280F281B2820001E
:10002000111E132814281B28220041088A004008AA
:100030000A00803148282100911E1F2820282C28E2
:100040002000911E242825282C2822003F088A0001
:100050003E080A00803148282100921D30283128AE
:100060003D282000921D352836283D2822004508CD
:100070008A0044080A00803148282100911D412847
:10008000422848282000911D46284728482836281D
:100090007E10090080314C2822008731FF278031F3
:1000A000EB00FE3084009E308500A03086000130D9
:1000B000870028309A31F42280317D3084009C30D2
:1000C0008500403086000230870014309A31F422D7
:1000D0008031FD012000EA01EB01EC012100E30188
:1000E00020308400013085002A309A31EE228031A0
:1000F000C83084000130850025309A31EE228031ED
:10010000203084000230850020309A31EE22803188
:100110007E1020008D31F22DE9302000AE00A3309A
:10012000AF00C930B000A230B1005930B200A030E9
:10013000B3005930B400A030B5009231A72280310D
:1001400001309B31C523803106302100E00013309F
:10015000DF00AD30890BAA28DF0BAA28E00BAA2804
:10016000003200309B31C523803124005D08031923
:10017000BA28BB28EE286108953179258031210005
:10018000DF005F082400E2006208031DC828C928B8
:10019000EE28E301E9302100B000A330B100633064
:1001A000B2000230B3006230B4000230B5009431C6
:1001B0006424803161302100B8000230B90063301E
:1001C000BA000230BB006230BC000230BD006030BB
:1001D000BE000230BF008831002080312400630857
:1001E0000319F328F4285629F1302000AE00A3307B
:1001F000AF00BA30B000A230B1005930B200A03028
:10020000B3005930B400A030B5009231A72280313C
:1002100001309B31C523803106302100E0001330CE
:10022000DF00AD30890B1229DF0B1229E00B1229F8
:10023000003200309B31C523803124005D08031952
:1002400022292329562961089531792580312100F9
:10025000DF005F082400E2006208031D3029312915
:100260005629E301F1302100B000A330B100633022
:10027000B2000230B3006230B4000230B5009431F5
:100280006424803161302100B8000230B90063304D
:10029000BA000230BB006230BC000230BD006030EA
:1002A000BE000230BF008831002080312400630886
:1002B00003195B295C29C229F9302000AE00A33064
:1002C000AF005D30B000A330B1005930B200A030B3
:1002D000B3005930B400A030B5009231A72280316C
:1002E00001309B31C523803115302100E0004B30B7
:1002F000DF00BE30890B7A29DF0B7A29E00B7A29DF
:10030000000000309B31C523803115302100E00012
:100310004B30DF00BE30890B8B29DF0B8B29E00BC4
:100320008B29000001309E3123268031003A0319C9
:100330009A299B299C29C2292400E301F930210034
:10034000B000A330B1006330B2000230B3006230BD
:10035000B4000230B5009431642480316130210052
:10036000B8000230B9006330BA000230BB0062301E
:10037000BC000230BD006030BE000230BF008831DA
:1003800000208031240063080319C729C829372AAF
:1003900001302000AE00A430AF005D30B000A130CD
:1003A000B1005930B200A030B3005930B400A030D1
:1003B000B5009231A722803101309B31C5238031B5
:1003C00015302100E0004B30DF00BE30890BE629FC
:1003D000DF0BE629E00BE629000000309B31C52346
:1003E000803115302100E0004B30DF00BE30890B3A
:1003F000F729DF0BF729E00BF729000000309E31C9
:1004000023268031003A0319062A072A112A0130CF
:100410009E3146268031003A03190F2A102A112AEC
:10042000372A2400E30101302100B000A430B100DC
:100430006330B2000230B3006230B4000230B50065
:1004400094316424803161302100B8000230B90059
:100450006330BA000230BB006230BC000230BD0025
:100460006030BE000230BF0088310020803124009F
:10047000630803193C2A3D2AAC2A09302000AE004B
:10048000A430AF007130B000A130B1005930B200DB
:10049000A030B3005930B400A030B5009231A7228B
:1004A000803101309B31C523803115302100E000BF
:1004B0004B30DF00BE30890B5B2ADF0B5B2AE00B81
:1004C0005B2A000000309B31C523803115302100AC
:1004D000E0004B30DF00BE30890B6C2ADF0B6C2A4A
:1004E000E00B6C2A000000309E3146268031003A35
:1004F00003197B2A7C2A862A01309E3169268031A5
:10050000003A0319842A852A862AAC2A2400E301AA
:1005100009302100B000A430B1006330B2000230D5
:10052000B3006230B4000230B500943164248031ED
:1005300061302100B8000230B9006330BA000230E7
:10054000BB006230BC000230BD006030BE00023033
:10055000BF00883100208031240063080319B12ACC
:10056000B22A512B11302000AE00A430AF005C3015
:10057000B000A230B1002930B200A230B30059302F
:10058000B400A030B5009231A722803101309B31F8
:10059000C523803106302100E0001330DF00AD308C
:1005A000890BD02ADF0BD02AE00BD02A0032003092
:1005B0009B31C52380310B302100E0002630DF0065
:1005C0005D30890BE12ADF0BE12AE00BE12A0032E2
:1005D0000C309D31E1258031200024082400DF000B
:1005E000200023082400DE0019302100AD00A430D3
:1005F000AE0024005F082100B00024005E08210046
:10060000AF00583091310D21803121002E08240097
:10061000D50021002D082400D4005F08803A210075
:10062000DF0083305F02031D182B203024005E02A0
:1006300003181B2B1C2B1F2B22008C17452B113052
:100640002100B000A430B1006330B2000230B3002A
:100650006230B4000230B50094316424803122004D
:100660008C1361302100B8000230B9006330BA0049
:100670000230BB006230BC000230BD006030BE0002
:100680000230BF0088310020803129302100E00095
:100690009630DF007F30890B4B2BDF0B4B2BE00BB1
:1006A0004B2B240063080319562B572B0A2C683058
:1006B0002000AE00A330AF005C30B000A230B1002B
:1006C0006D30B200A230B3005930B400A030B50094
:1006D0009231A722803101309B31C5238031063011
:1006E0002100E0001330DF00AD30890B752BDF0BEC
:1006F000752BE00B752B003200309B31C523803108
:100700000B302100E0002630DF005D30890B862BA6
:10071000DF0B862BE00B862B00320C309D31E12560
:100720008031200024082400DF002000230824005A
:10073000DE0019302100AD00A430AE0024005F08B7
:100740002100B00024005E082100AF005830913134
:100750000D21803121002E082400D70021002D0812
:100760002400D6005F08803A2100DF0082305F025B
:10077000031DBD2B8A3024005E020318C02BC12B41
:10078000C42B22008C13FE2B68302100B000A33054
:10079000B1006330B2000230B3006230B400023006
:1007A000B50094316424803168302000AE00A3305D
:1007B000AF005C30B000A230B1005830B20002305F
:1007C000B3005930B400A030B5009231A722803177
:1007D00022008C1761302100B8000230B90063306C
:1007E000BA000230BB006230BC000230BD00603095
:1007F000BE000230BF008831002080312930210046
:10080000E0009630DF007F30890B042CDF0B042CD6
:10081000E00B042C2400630803190F2C102CD42C9B
:1008200071302000AE00A330AF003A30B000A330EA
:10083000B1005930B200A030B3005930B400A0303C
:10084000B5009231A72280310B302100E000263024
:10085000DF005D30890B2A2CDF0B2A2CE00B2A2CC1
:10086000003201309B31C523803106302100E00089
:100870001330DF00AD30890B3B2CDF0B3B2CE00B42
:100880003B2C003200309B31C52380313D302100AC
:10089000E000E130DF003F30890B4C2CDF0B4C2CAB
:1008A000E00B4C2C003201309B31C52380310630E7
:1008B0002100E0001330DF00AD30890B5D2CDF0B31
:1008C0005D2CE00B5D2C003200309B31C523803164
:1008D00010302100E0003930DF000D30890B6E2C24
:1008E000DF0B6E2CE00B6E2C003201309E31232684
:1008F0008031003A03197D2C7E2C912C01309E31E1
:1009000046268031003A0319862C872C912C003022
:100910009E3169268031003A03198F2C902C912C3E
:10092000BF2C2400E30100309B31C523803100300F
:100930009B31D223803171302100B000A330B1004F
:100940006330B2000230B3006230B4000230B50050
:1009500094316424803161302100B8000230B90044
:100960006330BA000230BB006230BC000230BD0010
:100970006030BE000230BF00883100208031153069
:100980002100E0004B30DF00BE30890BC52CDF0BAF
:10099000C52CE00BC52C000000309B31C5238031F5
:1009A00000309B31D2238031240063080319D92CF5
:1009B000DA2C3F2D83302000AE00A330AF007D3015
:1009C000B000A230B1001230B200A330B3003A3010
:1009D000B400A230B5009231A722803101309B31A2
:1009E000C523803106302100E0001330DF00AD3038
:1009F000890BF82CDF0BF82CE00BF82C00320030C0
:100A00009B31C5238031AA302100AD00A030AE005B
:100A10009C31A624803124006108953179258031EC
:100A20002100DF005F082400E2006208031D192D89
:100A30001A2D3F2DE30183302100B000A330B10017
:100A40006330B2000230B3006230B4000230B5004F
:100A500094316424803161302100B8000230B90043
:100A60006330BA000230BB006230BC000230BD000F
:100A70006030BE000230BF00883100208031240089
:100A800063080319442D452DBD2D8C302000AE0088
:100A9000A330AF007A30B000A330B1005930B200BB
:100AA000A030B3005930B400A030B5009231A72275
:100AB000803101309B31D223803106302100E000AB
:100AC0001330DF00AD30890B632DDF0B632DE00B9E
:100AD000632D003200309B31D22380310B30210056
:100AE000E0002630DF005D30890B742DDF0B742DA4
:100AF000E00B742D003201309E3123268031003A04
:100B00000319832D842D972D01309E314626803187
:100B1000003A03198C2D8D2D972D01309E316926B9
:100B20008031003A0319952D962D972DBD2D240067
:100B3000E3018C302100B000A330B1006330B2007B
:100B40000230B3006230B4000230B5009431642446
:100B5000803161302100B8000230B9006330BA0042
:100B60000230BB006230BC000230BD006030BE000D
:100B70000230BF008831002080312400630803194F
:100B8000C22DC32D3B2E95302000AE00A330AF0008
:100B90002D30B000A330B1005930B200A030B30006
:100BA0005930B400A030B5009231A7228031013015
:100BB0009B31F923803106302100E0001330DF0043
:100BC000AD30890BE12DDF0BE12DE00BE12D003283
:100BD00000309B31F92380310B302100E0002630BA
:100BE000DF005D30890BF22DDF0BF22DE00BF22DD3
:100BF000003200309E3123268031003A0319012E45
:100C0000022E152E00309E3146268031003A0319FF
:100C10000A2E0B2E152E00309E3169268031003AA7
:100C20000319132E142E152E3B2E2400E3019530AC
:100C30002100B000A330B1006330B2000230B30035
:100C40006230B4000230B5009431642480316130E8
:100C50002100B8000230B9006330BA000230BB0096
:100C60006230BC000230BD006030BE000230BF0008
:100C7000883100208031240063080319402E412E62
:100C8000AB2E9E302000AE00A330AF00C930B000C4
:100C9000A330B1005930B200A030B3005930B400D5
:100CA000A030B5009231A722803101309B31DF2383
:100CB000803119302100E0005A30DF00B130890B5B
:100CC0005F2EDF0B5F2EE00B5F2E003200309B317A
:100CD000DF2380310B302100E0002630DF005D3063
:100CE000890B702EDF0B702EE00B702E003201305E
:100CF0009E3123268031003A03197F2E802E932EB9
:100D000001309E3146268031003A0319882E892E03
:100D1000932E01309E3169268031003A0319912EBD
:100D2000922E932EAB2E9E302100D700A330D800F8
:100D30006330DF005F08D9006230E0006008DA004D
:100D40006130E1006108DB006030E2006208DC0035
:100D5000893179218031240063080319B02EB12E26
:100D6000292FA7302000AE00A330AF00D930B0004B
:100D7000A330B1005930B200A030B3005930B400F4
:100D8000A030B5009231A722803101309B31EC2395
:100D9000803119302100E0005A30DF00B130890B7A
:100DA000CF2EDF0BCF2EE00BCF2E003200309B3149
:100DB000EC2380310B302100E0002630DF005D3075
:100DC000890BE02EDF0BE02EE00BE02E003200302E
:100DD0009E3123268031003A0319EF2EF02E032F87
:100DE00000309E3146268031003A0319F82EF92E44
:100DF000032F00309E3169268031003A0319012FFC
:100E0000022F032F292F2400E301A7302100B00077
:100E1000A330B1006330B2000230B3006230B400DE
:100E20000230B50094316424803161302100B80073
:100E30000230B9006330BA000230BB006230BC003F
:100E40000230BD006030BE000230BF00883100209B
:100E500080312400630803192E2F2F2F8E2FB030DE
:100E60002000AE00A330AF00D830B000A230B100F7
:100E70005230B200A330B3003A30B400A230B50013
:100E80009231A72280319D31A3258031003021008D
:100E9000AD00A030AE009C31A62480312400610852
:100EA0009531792580312100DF005F082400E200C0
:100EB0006208031D5C2F5D2F8E2FE301B0302100EF
:100EC000B000A330B1006330B2000230B300623032
:100ED000B4000230B50094316424803161302100C7
:100EE000B8000230B9006330BA000230BB00623093
:100EF000BC000230BD006030BE000230BF0088314F
:100F00000020803129302100E0009630DF007F3062
:100F1000890B882FDF0B882FE00B882F24006308B4
:100F20000319932F952F8E31252E46302000AE00C9
:100F3000A330AF00D830B000A130B1000430B2000F
:100F4000A330B3003430B400A130B5009231A722F1
:100F5000803101309B319E23803100309B319123C1
:100F600080319E310226803161302100B000023094
:100F7000B1006330B2000230B3009331FD23803101
:100F800063302100B0000230B1006230B2000230A4
:100F9000B3006130B4000230B5006030B6000230FA
:100FA000B70092315D22803129302100E000963077
:100FB000DF007F30890BDA2FDF0BDA2FE00BDA2F1F
:100FC000932F80314A2820003708803AB8008030BB
:100FD0003802031DED2F013036020318F02FF12FD8
:100FE000FE2F20003609B8003709B900B80A0319E6
:100FF000B90A3808B6003908B700FE2F08000834CF
:10100000210038088600390887000108C000C101A6
:101010004008B0004108B1003A0886003B0887004C
:101020000108C200C3014208B2004308B300933173
:10103000FD23883121003A0886003B08870001081B
:10104000C000C1014008B0004108B1003C08860062
:101050003D0887000108C200C3014208B2004308EE
:10106000B30038088600390887000108C400C501AC
:101070004408B4004508B5003E0886003F088700D4
:101080000108C600C7014608B6004708B7009231FC
:101090005D22883129302100C1009630C0007F30A8
:1010A000890B5028C00B5028C10B50280800210084
:1010B000A90020005D0886008701403FDF00413F16
:1010C000E0005F088400600885001200253A031DD7
:1010D0006A286B2853295D08860087010130810743
:1010E00041310318810A2200B201B301B601B701F0
:1010F000FF30B400FF30B50020005D088600870196
:10110000403FDF00413FE0005F0884006008850049
:101110001200643A03198D288E289F285D088600E6
:101120008701403FDF00413FE0005F088400600826
:1011300085001200693A031D9E289F28ED285D084E
:10114000860087010130810741310318810A5E085A
:101150008600870101088400850102308107003F75
:10116000DF00013FE0005F082100A00020006008D0
:101170002100A100890D893B8909A200A300A400D8
:10118000A500A600A70020082000BF00210021081C
:101190002000C000210022082000C10021002308F7
:1011A0002000C200210024082000C30021002508DF
:1011B0002000C400210026082000C50021002708C7
:1011C0002000C600210029088A31CB228831200066
:1011D0004008DE003F08DD0078295D0886008701B1
:1011E000403FDF00413FE0005F0884006008850069
:1011F00012006E3A031DFD28FE281E295D08860098
:1012000087010130810741310318810A5E08860099
:101210008701403F84008501810A0008DF005F08E4
:101220002100A80028088600870122003008C03F5E
:101230003108C13F2000DD01DE0178295D0886000C
:101240008701403FDF00413FE0005F088400600805
:1012500085001200253A031D2E292F294A295D08F1
:10126000860087010130810741310318810A25304A
:10127000A6000030A700210029082000DF005F0839
:10128000A8009231F822883101302000DD000030C2
:10129000DE0078295D088600870101308107413131
:1012A0000318810A1A295D0886008701403FDF0084
:1012B000413FE0005F088400600885000008E1000D
:1012C000E2016108A6006208A700210029082000A9
:1012D000E3006308A8009231F822883120005D08FD
:1012E000860087010130810741310318810A4429B2
:1012F00008004030860002308700543084000130FE
:10130000850014302100DD0016001A00DD0B842951
:10131000B4308600013087004A30840001308500F7
:101320000A30DD0016001A00DD0B922901309B31D6
:10133000AB23893101309B31B823893100309B3197
:101340009E238931210058082000AF002100570852
:101350002000AE00CF30B000A130B100AB30B20001
:10136000A130B3001F30B400A130B5009231A722E4
:10137000893154302000B3000130B40021005808F6
:101380002000B600210057082000B5009C31BC2485
:101390008931200034082200E900200033082200AF
:1013A000E80069082000B400220068082000B300AB
:1013B0004A30B5000130B6009C31BC248931200090
:1013C00034082100AE00200033082100AD009C311C
:1013D000A62489319131CC21893121005B08860016
:1013E0000230870001089531792589312100DD001F
:1013F0005D082200EA000B302100DE002630DD000F
:101400005D30890B012ADD0B012ADE0B012A003237
:1014100022006A0803190D2A0E2A422A21005908BF
:1014200086000230870081015A088600023087005A
:1014300081019E302000AE00A330AF00D430B00058
:10144000A130B100BD30B200A130B3003430B400DF
:10145000A130B5009231A7228931DB302100B800DC
:101460000030B900D930BA000030BB00DA30BC001F
:101470000030BD00DC30BE000030BF0088310020ED
:101480008931CA2A9E302000AE00A330AF00C93097
:10149000B000A330B1005930B200A030B3005930D1
:1014A000B400A030B5009231A722893100309B31C1
:1014B000AB23893101309B31B823893100309B3116
:1014C0009E23893101309B31DF238931193021007E
:1014D000DE005A30DD00B130890B6C2ADD0B6C2A3E
:1014E000DE0B6C2A003200309B31DF23893115304E
:1014F0002100DE004B30DD00BE30890B7D2ADD0B84
:101500007D2ADE0B7D2A000001309E3123268931A1
:10151000003A03198C2A8D2AB42A01309E314626BE
:101520008931003A0319952A962AB42A01309E314E
:1015300069268931003A03199E2A9F2AB42A9E30CF
:101540002000AE00A330AF00C930B000A330B1001E
:101550008D30B200A230B300B930B400A330B50072
:101560009231A7228931CA2A210059088600023007
:10157000870081019E30B000A330B100D930B200A5
:101580000030B300DA30B4000030B5009431642488
:1015900089312D2A08002000CA003F08D3004008E6
:1015A000D4004108D5004208D6004308D7004408BB
:1015B000D8004508D9004608DA00533086000030CC
:1015C0008700473FC700C71BE62AE82A0130E92AFF
:1015D00000302000C800C9014808D1004908D200E5
:1015E000510852040319F52AF62A142BD309D409F9
:1015F000D509D609D709D809D909DA09D30A031DAB
:10160000142BD40A031D142BD50A031D142BD60A40
:10161000031D142BD70A031D142BD80A031D142BEA
:10162000D90A031D142BDA0A2200B51B182B192B1B
:101630001D2BFD30B605FF30B7053508803A200078
:10164000C70080304702031D282B013022003402DE
:1016500003182B2B2C2B322B01302000CD00003017
:10166000CE003A2B220035082000CE00220034089C
:101670002000CD00220033082000D00022003208D4
:101680002000CF0051085204031D472B482B4D2B3F
:101690002200361D4C2B4D2B522BFF302000CF0744
:1016A000FF30D03D1F302000DB000030DC00240084
:1016B000BF01C32BFF302000DB07FF30DC3D0A30C9
:1016C000A300A401A501A601A701A801A901AA01DF
:1016D0005308AB005408AC005508AD005608AE00E6
:1016E0005708AF005808B0005908B1005A08B200B6
:1016F00096310E268A3120002408B7002308B60050
:101700008731E3278A3120003608303EC7005B0866
:10171000203E86000230870047088100FF30CD0759
:10172000FF30CE3DFF30CF07FF30D03D0A30A30061
:10173000A401A501A601A701A801A901AA015308B6
:10174000AB005408AC005508AD005608AE00570871
:10175000AF005808B0005908B1005A08B2009631DD
:10176000FB268A3120002308D3002408D400250852
:10177000D5002608D6002708D7002808D800290851
:10178000D9002A08DA0020005C08803AC7008030BF
:101790004702031DCD2B01305B02031CD02BD12B44
:1017A000FE2B2000530854045504560457045804D3
:1017B00059045A04031DDD2BDE2B5A2B4E08803AA8
:1017C000C70080304702031DE72B01304D0203188C
:1017D000EA2BEB2B5A2B20005008803AC7008030B0
:1017E0004702031DF52B01304F02031CF82BF92B88
:1017F000FE2B2200B618FD2BFE2B5A2B2000510881
:101800005204031D042C052C0A2C2200361D092C21
:101810000A2C272CFF302000DB07FF30DC3D51086D
:101820005204031D142C152C1A2C2B30CB00003025
:10183000CC001E2C2D30CB000030CC004B08C70054
:101840005B08203E860002308700470881002000A8
:101850005B08203EC7004708B6005008B8004F0894
:10186000B7004A089331A1238A3120003708C0000D
:101870003608BF0008002100B600B501EB2D20009E
:101880000F19432C442C5F2C90302100AD00A03068
:10189000AE009C31A6248C312100B501B50A360872
:1018A00086000230870081013108860002308700FF
:1018B000810130088600023087008101810A200002
:1018C0006A080319642C652CEB2D9031A7208C310C
:1018D0002100B2003208B400CC2D010020302100DC
:1018E000AD00A330AE009C31A6248C312100360817
:1018F0008600023087008101810A300886000230AC
:1019000087008101810A3108860002308700810149
:1019100002302100B3000430B200BA30890B8E2CA3
:10192000B20B8E2CB30B8E2C00002100B501B50A32
:10193000EB2D7630AD00A030AE009C31A6248C316A
:1019400098302000AE00A130AF005930B000A03078
:10195000B1000A30B200A130B3005930B400A03059
:10196000B5009231A7228C31210036088600023062
:1019700087008101810A02302100B3000430B200E7
:10198000BA30890BC12CB20BC12CB30BC12C000097
:101990002100B501B50A30088600023087008101B8
:1019A00022008C13EB2D5A30AD00A030AE009C31DC
:1019B000A6248C3198302000AE00A130AF00593001
:1019C000B000A030B100E530B200A130B300593012
:1019D000B400A030B5009231A7228C312100360826
:1019E0008600023087008101810A300886000230BB
:1019F00087008101310886000230870081010230B2
:101A00002100B3000430B200BA30890B052DB20BAF
:101A1000052DB30B052D00002100B501B50A2200EC
:101A20008C17EB2D3E30AD00A030AE009C31A624CB
:101A30008C3198302000AE00A130AF005930B0009A
:101A4000A030B100E130B200A130B3005930B40091
:101A5000A030B5009231A7228C31210036088600D3
:101A6000023087008101810A02302100B300043076
:101A7000B200BA30890B3A2DB20B3A2DB30B3A2D86
:101A800000002100B501B50A300886000230870049
:101A9000810122008C13EB2DC430AD00A030AE00CC
:101AA0009C31A6248C3198302000AE00A130AF00CC
:101AB0005930B000A030B100A030B200A230B30065
:101AC0005930B400A030B5009231A7228C312100EA
:101AD00036088600023087008101810A30088600BE
:101AE00002308700810131088600023087008101C1
:101AF000810A02302100B3000430B200BA30890BF1
:101B00007F2DB20B7F2DB30B7F2D00002100B5017F
:101B1000B50A22008C17EB2DDD30AD00A030AE00F1
:101B20009C31A6248C3198302000AE00A130AF004B
:101B30005930B000A030B1009C30B200A230B300E8
:101B40005930B400A030B5009231A7228C31210069
:101B500036088600023087008101810A300886003D
:101B60000230870081013108860002308700810140
:101B7000810A02302100B3000430B200BA30890B70
:101B8000BF2DB20BBF2DB30BBF2D00002100B5013F
:101B9000B50A22008C13EB2D3408B200B3013308D0
:101BA000003A0319D42DEB2D3208303A03196D2C6D
:101BB000013A03196E2C043A03198C2D033A0319C8
:101BC000992C013A0319D32C0F3A03194C2D013AE1
:101BD0000319122DEB2D210035080319F02DF12DDD
:101BE0003F2C08009C316A248D318B170B179B31D9
:101BF00061238D314E309431ED248D312400E30189
:101C0000E201E101E001E00A98302000AE00A130DD
:101C1000AF000530B000A230B100E730B200A23012
:101C2000B3005930B400A030B5009231A7228D31F5
:101C300015302100E0004B30DF00BE30890B1E2E36
:101C4000DF0B1E2EE00B1E2E000022008C13200046
:101C50000E1C2B2E2C2E302E2400DD01DD0A322E00
:101C60002400DD0120008E18362E372E382E382E17
:101C70009830AE00A130AF00F330B000A130B10019
:101C80005930B200A030B300E730B400A230B50044
:101C90009231A7228D3103302100E0000830DF00AF
:101CA0007730890B512EDF0B512EE00B512E652E14
:101CB00063302100DF005F08B0006030E0006008A2
:101CC000B10061308C313B248D312400630803194D
:101CD0006A2E6B2E582EE0019E31B1268D31C13017
:101CE0002000AE00A330AF004B30B000A230B100F6
:101CF0005930B200A030B3005930B400A030B50064
:101D00009231A7228D312400E301E30A00309B3198
:101D10009E238D3100309B31AB238D3101309B31BF
:101D2000B8238D3101309B31C5238D3101309B317A
:101D3000D2238D3115302100E0004B30DF00BE3062
:101D4000890BA02EDF0BA02EE00BA02E000001308F
:101D50009B3191238D3129302100E0009630DF0046
:101D60007F30890BB12EDF0BB12EE00BB12E01308D
:101D70009E3123268D31003A0319BF2EC02ED32E5B
:101D800001309E3146268D31003A0319C82EC92EE6
:101D9000D32E01309E3169268D31003A0319D12EA0
:101DA000D22ED32E012F2400E30100309B31C52316
:101DB0008D3100309B31D2238D31C1302100B000F4
:101DC000A330B1006330B2000230B3006230B4001F
:101DD0000230B500943164248D3161302100B800A7
:101DE0000230B9006330BA000230BB006230BC0080
:101DF0000230BD006030BE000230BF0088310020DC
:101E00008D3115302100E0004B30DF00BE30890BF2
:101E1000072FDF0B072FE00B072F000000309B314F
:101E2000C5238D3100309B31D2238D3124006308CE
:101E300003191B2F1C2F872FD1302000AE00A33099
:101E4000AF001730B000A230B1005930B200A0305E
:101E5000B3005930B400A030B5009231A7228D31C3
:101E600000309B31C5238D3100309B31D2238D3121
:101E70000B302100E0002630DF005D30890B3E2F63
:101E8000DF0B3E2FE00B3E2F003201309E31232628
:101E90008D31003A031D4D2F4E2F612F01309E31A1
:101EA00046268D31003A031D562F572F612F0130E2
:101EB0009E3169268D31003A031D5F2F602F612FFF
:101EC000872F2400E301D1302100B000A330B100FE
:101ED0006330B2000230B3006230B4000230B500AB
:101EE000943164248D3161302100B8000230B90092
:101EF0006330BA000230BB006230BC000230BD006B
:101F00006030BE000230BF00883100208D312400D7
:101F1000630803198C2F8D2FF82FE1302000AE00BD
:101F2000A330AF00AB30B000A230B1005930B200E6
:101F3000A030B3005930B400A030B5009231A722D0
:101F40008D3101309B31C5238D3106302100E000F9
:101F50001330DF00AD30890BAB2FDF0BAB2FE00B65
:101F6000AB2F003200309B31C5238D3124005D083A
:101F70000319BB2FBC2FF82F1F302100AD00A0305C
:101F8000AE009C31A6248D3124006108953179255D
:101F90008D312100DF005F082400E2006208031D8C
:101FA000D22FD32FF82FE301E1302100B000A3306E
:101FB000B1006330B2000230B3006230B4000230CE
:101FC000B500943164248D3161302100B8000230B5
:101FD000B9006330BA000230BB006230BC0002308E
:101FE000BD006030BE000230BF00883100208D315E
:101FF000240063080319FE2F80318C288031EE28DD
:102000002000A400A30124080319072808280E288B
:102010000F190B280C280E28A301A30A2408031D5E
:102020001228132819280F1D162817281928A3016C
:10203000A30A230808002000A4002200490803196D
:10204000222823281D282100111A272828282D2876
:102050002000240823009A0046281112200024089A
:10206000A3007D08283E86000130870023088100F8
:102070000130A3002308FD0708307D02031C41281E
:1020800042284328FD0101302200C9022100111617
:1020900008002300E41559289A31BE229031772890
:1020A0009A318C229031033077289A31C3229031B3
:1020B00077285408FA007A08F90049088A00480885
:1020C0000A009031FB00FC017C08003A03196928E2
:1020D00055287B08013A03195528033A03194C285F
:1020E000013A03194C28073A0319502855280800CB
:1020F0002000AC0093282908BF3E9D310325903174
:10210000A6282908933E9D3103259031A628290849
:10211000D33E9D3103259031A62829087F3E9D316D
:1021200003259031A6282C08AA00AB012B08003A01
:1021300003199B288D282A08023A03197B28013AA3
:1021400003198128073A031987288D2808002000E1
:102150006A080319AC28AD28A7286B08203E860022
:10216000013087000108A30023082200C8002000D6
:102170006B08E53E8600013087000108A3002308B4
:10218000A4000130A3002308EB0708306B02031CF6
:10219000CA28CB28CC28EB01210091120130200065
:1021A000EA02210091162000240808002100AA005C
:1021B000200065082100AC00200064082100AB006D
:1021C0002200B001B101FA28AB302000E700670817
:1021D000DD006608E8006808DE0021002A08883172
:1021E0005720903120005D082200B00720005E08D3
:1021F0002200B13D21002B0884002C08850012002C
:10220000031D03290429E428220031082000E500E9
:10221000220030082000E40008002100B400AF30A4
:102220002000E90069082100B30034082000E9001B
:1022300069082100B500B601B701B801B9012E083F
:102240002000E50021002D082000E400B330E90063
:102250006908E600B5309031D6209131200065083C
:102260002100B200200064082100B10036083407C4
:102270002000E90069088600023087008101210002
:102280003208AE003108AD00080020006C08203E86
:10229000860001308700810123001D1D502951292E
:1022A0005E2920006C08203E8600013087008114E2
:1022B00022003D088A003C080A00913123009D1C41
:1022C00062296329702920006C08203E86000130B5
:1022D0008700011522003B088A003A080A00913164
:1022E00020006C08203E8600013087000108031999
:1022F0007A297B298229220039088A0038080A00B5
:10230000913185299D314E25913108009A318922DC
:102310009131FA0023005F08860087017A08810066
:102320000130FA007A08DF070130E0020030E13BBB
:102330006008610403199D299E29A3299A319E22D0
:1023400091310530CB29E415AD299A31D222913152
:10235000CB299A31CD229131CB295408FA007A0841
:10236000F90049088A0048080A009131FB00FC0185
:102370007C08003A0319BD29A9297B08013A0319F1
:10238000A929033A0319A529013A0319A529073AEE
:102390000319A929A92908002000A801A9012000E2
:1023A000AA01AB019F31792791310B302000A700A2
:1023B0002630A6005D30890BDB29A60BDB29A70B95
:1023C000DB29003201302000AA070030AB3D2B088A
:1023D000803AA60080302602031DF02904302A022C
:1023E000031CF329F429D2290B302000A700263042
:1023F000A6005D30890BFA29A60BFA29A70BFA294A
:10240000003201302000A8070030A93D2908803A99
:10241000A60080302602031D0F2A04302802031C68
:10242000122A132ACF2908002100911245302000DA
:10243000A3001130A4009B313C23923121001112E2
:102440008C302000A3001E30A4009B314523923124
:10245000083023009F0090309D0024309E004030C3
:102460009B0003309C007D302000A3001A30A400A4
:102470009B312A23923196302000A3001A30A40009
:102480009B313323923192302000A3001A30A400F4
:102490009B31212392312200C801FD012100E3017B
:1024A00008302000A50025082200C9002000EC010A
:1024B000EB01EA0121009116080021003408860092
:1024C000350887000108031D662A672A6E2AF53041
:1024D000AD00A030AE009C31A6249231210030081E
:1024E00086003108870081013208860033088700A2
:1024F000810134088600350887008101360886008E
:10250000370887000130810000309B319E239231D3
:1025100000309B31AB23923100309B31B823923194
:1025200000309B319123923100309B31C523923191
:1025300000309B31D223923100309B31DF23923126
:1025400000309B31EC23923122008C1308009B3128
:102550004E23923106309D31032592310230200006
:10256000B7000430B600BA30890BB42AB60BB42ACF
:10257000B70BB42A00002000A901A90A013090314C
:102580007820923120002F08AA002E08A9009D3142
:10259000C22592312000A901A90A02309031782089
:1025A000923120003108AA003008A9009D31C225CF
:1025B00092312000A901A90A03309031782092318C
:1025C00020003308AA003208A9009D31C2259231AB
:1025D0002000A901A90A043090317820923120000E
:1025E0003508AA003408A9009D31C225923108009F
:1025F000200028080319FD2AFE2A032B2808031DA2
:10260000022B032B082B26089B3101239231492BE7
:102610002808033E86008701160001040319112BC8
:10262000122B2F2B2808033E86008701403FA9006C
:10263000413FAA00280A86008701403FAB00413F86
:10264000AC002C08803AAD002A08803A2D02031D08
:102650002B2B29082B0203182E2B2F2B492B200064
:102660002608A900280886008701280A8400850119
:1026700000080107AA002A088600023087002908FE
:102680008100280A86008701013081074131031843
:10269000810A08009A31DC229331003A0319512B48
:1026A000522B832B5F2B9A31B4229331A02B9A317A
:1026B000B9229331A02B9A31C3229331A02B23004E
:1026C0005708FA007A08F9000630C83E8600013043
:1026D0008700413F8A00403F0A009331FB00FC0124
:1026E0007C08003A0319752B5B2B7B08013A031910
:1026F0005B2B033A0319532B013A0319572B073A63
:1027000003195B2B5B2B230064101730C83E860037
:1027100001308700403F84008501810A00089A311A
:10272000AA22933101302300E0020030E13B60082F
:102730006104031D9C2B9D2B9F2B0630A02B033087
:1027400008002000BE002200361CA72BA82BB12BAE
:1027500020003E08B9003908AE0036089F31262710
:1027600093312000B81BB52BB62BBB2B3808BD000E
:102770003708BC00BD2BBC01BD01BA01BB01D12B88
:1027800020302000A6000030A7003E08B90039081C
:10279000A8009231F822933101302000BA070030AE
:1027A000BB3D3B08803AB9003D08803A3902031D21
:1027B000DB2B3C083A02031CDE2BDF2BC02B220054
:1027C0003618E32BE42BED2B20003E08B900390826
:1027D000AE0036089F312627933120003608A3002B
:1027E0000230A4009D313425933120003C0823079A
:1027F000B6003D08243DB70008002100B7015D2C5C
:1028000020000F19042C052C1A2CF5302100AD00E6
:10281000A030AE009C31A62493312100B701B70A45
:1028200030088600310887008101320886003308AD
:102830008700810120006A0803191F2C202C5D2CC1
:102840009031A72093312100B4003408B6004D2CFC
:10285000010085302100AD00A130AE009C31A624DE
:102860009331210030088600310887008101320849
:10287000860033088700810102302100B500043052
:10288000B400BA30890B422CB40B422CB50B422C4D
:1028900000002100B701B70A5D2C3608B400B5016D
:1028A0003508003A0319552C5D2C3408303A0319C9
:1028B000282C043A0319292C5D2C21003708031910
:1028C000622C632C002C0800A030860001308700A9
:1028D000C13084000030850014302100B60016009D
:1028E0001A00B60B6F2CBE30860001308700B7305F
:1028F0008400003085000A30B60016001A00B60BBE
:102900007D2C01309B31AB23943101309B31B823B6
:10291000943100309B319E23943100309B319123C0
:102920009431210031082000AF0021003008200040
:10293000AE00CF30B000A130B1003430B200A130D1
:10294000B3005930B400A030B5009231A7229431C1
:10295000C1302000B3000030B40021003108200055
:10296000B600210030082000B5009C31BC24943111
:10297000200034082100D600200033082100D500B3
:1029800056082000B400210055082000B300B730DD
:10299000B5000030B6009C31BC24943120003408CE
:1029A0002100AE00200033082100AD009C31A62498
:1029B00094319131CC21943120000F1DE02CE12C79
:1029C000DC2C21003208860033088700810134089E
:1029D000860035088700810108002000AB002B0825
:1029E000A90029082200C60000309C3191249431AE
:1029F0009C302000A900D730890BFC2CA90BFC2CA3
:102A000003309D31032594311A302000A900F8309D
:102A1000890B082DA90B082D000003309D310325DB
:102A200094311A302000A900F830890B152DA90B1C
:102A3000152D000003309D31032594311A302000FC
:102A4000A900F830890B222DA90B222D000002309D
:102A50009D31032594311A302000A900F830890BEC
:102A60002F2DA90B2F2D000028309D3103259431E7
:102A700002302000AA000430A900BA30890B3E2D94
:102A8000A90B3E2DAA0B3E2D00000C309D310325D5
:102A9000943102302000AA000430A900BA30890B1A
:102AA0004F2DA90B4F2DAA0B4F2D000001309D314A
:102AB0000325943102302000AA000430A900BA3066
:102AC000890B602DA90B602DAA0B602D000006302C
:102AD0009D310325943102302000AA000430A90062
:102AE000BA30890B712DA90B712DAA0B712D000025
:102AF00008002000A800A901AA0128080319812DB7
:102B0000822DE52DDF2D6A080319872D882DDF2DF5
:102B10009031A72095312000A5002508A700C92DD8
:102B2000010002302000A6000430A500BA30890B55
:102B3000972DA50B972DA60B972D00002000A9011E
:102B4000A90AAA01AA0ADF2D02302000A60004303B
:102B5000A500BA30890BAA2DA50BAA2DA60BAA2D6C
:102B600000002000A901A12D02302000A6000430A1
:102B7000A500BA30890BBA2DA50BBA2DA60BBA2D1C
:102B800000002000A901A90AAA01AA0A22008C13A8
:102B9000DF2D2708A500A6012608003A0319D12D2C
:102BA000DF2D2508303A0319902D023A0319912D93
:102BB000013A0319A42D0A3A0319B42DDF2D200080
:102BC0002A080319E42DE52D832D2808031DE92D7E
:102BD000EA2D0C2E062E01309D3169259531003AE3
:102BE0000319F32DF42DF82D2000A901AA01AA0A3A
:102BF0000130903100209531003A0319002E012E4A
:102C0000062E2000A901A90AAA01AA0A20002A0862
:102C100003190B2E0C2EEB2D290808002000B501FE
:102C20002B30860000308700473FB300B31F192EBA
:102C30001A2E3C2E2000AB09AC09AD09AE09AF0934
:102C4000B009B109B209AB0A031D392EAC0A031D44
:102C5000392EAD0A031D392EAE0A031D392EAF0AD7
:102C6000031D392EB00A031D392EB10A031D392E5A
:102C7000B20A2000B501B50A233086000030870073
:102C8000473F2000B300B31F462E472E662E20007C
:102C9000A309A409A509A609A709A809A909AA09B8
:102CA000A30A031D662EA40A031D662EA50A031D92
:102CB000662EA60A031D662EA70A031D662EA80A05
:102CC000031D662EA90A031D662EAA0A20002308EA
:102CD0002404250426042704280429042A040319AB
:102CE000722E732EC62EB401B40A822EA335A40D03
:102CF000A50DA60DA70DA80DA90DAA0D0130B300B5
:102D00003308B407AA1F852E862E762E2A08320293
:102D1000031DA42E29083102031DA42E2808300209
:102D2000031DA42E27082F02031DA42E26082E0201
:102D3000031DA42E25082D02031DA42E24082C02F9
:102D4000031DA42E23082B02031CA72EA82EB82E89
:102D50002308AB022408AC3B2508AD3B2608AE3B5C
:102D60002708AF3B2808B03B2908B13B2A08B23BF3
:102D7000AA36A90CA80CA70CA60CA50CA40CA30C95
:102D80000130B402031DC52EC62E862E3508031948
:102D9000CA2ECB2EE92EAB09AC09AD09AE09AF099D
:102DA000B009B109B209AB0A031DE92EAC0A031D33
:102DB000E92EAD0A031DE92EAE0A031DE92EAF0A66
:102DC000031DE92EB00A031DE92EB10A031DE92EE9
:102DD000B20A20002B08A3002C08A4002D08A5008F
:102DE0002E08A6002F08A7003008A8003108A90067
:102DF0003208AA0008002000B50123308600003008
:102E00008700473FB300B31F062F072F292F20004D
:102E1000A309A409A509A609A709A809A909AA0936
:102E2000A30A031D262FA40A031D262FA50A031D8E
:102E3000262FA60A031D262FA70A031D262FA80A40
:102E4000031D262FA90A031D262FAA0A2000B5015B
:102E5000B50A2B30860000308700473F2000B300C2
:102E6000B31F332F342F582F2000AB09AC09AD0905
:102E7000AE09AF09B009B109B209AB0A031D532F5E
:102E8000AC0A031D532FAD0A031D532FAE0A031DB9
:102E9000532FAF0A031D532FB00A031D532FB10A3E
:102EA000031D532FB20A01302000B3003308B506CA
:102EB000363086000030870008302000B300003034
:102EC0001E00B30B602F23082404250426042704C6
:102ED000280429042A0403196E2F6F2FCB2FB40165
:102EE000B40A7E2FA335A40DA50DA60DA70DA80D20
:102EF000A90DAA0D0130B3003308B407AA1F812F12
:102F0000822F722FB635B70DB80DB90DBA0DBB0DA6
:102F1000BC0DBD0D2A083202031DA82F290831025D
:102F2000031DA82F28083002031DA82F27082F02F1
:102F3000031DA82F26082E02031DA82F25082D02E9
:102F4000031DA82F24082C02031DA82F23082B02E1
:102F5000031CAB2FAC2FBD2F2308AB022408AC3BC6
:102F60002508AD3B2608AE3B2708AF3B2808B03B01
:102F70002908B13B2A08B23B3614AA36A90CA80C82
:102F8000A70CA60CA50CA40CA30C0130B402031DC5
:102F9000CA2FCB2F822F35080319CF2FD02FEE2F1A
:102FA000B609B709B809B909BA09BB09BC09BD090D
:102FB000B60A031DEE2FB70A031DEE2FB80A031D34
:102FC000EE2FB90A031DEE2FBA0A031DEE2FBB0A1E
:102FD000031DEE2FBC0A031DEE2FBD0A200036088C
:102FE000A3003708A4003808A5003908A6003A084D
:102FF000A7003B08A8003C08A9003D08AA0008005B
:10300000AF341A3418341B3408341B344A341334A4
:1030100086341134FA341A3449341034B4341A343E
:10302000B9341A34BE341A34C3341A34C8341A3496
:10303000CD341A34D2341A34D7341A34A5341F3468
:103040002D343E34203454344534533454342034F5
:1030500043344F344E3446344F3452344D34453477
:1030600020342D34203441345434543445344E34D7
:103070005434453420344134433451345534493484
:103080005434543445344D3445344E3454340D3472
:043090000A340034CA
:1034FA00080001300800240096140800240016155C
:10350A00080024009615080024001108080020006D
:10351A00911508002000911108009D314E259A311D
:10352A00080023001D121D16080024009616161600
:10353A00080024009612161608009F31D2279A31E5
:10354A0008001630210097000800F00070082400D7
:10355A00910008002300E410E3010E3008009A31BC
:10356A0080229A31013008009A3180229A31023041
:10357A0008009A3180229A31013008009A31832258
:10358A009A31003008009A319E229A31053008009B
:10359A009A319A229A310A3008009A319A229A313B
:1035AA00093008002300E410E3010E30080024006B
:1035BA00160E890C890C013908009B316C239A314B
:1035CA002400161408009B316C239A312400161526
:1035DA000800640080010131890BEF2A0034FE00E3
:1035EA0012001E00FE0BF52A0034230064109A31E3
:1035FA0086229A31043008002000A500250890315F
:10360A001B209B310800230064145E359A31AA22DC
:10361A009B3103300800F03021009E009B019C0181
:10362A0001309D0008002300641403145E0D9A31D2
:10363A00AA229B3105300800200024082200B90084
:10364A00200023082200B8000800200024082200D5
:10365A00BD00200023082200BC0008002000240826
:10366A002200BB00200023082200BA000800200024
:10367A0024082200BF00200023082200BE00080000
:10368A00200024082200C100200023082200C000D4
:10369A00080001309D3103259B313530890B532BAE
:1036AA0000000800C03024009400083095009601FC
:1036BA004F30920095120800283024009500960198
:1036CA0094012730920021008E150E16080024005E
:1036DA001419702B712B6C2B16081F39031D762BAE
:1036EA00772B6C2B0800703021009900980122007A
:1036FA00960121001A1F822B832B7E2B0800760845
:10370A00F1007508F0007708F8007808F200003038
:10371A009F314F279B3108002000A300230803197B
:10372A00972B982B9B2B22000C149D2B22000C10FC
:10373A0008002000A30023080319A42BA52BA82BFB
:10374A0022001014AA2B2200101008002000A30047
:10375A0023080319B12BB22BB52B22009014B72BD7
:10376A002200901008002000A30023080319BE2B92
:10377A00BF2BC22B22001015C42B220010110800E7
:10378A002000A30023080319CB2BCC2BCF2B22001C
:10379A008C14D12B22008C1008002000A3002308CF
:1037AA000319D82BD92BDC2B22000C15DE2B220077
:1037BA000C1108002000A30023080319E52BE62BAF
:1037CA00E92B22000C16EB2B22000C120800200019
:1037DA00A30023080319F22BF32BF62B22008C16D5
:1037EA00F82B22008C1208002000A30023080319DA
:1037FA00FF2B002C032C22008C15052C22008C1187
:10380A000800F3002300E41D0B2C0C2C152C730864
:10381A00F2007208DF007108E1007008E000E411AC
:10382A0008002000A3009B316C239C312000230850
:10383A00240091002000911D232C242C1F2C91116F
:10384A0008000230F0000030F10079089C310624AB
:10385A009C310030F500F600F7019B3184239C313E
:10386A00043008000130F0000030F10079089C3182
:10387A0006249C310030F500F600F7019B318423C1
:10388A009C31023008000230F0000030F100790863
:10389A009C3106249C310030F500F600F7019B317B
:1038AA0084239C31023008000130F0000030F1001E
:1038BA0079089C3106249C310030F500F600F701A6
:1038CA009B3184239C31043008009B3157239C315F
:1038DA009D3184259C319B3178239C319A31A622D3
:1038EA009C319B3110239C31923114229C31080067
:1038FA002D343E3420344534523452344534553410
:10390A0052343A3420340034003400340034003461
:10391A0000340034003400342000A4009A31E2223A
:10392A009C31220046089C3116249C312000240830
:10393A0022006B049C3116249C319A31E8229C3176
:10394A000800AF302000E90069082100AF002E0806
:10395A002000E50021002D082000E400AF30E90036
:10396A006908E60000309031D6209C31080020001A
:10397A003408A4003308A3009D3134259C3120006B
:10398A0023083307A7002408343DA8003608AA00F4
:10399A003508A9009E31D7269C310800790886008F
:1039AA008701403FF000413FF1007908023E86005E
:1039BA00870101089C3106249C310030F500F6008D
:1039CA00F7019B3184239C31023008002000A600B5
:1039DA00220047082000A5002508A6042608043866
:1039EA009C3191249C3120002608FB399C3191247A
:1039FA009C314230890BFF2C003208002000A800BD
:103A0A002200C70120002808F0399C31EB249D319F
:103A1A0020002808A7000330A735FF3E031D112DFB
:103A2A002735F0399C31EB249D3108002000A8008D
:103A3A002200C701C70A20002808F0399C31EB246C
:103A4A009D3120002808A7000330A735FF3E031D3B
:103A5A002A2D2735F0399C31EB249D3108002000AE
:103A6A002408A6002308A5003E2D0130A307003034
:103A7A00A43D23088600240887000108031D462D5B
:103A8A00472D3A2D25082302A3002608243BA4002B
:103A9A00080023001908F00020006C08E53E8600A3
:103AAA0001308700700881000130F0007008EC07CF
:103ABA0008306C02031C622D632D642DEC01013069
:103ACA00F0007008EA0708002000A400A3012408F7
:103ADA000319702D712D772D8F1B742D752D772D50
:103AEA00A301A30A2408031D7B2D7C2D822D8F1F81
:103AFA007F2D802D822DA301A30A2308080022000E
:103B0A0090018F018C018D018E01083021009000F7
:103B1A008C01EF308D00BF308E00FF308F00230004
:103B2A008F013F308D0090013C308C0024009001C1
:103B3A008D012100951722009D01080022000C1713
:103B4A0006302000A4001330A300AD30890BAB2D42
:103B5A00A30BAB2DA40BAB2D003222000C130630A5
:103B6A002000A4001330A300AD30890BBA2DA30B9B
:103B7A00BA2DA40BBA2D003208002000AC01AD0109
:103B8A00D52D29082C0784002A082D3D8500000818
:103B9A009D311B259D3101302000AC070030AD3D21
:103BAA0029082C0784002A082D3D85001200031DD0
:103BBA00DF2DE02DC62D08002000A6002608A5004E
:103BCA00A50DA50D21001D0820002506833925060F
:103BDA0021009D001D140D30890BF12D00002100DC
:103BEA009D149D18F92DFA2DF62D1C082000A4000D
:103BFA0021001B082000A300080020302100AD008E
:103C0A009830AE009C31A6249E312100B101B20148
:103C1A009E31B1269E3101302100B1070030B23DFC
:103C2A003208803AB00080303002031D1E2E023066
:103C3A003102031C212E222E0D2E08002000A40082
:103C4A00A301240803192A2E2B2E352E0F1C2E2EE3
:103C5A002F2E352E8F18322E332E352EA301A30A7E
:103C6A002408031D392E3A2E442E0F183D2E3E2EBF
:103C7A00442E8F1C412E422E442EA301A30A230850
:103C8A0008002000A400A301240803194D2E4E2E7B
:103C9A00582E8F1D512E522E582E0F1A552E562E33
:103CAA00582EA301A30A2408031D5C2E5D2E672E3D
:103CBA008F19602E612E672E0F1E642E652E672EB9
:103CCA00A301A30A230808002000A400A3012408D2
:103CDA000319702E712E7B2E8F1E742E752E7B2E3D
:103CEA000F1B782E792E7B2EA301A30A2408031D0D
:103CFA007F2E802E8A2E8F1A832E842E8A2E0F1FB5
:103D0A00872E882E8A2EA301A30A230808000830CA
:103D1A00220049020318922E932EAE2E2100630828
:103D2A00283E860001308700010823009A000130EE
:103D3A00F00070082100E30708306302031CA62E76
:103D4A00A72EA82EE3010130F00070082200C9074F
:103D5A00B02E2100111208002000A801A9019F31EC
:103D6A0079279E310B302000A7002630A6005D304F
:103D7A00890BBD2EA60BBD2EA70BBD2E003201301E
:103D8A002000A8070030A93D2908803AA600803003
:103D9A002602031DD22E02302802031CD52ED62E4F
:103DAA00B42E080020002A08B0002908AF0028080D
:103DBA00B2002708B1003208AC003108AB00B10AE2
:103DCA000319B20A2B0886002C0887003008AE00B7
:103DDA002F08AD00AF0A0319B00A2D0884002E0877
:103DEA0085000008C03F8908031DFC2EFD2EE02E29
:103DFA0008002D343E34203445345234523445348C
:103E0A00553452343A342034003400340034003407
:103E1A00003400340034003400340D340A340034E1
:103E2A0000340034003400340034003400340D34DB
:103E3A000A340034003400340034003400340034CE
:103E4A0000342000B500B301B4013E2F3208AF00A0
:103E5A00B0012F08A6003008A7002E08B1003108CB
:103E6A00A8009231F8229F3101302000B3070030B8
:103E7A00B43D33083507AF002F08860002308700AB
:103E8A000108B0003008B2003208031D4D2F4E2F32
:103E9A002B2F0800F400700871040319552F562FB0
:103EAA00692F7435C83E8600013087007008C03F0C
:103EBA007108C13F7208F3007408D43E86000130CD
:103ECA00870073088100782F7435C83E8600013058
:103EDA0087007E30C03F1A30C13F7408D43E860046
:103EEA0001308700810108002000A401A5012200F9
:103EFA000D1606302000A3003030890B822FA30B49
:103F0A00822F000022000D1206302000A30030305C
:103F1A00890B8D2FA30B8D2F000001302000A407E1
:103F2A000030A53D2508803AA30080302302031DF6
:103F3A00A02F32302402031CA32FA42F7C2F0800A9
:103F4A00230064100230FA007A08E300B42F9A3191
:103F5A00BE229F31D12F9A31C3229F31D12F5608C9
:103F6A00FA007A08F9000430C83E8600013087005A
:103F7A00413F8A00403F0A009F31FB00FC017C0858
:103F8A00003A0319C92FB02F7B08023A0319AC2F44
:103F9A00013A0319AC2FB02F08009A318F229F31B2
:103FAA002300641CD92FDA2FE82F9A31DC229F31A3
:103FBA00003A0319E12FE22FE82F0F302000A0006A
:103FCA0020082300E200230062082000A000A101CB
:103FDA00A035A10D0030200784009830213D8500CE
:103FEA00013F8A00003F0A009F312000A2002208F8
:103FFA002300E200080041345434543445344E342A
:10400A00543445342034563441344C3449344434DD
:10401A004134543449344F344E34203442344C34CD
:10402A005534453454344F344F34543448340D34B1
:10403A000A34003441347434743465346E3474345C
:10404A0065342034763461346C34693464346134D0
:10405A00743469346F346E3420346C3465346434A7
:10406A00203472346F347534673465340D340A344D
:10407A0000342D343E342034503452344F344734D3
:10408A00523441344D344D344134543449344F342C
:10409A004E3420345434453452344D3449344E3439
:1040AA00453445340D340A3400342D343E3420343A
:1040BA00503452344F344734523441344D344D34F1
:1040CA004134543449344F344E34203445344E3418
:1040DA00203443344F345534523453340D340A3473
:1040EA0000342D343E34203445345234523445346D
:1040FA00553452342034503452344F3447345234C5
:10410A0041344D344D344134543449344F344E34AF
:10411A000D340A3400342D343E34203454344534BA
:10412A005334543420344D3441344E3455344534A8
:10413A004C34203445344E34203443344F345534CF
:10414A00523453340D340A34003441345434543420
:10415A0045344E34543445342034563441344C3486
:10416A00493444344134543449344F344E3420347D
:10417A004C344534443453340D340A3400342D3429
:10418A003E3420344534463446344134433445348D
:10419A004D3445344E345434203445344E3420346E
:1041AA0043344F345534523453340D340A340034C2
:1041BA002D343E3420344534463446344134433475
:1041CA0045344D3445344E34543420345434453413
:1041DA0052344D3449344E3445340D340A340034A3
:1041EA002D343E342034463449344E342034543449
:1041FA0045345334543420344D3441344E345534D8
:10420A0045344C340D340A34003445345234523473
:10421A004534553452342034503452344F344734B0
:10422A00523441344D344D344134543449344F348A
:10423A004E340034503452344534533453344534B4
:10424A00523420344F344B3420344F3455342034D4
:10425A00453452345234453455345234003441349E
:10426A005434543445344E3454344534203441346F
:10427A0043345134553449345434543445344D3428
:10428A0045344E34543400342D343E3420344134D1
:10429A00703470347534793465347234203473343C
:1042AA007534723420344F344B340D340A340034AC
:1042BA005434453453345434203452343134203451
:1042CA004F344634463420342D3420345234323478
:1042DA0020344F344E340034543445345334543437
:1042EA0020345234323420344F3446344634203465
:1042FA002D3420345234333420344F344E34003485
:10430A002D343E3420345434453453345434203418
:10431A004134433451345534493454345434453493
:10432A000D340A340034543445345334543420346C
:10433A0043344134523454344534203444343934C7
:10434A003234353445344434343400345634453404
:10435A005234493446344934453452342034503482
:10436A003134203445345434203450343234003417
:10437A0052344534533455344C345434413454341F
:10438A00203443344F344E344634493452344D3455
:10439A0045340034543445345334543420344E3480
:1043AA004F344E34203443344F344E3446344F3431
:1043BA0052344D3445340034463449344E34203472
:1043CA00503452344F344734523441344D344D34DE
:1043DA004134543449344F344E3400344134543423
:1043EA00543445344E3454344534203444344534FA
:1043FA004D34413452345234413447344534003414
:10440A0050344F3453344934543449344F344E348D
:10441A004E344534523420344334413452345434C3
:10442A00453400345434453453345434203433340A
:10443A002034523445344C344134493453342034D2
:10444A004F3446344634003443344C3441345634C1
:10445A004934453452342034453443344C3441349D
:10446A004934523445343F3400345034523445349C
:10447A00533453344534523420344F344B3420347B
:10448A002F3420344E344F344B34003454344534B2
:10449A0053345434203433342034523445344C3475
:1044AA0041344934533420344F344E340034543474
:1044BA0045345334543420344C3445344434203451
:1044CA0043344C344134563449344534523400343C
:1044DA0043344C344134563449344534523420340C
:1044EA0045345434453449344E3454343F3400341A
:1044FA00543445345334543420344C3445344434DD
:10450A00533420344334413452345434453400341F
:10451A0045345234523445345534523420345634A6
:10452A0041344C34493444344534453400344634F7
:10453A0049344E34203445344634463441344334C5
:10454A0045344D3445344E345434003454344534AF
:10455A005334543420344C344534443420345234A3
:10456A004F34553447344534003454344534533485
:10457A00543420344C34453444342034563445348D
:10458A005234543445340034543445345334543456
:10459A0020344C3445344434203442344C34453489
:1045AA005534453400345434453453345434203467
:1045BA0042344C345534453454344F344F345434E3
:1045CA004834003441345034503455345934453425
:1045DA005234203453345534523420344F344B340B
:1045EA0000342D343E342034543445345334543456
:1045FA0020344F34463446340D340A3400345234AD
:10460A0045345434493452344534523420344334D2
:10461A00413452345434453400344C3445344434EF
:10462A005334203441344C344C3455344D344534AD
:10463A004534533400342D343E3420345434453414
:10464A005334543420344F344E340D340A34003445
:10465A005434453453345434203448344F34523467
:10466A004C344F344734453400345434453453348D
:10467A0054342034533446344C344134533448345B
:10468A000034463449344E342034443445342034DA
:10469A005434453453345434003456344F34493442
:1046AA00523420344134503450344C344934003478
:1046BA00543445345334543420345234313420344D
:1046CA004F344E3400344534543441345034453434
:1046DA002034313430340034453454344134503485
:1046EA00453420343134323400345434453453346C
:1046FA00543420344234503432340034453454343F
:10470A004134503445342034313433340034453460
:10471A005434413450344534203431343434003440
:10472A0045345434413450344534203431343534EA
:10473A00003445345434413450344534203431340F
:10474A0036340034453454344134503445342034FA
:10475A0031343734003445345434413450344534D8
:10476A0020343134383400345434453453345434D6
:10477A0020344F344B3400344534543441345034AB
:10478A0045342034313400345434453453345434A9
:10479A0020345034313400344534543441345034A4
:1047AA004534203432340034543445345334543488
:1047BA002034503432340034453454344134503483
:1047CA00453420343334003445345434413450347D
:1047DA00453420343434003445345434413450346C
:1047EA00453420343534003445345434413450345B
:1047FA00453420343634003445345434413450344A
:10480A004534203437340034453454344134503438
:10481A004534203438340034453454344134503427
:0E482A004534203439340034253464340034ED
:020000040001F9
:08000000FF3FFF3FFF3FFF3F00
:04000E00E43FFF3F8D
:00000001FF
