:1000000080314A28053008007E1480310B1F0928F2
:100010000A2848282100111E0E280F281B2820001E
:10002000111E132814281B2821005E088A005D0871
:100030000A00803148282100911E1F2820282C28E2
:100040002000911E242825282C2821005C088A00E5
:100050005B080A00803148282100921D3028312891
:100060003D282000921D352836283D2821006208B1
:100070008A0061080A00803148282100911D41282A
:10008000422848282000911D46284728482836281D
:100090007E10090080314C28210093318223803169
:1000A000E4007030840096308500483086000130CE
:1000B00087001E309331F7238031FD015C308400CE
:1000C0000030850007309331F1238031A030840067
:1000D0000030850044309331F1238031203084009A
:1000E0000130850028309331F12380317E102000CB
:1000F0008E311F2EDD30AE009A30AF00C530B0001B
:100100009930B100D630B2009830B300D630B40088
:100110009830B5008B314E23803101309431CD249D
:10012000803106302000D5001330D400AD30890B6B
:100130009728D40B9728D50B97280032003094319C
:10014000CD248031200058080319A728A828D228D8
:1001500059088D311C2580312000D4005408DA0064
:100160005A08031DB428B528D228DB01DD30C300AE
:100170009A30C4005B30D4005408C5005A30D50012
:100180005508C6008C31A62480315B302000D40095
:100190005408CB005A30D5005508CC0059308B316B
:1001A0000623803120005B080319D728D82830297E
:1001B000E530AE009A30AF00B630B0009930B100F3
:1001C000D630B2009830B300D630B4009830B500C5
:1001D0008B314E23803101309431CD248031063073
:1001E0002000D5001330D400AD30890BF528D40B96
:1001F000F528D50BF528003200309431CD2480311C
:1002000020005808031905290629302959088D317D
:100210001C2580312000D4005408DA005A08031D40
:10022000122913293029DB01E530C3009A30C400BC
:100230005B30D4005408C5005A30D5005508C600BC
:100240008C31A62480315B302000D4005408CB00D0
:100250005A30D5005508CC0059308B3106238031F7
:1002600020005B080319352936299329ED30AE00AB
:100270009A30AF005930B0009A30B100D630B20099
:100280009830B300D630B4009830B5008B314E238F
:10029000803101309431CD24803115302000D500DB
:1002A0004B30D400BE30890B5329D40B5329D50BC6
:1002B0005329000000309431CD24803115302000C6
:1002C000D5004B30D400BE30890B6429D40B64298F
:1002D000D50B642900000130973171278031003A35
:1002E000031973297429752993292000DB01ED3046
:1002F000C3009A30C4005B30D4005408C5005A30A3
:10030000D5005508C6008C31A62480315B30200012
:10031000D4005408CB005A30D5005508CC005930D1
:100320008B310623803120005B0803199829992915
:10033000FF29F530AE009A30AF009C30B000983005
:10034000B100D630B2009830B300D630B400983047
:10035000B5008B314E23803101309431CD24803172
:1003600015302000D5004B30D400BE30890BB629A3
:10037000D40BB629D50BB629000000309431CD241A
:10038000803115302000D5004B30D400BE30890BB1
:10039000C729D40BC729D50BC729000000309731D6
:1003A00071278031003A0319D629D729E129013074
:1003B000973194278031003A0319DF29E029E12998
:1003C000FF292000DB01F530C3009A30C4005B3008
:1003D000D4005408C5005A30D5005508C6008C31E9
:1003E000A62480315B302000D4005408CB005A3062
:1003F000D5005508CC0059308B31062380312000C0
:100400005B080319042A052A6B2AFD30AE009A30D6
:10041000AF00B030B0009830B100D630B2009830A4
:10042000B300D630B4009830B5008B314E23803104
:1004300001309431CD24803115302000D5004B306F
:10044000D400BE30890B222AD40B222AD50B222AB3
:10045000000000309431CD24803115302000D500CB
:100460004B30D400BE30890B332AD40B332AD50B42
:10047000332A00000030973194278031003A031965
:10048000422A432A4D2A01309731B7278031003A5A
:1004900003194B2A4C2A4D2A6B2A2000DB01FD3020
:1004A000C3009A30C4005B30D4005408C5005A30F1
:1004B000D5005508C6008C31A62480315B30200061
:1004C000D4005408CB005A30D5005508CC00593020
:1004D0008B310623803120005B080319702A712AB2
:1004E000EA2A0530AE009B30AF007630B00099307C
:1004F000B1004330B2009930B300D630B400983028
:10050000B5008B314E23803101309431CD248031C0
:1005100006302000D5001330D400AD30890B8E2A70
:10052000D40B8E2AD50B8E2A003200309431CD2484
:1005300080310B302000D5002630D4005D30890B8F
:100540009F2AD40B9F2AD50B9F2A00320C3096315C
:10055000EB26803120002408D7002308D600570856
:10056000803AD40081305402031DB82AE03056028C
:100570000318BB2ABC2ABF2A22008C17DE2A0530AA
:100580002000C3009B30C4005B30D4005408C50079
:100590005A30D5005508C6008C31A624803122007F
:1005A0008C135B302000D4005408CB005A30D500A7
:1005B0005508CC0059308B3106238031293020007A
:1005C000D5009630D4007F30890BE42AD40BE42A7E
:1005D000D50BE42A20005B080319EF2AF02A692BC7
:1005E0006430AE009A30AF007630B0009930B10080
:1005F0008730B2009930B300D630B4009830B500DF
:100600008B314E23803101309431CD24803106303E
:100610002000D5001330D400AD30890B0D2BD40B46
:100620000D2BD50B0D2B003200309431CD248031B1
:100630000B302000D5002630D4005D30890B1E2BF6
:10064000D40B1E2BD50B1E2B00320C309631EB2613
:10065000803120002408D7002308D6005708803AAC
:10066000D40081305402031D372BE1305602031CA5
:100670003A2B3B2B3E2B22008C135D2B6430200049
:10068000C3009A30C4005B30D4005408C5005A300F
:10069000D5005508C6008C31A624803122008C1765
:1006A0005B302000D4005408CB005A30D5005508E8
:1006B000CC0059308B310623803129302000D50001
:1006C0009630D4007F30890B632BD40B632BD50B72
:1006D000632B20005B0803196E2B6F2B2B2C6D30C6
:1006E000AE009A30AF003630B0009A30B100D6304C
:1006F000B2009830B300D630B4009830B5008B31DA
:100700004E2380310B302000D5002630D4005D30E0
:10071000890B882BD40B882BD50B882B003201300A
:100720009431CD24803106302000D5001330D40020
:10073000AD30890B992BD40B992BD50B992B00320B
:1007400000309431CD2480313D302000D500E1309F
:10075000D4003F30890BAA2BD40BAA2BD50BAA2B84
:10076000003201309431CD24803106302000D50094
:100770001330D400AD30890BBB2BD40BBB2BD50B66
:10078000BB2B003200309431CD248031103020005A
:10079000D5003930D4000D30890BCC2BD40BCC2BA9
:1007A000D50BCC2B00320130973171278031003AC4
:1007B0000319DB2BDC2BEF2B013097319427803191
:1007C000003A0319E42BE52BEF2B00309731B727C4
:1007D0008031003A0319ED2BEE2BEF2B162C200065
:1007E000DB0100309431CD24803100309431DA24A3
:1007F00080316D302000C3009A30C4005B30D400DB
:100800005408C5005A30D5005508C6008C31A624BE
:1008100080315B302000D4005408CB005A30D50022
:100820005508CC0059308B3106238031153020001B
:10083000D5004B30D400BE30890B1C2CD40B1C2CA3
:10084000D50B1C2C000000309431CD2480310030B9
:100850009431DA24803120005B080319302C312CCC
:100860008C2C7F30AE009A30AF009730B0009930BA
:10087000B1000E30B2009A30B3005430B400993059
:10088000B5008B314E23803101309431CD2480313D
:1008900006302000D5001330D400AD30890B4E2C2B
:1008A000D40B4E2CD50B4E2C003200309431CD247D
:1008B000803158302000BF009830C0009531582555
:1008C0008031200059088D311C2580312000D40052
:1008D0005408DA005A08031D6E2C6F2C8C2CDB0197
:1008E0007F30C3009A30C4005B30D4005408C50088
:1008F0005A30D5005508C6008C31A62480315B30B3
:100900002000D4005408CB005A30D5005508CC0044
:1009100059308B310623803120005B080319912C5C
:10092000922C012D8830AE009A30AF007630B000A6
:100930009A30B100D630B2009830B300D630B4004F
:100940009830B5008B314E23803101309431DA2458
:10095000803106302000D5001330D400AD30890B33
:10096000AF2CD40BAF2CD50BAF2C00320030943110
:10097000DA2480310B302000D5002630D4005D30E1
:10098000890BC02CD40BC02CD50BC02C00320130ED
:10099000973171278031003A0319CF2CD02CE32CEA
:1009A0000130973194278031003A0319D82CD92C83
:1009B000E32C01309731B7278031003A0319E12C3D
:1009C000E22CE32C012D2000DB018830C3009A309B
:1009D000C4005B30D4005408C5005A30D500550817
:1009E000C6008C31A62480315B302000D40054082E
:1009F000CB005A30D5005508CC0059308B31062336
:100A0000803120005B080319062D072D762D9130CB
:100A1000AE009A30AF002930B0009A30B100D63025
:100A2000B2009830B300D630B4009830B5008B31A6
:100A30004E23803101309431C024803106302000B3
:100A4000D5001330D400AD30890B242DD40B242DC8
:100A5000D50B242D003200309431C02480310B306E
:100A60002000D5002630D4005D30890B352DD40B05
:100A7000352DD50B352D003200309731712780315F
:100A8000003A0319442D452D582D003097319427F5
:100A90008031003A03194D2D4E2D582D00309731DD
:100AA000B7278031003A0319562D572D582D762D32
:100AB0002000DB019130C3009A30C4005B30D400C9
:100AC0005408C5005A30D5005508C6008C31A624FC
:100AD00080315B302000D4005408CB005A30D50060
:100AE0005508CC0059308B310623803120005B083B
:100AF00003197B2D7C2DEB2D9A30AE009A30AF0080
:100B0000BD30B0009A30B100D630B2009830B3009A
:100B1000D630B4009830B5008B314E23803101308F
:100B20009431E724803119302000D5005A30D400A8
:100B3000B130890B992DD40B992DD50B992D0032FD
:100B400000309431E72480310B302000D50026306E
:100B5000D4005D30890BAA2DD40BAA2DD50BAA2D5C
:100B600000320130973171278031003A0319B92DD5
:100B7000BA2DCD2D0130973194278031003A0319D9
:100B8000C22DC32DCD2D01309731B7278031003ACA
:100B90000319CB2DCC2DCD2DEB2D2000DB019A3070
:100BA000C3009A30C4005B30D4005408C5005A30EA
:100BB000D5005508C6008C31A62480315B3020005A
:100BC000D4005408CB005A30D5005508CC00593019
:100BD0008B310623803120005B080319F02DF12DA5
:100BE000602EA330AE009A30AF00CD30B0009A3006
:100BF000B100D630B2009830B300D630B40098308F
:100C0000B5008B314E238031013088310220803194
:100C100019302000D5005A30D400B130890B0E2E87
:100C2000D40B0E2ED50B0E2E003200308831022050
:100C300080310B302000D5002630D4005D30890B88
:100C40001F2ED40B1F2ED50B1F2E003200309731D4
:100C500071278031003A03192E2E2F2E422E00309C
:100C6000973194278031003A0319372E382E422EBF
:100C700000309731B7278031003A0319402E412EBA
:100C8000422E602E2000DB01A330C3009A30C40046
:100C90005B30D4005408C5005A30D5005508C60052
:100CA0008C31A62480315B302000D4005408CB0066
:100CB0005A30D5005508CC0059308B31062380318D
:100CC00020005B080319652E662ECB2EAC30AE00DB
:100CD0009A30AF00D430B0009930B1004E30B2003D
:100CE0009A30B3005430B4009930B5008B314E23A4
:100CF00080319631AD26803100302000BF00983021
:100D0000C000953158258031200059088D311C25AF
:100D100080312000D4005408DA005A08031D912EB7
:100D2000922ECB2EDB01AC30C3009A30C4005B3076
:100D3000D4005408C5005A30D5005508C6008C317F
:100D4000A62480315B302000D4005408CB005A30F8
:100D5000D5005508CC0059308B31062380315B30EB
:100D60002000C3000030C4005A30C5000030C60067
:100D70005930C7000030C8008931F0218031293056
:100D80002000D5009630D4007F30890BC52ED40BBF
:100D9000C52ED50BC52E20005B080319D02ED22EF0
:100DA0008E314F2E4230AE009A30AF00F330B0009B
:100DB0009830B1000030B2009A30B3008730B400F0
:100DC0009830B5008B314E23803101309431992415
:100DD0008031003094318C24803197310C27803160
:100DE00059302000C3000030C4005B30C500003023
:100DF000C6008C31482480315B302000C3000030B5
:100E0000C4005A30C5000030C6005930C700003059
:100E1000C8008931F021803129302000D50096307A
:100E2000D4007F30890B122FD40B122FD50B122F29
:100E3000D02E80314A282000B6002E088600870177
:100E4000403FB000413FB1003008840031088500C8
:100E50001200253A031D2D2F2E2FA32F2E088600BA
:100E600087010130810741310318810A2100CF0138
:100E7000D001D301D401FF30D100FF30D2002000D7
:100E80002E0886008701403FB000413FB100300886
:100E900084003108850012006E3A031D502F512F37
:100EA000702F2E0886008701013081074131031819
:100EB000810A2F0886008701403F84008501810A4E
:100EC0000008B0003008B500350886008701210011
:100ED0004D08C03F4E08C13F2000AE01AF01C62FF4
:100EE0002E0886008701403FB000413FB100300826
:100EF0008400310885001200253A031D802F812FC0
:100F00009A2F2E088600870101308107413103188E
:100F1000810A2530A6000030A7003608B00030084E
:100F2000A8008931AF21873101302000AE000030A8
:100F3000AF00C62F2E08860087010130810741319E
:100F40000318810A6C2F2E0886008701403FB000ED
:100F5000413FB10030088400310885000008B2002C
:100F6000B3013208A6003308A7003608B4003408DD
:100F7000A8008931AF21873120002E088600870123
:100F80000130810741310318810A942F08002000A5
:100F9000BC003808BE003708BD002100CD01CE01DD
:100FA000E52F3D30BA003A08AE003908BB003B08D7
:100FB000AF003C0887311B27873120002E08210015
:100FC000CD0720002F082100CE3D20003D088400E1
:100FD0003E0885001200031DEE2FEF2FD12F2100B8
:100FE0004E082000B80021004D082000B70008007E
:100FF000F03021009E009B019C0101309D00080003
:10100000013008002000A30023080319082809283C
:101010000C2822008C160E2822008C1208002000BA
:10102000A801A90188318C2088310B302000A7004D
:101030002630A6005D30890B1B28A60B1B28A70BAA
:101040001B28003201302000A8070030A93D2908E4
:10105000803AA60080302602031D30280230280284
:10106000031C33283428122808002000A40060083C
:1010700003193B283C2837282100111A4028412811
:1010800046282000240823009A005D281112200021
:101090002408A3006208C53E86008701230881005A
:1010A0000130A3002308E20708306202031C59281C
:1010B0005A285B28E2010130E002210011160800E5
:1010C00021003C100230FA007A08BB006F289331EF
:1010D000C12388318B289331C62388318B282E0871
:1010E000FA007A08F9000430A03E86008701413FEB
:1010F0008A00403F0A008831FB00FC017C08003A6E
:10110000031983286B287B08023A03196728013AE0
:10111000031967286B2808002000A401A5012200FC
:101120000D1606302000A3003030890B9528A30B44
:101130009528000022000D1206302000A300303058
:10114000890BA028A30BA028000001302000A407D1
:101150000030A53D2508803AA30080302302031DFE
:10116000B32832302402031CB628B7288F28080081
:1011700093319223883121003C1CBF28C028CE28FF
:101180009331DF238831003A0319C728C828CE28B5
:101190000F302000A00020082100BA0021003A08EA
:1011A0002000A000A101A035A10D0030200784007F
:1011B0009030213D8500013F8A00003F0A008831C0
:1011C0002000A20022082100BA00080020005D08CB
:1011D0000319EB28EC28E6285E08BD3E860087014F
:1011E0000108A30023082100E30020005E08403E20
:1011F0008600013087000108A3002308A400013005
:10120000A3002308DE0708305E02031C0829092911
:101210000A29DE012100911201302000DD022100A7
:1012200091162000240808002100BC1524299331C0
:10123000C1238931422993318F23893103304229D7
:101240009331C623893142292C08FA007A08F90023
:1012500021088A0020080A008931FB00FC017C0873
:10126000003A0319342920297B08013A031920295F
:10127000033A03191729013A03191729073A0319E1
:101280001B29202908002000AC005E292908BF3E48
:101290009531A825893171292908933E9531A825D2
:1012A000893171292908D33E9531A82589317129C1
:1012B00029087F3E9531A825893171292C08AA007B
:1012C000AB012B08003A0319662958292A08023A6B
:1012D00003194629013A03194C29073A03195229DF
:1012E0005829080020005F08BD3E86008701810163
:1012F00023001D1D7C297D29892920005F08BD3E12
:1013000086008701811421005A088A0059080A00C2
:10131000893123009D1C8D298E299A2920005F0880
:10132000BD3E860087010115210058088A00570834
:101330000A00893120005F08BD3E86008701010850
:101340000319A329A429AB29210056088A005508AE
:101350000A008931AE29963104268931080020001F
:1013600028080319B429B529BA292808031DB92961
:10137000BA29BF292608943104248931EF29280885
:10138000033E86008701160001040319C829C929F4
:10139000E6292808033E86008701403FA900413F17
:1013A000AA00280A86008701403FAB00413FAC00FD
:1013B0002C08803AAD002A08803A2D02031DE2294C
:1013C00029082B020318E529E629EF292000280A1D
:1013D000860087010130810741310318810A080026
:1013E000200047088600480887000108031DF929E6
:1013F000FA29012A7230BF009830C0009531582573
:10140000893120004308860044088700810145088F
:101410008600460887008101470886004808870043
:101420008101003094319924893100309431A6240F
:10143000893100309431B3248931003094318C24C7
:10144000893100309431CD24893100309431DA244F
:10145000893100309431E72489310030883102200D
:101460008931080093318C238A31FA002100370832
:10147000860087017A0881000130FA007A08B707F0
:101480000130B8020030B93B380839040319492A41
:101490004A2A4F2A9331A1238A310530772ABC1575
:1014A000592A9331D5238A31772A9331D0238A312F
:1014B000772A2C08FA007A08F90021088A00200807
:1014C0000A008A31FB00FC017C08003A0319692AF2
:1014D000552A7B08013A0319552A033A0319512A60
:1014E000013A0319512A073A0319552A552A0800C7
:1014F0002100911272302000A3000930A400943121
:1015000037248A31210011122D302000A30017301A
:10151000A400943140248A31083023009F00903089
:101520009D0024309E0040309B0003309C008130A1
:101530002000A3001330A400943125248A3199306F
:101540002000A3001330A40094312E248A3195305A
:101550002000A3001330A40094311C248A31210000
:10156000E3012000E201E1010830A5002508E000C8
:10157000DF01DE01DD012100911608002000A80135
:10158000A9012000AA01AB0188318C208A310B30DF
:101590002000A7002630A6005D30890BCD2AA60BBF
:1015A000CD2AA70BCD2A003201302000AA07003037
:1015B000AB3D2B08803AA60080302602031DE22AAC
:1015C00004302A02031CE52AE62AC42A0B30200034
:1015D000A7002630A6005D30890BEC2AA60BEC2A6A
:1015E000A70BEC2A003201302000A8070030A93DEB
:1015F0002908803AA60080302602031D012B043002
:101600002802031C042B052BC12A08002000D3004C
:101610005308860087010108CD00CE014D08C300A4
:101620004E08C4004B08860087010108CF00D00196
:101630004F08C5005008C6008C3148248B3120006B
:101640004B08860087010108CD00CE014D08C3007C
:101650004E08C4004C08860087010108CF00D00165
:101660004F08C5005008C6005308860087010108CE
:10167000D100D2015108C7005208C8008931F021B9
:101680008B3129302000CE009630CD007F30890B81
:10169000472BCD0B472BCE0B472B08009431492409
:1016A0008B3106309531A8258B3102302000B700F0
:1016B0000430B600BA30890B5B2BB60B5B2BB70B33
:1016C0005B2B00002000A901A90A013089314321C8
:1016D0008B3120002F08AA002E08A9009631CC26B5
:1016E0008B312000A901A90A0230893143218B31B5
:1016F00020003108AA003008A9009631CC268B3191
:101700002000A901A90A0330893143218B3120002F
:101710003308AA003208A9009631CC268B3120006C
:10172000A901A90A0430893143218B3120003508F1
:10173000AA003408A9009631CC268B31080020007D
:10174000C800C701ED2B0F19A62BA72BB52B3E30D8
:10175000BF009830C000953158258B312000C7015B
:10176000C70A48088600870181015D080319B92B63
:10177000BA2BED2B8831E6208B312000C4004408C1
:10178000C600E02B1C30BF009A30C00095315825B0
:101790008B3120004808860087018101810A0230D0
:1017A0002000C5000430C400BA30890BD52BC40B0F
:1017B000D52BC50BD52B00002000C701C70AED2B88
:1017C0004608C400C5014508003A0319E82BED2B73
:1017D0004408313A0319C22BED2B47080319F12BAA
:1017E000F22BA32B08009331DF238B31003A03192E
:1017F000FA2BFB2B2B2C082C9331B7238B31472C46
:101800009331BC238B31472C9331C6238B31472C2A
:1018100021002F08FA007A08F9000630A03E860061
:101820008701413F8A00403F0A008C31FB00FC01E8
:101830007C08003A03191D2C042C7B08013A03197B
:10184000042C033A0319FC2B013A0319002C073A24
:101850000319042C042C21003C101730A03E8600F4
:101860008701403F84008501810A00089331AD2340
:101870008B3101302100B8020030B93B38083904FF
:10188000031D432C442C462C0630472C0330080003
:101890002000CA01A02C0F194E2C4F2C632C723043
:1018A000BF009830C000953158258C312000CA0106
:1018B000CA0A43088600440887008101450886005B
:1018C0004608870081015D080319672C682CA02C4D
:1018D0008831E6208C312000C7004708C900932CCE
:1018E000C430BF009830C000953158258C3120009D
:1018F00043088600440887008101450886004608A1
:101900008700810102302000C8000430C700BA30CF
:10191000890B882CC70B882CC80B882C0000200052
:10192000CA01CA0AA02C4908C700C8014808003AE1
:1019300003199B2CA02C4708343A0319702CA02CB7
:101940004A080319A42CA52C4B2C0800483086000B
:1019500001308700A0308400013085001430200061
:10196000C70016001A00C70BB12C5C30860001308E
:101970008700B4308400013085000A30C7001600AB
:101980001A00C70BBF2C01309431A6248C310030D3
:101990009431B3248C310030943199248C3100304F
:1019A00094318C248C3120004408AF004308AE00F1
:1019B000EA30B0009830B1008730B2009830B30000
:1019C000D630B4009830B5008B314E238C312000D6
:1019D0004408B1004308B000A0309531D5258C31C2
:1019E0002000C70047082300BE00B4302000B0002C
:1019F0000130B10023003E089531D5258C312000FF
:101A0000BF000130C000953158258C318A31BE228B
:101A10008C3120000F1D0D2D0E2D092D003094311D
:101A2000A6248C31200045088600870181014608E4
:101A300086008701810108002000A800A901AA01F1
:101A400028080319242D252D6B2D662D5D080319FB
:101A50002A2D2B2D662D8831E6208D312000A50002
:101A60002508A700562D02302000A6000430A5004E
:101A7000BA30890B392DA50B392DA60B392D000055
:101A80002000A901A90AAA01AA0A662D0230200095
:101A9000A6000430A500BA30890B4C2DA50B4C2DA7
:101AA000A60B4C2D00002000A901432D2708A500FE
:101AB000A6012608003A03195E2D662D2508323A44
:101AC0000319332D013A0319462D662D2A080319EF
:101AD0006A2D6B2D262D2808031D6F2D702D922D3C
:101AE0008C2D013096313A268D31003A0319792D2B
:101AF0007A2D7E2D2000A901AA01AA0A0130963173
:101B000055268D31003A0319862D872D8C2D200006
:101B1000A901A90AAA01AA0A20002A080319912DDD
:101B2000922D712D290808002000AB002B08A90078
:101B30002908DC00003095317D258D319C30200056
:101B4000A900D730890BA22DA90BA22D0330953106
:101B5000A8258D311A302000A900F830890BAE2D50
:101B6000A90BAE2D000003309531A8258D311A3018
:101B70002000A900F830890BBB2DA90BBB2D00005C
:101B800003309531A8258D311A302000A900F83096
:101B9000890BC82DA90BC82D000002309531A8254E
:101BA0008D311A302000A900F830890BD52DA90BF2
:101BB000D52D000028309531A8258D310230200028
:101BC000AA000430A900BA30890BE42DA90BE42D3A
:101BD000AA0BE42D00000C309531A8258D31023080
:101BE0002000AA000430A900BA30890BF52DA90BFA
:101BF000F52DAA0BF52D000001309531A8258D316A
:101C000002302000AA000430A900BA30890B062E49
:101C1000A90B062EAA0B062E000006309531A8252A
:101C20008D3102302000AA000430A900BA30890B9F
:101C3000172EA90B172EAA0B172E0000080095319E
:101C40006A258E318B170B1794315C248E314E3000
:101C50008D3194258E312000DB01DA01D901D73096
:101C6000AE009830AF000E30B0009930B100E330D4
:101C7000B2009930B300D630B4009830B5008B3143
:101C80004E238E3115302000D5004B30D400BE30AD
:101C9000890B482ED40B482ED50B482E000020006F
:101CA0000E1C532E542E5A2E22008C172000D801C1
:101CB000D80A5D2ED80122008C13D7302000AE0048
:101CC0009830AF00FC30B0009830B1003230B20034
:101CD0009930B300E330B4009930B5008B314E2316
:101CE0008E3103302000D5000830D4007730890BC6
:101CF000772ED40B772ED50B772E5B302000D400B7
:101D00005408C30059308B319F238E3188310F2006
:101D10008E31B5302000AE009A30AF006530B00093
:101D20009930B100D630B2009830B300D630B4004C
:101D30009830B5008B314E238E312000DB01DB0A59
:101D40000030943199248E3100309431A6248E31A4
:101D500001309431B3248E3122008C130130943140
:101D6000CD248E3101309431DA248E3103302000BD
:101D7000D5000830D4007730890BBC2ED40BBC2E94
:101D8000D50BBC2E013094318C248E3129302000AB
:101D9000D5009630D4007F30890BCC2ED40BCC2EBE
:101DA000D50BCC2E0130973171278E31003A0319B3
:101DB000DA2EDB2EEE2E0130973194278E31003A49
:101DC0000319E32EE42EEE2E01309731B7278E3122
:101DD000003A0319EC2EED2EEE2E152F2000DB011C
:101DE00000309431CD248E3100309431DA248E319C
:101DF000B5302000C3009A30C4005B30D4005408D2
:101E0000C5005A30D5005508C6008C31A6248E3145
:101E10005B302000D4005408CB005A30D500550860
:101E2000CC0059308B3106238E3115302000D5007F
:101E30004B30D400BE30890B1B2FD40B1B2FD50B7E
:101E40001B2F000000309431CD248E3100309431AE
:101E5000DA248E3120005B0803192F2F302F922FA8
:101E6000C530AE009A30AF002030B0009930B100DC
:101E7000D630B2009830B300D630B4009830B500F8
:101E80008B314E238E3100309431CD248E31003091
:101E90009431DA248E310B302000D5002630D40066
:101EA0005D30890B512FD40B512FD50B512F0032A0
:101EB0000130973171278E31003A031D602F612F59
:101EC000742F0130973194278E31003A031D692F0A
:101ED0006A2F742F01309731B7278E31003A031DD6
:101EE000722F732F742F922F2000DB01C530C30097
:101EF0009A30C4005B30D4005408C5005A30D50075
:101F00005508C6008C31A6248E315B302000D400E9
:101F10005408CB005A30D5005508CC0059308B31CD
:101F200006238E3120005B080319972F982FF82F76
:101F3000D530AE009A30AF00A730B0009930B10074
:101F4000D630B2009830B300D630B4009830B50027
:101F50008B314E238E3101309431CD248E310630B9
:101F60002000D5001330D400AD30890BB52FD40B31
:101F7000B52FD50BB52F003200309431CD248E31E2
:101F8000200058080319C52FC62FF82F1F30BF0097
:101F90009830C000953158258E31200059088D3178
:101FA0001C258E312000D4005408DA005A08031D85
:101FB000DA2FDB2FF82FDB01D530C3009A30C400B5
:101FC0005B30D4005408C5005A30D5005508C6000F
:101FD0008C31A6248E315B302000D4005408CB0015
:101FE0005A30D5005508CC0059308B3106238E313C
:101FF00020005B080319FE2F80317A288031D22817
:10200000B2341334133414340B341434F3340B3427
:1020100032340A34FD34133414340934B7341334ED
:10202000BC341334C1341334C6341334CB341334B6
:10203000D0341334D5341334DA34133460340834E0
:102040002D343E3420345434453453345434203405
:1020500043344F344E3446344F3452344D34453487
:1020600020342D34203441345434543445344E34E7
:102070005434453420344134433451345534493494
:102080005434543445344D3445344E3454340D3482
:042090000A340034DA
:102702000800083424009614080024001615080056
:1027120024009615080024001108080020009115D5
:102722000800200091110800963104269331080018
:1027320023001D121D160800240096161616080006
:1027420024009612161608008831B820933108002A
:102752001630210097000800F00070082400910054
:1027620008002100BC10BB010E3008009331832306
:1027720093310130080093318323933102300800F2
:1027820093318323933101300800933186239331AF
:10279200003008009331A1239331053008009331B2
:1027A2009D2393310A30080093319D2393310930E0
:1027B20008002100BC10BB010E3008002400160ED8
:1027C200890C890C01390800943167249331240063
:1027D200161408009431672493312400161508005A
:1027E200640080010131890BF22B0034FE001200DB
:1027F2001E00FE0BF82B003421003C10933189237C
:102802009331043008002000A500250888313520C6
:102812009431080021003C1436359331AD239431B4
:102822000330080021003C140314360D9331AD230C
:10283200943105300800200024082100D600200031
:1028420023082100D5000800200024082100DA0016
:10285200200023082100D9000800200024082100BC
:10286200D800200023082100D700080020002408F7
:102872002100DC00200023082100DB0008002000EA
:1028820024082100DE00200023082100DD000800CA
:1028920001309531A82594313530890B4E2C00003A
:1028A2000800C030240094000830950096014F3093
:1028B2009200951208002830240095009601940198
:1028C2002730920021008E150E16080024001419DC
:1028D2006B2C6C2C672C16081F39031D712C722C63
:1028E200672C08007030210099009801220096019F
:1028F20021001A1F7D2C7E2C792C08007608F1000D
:102902007508F0007708F8007808F2000030973177
:10291200DA27943108002000A30023080319922C1F
:10292200932C962C22000C14982C22000C100800D8
:102932002000A300230803199F2CA02CA32C220003
:102942001014A52C2200101008002000A300230858
:102952000319AC2CAD2CB02C22009014B22C220006
:10296200901008002000A30023080319B92CBA2CE8
:10297200BD2C22001015BF2C2200101108002000CF
:10298200A30023080319C62CC72CCA2C22008C15BD
:10299200CC2C22008C1108002000A300230803196C
:1029A200D32CD42CD72C22008C14D92C22008C109E
:1029B20008002000A30023080319E02CE12CE42CDA
:1029C20022000C15E62C22000C1108002000A300A6
:1029D20023080319ED2CEE2CF12C22000C16F32CFB
:1029E20022000C120800F3002100BC1DF92CFA2C65
:1029F200032D7308F2007208B7007108B90070085D
:102A0200B800BC1108002000A3009431672495315E
:102A120020002308240091002000911D112D122D69
:102A22000D2D911108000230F0000030F1007908FC
:102A32009431F42495310030F500F600F701943119
:102A42007F249531043008000130F0000030F1009D
:102A520079089431F42495310030F500F600F7013D
:102A620094317F249531023008000230F0000030AA
:102A7200F10079089431F42495310030F500F60024
:102A8200F70194317F249531023008000130F000C3
:102A92000030F10079089431F42495310030F500CA
:102AA200F600F70194317F2495310430080041305B
:102AB2002000C1004108C2004008B8003F08B7002A
:102AC2004230C1004108B90000308731C727953133
:102AD200080094315224953196318E2695319431E5
:102AE200732495319331A92395318731F827953194
:102AF2008A317822953108002000A4009331E52321
:102B0200953120005C089531042595312000240878
:102B1200210064049531042595319331EB239531DD
:102B220008002000A6007D08A5002508A6042608A6
:102B3200043895317D25953120002608FB399531E1
:102B42007D2595314230890BA42D003208002000EA
:102B5200A800FD012808F039953192259531200011
:102B62002808A7000330A735FF3E031DB42D2735E3
:102B7200F03995319225953108002000A800FD0119
:102B8200FD0A2808F0399531922595312000280850
:102B9200A7000330A735FF3E031DCB2D2735F039A3
:102BA20095319225953108002000B4003108A90022
:102BB2003008A800340896311F26953120002308DA
:102BC200B2002408B3003408320797314F279531F9
:102BD200200034080800790886008701403FF00091
:102BE200413FF1007908023E8600870101089431D5
:102BF200F42495310030F500F600F70194317F247A
:102C020095310230080023001908F00020005F0807
:102C1200403E860001308700700881000130F000DC
:102C22007008DF0708305F02031C182E192E1A2EB7
:102C3200DF010130F0007008DD0708002000A70066
:102C42002708A5002508A6002A2E0130A500250880
:102C5200A70727088600013087000108031D322ECE
:102C6200332E262E26082702A300A401A31BA403A9
:102C720008002000A400A30124080319412E422EBB
:102C8200482E8F1B452E462E482EA301A30A240848
:102C9200031D4C2E4D2E532E8F1F502E512E532E70
:102CA200A301A30A230808002000A400A30124080A
:102CB20003195C2E5D2E632E0F19602E612E632E7A
:102CC200A301A30A2408031D672E682E6E2E0F1D72
:102CD2006B2E6C2E6E2EA301A30A230808002D343E
:102CE2003E3420344534523452344534553452340F
:102CF2003A342034003400340034003400340034D8
:102D02000034003400340D340A340034003400340A
:102D120000340034003400340034220090018F016A
:102D22008C018D018E010830210090008C01EF3062
:102D32008D00BF308E00FF308F0023008F013F30A7
:102D42008D0090013C308C00240090018D01210007
:102D5200951722009D01080022000C170630200062
:102D6200A4001330A300AD30890BB52EA30BB52EF2
:102D7200A40BB52E003222000C1306302000A40052
:102D82001330A300AD30890BC42EA30BC42EA40BA9
:102D9200C42E003208002000AC01AD01DF2E29084C
:102DA2002C0784002A082D3D850000089531BE2598
:102DB200963101302000AC070030AD3D29082C07C8
:102DC20084002A082D3D85001200031DE92EEA2EFB
:102DD200D02E08002000A6002608A500A50DA50DEE
:102DE20021001D08200025068339250621009D00AB
:102DF2001D140D30890BFB2E000021009D149D181F
:102E0200032F042F002F1C082000A40021001B0800
:102E12002000A300080020302000BF009030C00036
:102E22009531582597312000C401C50188310F2002
:102E3200973101302000C4070030C53D4508803A73
:102E4200C30080304302031D282F02304402031CBA
:102E52002B2F2C2F172F0800083020006002031898
:102E6200332F342F4C2F6108C53E8600870101089D
:102E720023009A000130F00070082000E1070830BA
:102E82006102031C452F462F472FE1010130F0005C
:102E92007008E0074E2F2100111208002000AF0039
:102EA2002908AD002808AC002F08AA002A08AE00A5
:102EB2002E08860001308700AE0A2D08AB002C08D0
:102EC200AA00AC0A0319AD0A2A0884002B0885005F
:102ED2000008C03F8908031D6F2F702F592F08006B
:102EE2002000A400A30124080319782F792F832F2F
:102EF2000F1C7C2F7D2F832F8F18802F812F832FE4
:102F0200A301A30A2408031D872F882F922F0F18CD
:102F12008B2F8C2F922F8F1C8F2F902F922FA301EC
:102F2200A30A230808002000A400A301240803190F
:102F32009B2F9C2FA62F8F1D9F2FA02FA62F0F1ADE
:102F4200A32FA42FA62FA301A30A2408031DAA2F8F
:102F5200AB2FB52F8F19AE2FAF2FB52F0F1EB22F5C
:102F6200B32FB52FA301A30A230808002000A40051
:102F7200A30124080319BE2FBF2FC92F8F1EC22FF2
:102F8200C32FC92F0F1BC62FC72FC92FA301A30AF7
:102F92002408031DCD2FCE2FD82F8F1AD12FD22F39
:102FA200D82F0F1FD52FD62FD82FA301A30A23085E
:102FB2000800F400700871040319E02FE12FF22FCA
:102FC2007435A03E860087017008C03F7108C13F7A
:102FD2007208F3007408AC3E860087017308810012
:102FE200FF2F7435A03E860087010030C03F0830B5
:102FF200C13F7408AC3E860087018101080041345C
:103002005434543445344E345434453420345634D4
:1030120041344C34493444344134543449344F34C7
:103022004E34203442344C345534453454344F34C5
:103032004F34543448340D340A3400344134743437
:10304200743465346E3474346534203476346134C7
:103052006C34693464346134743469346F346E347A
:1030620020346C3465346434203472346F347534F3
:10307200673465340D340A3400342D343E34203440
:10308200543445345334543420344D3441344E3462
:10309200553445344C34203445344E342034433492
:1030A2004F345534523453340D340A3400344134DD
:1030B2005434543445344E34543445342034563424
:1030C20041344C34493444344134543449344F3417
:1030D2004E3420344C344534443453340D340A34A1
:1030E20000342D343E342034463449344E342034B6
:1030F200543445345334543420344D3441344E34F2
:10310200553445344C340D340A340034413454348B
:10311200543445344E3454344534203441344334E9
:103122005134553449345434543445344D3445348F
:103132004E345434003454344534533454342034EB
:103142005234313420344F344634463420342D3412
:1031520020345234323420344F344E340034543418
:1031620045345334543420345234323420344F34BE
:103172004634463420342D3420345234333420340F
:103182004F344E3400342D343E34203454344534DC
:103192005334543420344134433451345534493453
:1031A2005434543445340D340A34003454344534E0
:1031B2005334543420344334413452345434453437
:1031C200203444343934323435344534443434349C
:1031D2000034543445345334543420344E344F3450
:1031E2004E34203443344F344E3446344F34523408
:1031F2004D344534003441345434543445344E341F
:10320200543445342034443445344D3441345234FA
:103212005234413447344534003450344F345334FB
:103222004934543449344F344E344E344534523494
:103232002034433441345234543445340034543409
:1032420045345334543420343334203452344534E6
:103252004C3441344934533420344F3446344634A8
:10326200003452344534543449345234453452349F
:1032720020345034313420346534743420345034A2
:103282003234003443344C344134563449344534B6
:1032920052342034453443344C344134493452346A
:1032A20045343F340034503452344534533453346B
:1032B2004534523420344F344B3420342F342034AC
:1032C2004E344F344B340034543445345334543434
:1032D200203433342034523445344C34413449346C
:1032E200533420344F344E34003454344534533440
:1032F200543420344C3445344434203443344C3434
:1033020041345634493445345234003443344C3415
:1033120041345634493445345234203445345434DB
:10332200453449344E3454343F34003454344534F3
:103332005334543420344C344534443453342034DC
:1033420043344134523454344534003454344534D3
:103352005334543420344C344534443420345234BD
:103362004F3455344734453400345434453453349F
:10337200543420344C3445344434203456344534A7
:103382005234543445340034543445345334543470
:1033920020344C3445344434203442344C344534A3
:1033A2005534453400345434453453345434203481
:1033B20042344C345534453454344F344F345434FD
:1033C200483400344134503450345534593445343F
:1033D2005234203453345534523420344F344B3425
:1033E20000342D343E342034543445345334543470
:1033F20020344F34463446340D340A3400345234C7
:1034020045345434493452344534523420344334EC
:10341200413452345434453400344C344534443409
:103422005334203441344C344C3455344D344534C7
:103432004534533400342D343E342034543445342E
:103442005334543420344F344E340D340A3400345F
:103452005434453453345434203448344F34523481
:103462004C344F34473445340034543445345334A7
:1034720054342034533446344C3441345334483475
:103482000034463449344E342034443445342034F4
:103492005434453453345434003456344F3449345C
:1034A200523420344134503450344C344934003492
:1034B2005434453453345434203452343134203467
:1034C2004F344E340034453454344134503445344E
:1034D200203431343034003445345434413450349F
:1034E2004534203431343234003454344534533486
:1034F2005434203442345034323400344534543459
:10350200413450344534203431343334003445347A
:10351200543441345034453420343134343400345A
:103522004534543441345034453420343134353404
:103532000034453454344134503445342034313429
:103542003634003445345434413450344534203414
:1035520031343734003445345434413450344534F2
:103562002034313438340034453454344134503406
:1035720045342034313400345434453453345434D3
:1035820020345034313400344534543441345034CE
:1035920045342034323400345434453453345434B2
:1035A20020345034323400344534543441345034AD
:1035B20045342034333400344534543441345034A7
:1035C2004534203434340034453454344134503496
:1035D2004534203435340034453454344134503485
:1035E2004534203436340034453454344134503474
:1035F2004534203437340034453454344134503463
:103602004534203438340034453454344134503451
:08361200453420343934003442
:020000040001F9
:08000000FF3FFF3FFF3FFF3F00
:04000E00E43FFF3F8D
:00000001FF
