:1000000080314A28053008007E1480310B1F0928F2
:100010000A2848282100111E0E280F281B2820001E
:10002000111E132814281B28210063088A00620867
:100030000A00803148282100911E1F2820282C28E2
:100040002000911E242825282C28210061088A00E0
:1000500060080A00803148282100921D302831288C
:100060003D282000921D352836283D2821006708AC
:100070008A0066080A00803148282100911D412825
:10008000422848282000911D46284728482836281D
:100090007E10090080314C2821009131C12180312E
:1000A000EC00EC308400873085004D308600013054
:1000B00087001430923138228031313084009630FC
:1000C0008500A03086000130870028309231382228
:1000D0008031FD012000E901EA01EB01EC01CA30A9
:1000E000840000308500223092313222803120306D
:1000F0008400013085002D30923132228031C830A9
:1001000084000130850020309231322280317E100F
:1001100020008E310E2E2C302000AE009B30AF0020
:100120000C30B0009A30B100EB30B2009830B30020
:10013000EB30B4009830B5008931E12180310130D5
:100140009231FE22803106302100C8001330C700F2
:10015000AD30890BA928C70BA928C80BA9280032E4
:1001600000309231FE228031220063080319B92841
:10017000BA28E92864088B31AD2380312100C700FB
:1001800047082200E5006508031DC728C828E9289C
:10019000E6012C302000C3009B30C4006630C5004F
:1001A0000130C6006530C7000130C8008B313D23E7
:1001B000803164302000CB000130CC006630CD00AF
:1001C0000130CE006530CF000130D000893195215B
:1001D0008031220066080319EE28EF284D293430BB
:1001E0002000AE009B30AF00FD30B0009930B10070
:1001F000EB30B2009830B300EB30B4009830B5006B
:100200008931E121803101309231FE228031063086
:100210002100C8001330C700AD30890B0D29C70B72
:100220000D29C80B0D29003200309231FE22803199
:100230002200630803191D291E294D2964088B31EA
:10024000AD2380312100C70047082200E500650882
:10025000031D2B292C294D29E60134302000C30031
:100260009B30C4006630C5000130C6006530C70051
:100270000130C8008B313D23803164302000CB0039
:100280000130CC006630CD000130CE006530CF00AB
:100290000130D00089319521803122006608031990
:1002A00052295329B5293C302000AE009B30AF00C5
:1002B000A030B0009A30B100EB30B2009830B300FB
:1002C000EB30B4009830B5008931E1218031013044
:1002D0009231FE22803115302100C8004B30C7001A
:1002E000BE30890B7129C70B7129C80B7129000019
:1002F00000309231FE22803115302100C8004B3091
:10030000C700BE30890B8229C70B8229C80B8229FE
:10031000000001309531A2258031003A031991295E
:1003200092299329B5292200E6013C302000C30020
:100330009B30C4006630C5000130C6006530C70080
:100340000130C8008B313D23803164302000CB0068
:100350000130CC006630CD000130CE006530CF00DA
:100360000130D000893195218031220066080319BF
:10037000BA29BB29262A44302000AE009B30AF00AA
:10038000B130B0009830B100EB30B2009830B3001B
:10039000EB30B4009830B5008931E1218031013073
:1003A0009231FE22803115302100C8004B30C70049
:1003B000BE30890BD929C70BD929C80BD929000010
:1003C00000309231FE22803115302100C8004B30C0
:1003D000C700BE30890BEA29C70BEA29C80BEA29F6
:1003E000000000309531A2258031003A0319F92927
:1003F000FA29042A01309531C5258031003A0319C4
:10040000022A032A042A262A2200E6014430200078
:10041000C3009B30C4006630C5000130C6006530A3
:10042000C7000130C8008B313D238031643020008B
:10043000CB000130CC006630CD000130CE006530FD
:10044000CF000130D000893195218031220066082B
:1004500003192B2A2C2A972A4C302000AE009B30FF
:10046000AF00C530B0009830B100EB30B20098302A
:10047000B300EB30B4009830B5008931E121803110
:1004800001309231FE22803115302100C8004B30FE
:10049000C700BE30890B4A2AC70B4A2AC80B4A2A12
:1004A000000000309231FE22803115302100C8005A
:1004B0004B30C700BE30890B5B2AC70B5B2AC80BC9
:1004C0005B2A000000309531C5258031003A0319C0
:1004D0006A2A6B2A752A01309531E8258031003A65
:1004E0000319732A742A752A972A2200E6014C30D0
:1004F0002000C3009B30C4006630C5000130C60038
:100500006530C7000130C8008B313D238031643035
:100510002000CB000130CC006630CD000130CE0091
:100520006530CF000130D000893195218031220023
:10053000660803199C2A9D2A1F2B54302000AE0008
:100540009B30AF009E30B0009930B1006B30B200EC
:100550009930B300EB30B4009830B5008931E12117
:10056000803101309231FE22803106302100C800F6
:100570001330C700AD30890BBB2AC70BBB2AC80B91
:10058000BB2A003200309231FE2280310B30210034
:10059000C8002630C7005D30890BCC2AC70BCC2A97
:1005A000C80BCC2A00320C3095311D25803120003B
:1005B00024082200E200200023082200E100620853
:1005C000803A2100C70083304702031DEA2A203009
:1005D000220061020318ED2AEE2AF12A22008C176C
:1005E000132B54302000C3009B30C4006630C5007C
:1005F0000130C6006530C7000130C8008B313D2393
:10060000803122008C1364302000CB000130CC00FC
:100610006630CD000130CE006530CF000130D00013
:1006200089319521803129302100C8009630C700DA
:100630007F30890B192BC70B192BC80B192B2200E4
:1006400066080319242B252BA72BAB302000AE0006
:100650009A30AF009E30B0009930B100BF30B20088
:100660009930B300EB30B4009830B5008931E12106
:10067000803101309231FE22803106302100C800E5
:100680001330C700AD30890B432BC70B432BC80B6E
:10069000432B003200309231FE2280310B3021009A
:1006A000C8002630C7005D30890B542BC70B542B74
:1006B000C80B542B00320C3095311D2580312000A1
:1006C00024082200E200200023082200E100620842
:1006D000803A2100C70081304702031D722B2C3065
:1006E000220061020318752B762B792B22008C13C4
:1006F0009B2BAB302000C3009A30C4006630C5008D
:100700000130C6006530C7000130C8008B313D2381
:10071000803122008C1764302000CB000130CC00E7
:100720006630CD000130CE006530CF000130D00002
:1007300089319521803129302100C8009630C700C9
:100740007F30890BA12BC70BA12BC80BA12B22003B
:1007500066080319AC2BAD2B6D2CB4302000AE0015
:100760009A30AF007D30B0009A30B100EB30B2006B
:100770009830B300EB30B4009830B5008931E121F6
:1007800080310B302100C8002630C7005D30890B56
:10079000C72BC70BC72BC80BC72B003201309231B8
:1007A000FE22803106302100C8001330C700AD3072
:1007B000890BD82BC70BD82BC80BD82B0032003095
:1007C0009231FE2280313D302100C800E130C70067
:1007D0003F30890BE92BC70BE92BC80BE92B003203
:1007E00001309231FE22803106302100C8001330E2
:1007F000C700AD30890BFA2BC70BFA2BC80BFA2BAD
:10080000003200309231FE22803110302100C800C9
:100810003930C7000D30890B0B2CC70B0B2CC80BC4
:100820000B2C003201309531A2258031003A03199A
:100830001A2C1B2C2E2C01309531C5258031003A05
:100840000319232C242C2E2C00309531E8258031DF
:10085000003A03192C2C2D2C2E2C582C2200E601AA
:1008600000309231FE228031003093310B238031F1
:10087000B4302000C3009A30C4006630C500013097
:10088000C6006530C7000130C8008B313D23803180
:1008900064302000CB000130CC006630CD00013048
:1008A000CE006530CF000130D000893195218031F4
:1008B00015302100C8004B30C700BE30890B5E2CBC
:1008C000C70B5E2CC80B5E2C000000309231FE225C
:1008D0008031003093310B238031220066080319E8
:1008E000722C732CD42CC6302000AE009A30AF008E
:1008F000CF30B0009930B1005530B2009A30B3001B
:100900007C30B4009930B5008931E121803101306B
:100910009231FE22803106302100C8001330C7001A
:10092000AD30890B912CC70B912CC80B912C003248
:1009300000309231FE22803158302000BF009830C4
:10094000C0009331A3238031220064088B31AD2392
:1009500080312100C70047082200E5006508031D1B
:10096000B22CB32CD42CE601C6302000C3009A3040
:10097000C4006630C5000130C6006530C7000130D4
:10098000C8008B313D23803164302000CB00013022
:10099000CC006630CD000130CE006530CF00013094
:1009A000D000893195218031220066080319D92CA5
:1009B000DA2C4E2DCF302000AE009A30AF00BD3083
:1009C000B0009A30B100EB30B2009830B300EB3099
:1009D000B4009830B5008931E12180310130933184
:1009E0000B23803106302100C8001330C700AD3022
:1009F000890BF82CC70BF82CC80BF82C00320030F0
:100A000093310B2380310B302100C8002630C70002
:100A10005D30890B092DC70B092DC80B092D00323C
:100A200001309531A2258031003A0319182D192D76
:100A30002C2D01309531C5258031003A0319212D27
:100A4000222D2C2D01309531E8258031003A0319F3
:100A50002A2D2B2D2C2D4E2D2200E601CF302000EB
:100A6000C3009A30C4006630C5000130C60065304E
:100A7000C7000130C8008B313D2380316430200035
:100A8000CB000130CC006630CD000130CE006530A7
:100A9000CF000130D00089319521803122006608D5
:100AA0000319532D542DC82DD8302000AE009A3094
:100AB000AF007030B0009A30B100EB30B200983027
:100AC000B300EB30B4009830B5008931E1218031BA
:100AD000013093313223803106302100C8001330B9
:100AE000C700AD30890B722DC70B722DC80B722D4C
:100AF000003200309331322380310B302100C800A6
:100B00002630C7005D30890B832DC70B832DC80BA2
:100B1000832D003200309531A2258031003A03192F
:100B2000922D932DA62D00309531C5258031003AA8
:100B300003199B2D9C2DA62D00309531E825803181
:100B4000003A0319A42DA52DA62DC82D2200E601DB
:100B5000D8302000C3009A30C4006630C500013090
:100B6000C6006530C7000130C8008B313D2380319D
:100B700064302000CB000130CC006630CD00013065
:100B8000CE006530CF000130D00089319521803111
:100B9000220066080319CD2DCE2D342EE130200021
:100BA000AE009A30AF000C30B0009B30B100EB309B
:100BB000B2009830B300EB30B4009830B500893102
:100BC000E121803101309331182380310B30210035
:100BD000C8002630C7005D30890BEC2DC70BEC2D0B
:100BE000C80BEC2D003200309331182380310B30CC
:100BF0002100C8002630C7005D30890BFD2DC70BD2
:100C0000FD2DC80BFD2D003201309531A22580311C
:100C1000003A03190C2E0D2E202E01309531C525DA
:100C20008031003A0319152E162E202E01309531F1
:100C3000E8258031003A03191E2E1F2E202E342E57
:100C4000E1302100A0009A30A1006630C7004708BB
:100C5000A2006530C8004808A3006430C9004908F4
:100C6000A4008C31D1248031220066080319392E6A
:100C70003A2EAE2EEA302000AE009A30AF001C3083
:100C8000B0009B30B100EB30B2009830B300EB30D5
:100C9000B4009830B5008931E121803101309331C1
:100CA0002523803119302100C8005A30C700B130E7
:100CB000890B582EC70B582EC80B582E0032003007
:100CC0009331252380310B302100C8002630C70026
:100CD0005D30890B692EC70B692EC80B692E003257
:100CE00000309531A2258031003A0319782E792EF3
:100CF0008C2E00309531C5258031003A0319812EA4
:100D0000822E8C2E00309531E8258031003A03196F
:100D10008A2E8B2E8C2EAE2E2200E601EA30200089
:100D2000C3009A30C4006630C5000130C60065308B
:100D3000C7000130C8008B313D2380316430200072
:100D4000CB000130CC006630CD000130CE006530E4
:100D5000CF000130D0008931952180312200660812
:100D60000319B32EB42E0F2FF3302000AE009A30AB
:100D7000AF001B30B0009A30B1009530B2009A300D
:100D8000B3007C30B4009930B5008931E121803165
:100D90009431DF24803100302000BF009830C00043
:100DA0009331A3238031220064088B31AD2380313D
:100DB0002100C70047082200E5006508031DE12E59
:100DC000E22E0F2FE601F3302000C3009A30C4005A
:100DD0006630C5000130C6006530C7000130C8006C
:100DE0008B313D23803164302000CB000130CC00BA
:100DF0006630CD000130CE006530CF000130D0002C
:100E000089319521803129302100C8009630C700F2
:100E10007F30890B092FC70B092FC80B092F220020
:100E200066080319142F162F8E313F2E89302000AB
:100E3000AE009A30AF002C30B0009930B10047308E
:100E4000B2009A30B3009C30B4009830B5008931BC
:100E5000E121803101309231D7228031003092314E
:100E6000CA22803195315F25803164302000C30073
:100E70000130C4006630C5000130C6008A31DF226F
:100E8000803166302000C3000130C4006530C500E9
:100E90000130C6006430C7000130C80088317D20B1
:100EA000803129302100C8009630C7007F30890B7F
:100EB000572FC70B572FC80B572F142F80314A2895
:100EC0002000AB002B08A90029082100E800003011
:100ED0009331C82387319C302000A900D730890B7B
:100EE0006F2FA90B6F2F03309431242487311A30D0
:100EF0002000A900F830890B7B2FA90B7B2F000065
:100F000003309431242487311A302000A900F830AE
:100F1000890B882FA90B882F0000033094312424DB
:100F200087311A302000A900F830890B952FA90BC2
:100F3000952F000002309431242487311A3020008C
:100F4000A900F830890BA22FA90BA22F000028308E
:100F500094312424873102302000AA000430A900F3
:100F6000BA30890BB12FA90BB12FAA0BB12F0000FA
:100F70000C3094312424873102302000AA00043040
:100F8000A900BA30890BC22FA90BC22FAA0BC22FFE
:100F90000000013094312424873102302000AA005F
:100FA0000430A900BA30890BD32FA90BD32FAA0B79
:100FB000D32F0000063094312424873102302000E2
:100FC000AA000430A900BA30890BE42FA90BE42F42
:100FD000AA0BE42F000008000D340A34003400345A
:100FE0000034003400340034003400340D340A344A
:100FF0000034003400340034003400340034003451
:101000002830240095009601940127309200210099
:101010008E150E1608002000BC003808BE003708E8
:10102000BD002100D201D30129283D30BA003A0881
:10103000AE003908BB003B08AF003C088C312524CA
:10104000883120002E082100D20720002F0821001F
:10105000D33D20003D0884003E0885001200031D9A
:10106000322833281528210053082000B800210019
:1010700052082000B7000800200028080319412862
:10108000422847282808031D462847284C282608B8
:101090009231452288317C282808033E860087014A
:1010A0001600010403195528562873282808033E02
:1010B00086008701403FA900413FAA00280A860018
:1010C0008701403FAB00413FAC002C08803AAD00A7
:1010D0002A08803A2D02031D6F2829082B020318C5
:1010E000722873287C282000280A86008701013096
:1010F000810741310318810A080020004708860053
:10110000480887000108031D862887288E2872302A
:10111000BF009830C0009331A323883120004308DA
:10112000860044088700810145088600460887003C
:10113000810147088600480887008101003092310C
:10114000D722883100309231E42288310030923148
:10115000F122883100309231CA2288310030923138
:10116000FE228831003093310B23883100309331D7
:1011700018238831003093312523883108009131BC
:10118000CD218831FA0022003708860087017A08CD
:1011900081000130FA007A08B7070130B802003048
:1011A000B93B380839040319D628D728DC289131EF
:1011B000E221883105300429BC15E6289231162237
:1011C0008831042992311122883104292C08FA002F
:1011D0007A08F90021088A0020080A008831FB00FB
:1011E000FC017C08003A0319F628E2287B08013A42
:1011F0000319E228033A0319DE28013A0319DE280D
:10120000073A0319E228E228080021009112C330AE
:101210002000A3001730A4009231802289312100E0
:10122000111280302000A3001530A40092318922D1
:101230008931083023009F0090309D0024309E00AB
:1012400040309B0003309C00C0302000A3001130D0
:10125000A40092316E228931DA302000A3001130CF
:10126000A400923177228931D6302000A3001130BA
:10127000A4009231652289312100EA012000EC01AD
:10128000FD010830A50025082100EB002000EB013E
:10129000EA01E9012100911608002000A801A90136
:1012A0002000AA01AB019631832689310B30200042
:1012B000A7002630A6005D30890B5C29A60B5C29AF
:1012C000A70B5C29003201302000AA070030AB3D9B
:1012D0002B08803AA60080302602031D71290430B5
:1012E0002A02031C7429752953290B302000A700FA
:1012F0002630A6005D30890B7B29A60B7B29A70B26
:101300007B29003201302000A8070030A93D2908C0
:10131000803AA60080302602031D9029043028025E
:10132000031C932994295029080020004B088600AB
:101330004C0887000108D100D2015108C3005208AF
:10134000C4004D0886004E0887000108D300D40170
:101350005308C5005408C6008A31DF2289312000B5
:101360004D0886004E0887000108D100D2015108BF
:10137000C3005208C4004F088600500887000108C7
:10138000D300D4015308C5005408C6004B0886009A
:101390004C0887000108D500D6015508C70056083B
:1013A000C80088317D20893129302000D200963054
:1013B000D1007F30890BDA29D10BDA29D20BDA2957
:1013C00008009231922289310630943124248931E7
:1013D00002302000B7000430B600BA30890BEE2985
:1013E000B60BEE29B70BEE2900002000A901A90ACF
:1013F000013097319427893120002F08AA002E0848
:10140000A9009431FE2489312000A901A90A0230E3
:1014100097319427893120003108AA003008A900AB
:101420009431FE2489312000A901A90A03309731A3
:101430009427893120003308AA003208A90094318A
:10144000FE2489312000A901A90A0430973194278C
:10145000893120003508AA003408A9009431FE24FF
:10146000893108002000C800C701822A0F19392AD3
:101470003A2A492A3E30BF009830C0009331A32356
:101480008A312000C701C70A48088600013087005A
:101490008101690803194D2A4E2A822A973137277C
:1014A0008A312000C4004408C600752A6330BF009A
:1014B0009A30C0009331A3238A3120004808860067
:1014C000013087008101810A02302000C50004300C
:1014D000C400BA30890B6A2AC40B6A2AC50B6A2A6F
:1014E00000002000C701C70A822A4608C400C501BF
:1014F0004508003A03197D2A822A4408313A031923
:10150000562A822A47080319862A872A362A08007B
:10151000923120228A31003A03198F2A902AC12A57
:101520009D2A9131F8218A31DE2A9131FD218A31BB
:10153000DE2A923107228A31DE2A22002F08FA00A1
:101540007A08F9000630203E860001308700413FCE
:101550008A00403F0A008A31FB00FC017C08003A07
:101560000319B32A992A7B08013A0319992A033AE5
:101570000319912A013A0319952A073A0319992A5E
:10158000992A22003C101730203E86000130870047
:10159000403F84008501810A00089131EE218A31A3
:1015A00001302200B8020030B93B38083904031D6D
:1015B000DA2ADB2ADD2A0630DE2A03300800200082
:1015C000CA01372B0F19E52AE62AFA2A7230BF0022
:1015D0009830C0009331A3238A312000CA01CA0A7F
:1015E00043088600440887008101450886004608B4
:1015F0008700810169080319FE2AFF2A372B9731DA
:1016000037278A312000C7004708C9002A2BD93064
:10161000BF009830C0009331A3238A3120004308D3
:101620008600440887008101450886004608870037
:10163000810102302000C8000430C700BA30890B95
:101640001F2BC70B1F2BC80B1F2B00002000CA012C
:10165000CA0A372B4908C700C8014808003A0319CD
:10166000322B372B4708343A0319072B372B4A08FC
:1016700003193B2B3C2BE22A0800B43086000130D2
:1016800087004A3084000030850014302000C900F3
:1016900016001A00C90B482B57308600013087000E
:1016A0005E308400003085000A30C90016001A0040
:1016B000C90B562B01309231E4228B31013092312B
:1016C000F1228B3100309231D7228B3100309231B0
:1016D000CA228B3120004408AF004308AE002330FB
:1016E000B0009930B1009C30B2009830B300EB30BC
:1016F000B4009830B5008931E1218B3120004408D5
:10170000B1004308B0004A309331DD238B31200013
:10171000C9004908E8005E30B0000030B100680838
:101720009331DD238B312000BF000030C0009331A6
:10173000A3238B3189314D218B3120000F1DA12B2B
:10174000A22B9D2B4508860046088700810147088B
:10175000860048088700810108002000A800A90130
:10176000AA0128080319B52BB62BFC2BF72B690807
:101770000319BB2BBC2BF72B973137278B3120005C
:10178000A5002508A700E72B02302000A6000430A2
:10179000A500BA30890BCA2BA50BCA2BA60BCA2BE6
:1017A00000002000A901A90AAA01AA0AF72B023009
:1017B0002000A6000430A500BA30890BDD2BA50B54
:1017C000DD2BA60BDD2B00002000A901D42B270860
:1017D000A500A6012608003A0319EF2BF72B2508D0
:1017E000323A0319C42B013A0319D72BF72B2A08D5
:1017F0000319FB2BFC2BB72B2808031D002C012CF5
:10180000232C1D2C013094318A248B31003A03198A
:101810000A2C0B2C0F2C2000A901AA01AA0A0130C6
:101820009431A5248B31003A0319172C182C1D2C48
:101830002000A901A90AAA01AA0A20002A0803195E
:10184000222C232C022C290808002000B6002E0888
:1018500086008701403FB000413FB100300884005E
:10186000310885001200253A031D372C382CAD2C89
:101870002E08860087010130810741310318810A53
:101880002100D401D501D801D901FF30D600FF30A5
:10189000D70020002E0886008701403FB000413F5E
:1018A000B100300884003108850012006E3A031D33
:1018B0005A2C5B2C7A2C2E08860087010130810778
:1018C00041310318810A2F0886008701403F8400B8
:1018D0008501810A0008B0003008B500350886008F
:1018E000870121005208C03F5308C13F2000AE01CC
:1018F000AF01D02C2E0886008701403FB000413F49
:10190000B10030088400310885001200253A031D1B
:101910008A2C8B2CA42C2E0886008701013081078D
:1019200041310318810A2530A6000030A70036088F
:10193000B0003008A80088313C208C3101302000F4
:10194000AE000030AF00D02C2E0886008701013099
:10195000810741310318810A762C2E088600870101
:10196000403FB000413FB10030088400310885009D
:101970000008B200B3013208A6003308A7003608F9
:10198000B4003408A80088313C208C3120002E0897
:10199000860087010130810741310318810A9E2C9E
:1019A0000800A030860001308700A7308400003096
:1019B000850014302100A50016001A00A50BDC2CB0
:1019C0004D30860001308700BB3084000030850038
:1019D0000A30A50016001A00A50BEA2C013092313E
:1019E000E4228C3101309231F1228C31003092317D
:1019F000D7228C31210021082000AF0021002008CF
:101A00002000AE002330B0009930B100FF30B200AA
:101A10009830B3008730B4009830B5008931E121A7
:101A20008C31210021082000B10021002008200075
:101A3000B000A7309331DD238C312100A5002508AB
:101A4000C600BB302000B0000030B10021004608C5
:101A50009331DD238C312000BF000030C000933172
:101A6000A3238C3189314D218C312100240886003B
:101A70000130870001088B31AD238C312100A50096
:101A80002508C5000B302100A6002630A5005D30DA
:101A9000890B482DA50B482DA60B482D003221009F
:101AA00045080319542D552D842D22088600013038
:101AB0008700810123088600013087008101E13021
:101AC0002000AE009A30AF002830B0009930B1004D
:101AD0001130B2009930B3009C30B4009830B5009A
:101AE0008931E1218C31A4302000CB000030CC00C2
:101AF000A230CD000030CE00A330CF000030D000A7
:101B0000893195218C310D2EE1302000AE009A30C4
:101B1000AF000C30B0009B30B100EB30B200983019
:101B2000B300EB30B4009830B5008931E1218C313D
:101B300000309231E4228C3101309231F1228C312B
:101B400000309231D7228C310130933118238C31FF
:101B500019302100A6005A30A500B130890BAE2DF6
:101B6000A50BAE2DA60BAE2D0032003093311823FD
:101B70008C3115302100A6004B30A500BE30890BFA
:101B8000BF2DA50BBF2DA60BBF2D00000130953139
:101B9000A2258C31003A0319CE2DCF2DF62D013020
:101BA0009531C5258C31003A0319D72DD82DF62D46
:101BB00001309531E8258C31003A0319E02DE12DF3
:101BC000F62DE1302000AE009A30AF000C30B000AE
:101BD0009B30B100DF30B2009930B300FC30B4006C
:101BE0009A30B5008931E1218C310D2E2100220877
:101BF0008600013087008101E1302000C3009A3067
:101C0000C400A230C5000030C600A330C7000030B9
:101C1000C8008B313D238C31732D08009331B523DF
:101C20008E318B170B17883100208E314E30873163
:101C300060278E312200E601E501E401EC3020004E
:101C4000AE009830AF004730B0009930B1002A3074
:101C5000B2009A30B300EB30B4009830B50089314F
:101C6000E1218E3115302100C8004B30C700BE3055
:101C7000890B382EC70B382EC80B382E00002000D9
:101C80000E1C432E442E492E22008C17E301E30A3A
:101C90004C2E2200E3018C13EC302000AE00983073
:101CA000AF003530B0009930B100AF30B20099309C
:101CB000B3002A30B4009A30B5008931E1218E3169
:101CC00003302100C8000830C7007730890B662E2A
:101CD000C70B662EC80B662E66302100C70047086A
:101CE0002000C30064308A3132228E3196310B26B7
:101CF0008E3104302000AE009B30AF008D30B0003C
:101D00009930B100EB30B2009830B300EB30B40042
:101D10009830B5008931E1218E312200E601E60AD2
:101D200000309231D7228E3100309231E4228E3150
:101D300001309231F1228E3122008C130130923128
:101D4000FE228E31013093310B238E31033021007E
:101D5000C8000830C7007730890BAC2EC70BAC2EFB
:101D6000C80BAC2E01309231CA228E31CB3021000B
:101D7000C800EC30C7008430890BBC2EC70BBC2ECA
:101D8000C80BBC2E000001309531A2258E31003ADF
:101D90000319CB2ECC2EDF2E01309531C5258E3187
:101DA000003A0319D42ED52EDF2E01309531E825C7
:101DB0008E31003A0319DD2EDE2EDF2E092F220090
:101DC000E60100309231FE228E31003093310B2338
:101DD0008E3104302000C3009B30C4006630C50043
:101DE0000130C6006530C7000130C8008B313D238B
:101DF0008E3164302000CB000130CC006630CD0045
:101E00000130CE006530CF000130D00089319521FE
:101E10008E3115302100C8004B30C700BE30890B11
:101E20000F2FC70B0F2FC80B0F2F00000030923160
:101E3000FE228E31003093310B238E312200660852
:101E40000319232F242F8B2F14302000AE009B303A
:101E5000AF005930B0009930B100EB30B20098308B
:101E6000B300EB30B4009830B5008931E1218E31F8
:101E700000309231FE228E31003093310B238E31AF
:101E80000B302100C8002630C7005D30890B462F7B
:101E9000C70B462FC80B462F003201309531A225C3
:101EA0008E31003A031D552F562F692F0130953181
:101EB000C5258E31003A031D5E2F5F2F692F01303B
:101EC0009531E8258E31003A031D672F682F692F61
:101ED0008B2F2200E60114302000C3009B30C40089
:101EE0006630C5000130C6006530C7000130C8004B
:101EF0008B313D238E3164302000CB000130CC008B
:101F00006630CD000130CE006530CF000130D0000A
:101F1000893195218E31220066080319902F912F67
:101F2000F82F24302000AE009B30AF00EE30B00020
:101F30009930B100EB30B2009830B300EB30B40010
:101F40009830B5008931E1218E3101309231FE2285
:101F50008E3106302100C8001330C700AD30890B28
:101F6000AF2FC70BAF2FC80BAF2F0032003092310D
:101F7000FE228E31220063080319BF2FC02FF82FD5
:101F80001F302000BF009830C0009331A3238E3152
:101F9000220064088B31AD238E312100C700470831
:101FA0002200E5006508031DD62FD72FF82FE60184
:101FB00024302000C3009B30C4006630C5000130CF
:101FC000C6006530C7000130C8008B313D238E311B
:101FD00064302000CB000130CC006630CD000130F1
:101FE000CE006530CF000130D000893195218E318F
:101FF000220066080319FE2F80318B288031E928E2
:10200000F33411345C3412344C34123488340A34CE
:10201000BF3408343E34123465341734F834113484
:10202000FD34113402341234073412340C341234B7
:1020300011341234163412341B341234AF341634C3
:102040002D343E3420345434453453345434203405
:1020500043344F344E3446344F3452344D34453487
:1020600020342D34203441345434543445344E34E7
:102070005434453420344134433451345534493494
:102080005434543445344D3445344E3454340D3482
:042090000A340034DA
:1023800008000834013008002400961408002400D6
:1023900016150800240096150800240011080800EE
:1023A00020009115080020009111080094316F243D
:1023B0009131080023001D121D16080024009616F6
:1023C00016160800240096121616080097310927E1
:1023D000913108001630210097000800F0007008C5
:1023E0002400910008002200BC10BB010E30080040
:1023F0009131C4219131013008009131C4219131D2
:10240000023008009131C42192310130080091312D
:10241000C7219231003008009131E221923105301C
:1024200008009131DE2192310A3008009131DE211D
:102430009231093008002200BC10BB010E300800A8
:102440002400160E890C890C013908009231A5224E
:1024500092312400161408009231A52292312400F2
:1024600016150800640080010131890B332A0034FD
:10247000FE0012001E00FE0B392A003422003C1020
:102480009131CA219231043008002000A5002508AE
:102490009631DC269231080022003C143635913109
:1024A000EE21923103300800F03021009E009B01A4
:1024B0009C0101309D00080022003C140314360DDD
:1024C0009131EE21923105300800200024082100CE
:1024D000DB00200023082100DA0008002000240887
:1024E0002100DF00200023082100DE00080020007A
:1024F00024082100DD00200023082100DC00080062
:10250000200024082100E100200023082100E00031
:102510000800200024082100E300200023082100F7
:10252000E200080001309431242492313530890BC7
:10253000972A00000800C03024009400083095005D
:1025400096014F3092009512080024001419A92A10
:10255000AA2AA52A16081F39031DAF2AB02AA52AC0
:102560000800703021009900980122009601210096
:102570001A1FBB2ABC2AB72A08007608F100750882
:10258000F0007708F8007808F200003096315926FC
:10259000923108002000A30023080319D02AD12A71
:1025A000D42A22000C14D62A22000C100800200085
:1025B000A30023080319DD2ADE2AE12A22001014D1
:1025C000E32A2200101008002000A30023080319AA
:1025D000EA2AEB2AEE2A22009014F02A2200901018
:1025E00008002000A30023080319F72AF82AFB2A71
:1025F00022001015FD2A2200101108002000A3005F
:1026000023080319042B052B082B22008C140A2BFA
:1026100022008C1008002000A30023080319112BAE
:10262000122B152B22000C15172B22000C11080061
:102630002000A300230803191E2B1F2B222B22008E
:102640000C16242B22000C1208002000A3002308E3
:1026500003192B2B2C2B2F2B22008C16312B220015
:102660008C1208002000A30023080319382B392BF3
:102670003C2B22008C153E2B22008C110800F3000D
:102680002200BC1D442B452B4E2B7308F200720810
:10269000B7007108B9007008B800BC11080020002C
:1026A000A3009231A5229331200023082400910039
:1026B0002000911D5C2B5D2B582B911108000230DE
:1026C000F0000030F100790893313F23933100305E
:1026D000F500F600F7019231BD2293310430080075
:1026E0000130F0000030F100790893313F2393313D
:1026F0000030F500F600F7019231BD22933102302F
:1027000008000230F0000030F100790893313F23D7
:1027100093310030F500F600F7019231BD2293317C
:10272000023008000130F0000030F10079089331E8
:102730003F2393310030F500F600F7019231BD22BE
:1027400093310430080041302000C1004108C2002C
:102750004008B8003F08B7004230C1004108B90046
:10276000003088310B209331080092319B22933145
:102770009431C02493319231B12293319131EA21C5
:1027800093319231542293318931052193310800DC
:102790002000A40092312622933121006808933151
:1027A0004F2393312000240821006C0493314F23E0
:1027B000933192312C22933108002000B40031086B
:1027C000A9003008A8003408943155249331200022
:1027D0002308B2002408B3003408320795313E259F
:1027E0009331200034080800790886008701403FB3
:1027F000F000413FF1007908023E860087010108A0
:1028000093313F2393310030F500F600F701923108
:10281000BD229331023008002000A6002100690883
:102820002000A5002508A604260804389331C823F3
:10283000943120002608FB399331C823943142306B
:10284000890B202C003208002000A8002100E9019B
:1028500020002808F03994310C24943120002808F5
:10286000A7000330A735FF3E031D322C2735F03972
:1028700094310C24943108002000A8002100E901C3
:10288000E90A20002808F03994310C249431200002
:102890002808A7000330A735FF3E031D4B2C273522
:1028A000F03994310C24943108002000A700270847
:1028B000A5002508A600602C0130A5002508A70763
:1028C0002708860087010108031D672C682C5C2CF3
:1028D00026082702A300A401A31BA40308002300C9
:1028E0001908F00020006B083D3E8600013087008B
:1028F000700881000130F0007008EB0708306B02AF
:10290000031C832C842C852CEB010130F000700813
:10291000E90708002000A400A30124080319912C52
:10292000922C982C8F1B952C962C982CA301A30AE3
:102930002408031D9C2C9D2CA32C8F1FA02CA12CA4
:10294000A32CA301A30A230808002000A400A301CC
:1029500024080319AC2CAD2CB32C0F19B02CB12CBE
:10296000B32CA301A30A2408031DB72CB82CBE2C3A
:102970000F1DBB2CBC2CBE2CA301A30A23080800EE
:10298000220090018F018C018D018E010830210001
:1029900090008C01EF308D00BF308E00FF308F0033
:1029A00023008F013F308D0090013C308C002400CB
:1029B00090018D012100951722009D010800220041
:1029C0000C1706302000A4001330A300AD30890B93
:1029D000E72CA30BE72CA40BE72C003222000C13EE
:1029E00006302000A4001330A300AD30890BF62C74
:1029F000A30BF62CA40BF62C003208002000AC012F
:102A0000AD01112D29082C0784002A082D3D8500D1
:102A1000000894313C24943101302000AC07003090
:102A2000AD3D29082C0784002A082D3D85001200A1
:102A3000031D1B2D1C2D022D08002000A6002608BA
:102A4000A500A50DA50D21001D0820002506833930
:102A5000250621009D001D140D30890B2D2D000031
:102A600021009D149D18352D362D322D1C08200077
:102A7000A40021001B082000A30008002000AF00D4
:102A80002908AD002808AC002F08AA002A08AE00CB
:102A90002E0886008701AE0A2D08AB002C08AA007C
:102AA000AC0A0319AD0A2A0884002B088500000827
:102AB000C03F8908031D5D2D5E2D482D0800203084
:102AC0002000BF009030C0009331A3239531200037
:102AD000C401C50196310B26953101302000C40791
:102AE0000030C53D4508803AC30080304302031DD5
:102AF0007B2D02304402031C7E2D7F2D6A2D0800A1
:102B0000083021006B020318862D872DA02D7D082B
:102B1000453E860001308700010823009A000130FD
:102B2000F0007008FD0708307D02031C982D992DD8
:102B30009A2DFD010130F00070082100EB07A12D56
:102B4000111208002000A400A30124080319A92DD4
:102B5000AA2DB42D0F1CAD2DAE2DB42D8F18B12D77
:102B6000B22DB42DA301A30A2408031DB82DB92D3D
:102B7000C32D0F18BC2DBD2DC32D8F1CC02DC12DF5
:102B8000C32DA301A30A230808002000A400A30169
:102B900024080319CC2DCD2DD72D8F1DD02DD12D4F
:102BA000D72D0F1AD42DD52DD72DA301A30A240874
:102BB000031DDB2DDC2DE62D8F19DF2DE02DE62DFD
:102BC0000F1EE32DE42DE62DA301A30A2308080020
:102BD0002000A400A30124080319EF2DF02DFA2DE5
:102BE0008F1EF32DF42DFA2D0F1BF72DF82DFA2D36
:102BF000A301A30A2408031DFE2DFF2D092E8F1A01
:102C0000022E032E092E0F1F062E072E092EA301BA
:102C1000A30A230808002000A801A90196318326F1
:102C200096310B302000A7002630A6005D30890BBE
:102C3000172EA60B172EA70B172E003201302000DF
:102C4000A8070030A93D2908803AA6008030260256
:102C5000031D2C2E02302802031C2F2E302E0E2E88
:102C600008002D343E342034453452345234453437
:102C7000553452343A3420340034003400340034B3
:102C8000003400340034003400342D343E34203419
:102C90004534523452344534553452343A34203465
:102CA0000034003400340034003400340034003484
:102CB0000034F4007008710403195F2E602E732E27
:102CC0007435203E8600013087007008C03F7108CF
:102CD000C13F7208F30074082C3E86000130870063
:102CE00073088100822E7435203E860001308700F3
:102CF000C230C03F1130C13F74082C3E8600013005
:102D00008700810108002000A401A50122000D1602
:102D100006302000A3003030890B8C2EA30B8C2EA4
:102D2000000022000D1206302000A3003030890B75
:102D3000972EA30B972E000001302000A40700302F
:102D4000A53D2508803AA30080302302031DAA2E4A
:102D500032302402031CAD2EAE2E862E0800220037
:102D60003C100230FA007A08BB00BE2E92310222DB
:102D70009631DB2E923107229631DB2E2E08FA0097
:102D80007A08F9000430203E860001308700413F78
:102D90008A00403F0A009631FB00FC017C08003AA3
:102DA0000319D32EBA2E7B08023A0319B62E013A24
:102DB0000319B62EBA2E08002000A40021006B08CB
:102DC0000319E32EE42EDE2E111AE72EE82EED2E47
:102DD0002000240823009A00062F11122000240846
:102DE000A3006C08453E860001308700230881005F
:102DF0000130A3002308EC0708306C02031C012FEC
:102E0000022F032FEC0101302100EB0221001116EB
:102E100008009131D321973122003C1C102F112F33
:102E20001F2F923120229731003A0319182F192FA2
:102E30001F2F0F302000A00020082200BA0022001F
:102E40003A082000A000A101A035A10D0030200704
:102E500084009030213D8500013F8A00003F0A0038
:102E600097312000A20022082200BA0008002000AA
:102E7000690803193C2F3D2F372F6A08CA3E860088
:102E800087010108A30023082100EA0020006A0846
:102E90003D3E8600013087000108A3002308A400FE
:102EA0000130A3002308EA0708306A02031C592FE7
:102EB0005A2F5B2FEA012100911201302000E90214
:102EC000210091162000240808002200BC15752F4F
:102ED000923102229731932F9131D02197310330D3
:102EE000932F923107229731932F2C08FA007A08FA
:102EF000F90021088A0020080A009731FB00FC0134
:102F00007C08003A0319852F712F7B08013A0319B9
:102F1000712F033A0319682F013A0319682F073AF2
:102F200003196C2F712F08002000AC00AF2F290867
:102F3000BF3E943124249731C22F2908933E943107
:102F400024249731C22F2908D33E94312424973169
:102F5000C22F29087F3E943124249731C22F2C0898
:102F6000AA00AB012B08003A0319B72FA92F2A0892
:102F7000023A0319972F013A03199D2F073A0319B3
:102F8000A32FA92F080020006B08CA3E86008701E6
:102F9000810123001D1DCD2FCE2FDA2F20006B08BD
:102FA000CA3E86008701811421005F088A005E08FE
:102FB0000A00973123009D1CDE2FDF2FEB2F20000E
:102FC0006B08CA3E86008701011521005D088A0052
:102FD0005C080A00973120006B08CA3E8600870112
:102FE00001080319F42FF52FFC2F21005B088A003C
:102FF0005A080A009731FF2F94316F249731080047
:1030000041345434543445344E34543445342034EB
:10301000563441344C3449344434413454344934C2
:103020004F344E34203442344C34553445345434C7
:103030004F344F34543448340D340A34003441345E
:103040007434743465346E347434653420347634B6
:1030500061346C34693464346134743469346F3489
:103060006E3420346C3465346434203472346F34FC
:103070007534673465340D340A3400342D343E34ED
:103080002034543445345334543420344D34413492
:103090004E34553445344C34203445344E34203489
:1030A00043344F345534523453340D340A340034DD
:1030B00041345434543445344E345434453420343B
:1030C000563441344C344934443441345434493412
:1030D0004F344E3420344C344534443453340D345E
:1030E0000A3400342D343E342034463449344E34CE
:1030F0002034543445345334543420344D34413422
:103100004E34553445344C340D340A340034503484
:1031100052344534533453344534523420344F34CC
:103120004B3420344F3455342034453452345234E7
:1031300045345534523400344134543454344534D5
:103140004E345434453420344134433451345534AE
:1031500049345434543445344D3445344E34543465
:1031600000345434453453345434203452343134DC
:1031700020344F344634463420342D3420345234F5
:10318000323420344F344E340034543445345334C4
:10319000543420345234323420344F34463446349C
:1031A00020342D3420345234333420344F344E34D0
:1031B00000342D343E3420345434453453345434A4
:1031C0002034413443345134553449345434543424
:1031D00045340D340A3400345434453453345434B3
:1031E000203443344134523454344534203444344C
:1031F000393432343534453444343434003456347C
:1032000045345234493446344934453452342034F8
:103210005034313420344534543420345034323432
:10322000003452344534533455344C3454344134DE
:103230005434203443344F344E34463449345234B9
:103240004D344534003454344534533454342034EC
:103250004E344F344E34203443344F344E3446349D
:103260004F3452344D3445340034413454345434A2
:1032700045344E34543445342034443445344D348C
:10328000413452345234413447344534003450349C
:103290004F3453344934543449344F344E344E341B
:1032A0004534523420344334413452345434453458
:1032B00000345434453453345434203433342034BB
:1032C000523445344C3441344934533420344F342F
:1032D00046344634003443344C3441345634493453
:1032E000453452342034453443344C344134493429
:1032F000523445343F34003450345234453453341E
:1033000053344534523420344F344B3420342F342A
:1033100020344E344F344B34003454344534533419
:103320005434203433342034523445344C34413412
:103330004934533420344F344E34003454344534FB
:103340005334543420344C344534443420344334DE
:103350004C344134563449344534523400345034BA
:103360004C344134433445345234203450343134B5
:10337000203445345434203450343234003443340F
:103380004C34413456344934453452342034453475
:103390005434453449344E3454343F340034543476
:1033A00045345334543420344C3445344434533449
:1033B0002034433441345234543445340034453499
:1033C0005234523445345534523420345634413416
:1033D0004C34493444344534453400345434453451
:1033E0005334543420344C3445344434203452342F
:1033F0004F34553447344534003454344534533411
:10340000543420344C344534443420345634453418
:1034100052345434453400345434453453345434E1
:1034200020344C3445344434203442344C34453414
:1034300055344534003454344534533454342034F2
:1034400042344C345534453454344F344F3454346E
:1034500048340034413450345034553459344534B0
:103460005234203453345534523420344F344B3496
:1034700000342D343E3420345434453453345434E1
:1034800020344F34463446340D340A340034523438
:10349000453454344934523445345234203443345E
:1034A000413452345434453400344C34453444347B
:1034B0005334203441344C344C3455344D34453439
:1034C0004534533400342D343E34203454344534A0
:1034D0005334543420344F344E340D340A340034D1
:1034E0005434453453345434203448344F345234F3
:1034F0004C344F3447344534003454344534533419
:1035000054342034533446344C34413453344834E6
:103510000034463449344E34203444344534203465
:103520005434453453345434003456344F344934CD
:10353000523420344134503450344C344934003403
:1035400054344534533454342034523431342034D8
:103550004F344E34003445345434413450344534BF
:103560002034313430340034453454344134503410
:1035700045342034313432340034543445345334F7
:1035800054342034423450343234003445345434CA
:1035900041345034453420343134333400344534EC
:1035A00054344134503445342034313434340034CC
:1035B0004534543441345034453420343134353476
:1035C000003445345434413450344534203431349B
:1035D0003634003445345434413450344534203486
:1035E0003134373400344534543441345034453464
:1035F0002034313438340034543445345334543462
:1036000020344F344B340034453454344134503436
:103610004534203431340034543445345334543434
:10362000203450343134003445345434413450342F
:103630004534203432340034543445345334543413
:10364000203450343234003445345434413450340E
:103650004534203433340034453454344134503408
:1036600045342034343400344534543441345034F7
:1036700045342034353400344534543441345034E6
:1036800045342034363400344534543441345034D5
:1036900045342034373400344534543441345034C4
:1036A00045342034383400344534543441345034B3
:0836B0004534203439340034A4
:020000040001F9
:08000000FF3FFF3FFF3FFF3F00
:04000E00E43FFF3F8D
:00000001FF
