:1000000080314728053008007E1480310B1F0928F5
:100010000A2845282100111E0E280F281A28200022
:10002000111E132814281A2839088A0038080A00D3
:10003000803145282100911E1E281F282A282000D3
:10004000911E232824282A2837088A0036080A0007
:10005000803145282100921D2E282F283A28200083
:10006000921D332834283A283D088A003C080A00AB
:10007000803145282100911D3E283F284528200039
:10008000911D43284428452834287E1009008031DA
:100090004928893151218031E800FD012030840058
:1000A0000030850026308931E6218031A03084007F
:1000B0000030850025308931E62180317E10200016
:1000C000803162288B31282380318B170B178A31BE
:1000D0001F2280314E308F31752780312000E6019C
:1000E0005D30D4009030D5009430D6009030D700E9
:1000F0006930D8009130D900D730DA009130DB0078
:100100008F312427803115302000E3004B30E2008E
:10011000BE30890B8928E20B8928E30B892800006F
:100120005D302000D4009030D5008230D600903071
:10013000D700B830D8009030D9006930DA0091305B
:10014000DB008F312427803103302000E3000830AA
:10015000E2007730890BAA28E20BAA28E30BAA2831
:100160008931E021803120302000D4009230D50048
:10017000EB30D6009030D700D730D8009130D9007E
:10018000D730DA009130DB008F3124278031200016
:10019000E701E70A00308A314F22803100308A318E
:1001A0005C22803101308A316922803101308A310C
:1001B0008322803101308A31902280310330200047
:1001C000E3000830E2007730890BE428E20BE428F2
:1001D000E30BE42801308A31762280312930200077
:1001E000E3009630E2007F30890BF428E20BF4281C
:1001F000E30BF42801308C319A248031003A031942
:1002000002290329162901308C31BD248031003A9E
:1002100003190B290C29162901308C31E024803177
:10022000003A031914291529162930292000E7015D
:1002300000308A318322803100308A31902280312F
:1002400020302000DE009230DF006730E2006208DC
:10025000E0006630E3006308E1008D31E62580317F
:1002600015302000E3004B30E200BE30890B362908
:10027000E20B3629E30B3629000000308A31832255
:10028000803100308A3190228031200067080319C4
:100290004A294B29A0293030D4009230D500A6300D
:1002A000D6009030D700D730D8009130D900D73061
:1002B000DA009130DB008F312427803100308A3121
:1002C0008322803100308A31902280310B3020002F
:1002D000E3002630E2005D30890B6C29E20B6C29CB
:1002E000E30B6C29003201308C319A248031003AC2
:1002F000031D7B297C298F2901308C31BD2480315D
:10030000003A031D842985298F2901308C31E0248E
:100310008031003A031D8D298E298F29A0292000C4
:10032000E7013030DE009230DF006730E200620823
:10033000E0006630E3006308E1008D31E62580319E
:10034000200067080319A529A629EA294030D4000E
:100350009230D5002D30D6009130D700D730D8005C
:100360009130D900D730DA009130DB008F3124276B
:10037000803101308A318322803106302000E30051
:100380001330E200AD30890BC329E20BC329E30B24
:10039000C329003200308A31832280318E315926C0
:1003A00080312000E2006208E6006608031DD929BA
:1003B000DA29EA29E7014030DE009230DF006730B9
:1003C000E2006208E0006630E3006308E1008D317E
:1003D000E6258031200067080319EF29F029342A27
:1003E0004830D4009230D5004B30D6009130D70041
:1003F000D730D8009130D900D730DA009130DB0007
:100400008F312427803101308A31832280310630B8
:100410002000E3001330E200AD30890B0D2AE20B1F
:100420000D2AE30B0D2A003200308A3183228031FD
:100430008E31592680312000E2006208E60066080D
:10044000031D232A242A342AE7014830DE00923093
:10045000DF006730E2006208E0006630E300630816
:10046000E1008D31E6258031200067080319392A23
:100470003A2A7E2A5030D4009230D5003C30D60043
:100480009130D700D730D8009130D900D730DA007A
:100490009130DB008F312427803101308A31832273
:1004A000803106302000E3001330E200AD30890BCC
:1004B000572AE20B572AE30B572A003200308A31C1
:1004C000832280318E31592680312000E20062087B
:1004D000E6006608031D6D2A6E2A7E2AE701503069
:1004E000DE009230DF006730E2006208E000663034
:1004F000E3006308E1008D31E625803120006708C4
:100500000319832A842AD42A5830D4009230D50083
:10051000C430D6009130D700D730D8009130D90000
:10052000D730DA009130DB008F3124278031013061
:100530008A318322803115302000E3004B30E20005
:10054000BE30890BA12AE20BA12AE30BA12A0000ED
:1005500000308A318322803115302000E3004B3097
:10056000E200BE30890BB22AE20BB22AE30BB22AB8
:10057000000001308C319A248031003A0319C12ADD
:10058000C22AC32AD42A2000E7015830DE00923064
:10059000DF006730E2006208E0006630E3006308D5
:1005A000E1008D31E6258031200067080319D92A42
:1005B000DA2A332B6030D4009230D5003530D600A3
:1005C0009030D700D730D8009130D900D730DA003A
:1005D0009130DB008F312427803101308A31832232
:1005E000803115302000E3004B30E200BE30890B33
:1005F000F72AE20BF72AE30BF72A000000308A31D2
:100600008322803115302000E3004B30E200BE3001
:10061000890B082BE20B082BE30B082B00000030A2
:100620008C319A248031003A0319172B182B222B76
:1006300001308C31BD248031003A0319202B212B4D
:10064000222B332B2000E7016030DE009230DF00E8
:100650006730E2006208E0006630E3006308E10012
:100660008D31E6258031200067080319382B392B9E
:10067000922B6830D4009230D5004930D6009030AB
:10068000D700D730D8009130D900D730DA00913078
:10069000DB008F312427803101308A318322803181
:1006A00015302000E3004B30E200BE30890B562BA2
:1006B000E20B562BE30B562B000000308A318322CD
:1006C000803115302000E3004B30E200BE30890B52
:1006D000672BE20B672BE30B672B000000308C319C
:1006E000BD248031003A0319762B772B812B013002
:1006F0008C31E0248031003A03197F2B802B812B31
:10070000922B2000E7016830DE009230DF00673076
:10071000E2006208E0006630E3006308E1008D312A
:10072000E6258031200067080319972B982B042CAD
:100730007030D4009230D500FC30D6009030D70015
:10074000C930D8009030D900D730DA009130DB00C2
:100750008F312427803101308A3183228031063065
:100760002000E3001330E200AD30890BB52BE20B23
:10077000B52BE30BB52B003200308A318322803158
:100780000B302000E3002630E2005D30890BC62BE1
:10079000E20BC62BE30BC62B00320C308C315724F6
:1007A000803120004A08E5004908E4006508803AE5
:1007B000E20081306202031DDF2BE0306402031887
:1007C000E22BE32BE62B22008C17F82B7030200055
:1007D000DE009230DF006730E2006208E000663041
:1007E000E3006308E1008D31E625803122008C139F
:1007F00029302000E3009630E2007F30890BFE2B89
:10080000E20BFE2BE30BFE2B200067080319092CDB
:100810000A2C762CCF30D4009130D500FC30D60095
:100820009030D7000D30D8009130D900D730DA00A1
:100830009130DB008F312427803101308A318322CF
:10084000803106302000E3001330E200AD30890B28
:10085000272CE20B272CE30B272C003200308A31A7
:10086000832280310B302000E3002630E2005D302F
:10087000890B382CE20B382CE30B382C00320C306F
:100880008C315724803120004A08E5004908E400F3
:100890006508803AE20081306202031D512CE1308C
:1008A0006402031C542C552C582C22008C136A2CE7
:1008B000CF302000DE009130DF006730E2006208B8
:1008C000E0006630E3006308E1008D31E625803109
:1008D00022008C1729302000E3009630E2007F30A0
:1008E000890B702CE20B702CE30B702C2000670836
:1008F00003197B2C7C2C2B2DD830D4009130D500C3
:10090000A130D6009130D700D730D8009130D9002F
:10091000D730DA009130DB008F31242780310B3063
:100920002000E3002630E2005D30890B952CE20BBD
:10093000952CE30B952C003201308A3183228031D3
:1009400006302000E3001330E200AD30890BA62C06
:10095000E20BA62CE30BA62C003200308A31832256
:1009600080313D302000E300E130E2003F30890B70
:10097000B72CE20BB72CE30BB72C003201308A31D5
:100980008322803106302000E3001330E200AD30D6
:10099000890BC82CE20BC82CE30BC82C00320030AA
:1009A0008A318322803110302000E3003930E200A8
:1009B0000D30890BD92CE20BD92CE30BD92C00324A
:1009C00001308C319A248031003A0319E82CE92C4B
:1009D000FC2C01308C31BD248031003A0319F12CFC
:1009E000F22CFC2C00308C31E0248031003A0319C9
:1009F000FA2CFB2CFC2C162D2000E70100308A314C
:100A00008322803100308A3190228031D83020001A
:100A1000DE009130DF006730E2006208E0006630FF
:100A2000E3006308E1008D31E625803115302000B8
:100A3000E3004B30E200BE30890B1C2DE20B1C2D75
:100A4000E30B1C2D000000308A31832280310030FE
:100A50008A3190228031200067080319302D312D12
:100A6000752DEA30D4009130D5001D30D60091307C
:100A7000D7008630D8009130D900DA30DA009030D3
:100A8000DB008F312427803101308A31832280318D
:100A900006302000E3001330E200AD30890B4E2D0C
:100AA000E20B4E2DE30B4E2D003200308A318322B3
:100AB00080318E31592680312000E2006208E60044
:100AC0006608031D642D652D752DE701EA30DE00F3
:100AD0009130DF006730E2006208E0006630E3003A
:100AE0006308E1008D31E625803120006708031995
:100AF0007A2D7B2DDD2DF330D4009130D500E130FF
:100B0000D6009130D700D730D8009130D900D730F7
:100B1000DA009130DB008F312427803101308A31B7
:100B20009022803106302000E3001330E200AD3027
:100B3000890B982DE20B982DE30B982D0032003095
:100B40008A31902280310B302000E3002630E20011
:100B50005D30890BA92DE20BA92DE30BA92D0032E5
:100B600001308C319A248031003A0319B82DB92D07
:100B7000CC2D01308C31BD248031003A0319C12DB8
:100B8000C22DCC2D01308C31E0248031003A031984
:100B9000CA2DCB2DCC2DDD2D2000E701F330DE005A
:100BA0009130DF006730E2006208E0006630E30069
:100BB0006308E1008D31E6258031200067080319C4
:100BC000E22DE32D452EFC30D4009130D500943039
:100BD000D6009130D700D730D8009130D900D73027
:100BE000DA009130DB008F312427803101308A31E7
:100BF000B722803106302000E3001330E200AD3030
:100C0000890B002EE20B002EE30B002E0032003089
:100C10008A31B72280310B302000E3002630E20019
:100C20005D30890B112EE20B112EE30B112E0032D9
:100C300000308C319A248031003A0319202E212E65
:100C4000342E00308C31BD248031003A0319292E16
:100C50002A2E342E00308C31E0248031003A0319E2
:100C6000322E332E342E452E2000E701FC30DE00DC
:100C70009130DF006730E2006208E0006630E30098
:100C80006308E1008D31E6258031200067080319F3
:100C90004A2E4B2EAD2E0530D4009230D500283090
:100CA000D6009230D700D730D8009130D900D73055
:100CB000DA009130DB008F312427803101308A3116
:100CC0009D22803119302000E3005A30E200B1301B
:100CD000890B682EE20B682EE30B682E0032003081
:100CE0008A319D2280310B302000E3002630E20063
:100CF0005D30890B792EE20B792EE30B792E0032D1
:100D000001308C319A248031003A0319882E892EC3
:100D10009C2E01308C31BD248031003A0319912E74
:100D2000922E9C2E01308C31E0248031003A031940
:100D30009A2E9B2E9C2EAD2E2000E7010530DE0062
:100D40009230DF006730E2006208E0006630E300C6
:100D50006308E1008D31E625803120006708031922
:100D6000B22EB32E152F0E30D4009230D50038306D
:100D7000D6009230D700D730D8009130D900D73084
:100D8000DA009130DB008F312427803101308A3145
:100D9000AA22803119302000E3005A30E200B1303D
:100DA000890BD02EE20BD02EE30BD02E0032003078
:100DB0008A31AA2280310B302000E3002630E20085
:100DC0005D30890BE12EE20BE12EE30BE12E0032C8
:100DD00000308C319A248031003A0319F02EF12E24
:100DE000042F00308C31BD248031003A0319F92ED4
:100DF000FA2E042F00308C31E0248031003A0319A0
:100E0000022F032F042F152F2000E7010E30DE00E4
:100E10009230DF006730E2006208E0006630E300F5
:100E20006308E1008D31E625803120006708031951
:100E30001A2F1B2F4D2F1730D4009230D5005A3067
:100E4000D6009130D700B930D8009130D900DA30CF
:100E5000DA009030DB008F31242780318C31192467
:100E600080318E31592680312000E2006208E60090
:100E70006608031D3C2F3D2F4D2FE7011730DE0084
:100E80009230DF006730E2006208E0006630E30085
:100E90006308E1008D31E6258031200067080319E1
:100EA000522F532F9028AD30D4009130D500793097
:100EB000D6009030D7007830D8009130D90020305B
:100EC000DA009030DB008F312427803101308A3105
:100ED0004F2280318931E021803166302000E200EC
:100EE0006208CA0067308D31032580312930200027
:100EF000E3009630E2007F30890B7C2FE20B7C2FE1
:100F0000E30B7C2F9028803147288931B02187312D
:100F1000003A03198C2F8D2FBD2F9A2F89318821EC
:100F20008731D92F89318D218731D92F8931972167
:100F30008731D92F21002F08FA007A08F9000630EE
:100F4000A03E86008701413F8A00403F0A0087316A
:100F5000FB00FC017C08003A0319AF2F962F7B0899
:100F6000013A0319962F033A03198E2F013A0319F8
:100F7000922F073A0319962F962F21003C10173015
:100F8000A03E86008701403F84008501810A000859
:100F900089317E21873101302100B8020030B93B10
:100FA00038083904031DD52FD62FD82F0630D92F56
:100FB00003300800F400700871040319E02FE12FDA
:100FC000F22F7435A03E860087017008C03F71087B
:100FD000C13F7208F3007408AC3E860087017308B5
:100FE0008100FF2F7435A03E860087015230C03F3C
:100FF0000930C13F7408AC3E8600870181010800BA
:1012A00008000834013008002400961408002400C7
:1012B00016150800240096150800240011080800DF
:1012C0002000911508002000911108008B31AA23FD
:1012D0008931080023001D121D16080024009616EF
:1012E0001616080024009612161608008D315A258D
:1012F000893108001630210097000800F0007008BE
:101300002400910008002100BC10BB010E30080031
:1013100089315421893101300800893154218931C2
:1013200002300800893154218931013008008931A7
:101330005721893100300800893172218931053007
:10134000080089316E2189310A30080089316E2107
:101350008931093008002100BC10BB010E300800A3
:101360002400160E890C890C013908008A312A22C2
:1013700089312400161408008A312A228931240078
:101380001615080020004A08B1004908B0000800FE
:1013900020004A08B5004908B400080020004A08A7
:1013A000B3004908B200080020004A08B700490805
:1013B000B600080020004A08B9004908B800080033
:1013C00020000F19E429E529E029080064008001C4
:1013D0000131890BE729003421003C1089315A2161
:1013E00089310430080021003C14363589317E21D2
:1013F000893103300800F03021009E009B019C01E0
:1014000001309D00080021003C140314360D893181
:101410007E218A310530080001308B3165238A3105
:101420003530890B112A00000800C03024009400D8
:101430000830950096014F30920095120800283030
:1014400024009500960194012730920021008E150A
:101450000E160800240014192E2A2F2A2A2A1608EC
:101460001F39031D342A352A2A2A0800703021002A
:10147000990098012200960121001A1F402A412A52
:101480003C2A08007608F1007508F0007708F8009B
:101490007808F20000308731DA278A31080020000E
:1014A000C90049080319552A562A592A220010143E
:1014B0005B2A2200101008002000C9004908031907
:1014C000622A632A662A22009014682A2200901059
:1014D00008002000C900490803196F2A702A732ADE
:1014E00022001015752A2200101108002000C900E2
:1014F000490803197C2A7D2A802A22000C14822A9A
:1015000022000C1008002000C90049080319892A8C
:101510008A2A8D2A22008C148F2A22008C1008001F
:101520002000C90049080319962A972A9A2A2200FE
:101530000C159C2A22000C1108002000C900490843
:101540000319A32AA42AA72A22000C16A92A2200DA
:101550000C1208002000C90049080319B02AB12A5A
:10156000B42A22008C16B62A22008C120800200011
:10157000C90049080319BD2ABE2AC12A22008C15B8
:10158000C32A22008C110800F3002100BC1DC92AC7
:10159000CA2AD32A7308F2007208B7007108B9008A
:1015A0007008B800BC1108002000C9008A312A2246
:1015B0008A3120004908240091002000911DE12A71
:1015C000E22ADD2A911108000230F0000030F1001B
:1015D00079088A31C4228A310030F500F600F7011B
:1015E0008A3142228A31043008000130F000003094
:1015F000F10079088A31C4228A310030F500F60002
:10160000F7018A3142228A31023008000230F000AC
:101610000030F10079088A31C4228B310030F500A6
:10162000F600F7018A3142228B3102300800013086
:10163000F0000030F10079088A31C4228B3100308B
:10164000F500F600F7018A3142228B3104300800A0
:101650008A3115228B318B31FA238B318A31362234
:101660008B3189317A218B318931FB218B318E315C
:1016700099268B3108002000CA008931B6218B31B0
:1016800020003E088A31D4228B3120004A086804A9
:101690008A31D4228B318931BC218B310800200062
:1016A000CC003F08CB004B08CC044C0804388B31ED
:1016B0003B238B3120004C08FB398B313B238B3192
:1016C0004230890B612B003208002000CE00BF01A0
:1016D0004E08F0398B314F238B3120004E08CD005E
:1016E0000330CD35FF3E031D712B4D35F0398B3165
:1016F0004F238B3108002000CE00BF01BF0A4E08E7
:10170000F0398B314F238B3120004E08CD00033050
:10171000CD35FF3E031D882B4D35F0398B314F23DE
:101720008B310800790886008701403FF000413F77
:10173000F1007908023E8600870101088A31C4223F
:101740008B310030F500F600F7018A3142228B31EF
:101750000230080023001908F00020004208BD3EB6
:1017600086008701700881000130F0007008C20710
:1017700008304202031CBD2BBE2BBF2BC20101301F
:10178000F0007008C10708002000CA00C9014A081B
:101790000319CB2BCC2BD22B8F1BCF2BD02BD22BA7
:1017A000C901C90A4A08031DD62BD72BDD2B8F1F71
:1017B000DA2BDB2BDD2BC901C90A49080800200000
:1017C000CA00C9014A080319E62BE72BED2B0F19B4
:1017D000EA2BEB2BED2BC901C90A4A08031DF12B9B
:1017E000F22BF82B0F1DF52BF62BF82BC901C90A8C
:1017F00049080800220090018F018C018D018E01A3
:101800000830210090008C01EF308D00BF308E0039
:10181000FF308F0023008F013F308D0090013C305E
:101820008C00240090018D012100951722009D015C
:10183000080022000C1706302000CA001330C9002F
:10184000AD30890B212CC90B212CCA0B212C003265
:1018500022000C1306302000CA001330C900AD303E
:10186000890B302CC90B302CCA0B302C00320800ED
:101870002000D201D3014B2C4F085207840050089E
:10188000533D850000088B317B238C3101302000D3
:10189000D2070030D33D4F08520784005008533D13
:1018A00085001200031D552C562C3C2C08002000EE
:1018B000CC004C08CB00CB0DCB0D21001D08200027
:1018C0004B0683394B0621009D001D140D30890BFA
:1018D000672C000021009D149D186F2C702C6C2C1F
:1018E0001C082000CA0021001B082000C9000800B5
:1018F00008302000430203187E2C7F2C972C4408CC
:10190000283E86008701010823009A000130F0007C
:1019100070082000C40708304402031C902C912C4E
:10192000922CC4010130F0007008C307992C2100EB
:10193000111208002000CA00C9014A080319A12C8D
:10194000A22CAC2C0F1CA52CA62CAC2C8F18A92CCF
:10195000AA2CAC2CC901C90A4A08031DB02CB12C11
:10196000BB2C0F18B42CB52CBB2C8F1CB82CB92C4D
:10197000BB2CC901C90A490808002000CA00C901D6
:101980004A080319C42CC52CCF2C8F1DC82CC92C78
:10199000CF2C0F1ACC2CCD2CCF2CC901C90A4A0848
:1019A000031DD32CD42CDE2C8F19D72CD82CDE2C55
:1019B0000F1EDB2CDC2CDE2CC901C90A49080800EB
:1019C0002000CA00C9014A080319E72CE82CF22CB0
:1019D0008F1EEB2CEC2CF22C0F1BEF2CF02CF22C8E
:1019E000C901C90A4A08031DF62CF72C012D8F1ACC
:1019F000FA2CFB2C012D0F1FFE2CFF2C012DC901F1
:101A0000C90A490808002000CB004B08860087015E
:101A100081014A0886008701810100308A314F2206
:101A20008D3100308A315C228D3100308A3169225B
:101A30008D3100308A3176228D3100308A31832217
:101A40008D3100308A3190228D3100308A319D22D3
:101A50008D3100308A31AA228D31080021003C10DE
:101A60000230FA007A08BB003D2D893192218D3178
:101A7000592D893197218D31592D2E08FA007A0878
:101A8000F9000430A03E86008701413F8A00403FB4
:101A90000A008D31FB00FC017C08003A0319512D2E
:101AA000392D7B08023A0319352D013A0319352DDA
:101AB000392D0800893163218D3121003C1C612DB5
:101AC000622D702D8931B0218D31003A0319692DB5
:101AD0006A2D702D0F302000C60046082100BA0084
:101AE00021003A082000C600C701C635C70D0030E6
:101AF000460784009030473D8500013F8A00003F43
:101B00000A008D312000C80048082100BA000800F2
:101B10002100BC15982D893192218D31B62D893146
:101B200060218D310330B62D893197218D31B62D4D
:101B30002C08FA007A08F90021088A0020080A0017
:101B40008D31FB00FC017C08003A0319A82D942D6F
:101B50007B08013A0319942D033A03198B2D013A9E
:101B600003198B2D073A03198F2D942D080020009F
:101B7000D200D22D4F08BF3E8B3165238D31E52D2C
:101B80004F08933E8B3165238D31E52D4F08D33EB1
:101B90008B3165238D31E52D4F087F3E8B316523D9
:101BA0008D31E52D5208D000D1015108003A0319BA
:101BB000DA2DCC2D5008023A0319BA2D013A031937
:101BC000C02D073A0319C62DCC2D080001308A31EB
:101BD0005C228D3100308A3169228D3100308A31AA
:101BE0004F228D3120005F08D5005E08D400703090
:101BF000D6009030D7002030D8009030D900D730B0
:101C0000DA009130DB008F3124278D3122000C1057
:101C100020000F190C2E0D2E082E0F1D102E112E28
:101C20000D2E00308A315C228D3120006008860044
:101C30008701810161088600870181010800200079
:101C40004208203E86008701810123001D1D292EA8
:101C50002A2E352E20004208203E8600870181145E
:101C600035088A0034080A008E3123009D1C392E65
:101C70003A2E452E20004208203E8600870101159D
:101C800033088A0032080A008E3120004208203EC4
:101C900086008701010803194E2E4F2E552E31085C
:101CA0008A0030080A008E31582E8B31AA238E31DB
:101CB00008002000CB0100308B31DF238E31003A49
:101CC0000319632E642E6D2E00308B31C4238E31A8
:101CD000003A031D6C2E6D2E5B2E01308B31C42318
:101CE0008E31003A0319752E762E782E2000CB0106
:101CF00001308B31DF238E31003A0319802E812E83
:101D0000842E2000CB01CB0A01308B31DF238E31B2
:101D1000003A031D8C2E8D2E842E01308B31C4236E
:101D20008E31003A031D952E962E842E20004B08EE
:101D30000800210091121F302000C9000E30CA0097
:101D40008931D4218E312100111278302000C90050
:101D50000C30CA008931DA218E31083023009F000F
:101D600090309D0024309E0040309B0003309C004A
:101D700050302000C9000930CA008931C8218E3195
:101D80006A302000C9000930CA008931CE218E3165
:101D900066302000C9000930CA008931C2218E3165
:101DA0002000C001C501C4010830CB004B08C300AE
:101DB000C201FD01C10121009116080089315D2198
:101DC0008E31FA0021003708860087017A088100E9
:101DD0000130FA007A08B7070130B8020030B93B89
:101DE000380839040319F52EF62EFB2E893172219D
:101DF0008E310530232FBC15052F8931A6218E3158
:101E0000232F8931A1218E31232F2C08FA007A0843
:101E1000F90021088A0020080A008F31FB00FC012C
:101E20007C08003A0319152F012F7B08013A03198A
:101E3000012F033A0319FD2E013A0319FD2E073A2B
:101E40000319012F012F08008A310C228F3106302F
:101E50008B3165238F3102302000DD000430DC003F
:101E6000BA30890B312FDC0B312FDD0B312F000005
:101E70002000CF01CF0A01308D31B7258F312000EE
:101E80005508D0005408CF008C3138248F31200001
:101E9000CF01CF0A02308D31B7258F31200057088E
:101EA000D0005608CF008C3138248F312000CF016C
:101EB000CF0A03308D31B7258F3120005908D0006B
:101EC0005808CF008C3138248F312000CF01CF0A41
:101ED00004308D31B7258F3120005B08D0005A08BF
:101EE000CF008C3138248F3108002000D1005108F8
:101EF000CF004F08BE0000308B313B238F319C3028
:101F00002000CF00D730890B832FCF0B832F0330D6
:101F10008B3165238F311A302000CF00F830890BC8
:101F20008F2FCF0B8F2F000003308B3165238F3124
:101F30001A302000CF00F830890B9C2FCF0B9C2F3C
:101F4000000003308B3165238F311A302000CF0021
:101F5000F830890BA92FCF0BA92F000002308B314D
:101F600065238F311A302000CF00F830890BB62F4F
:101F7000CF0BB62F000028308B3165238F31023014
:101F80002000D0000430CF00BA30890BC52FCF0B12
:101F9000C52FD00BC52F00000C308B3165238F313E
:101FA00002302000D0000430CF00BA30890BD62F89
:101FB000CF0BD62FD00BD62F000001308B316523ED
:101FC0008F3102302000D0000430CF00BA30890BAE
:101FD000E72FCF0BE72FD00BE72F000006308B3118
:101FE00065238F3102302000D0000430CF00BA309A
:101FF000890BF82FCF0BF82FD00BF82F000008001B
:102000008334093403340A34F3340934853407340F
:10201000DE340E34EC34093488340D348834093419
:102020008D34093492340934973409349C3409349A
:10203000A1340934A6340934AB3409342E340D34B8
:1020400041345434543445344E34543445342034BB
:102050004134433451345534493454345434453480
:102060004D3445344E3454340034543445345334B0
:10207000543420345234313420344F3446344634CE
:1020800020342D3420345234323420344F344E3402
:1020900000345434453453345434203452343234BC
:1020A00020344F344634463420342D3420345234D6
:1020B000333420344F344E340034543445345334A4
:1020C000543420344334413452345434453420346D
:1020D00044343934323435344534443434340034BF
:1020E000543445345334543420344E344F344E3405
:1020F000203443344F344E3446344F3452344D340C
:102100004534003441345434543445344E3454341A
:1021100045342034443445344D34413452345234FF
:10212000413447344534003450344F345334493407
:10213000543449344F344E344E34453452342034C0
:1021400043344134523454344534003454344534E7
:1021500053345434203433342034523445344C34E2
:1021600041344934533420344F34463446340034F7
:102170005234453454344934523445345234203482
:102180005034313420346534743420345034323493
:10219000003443344C344134563449344534523499
:1021A0002034453443344C3441344934523445347A
:1021B0003F3400345034523445345334533445346E
:1021C000523420344F344B3420342F3420344E34A6
:1021D0004F344B3400345434453453345434203465
:1021E00033342034523445344C344134493453343C
:1021F00020344F344E340034543445345334543442
:1022000020344C3445344434203443344C34413449
:102210005634493445345234003443344C34413418
:1022200056344934453452342034453454344534DA
:1022300049344E3454343F340034543445345334E8
:10224000543420344C3445344434533420344334EF
:1022500041345234543445340034543445345334C6
:10226000543420344C3445344434203452344F34C4
:10227000553447344534003454344534533454349D
:1022800020344C34453444342034563445345234AC
:1022900054344534003454344534533454342034A5
:1022A0004C3445344434203442344C344534553471
:1022B0004534003454344534533454342034423497
:1022C0004C345534453454344F344F3454344834FA
:1022D0000034413450345034553459344534523438
:1022E000203453345534523420344F344B3400347A
:1022F0005234453454344934523445345234203401
:102300004334413452345434453400344C3445342D
:1023100044345334203441344C344C3455344D34EB
:1023200045344534533400345434453453345434F0
:10233000203448344F3452344C344F3447344534CD
:1023400000345434453453345434203453344634F4
:102350004C344134533448340034463449344E34D8
:1023600020344434453420345434453453345434C4
:10237000003456344F3449345234203441345034CC
:1023800050344C3449340034543445345334543488
:1023900020345234313420344F344E3400344534F8
:1023A00054344134503445342034313430340034E2
:1023B000453454344134503445342034313432348B
:1023C000003454344534533454342034423450347B
:1023D000323400344534543441345034453420349C
:1023E000313433340034453454344134503445347A
:1023F000203431343434003445345434413450348E
:102400004534203431343534003445345434413487
:102410005034453420343134363400344534543467
:102420004134503445342034313437340034453469
:102430005434413450344534203431343834003449
:10244000453454344134503445342034313400342C
:1024500054344534533454342034503431340034FB
:10246000453454344134503445342034323400340B
:1024700054344534533454342034503432340034DA
:1024800045345434413450344534203433340034EA
:1024900045345434413450344534203434340034D9
:1024A00045345434413450344534203435340034C8
:1024B00045345434413450344534203436340034B7
:1024C00045345434413450344534203437340034A6
:1024D0004534543441345034453420343834003495
:1024E0004534543441345034453420343934003484
:020000040001F9
:08000000FF3FFF3FFF3FFF3F00
:04000E00E43FFF3F8D
:00000001FF
