:1000000080314A28053008007E1480310B1F0928F2
:100010000A2848282100111E0E280F281B2820001E
:10002000111E132814281B28220047088A0046089E
:100030000A00803148282100911E1F2820282C28E2
:100040002000911E242825282C28220045088A00FB
:1000500044080A00803148282100921D30283128A8
:100060003D282000921D352836283D2822004B08C7
:100070008A004A080A00803148282100911D412841
:10008000422848282000911D46284728482836281D
:100090007E10090080314C2822009C317B24803165
:1000A000EE002A30840091308500A03086000130B7
:1000B000870028308731FA278031653084009E30F0
:1000C0008500403086000230870014308731FA27DF
:1000D0008031FD012000EA01EB01EC012100E1018A
:1000E000E201E301E401E501E60120308400013092
:1000F00085002D309C31EC248031C83084000130E3
:1001000085001D309C31EC24803120308400023089
:10011000850020309C31EC2480317E1020008E310F
:100120000E2EDE302000AE00A230AF00BE30B00098
:10013000A130B100AD30B200A030B300AD30B4009A
:10014000A030B5009431C324803101309D31BD25EC
:10015000803106302100DF001330DE00AD30890B26
:10016000AF28DE0BAF28DF0BAF28003200309D3107
:10017000BD25803124005D080319BF28C028EF2861
:1001800060089631732680312100DE005E0824006D
:10019000E1006108031DCD28CE28EF28E201DE3002
:1001A0002100B000A230B1006230B2000230B300D2
:1001B0006130B4000230B5009631EB2680316030FA
:1001C0002100B8000230B9006230BA000230BB0032
:1001D0006130BC000230BD009431772480312400AE
:1001E00062080319F428F5285329E6302000AE00F0
:1001F000A230AF00AF30B000A130B100AD30B200DE
:10020000A030B300AD30B400A030B5009431C324A9
:10021000803101309D31BD25803106302100DF0065
:100220001330DE00AD30890B1329DE0B1329DF0BF1
:100230001329003200309D31BD25803124005D0836
:100240000319232924295329600896317326803104
:100250002100DE005E082400E1006108031D312951
:1002600032295329E201E6302100B000A230B1006A
:100270006230B2000230B3006130B4000230B50029
:100280009631EB26803160302100B8000230B90091
:100290006230BA000230BB006130BC000230BD00E9
:1002A0009431772480312400620803195829592990
:1002B000BB29EE302000AE00A230AF005230B000BB
:1002C000A230B100AD30B200A030B300AD30B40008
:1002D000A030B5009431C324803101309D31BD255B
:1002E000803115302100DF004B30DE00BE30890B3D
:1002F0007729DE0B7729DF0B7729000000309D314D
:10030000BD25803115302100DF004B30DE00BE30CE
:10031000890B8829DE0B8829DF0B88290000013032
:10032000903174208031003A03199729982999292E
:10033000BB292400E201EE302100B000A230B10060
:100340006230B2000230B3006130B4000230B50058
:100350009631EB26803160302100B8000230B900C0
:100360006230BA000230BB006130BC000230BD0018
:10037000943177248031240062080319C029C129EF
:100380002C2AF6302000AE00A230AF007330B0004F
:10039000A030B100AD30B200A030B300AD30B40039
:1003A000A030B5009431C324803101309D31BD258A
:1003B000803115302100DF004B30DE00BE30890B6C
:1003C000DF29DE0BDF29DF0BDF29000000309D3144
:1003D000BD25803115302100DF004B30DE00BE30FE
:1003E000890BF029DE0BF029DF0BF029000000302B
:1003F000903174208031003A0319FF29002A0A2A1B
:100400000130903197208031003A0319082A092AD7
:100410000A2A2C2A2400E201F6302100B000A23082
:10042000B1006230B2000230B3006130B40002307B
:10043000B5009631EB26803160302100B8000230E3
:10044000B9006230BA000230BB006130BC0002303B
:10045000BD00943177248031240062080319312AC9
:10046000322A9D2AFE302000AE00A230AF00873035
:10047000B000A030B100AD30B200A030B300AD305C
:10048000B400A030B5009431C324803101309D31D7
:10049000BD25803115302100DF004B30DE00BE303D
:1004A000890B502ADE0B502ADF0B502A0000003047
:1004B0009D31BD25803115302100DF004B30DE003D
:1004C000BE30890B612ADE0B612ADF0B612A000036
:1004D0000030903197208031003A0319702A712A38
:1004E0007B2A01309031BA208031003A0319792AF1
:1004F0007A2A7B2A9D2A2400E201FE302100B000E6
:10050000A230B1006230B2000230B3006130B400FA
:100510000230B5009631EB26803160302100B80002
:100520000230B9006230BA000230BB006130BC005A
:100530000230BD0094317724803124006208031911
:10054000A22AA32A3E2B06302000AE00A330AF0023
:100550006030B000A130B1002D30B200A130B30046
:10056000AD30B400A030B5009431C32480310130E7
:100570009D31BD25803106302100DF001330DE00C3
:10058000AD30890BC12ADE0BC12ADF0BC12A003234
:1005900000309D31BD2580310B302100DF00263039
:1005A000DE005D30890BD22ADE0BD22ADF0BD22A85
:1005B00000320C30903110208031200024082400BB
:1005C000DF00200023082400DE000E302100AD00F3
:1005D000A330AE0024005F082100B00024005E08B4
:1005E0002100AF00583088310020803121002E08D2
:1005F0002400D50021002D082400D4005F08803A93
:100600002100DE0083305E02031D092B2030240010
:100610005E0203180C2B0D2B102B22008C17322B93
:1006200006302100B000A330B1006230B2000230C9
:10063000B3006130B4000230B5009631EB26803152
:1006400022008C1360302100B8000230B900623003
:10065000BA000230BB006130BC000230BD009431F2
:100660007724803129302100DF009630DE007F3092
:10067000890B382BDE0B382BDF0B382B240062085C
:100680000319432B442BDF2B5D302000AE00A2303A
:10069000AF006030B000A130B1007130B200A130C5
:1006A000B300AD30B400A030B5009431C324803124
:1006B00001309D31BD25803106302100DF0013302F
:1006C000DE00AD30890B622BDE0B622BDF0B622B61
:1006D000003200309D31BD2580310B302100DF001C
:1006E0002630DE005D30890B732BDE0B732BDF0BA6
:1006F000732B00320C309031102080312000240800
:100700002400DF00200023082400DE000E3021003A
:10071000AD00A330AE0024005F082100B00024002B
:100720005E082100AF005830883100208031210060
:100730002E082400D70021002D082400D6005F08D1
:10074000803A2100DE0082305E02031DAA2B583061
:1007500024005E020318AD2BAE2BB12B22008C13AC
:10076000D32B5D302100B000A230B1006230B20066
:100770000230B3006130B4000230B5009631EB2690
:10078000803122008C1760302100B8000230B9009F
:100790006230BA000230BB006130BC000230BD00E4
:1007A00094317724803129302100DF009630DE003B
:1007B0007F30890BD92BDE0BD92BDF0BD92B2400F3
:1007C00062080319E42BE52BA52C66302000AE004F
:1007D000A230AF002F30B000A230B100AD30B20077
:1007E000A030B300AD30B400A030B5009431C324C4
:1007F00080310B302100DF002630DE005D30890BB8
:10080000FF2BDE0BFF2BDF0BFF2B003201309D3166
:10081000BD25803106302100DF001330DE00AD3011
:10082000890B102CDE0B102CDF0B102C003200304B
:100830009D31BD2580313D302100DF00E130DE00FB
:100840003F30890B212CDE0B212CDF0B212C0032B9
:1008500001309D31BD25803106302100DF0013308D
:10086000DE00AD30890B322CDE0B322CDF0B322C4C
:10087000003200309D31BD25803110302100DF0075
:100880003930DE000D30890B432CDE0B432CDF0B9F
:10089000432C00320130903174208031003A03192A
:1008A000522C532C662C0130903197208031003A25
:1008B00003195B2C5C2C662C00309031BA208031FF
:1008C000003A0319642C652C662C902C2400E2015C
:1008D00000309D31BD25803100309D31CA258031E9
:1008E00066302100B000A230B1006230B2000230A8
:1008F000B3006130B4000230B5009631EB26803190
:1009000060302100B8000230B9006230BA00023015
:10091000BB006130BC000230BD00943177248031CF
:1009200015302100DF004B30DE00BE30890B962CE5
:10093000DE0B962CDF0B962C000000309D31BD2580
:10094000803100309D31CA258031240062080319AE
:10095000AA2CAB2C0C2D78302000AE00A230AF00BA
:100960008130B000A130B1000730B200A230B30036
:100970003E30B400A130B5009431C3248031013041
:100980009D31BD25803106302100DF001330DE00AF
:10099000AD30890BC92CDE0BC92CDF0BC92C003202
:1009A00000309D31BD2580311A302100AD00A030CE
:1009B000AE009E318E268031240060089631732669
:1009C00080312100DE005E082400E1006108031D83
:1009D000EA2CEB2C0C2DE20178302100B000A23083
:1009E000B1006230B2000230B3006130B4000230B6
:1009F000B5009631EB26803160302100B80002301E
:100A0000B9006230BA000230BB006130BC00023075
:100A1000BD00943177248031240062080319112D20
:100A2000122D862D81302000AE00A230AF006F3035
:100A3000B000A230B100AD30B200A030B300AD3094
:100A4000B400A030B5009431C324803101309D3111
:100A5000CA25803106302100DF001330DE00AD30C2
:100A6000890B302DDE0B302DDF0B302D00320030A6
:100A70009D31CA2580310B302100DF002630DE0099
:100A80005D30890B412DDE0B412DDF0B412D0032F6
:100A90000130903174208031003A0319502D512DCE
:100AA000642D0130903197208031003A0319592D7F
:100AB0005A2D642D01309031BA208031003A03194B
:100AC000622D632D642D862D2400E20181302100EA
:100AD000B000A230B1006230B2000230B300613029
:100AE000B4000230B5009631EB2680316030210031
:100AF000B8000230B9006230BA000230BB00613089
:100B0000BC000230BD00943177248031240062089B
:100B100003198B2D8C2D002E8A302000AE00A230C0
:100B2000AF002230B000A230B100AD30B200A03032
:100B3000B300AD30B400A030B5009431C32480318F
:100B400001309D31F125803106302100DF00133066
:100B5000DE00AD30890BAA2DDE0BAA2DDF0BAA2DEE
:100B6000003200309D31F12580310B302100DF0053
:100B70002630DE005D30890BBB2DDE0BBB2DDF0B7D
:100B8000BB2D00320030903174208031003A0319BF
:100B9000CA2DCB2DDE2D0030903197208031003AC8
:100BA0000319D32DD42DDE2D00309031BA208031A1
:100BB000003A0319DC2DDD2DDE2D002E2400E2018C
:100BC0008A302100B000A230B1006230B2000230A1
:100BD000B3006130B4000230B5009631EB268031AD
:100BE00060302100B8000230B9006230BA00023033
:100BF000BB006130BC000230BD00943177248031ED
:100C0000240062080319052E062E6C2E9330200056
:100C1000AE00A230AF00BE30B000A230B100AD30A7
:100C2000B200A030B300AD30B400A030B5009431B4
:100C3000C324803101309D31D72580311930210006
:100C4000DF005A30DE00B130890B242EDE0B242E5B
:100C5000DF0B242E003200309D31D72580310B3040
:100C60002100DF002630DE005D30890B352EDE0BE3
:100C7000352EDF0B352E003201309031742080315B
:100C8000003A0319442E452E582E013090319720FA
:100C90008031003A03194D2E4E2E582E01309031DE
:100CA000BA208031003A0319562E572E582E6C2E3A
:100CB00093302100D700A230D8006230DE005E08F9
:100CC000D9006130DF005F08DA006030E0006008C2
:100CD000DB008B314E238031240062080319712E12
:100CE000722EE62E9C302000AE00A230AF00CE3037
:100CF000B000A230B100AD30B200A030B300AD30D2
:100D0000B400A030B5009431C324803101309D314E
:100D1000E425803119302100DF005A30DE00B13087
:100D2000890B902EDE0B902EDF0B902E00320030C0
:100D30009D31E42580310B302100DF002630DE00BC
:100D40005D30890BA12EDE0BA12EDF0BA12E003210
:100D50000030903174208031003A0319B02EB12E4A
:100D6000C42E0030903197208031003A0319B92EFB
:100D7000BA2EC42E00309031BA208031003A0319C7
:100D8000C22EC32EC42EE62E2400E2019C30210088
:100D9000B000A230B1006230B2000230B300613066
:100DA000B4000230B5009631EB268031603021006E
:100DB000B8000230B9006230BA000230BB006130C6
:100DC000BC000230BD0094317724803124006208D9
:100DD0000319EB2EEC2E472FA5302000AE00A230D9
:100DE000AF00CD30B000A130B1004730B200A2302A
:100DF000B3003E30B400A130B5009431C32480313B
:100E00009F31C22780314A302100AD009830AE00BA
:100E10009E318E2680312400600896317326803101
:100E20002100DE005E082400E1006108031D192F87
:100E30001A2F472FE201A5302100B000A230B100E7
:100E40006230B2000230B3006130B4000230B5004D
:100E50009631EB26803160302100B8000230B900B5
:100E60006230BA000230BB006130BC000230BD000D
:100E700094317724803129302100DF009630DE0064
:100E80007F30890B412FDE0B412FDF0B412F2400D8
:100E9000620803194C2F4E2F8E313F2E3B3020001D
:100EA000AE00A230AF00EE30B000A030B100F9309B
:100EB000B200A130B3005E30B400A030B500943170
:100EC000C324803101309D319625803100309D3121
:100ED0008925803190313120803160302100B0008F
:100EE0000230B1006230B2000230B300873198277F
:100EF000803162302100B0000230B1006130B200B8
:100F00000230B3006030B4000230B50093315E238C
:100F1000803129302100DF009630DE007F30890BE0
:100F20008F2FDE0B8F2FDF0B8F2F4C2F80314A2816
:100F30002100B701F32F20000F199F2FA02FB52FED
:100F400034302100AD00A030AE009E318E268731B6
:100F50002100B701B70A30088600310887008101F7
:100F60003208860033088700810120006A080319CF
:100F7000BA2FBB2FF32F9231B72287312100B40053
:100F80003408B600E62F9B30AD00A030AE009E3195
:100F90008E268731210030088600310887008101C4
:100FA0003208860033088700810102302100B50035
:100FB0000430B400BA30890BDB2FB40BDB2FB50B38
:100FC000DB2F00002100B701B70AF32F3608B40069
:100FD000B5013508003A0319EE2FF32F3408343ADF
:100FE0000319C32FF32F210037080319F82FF92F06
:100FF0009B2F0800FE0012001E00FE0BFB2F00348A
:101000002100B400AF302000E90069082100B300DE
:1010100034082000E90069082100B500B601B701D5
:10102000B801B9012E082000E50021002D0820009C
:10103000E400B330E9006908E600B5309231E622F9
:101040008831200065082100B200200064082100DA
:10105000B100360834072000E90069088600023034
:101060008700810121003208AE003108AD00080080
:101070002000B5012B30860000308700473FB300C9
:10108000B31F4328442866282000AB09AC09AD09EA
:10109000AE09AF09B009B109B209AB0A031D632853
:1010A000AC0A031D6328AD0A031D6328AE0A031DA5
:1010B0006328AF0A031D6328B00A031D6328B10A21
:1010C000031D6328B20A2000B501B50A233086004B
:1010D00000308700473F2000B300B31F70287128FD
:1010E00090282000A309A409A509A609A709A80911
:1010F000A909AA09A30A031D9028A40A031D902880
:10110000A50A031D9028A60A031D9028A70A031DFF
:101110009028A80A031D9028A90A031D9028AA0A4E
:101120002000230824042504260427042804290475
:101130002A0403199C289D28F028B401B40AAC287D
:10114000A335A40DA50DA60DA70DA80DA90DAA0DDB
:101150000130B3003308B407AA1FAF28B028A02875
:101160002A083202031DCE2829083102031DCE2889
:1011700028083002031DCE2827082F02031DCE2881
:1011800026082E02031DCE2825082D02031DCE2879
:1011900024082C02031DCE2823082B02031CD1286F
:1011A000D228E2282308AB022408AC3B2508AD3B3B
:1011B0002608AE3B2708AF3B2808B03B2908B13BC7
:1011C0002A08B23BAA36A90CA80CA70CA60CA50CA1
:1011D000A40CA30C0130B402031DEF28F028B028A2
:1011E00035080319F428F5281329AB09AC09AD0912
:1011F000AE09AF09B009B109B209AB0A031D132941
:10120000AC0A031D1329AD0A031D1329AE0A031DE1
:101210001329AF0A031D1329B00A031D1329B10AAC
:10122000031D1329B20A20002B08A3002C08A400D8
:101230002D08A5002E08A6002F08A7003008A8003A
:101240003108A9003208AA0008002000B5012330A7
:10125000860000308700473FB300B31F3029312993
:1012600053292000A309A409A509A609A709A809CB
:10127000A909AA09A30A031D5029A40A031D50297C
:10128000A50A031D5029A60A031D5029A70A031DFC
:101290005029A80A031D5029A90A031D5029AA0A8A
:1012A0002000B501B50A2B30860000308700473F8B
:1012B0002000B300B31F5D295E2982292000AB09FD
:1012C000AC09AD09AE09AF09B009B109B209AB0A61
:1012D000031D7D29AC0A031D7D29AD0A031D7D294F
:1012E000AE0A031D7D29AF0A031D7D29B00A031D27
:1012F0007D29B10A031D7D29B20A01302000B30007
:101300003308B506363086000030870008302000EC
:10131000B30000301E00B30B8A29230824042504DF
:1013200026042704280429042A0403199829992942
:10133000F529B401B40AA829A335A40DA50DA60D5D
:10134000A70DA80DA90DAA0D0130B3003308B407ED
:10135000AA1FAB29AC299C29B635B70DB80DB90D1C
:10136000BA0DBB0DBC0DBD0D2A083202031DD229DA
:1013700029083102031DD22928083002031DD22971
:1013800027082F02031DD22926082E02031DD22969
:1013900025082D02031DD22924082C02031DD22961
:1013A00023082B02031CD529D629E7292308AB02E1
:1013B0002408AC3B2508AD3B2608AE3B2708AF3BD5
:1013C0002808B03B2908B13B2A08B23B3614AA369C
:1013D000A90CA80CA70CA60CA50CA40CA30C0130FE
:1013E000B402031DF429F529AC2935080319F9299C
:1013F000FA29182AB609B709B809B909BA09BB09FF
:10140000BC09BD09B60A031D182AB70A031D182A0C
:10141000B80A031D182AB90A031D182ABA0A031D9F
:10142000182ABB0A031D182ABC0A031D182ABD0A64
:1014300020003608A3003708A4003808A5003908A2
:10144000A6003A08A7003B08A8003C08A9003D08F0
:10145000AA0008002100A90020005D08860087017D
:10146000403FDF00413FE0005F08840060088500E6
:101470001200253A031D3D2A3E2A282B5D088600CE
:1014800087010130810741310318810A2200BA0126
:10149000BB012100E101E201FF302200BC00FF306E
:1014A000BD0020005D0886008701403FDF00413F0E
:1014B000E0005F088400600885001200643A0319A8
:1014C000622A632A742A5D0886008701403FDF0094
:1014D000413FE0005F088400600885001200693A1F
:1014E000031D732A742AC22A5D0886008701013011
:1014F000810741310318810A5E08860087010108CF
:101500008400850102308107003FDF00013FE000D9
:101510005F082100A000200060082100A100890DC3
:10152000893B8909A200A300A400A500A600A7008A
:1015300020082000BF00210021082000C000210059
:1015400022082000C100210023082000C200210041
:1015500024082000C300210025082000C400210029
:1015600026082000C500210027082000C600210011
:1015700029088C319C248A3120004008DE003F0875
:10158000DD004D2B5D0886008701403FDF00413FB5
:10159000E0005F0884006008850012006E3A031DB9
:1015A000D22AD32AF32A5D088600870101308107F9
:1015B00041310318810A5E0886008701403F84009C
:1015C0008501810A0008DF005F082100A8002808C3
:1015D0008600870122003808C03F3908C13F20003B
:1015E000DD01DE014D2B5D0886008701403FDF00F5
:1015F000413FE0005F088400600885001200253A42
:10160000031D032B042B1F2B5D088600870101306F
:10161000810741310318810A2530A6000030A70058
:10162000210029082000DF005F08A800953114255B
:101630008A3101302000DD000030DE004D2B5D08D6
:10164000860087010130810741310318810AEF2AA2
:101650005D0886008701403FDF00413FE0005F08F2
:101660008400600885000008E100E2016108A6002E
:101670006208A700210029082000E3006308A800F1
:10168000953114258A3120005D08860087010130DC
:10169000810741310318810A192B08004030860068
:1016A000023087005730840001308500143021005B
:1016B000DC0016001A00DC0B592BB4308600013018
:1016C00087004D308400013085000A30DC001600B0
:1016D0001A00DC0B672B01309D31A3258B310130C3
:1016E0009D31B0258B3100309D3196258B31210005
:1016F00058082000AF00210057082000AE00E53058
:10170000B000A030B100C130B200A030B300493009
:10171000B400A030B5009431C3248B315730200081
:10172000B3000130B400210058082000B6002100A9
:1017300057082000B5009E31A4268B3120003408C4
:101740002200EC00200033082200EB006C0820008F
:10175000B40022006B082000B3004D30B50001300A
:10176000B6009E31A4268B31200034082100AE0043
:10177000200033082100AD009E318E268B3193313D
:10178000E6238B3121005B088600023087000108C8
:10179000963173268B312100DC005C082200ED00BD
:1017A0000B302100DD002630DC005D30890BD62BAC
:1017B000DC0BD62BDD0BD62B003222006D08031973
:1017C000E22BE32B132C21005908860002308700FE
:1017D00081015A0886000230870081019330200081
:1017E000AE00A230AF00EA30B000A030B100D3307C
:1017F000B200A030B3005E30B400A030B500943128
:10180000C3248B31DB302100B8000030B900D9305F
:10181000BA000030BB00DA30BC000030BD009431AB
:1018200077248B319B2C93302000AE00A230AF0088
:10183000BE30B000A230B100AD30B200A030B30075
:10184000AD30B400A030B5009431C3248B310030EA
:101850009D31A3258B3101309D31B0258B31003076
:101860009D3196258B3101309D31D7258B31193033
:101870002100DD005A30DC00B130890B3D2CDC0B3F
:101880003D2CDD0B3D2C003200309D31D7258B31B6
:1018900015302100DD004B30DC00BE30890B4E2CB2
:1018A000DC0B4E2CDD0B4E2C0000013090317420EF
:1018B0008B31003A03195D2C5E2C852C0130903160
:1018C00097208B31003A0319662C672C852C013048
:1018D0009031BA208B31003A03196F2C702C852C73
:1018E00093302000AE00A230AF00BE30B000A23076
:1018F000B1009130B200A130B300AE30B400A230DC
:10190000B5009431C3248B319B2C210059088600EB
:101910000230870081019330B000A230B100D9308D
:10192000B2000030B300DA30B4000030B5009631B8
:10193000EB268B31022C08002000CA003F08D300A0
:101940004008D4004108D5004208D6004308D7001B
:101950004408D8004508D9004608DA00533086000C
:1019600000308700473FC700C71BB72CB92C013098
:10197000BA2C00302000C800C9014808D10049082D
:10198000D200510852040319C62CC72CE52CD309E8
:10199000D409D509D609D709D809D909DA09D30A4A
:1019A000031DE52CD40A031DE52CD50A031DE52CE7
:1019B000D60A031DE52CD70A031DE52CD80A031D02
:1019C000E52CD90A031DE52CDA0A2200BD1BE92CFF
:1019D000EA2CEF2CFD302100E105FF30E20522006A
:1019E0003D08803A2000C70080304702031DFB2CD1
:1019F000013022003C020318FE2CFF2C052D013083
:101A00002000CD000030CE000D2D22003D0820002A
:101A1000CE0022003C082000CD0022003B08200020
:101A2000D00022003A082000CF0051085204031DC4
:101A30001A2D1B2D202D2100611D1F2D202D252D40
:101A4000FF302000CF07FF30D03D1F302000DB00EB
:101A50000030DC002400BF01962DFF302000DB07A2
:101A6000FF30DC3D0A30A300A401A501A601A701B7
:101A7000A801A901AA015308AB005408AC005508FD
:101A8000AD005608AE005708AF005808B00059081E
:101A9000B1005A08B200883138208C312000240867
:101AA000B7002308B6009F3187278C312000360805
:101AB000303EC7005B08203E8600023087004708A2
:101AC0008100FF30CD07FF30CE3DFF30CF07FF3024
:101AD000D03D0A30A300A401A501A601A701A801D9
:101AE000A901AA015308AB005408AC005508AD0089
:101AF0005608AE005708AF005808B0005908B100AA
:101B00005A08B200893125218C3120002308D300E6
:101B10002408D4002508D5002608D6002708D700B9
:101B20002808D8002908D9002A08DA0020005C0813
:101B3000803AC70080304702031DA02D01305B02B0
:101B4000031CA32DA42DD12D2000530854045504AB
:101B500056045704580459045A04031DB02DB12DDE
:101B60002D2D4E08803AC70080304702031DBA2D44
:101B700001304D020318BD2DBE2D2D2D2000500823
:101B8000803AC70080304702031DC82D01304F0244
:101B9000031CCB2DCC2DD12D2100E118D02DD12D22
:101BA0002D2D200051085204031DD72DD82DDD2DD9
:101BB0002100611DDC2DDD2DFA2DFF302000DB071B
:101BC000FF30DC3D51085204031DE72DE82DED2DBB
:101BD0002B30CB000030CC00F12D2D30CB0000306D
:101BE000CC004B08C7005B08203E8600023087000F
:101BF0004708810020005B08203EC7004708B60068
:101C00005008B8004F08B7004A08963117268C31A3
:101C100020003708C0003608BF0008009E31522659
:101C20008E318B170B179D3159258E314E309731E0
:101C300074278E312400E201E101E001AE30200082
:101C4000AE00A030AF000930B000A130B100DC30F0
:101C5000B200A130B300AD30B400A030B500943173
:101C6000C3248E3115302100DF004B30DE00BE3042
:101C7000890B382EDE0B382EDF0B382E00002000AB
:101C80000E1C432E442E4A2E22008C172400DD0108
:101C9000DD0A4E2E2400DD0122008C13AE30200020
:101CA000AE00A030AF00F730B000A030B100AD30D2
:101CB000B200A030B300DC30B400A130B5009431E4
:101CC000C3248E3103302100DF000830DE0077307E
:101CD000890B682EDE0B682EDF0B682E6230210028
:101CE000DE005E08B00060309531BD258E31903148
:101CF000DD208E31B6302000AE00A230AF004F3074
:101D0000B000A130B100AD30B200A030B300AD30B2
:101D1000B400A030B5009431C3248E312400E20118
:101D2000E20A00309D3196258E3100309D31A32589
:101D30008E3101309D31B0258E3122008C1301305F
:101D40009D31BD258E3101309D31CA258E31033044
:101D50002100DF000830DE007730890BAD2EDE0B6E
:101D6000AD2EDF0BAD2E01309D3189258E3129300E
:101D70002100DF009630DE007F30890BBD2EDE0BA8
:101D8000BD2EDF0BBD2E0130903174208E31003A14
:101D90000319CB2ECC2EDF2E0130903197208E31BF
:101DA000003A0319D42ED52EDF2E01309031BA20FF
:101DB0008E31003A0319DD2EDE2EDF2E092F24008E
:101DC000E20100309D31BD258E3100309D31CA25A4
:101DD0008E31B6302100B000A230B1006230B200C6
:101DE0000230B3006130B4000230B5009631EB260A
:101DF0008E3160302100B8000230B9006230BA0084
:101E00000230BB006130BC000230BD009431772449
:101E10008E3115302100DF004B30DE00BE30890BE3
:101E20000F2FDE0B0F2FDF0B0F2F000000309D3127
:101E3000BD258E3100309D31CA258E3124006208C7
:101E40000319232F242F8B2FC6302000AE00A23081
:101E5000AF001B30B000A130B100AD30B200A030F7
:101E6000B300AD30B400A030B5009431C3248E313E
:101E700000309D31BD258E3100309D31CA258E3117
:101E80000B302100DF002630DE005D30890B462F4D
:101E9000DE0B462FDF0B462F0032013090317420CD
:101EA0008E31003A031D552F562F692F0130903186
:101EB00097208E31003A031D5E2F5F2F692F01306E
:101EC0009031BA208E31003A031D672F682F692F99
:101ED0008B2F2400E201C6302100B000A230B100F7
:101EE0006230B2000230B3006130B4000230B5009D
:101EF0009631EB268E3160302100B8000230B900F7
:101F00006230BA000230BB006130BC000230BD005C
:101F1000943177248E31240062080319902F912F79
:101F2000F82FD6302000AE00A230AF00A030B000B5
:101F3000A130B100AD30B200A030B300AD30B4007C
:101F4000A030B5009431C3248E3101309D31BD25C0
:101F50008E3106302100DF001330DE00AD30890BFA
:101F6000AF2FDE0BAF2FDF0BAF2F003200309D31D4
:101F7000BD258E3124005D080319BF2FC02FF82F17
:101F800069302100AD009830AE009E318E268E3132
:101F900024006008963173268E312100DE005E0831
:101FA0002400E1006108031DD62FD72FF82FE2018E
:101FB000D6302100B000A230B1006230B200023051
:101FC000B3006130B4000230B5009631EB268E319B
:101FD00060302100B8000230B9006230BA0002302F
:101FE000BB006130BC000230BD00943177248E31DB
:101FF000240062080319FE2F803191288031EF28D8
:102000002000A3009D316425903120002308240086
:1020100091002000911D0D280E280928911108001B
:102020002000A6002608A500A50DA50D21001D086D
:10203000200025068339250621009D001D140D3042
:10204000890B2028000021009D149D18282829288C
:1020500025281C082000A40021001B082000A30044
:10206000080020302100AD009830AE009E318E2651
:1020700090312100B101B2019031DD209031013069
:102080002100B1070030B23D3208803AB000803004
:102090003002031D4D2802303102031C5028512804
:1020A0003C280800083021006502031858285928E8
:1020B00072286608303E8600013087000108230040
:1020C0009A000130F00070082100E607083066022F
:1020D000031C6B286C286D28E6010130F0007008A5
:1020E000E5077328111208002000A400A3012408AA
:1020F00003197B287C2886280F1C7F2880288628A7
:102100008F18832884288628A301A30A2408031D86
:102110008A288B2895280F188E288F2895288F1CA1
:10212000922893289528A301A30A230808002000D9
:10213000A400A301240803199E289F28A9288F1D05
:10214000A228A328A9280F1AA628A728A928A301EE
:10215000A30A2408031DAD28AE28B8288F19B1287A
:10216000B228B8280F1EB528B628B828A301A30A9C
:10217000230808002000A400A30124080319C12893
:10218000C228CC288F1EC528C628CC280F1BC928DA
:10219000CA28CC28A301A30A2408031DD028D128CB
:1021A000DB288F1AD428D528DB280F1FD828D92858
:1021B000DB28A301A30A230808002000A801A90125
:1021C0009131A52190310B302000A7002630A600C8
:1021D0005D30890BE928A60BE928A70BE928003216
:1021E00001302000A8070030A93D2908803AA60048
:1021F00080302602031DFE2802302802031C01291C
:102200000229E028080020002A08B0002908AF00B1
:102210002808B2002708B1003208AC003108AB0032
:10222000B10A0319B20A2B0886002C08870030086F
:10223000AE002F08AD00AF0A0319B00A2D088400C4
:102240002E0885000008C03F8908031D2829292978
:102250000C2908002D343E34203445345234523495
:102260004534553452343A34203400340034003488
:102270000034003400340034003400340D340A34A7
:1022800000340034003400340034003400340034AE
:102290000D340A3400340034003400340034003487
:1022A000003400342000B500B301B4016A293208BB
:1022B000AF00B0012F08A6003008A7002E08B1001B
:1022C0003108A80095311425913101302000B30761
:1022D0000030B43D33083507AF002F0886000230C8
:1022E00087000108B0003008B2003208031D7929C8
:1022F0007A2957290800F40070087104031981290C
:10230000822995297435C83E8600013087007008FF
:10231000C03F7108C13F7208F3007408D43E8600C4
:102320000130870073088100A4297435C83E8600F7
:10233000013087007C30C03F1C30C13F7408D43E60
:10234000860001308700810108002000A401A5015A
:1023500022000D1606302000A3003030890BAE2974
:10236000A30BAE29000022000D1206302000A300AE
:102370003030890BB929A30BB929000001302000A6
:10238000A4070030A53D2508803AA3008030230231
:10239000031DCC2932302402031CCF29D029A829BF
:1023A0000800230064100230FA007A08E300E029F4
:1023B0009C31BC249131FD299C31C1249131FD29EE
:1023C0005608FA007A08F9000430C83E8600013049
:1023D0008700413F8A00403F0A009131FB00FC0129
:1023E0007C08003A0319F529DC297B08023A031915
:1023F000D829013A0319D829DC2908002000A400B3
:10240000210065080319052A062A002A111A092A3B
:102410000A2A0F2A2000240823009A00282A1112D1
:1024200020002408A3007D08303E8600013087008C
:10243000230881000130A3002308FD0708307D0236
:10244000031C232A242A252AFD0101302100E5024C
:102450002100111608009C318D2492312300641C48
:10246000322A332A412A9C31DA249231003A031964
:102470003A2A3B2A412A0F302000A00020082300DE
:10248000E200230062082000A000A101A035A10DF8
:102490000030200784009830213D8500013F8A00EC
:1024A000003F0A0092312000A20022082300E2002F
:1024B00008002300E415692A9C31BC249231872A44
:1024C0009C318A2492310330872A9C31C124923175
:1024D000872A5408FA007A08F90049088A0048084F
:1024E0000A009231FB00FC017C08003A0319792AAA
:1024F000652A7B08013A0319652A033A03195C2A05
:10250000013A03195C2A073A0319602A652A080070
:102510002000AC00A32A2908BF3E9E31EB26923151
:10252000B62A2908933E9E31EB269231B62A290815
:10253000D33E9E31EB269231B62A29087F3E9E314A
:10254000EB269231B62A2C08AA00AB012B08003AE0
:102550000319AB2A9D2A2A08023A03198B2A013A49
:102560000319912A073A0319972A9D2A0800200087
:102570006A080319BC2ABD2AB72A6B08203E8600C8
:10258000013087000108A30023082200CC002000AE
:102590006B08283E8600013087000108A30023084D
:1025A000A4000130A3002308EB0708306B02031CD2
:1025B000DA2ADB2ADC2AEB0121009112013020000B
:1025C000EA02210091162000240808002100AA0038
:1025D000200065082100AC00200064082100AB0049
:1025E0002200B801B9010A2BAB302000E7006708D0
:1025F000DD006608E8006808DE0021002A088A314C
:102600002A22923120005D082200B80720005E08CF
:102610002200B93D21002B0884002C0885001200FF
:10262000031D132B142BF42A220039082000E50087
:10263000220038082000E400080020006C08203E3A
:10264000860001308700810123001D1D282B292BC6
:10265000362B20006C08203E860001308700811454
:10266000220043088A0042080A00933123009D1C7F
:102670003A2B3B2B482B20006C08203E8600013073
:1026800087000115220041088A0040080A009331A2
:1026900020006C08203E86000130870001080319E5
:1026A000522B532B5A2B22003F088A003E080A0067
:1026B00093315D2B9F313627933108002100340878
:1026C0008600350887000108031D672B682B6F2BD8
:1026D0003430AD00A030AE009E318E269331210003
:1026E00030088600310887008101320886003308EF
:1026F0008700810134088600350887008101003099
:102700009D319625933100309D31A32593310030C2
:102710009D31B025933100309D31892593310030B2
:102720009D31BD25933100309D31CA259331003054
:102730009D31D725933100309D31E4259331080038
:102740009C3187249331FA0023005F0886008701BB
:102750007A0881000130FA007A08DF070130E002D0
:102760000030E13B600861040319B72BB82BBD2B87
:102770009C319C2493310530E52BE415C72B9C310B
:10278000D0249331E52B9C31CB249331E52B540895
:10279000FA007A08F90049088A0048080A009331CB
:1027A000FB00FC017C08003A0319D72BC32B7B08E4
:1027B000013A0319C32B033A0319BF2B013A03193A
:1027C000BF2B073A0319C32BC32B08002000A80115
:1027D000A9012000AA01AB019131A52193310B3051
:1027E0002000A7002630A6005D30890BF52BA60B34
:1027F000F52BA70BF52B003201302000AA07003083
:10280000AB3D2B08803AA60080302602031D0A2C1F
:1028100004302A02031C0D2C0E2CEC2B0B30200054
:10282000A7002630A6005D30890B142CA60B142CB3
:10283000A70B142C003201302000A8070030A93D5E
:102840002908803AA60080302602031D292C043076
:102850002802031C2C2C2D2CE92B0800210091129E
:102860001D302000A3001330A4009D313425943185
:102870002100111252302000A3001030A4009D311D
:102880003D259431083023009F0090309D00243076
:102890009E0040309B0003309C007A302000A30053
:1028A0001C30A4009D312225943194302000A300D7
:1028B0001C30A4009D312B25943190302000A300C2
:1028C0001C30A4009D31192594312200CC01FD015A
:1028D0002100E60108302000A50025082100E500C0
:1028E0002000EC01EB01EA01210091160800210013
:1028F00038088600390887000108BE00BF013E087D
:10290000B0003F08B1003A0886003B088700010884
:10291000C000C1014008B2004108B30087319827C8
:10292000943121003A0886003B0887000108BE0068
:10293000BF013E08B0003F08B1003C0886003D08DA
:1029400087000108C000C1014008B2004108B3007F
:1029500038088600390887000108C200C301420810
:10296000B4004308B50093315E239431293021002F
:10297000BF009630BE007F30890BBC2CBE0BBC2C38
:10298000BF0BBC2C08009D314625943106309E318A
:10299000EB26943102302000B7000430B600BA3084
:1029A000890BD02CB60BD02CB70BD02C00002000FC
:1029B000A901A90A013092318822943120002F0800
:1029C000AA002E08A9009F31E12794312000A90117
:1029D000A90A023092318822943120003108AA00DD
:1029E0003008A9009F31E12794312000A901A90AEC
:1029F000033092318822943120003308AA00320833
:102A0000A9009F31E12794312000A901A90A0430CF
:102A100092318822943120003508AA003408A90098
:102A20009F31E12794310800200028080319192D4F
:102A30001A2D1F2D2808031D1E2D1F2D242D26089D
:102A40009C31F9249531652D2808033E86008701C5
:102A50001600010403192D2D2E2D4B2D2808033EA1
:102A600086008701403FA900413FAA00280A86004E
:102A70008701403FAB00413FAC002C08803AAD00DD
:102A80002A08803A2D02031D472D29082B0203181E
:102A90004A2D4B2D652D20002608A9002808860008
:102AA0008701280A8400850100080107AA002A0876
:102AB00086000230870029088100280A86008701E5
:102AC0000130810741310318810A08009C31DA2462
:102AD0009531003A03196D2D6E2D9F2D7B2D9C3164
:102AE000B2249531BC2D9C31B7249531BC2D9C313D
:102AF000C1249531BC2D23005708FA007A08F9004B
:102B00000630C83E860001308700413F8A00403FC2
:102B10000A009531FB00FC017C08003A0319912D55
:102B2000772D7B08013A0319772D033A03196F2D8E
:102B3000013A0319732D073A0319772D772D2300D6
:102B400064101730C83E860001308700403F840083
:102B50008501810A00089C31A824953101302300A9
:102B6000E0020030E13B60086104031DB82DB92D7F
:102B7000BB2D0630BC2D033008002100B500B40188
:102B8000102E20000F19C52DC62DD62D0030210086
:102B9000AD00A030AE009E318E2695312100B401EB
:102BA000B40A3508860002308700810120006A08D7
:102BB0000319DB2DDC2D102E9231B7229531210027
:102BC000B1003108B300032E1530AD00A230AE00C5
:102BD0009E318E269531210035088600023087000F
:102BE0008101810A02302100B2000430B100BA3004
:102BF000890BF82DB10BF82DB20BF82D0000210038
:102C0000B401B40A102E3308B100B2013208003A00
:102C100003190B2E102E3108313A0319E42D102E12
:102C2000210034080319152E162EC12D080020008E
:102C3000BE002100611C1D2E1E2E272E20003E08E6
:102C4000B9003908AE003608913152219631200082
:102C5000B81B2B2E2C2E312E3808BD003708BC0097
:102C6000332EBC01BD01BA01BB01472E203020002C
:102C7000A6000030A7003E08B9003908A800953129
:102C80001425963101302000BA070030BB3D3B08C7
:102C9000803AB9003D08803A3902031D512E3C08A4
:102CA0003A02031C542E552E362E21006118592E3F
:102CB0005A2E632E20003E08B9003908AE003608AF
:102CC00091315221963120003608A3000230A40031
:102CD0009F311C27963120003C082307B6003D0891
:102CE000243DB70008002000A800A901AA01280877
:102CF00003197B2E7C2EC22EBD2E6A080319812E4D
:102D0000822EBD2E9231B72296312000A5002508D3
:102D1000A700AD2E02302000A6000430A500BA3076
:102D2000890B902EA50B902EA60B902E0000200054
:102D3000A901A90AAA01AA0ABD2E02302000A600F4
:102D40000430A500BA30890BA32EA50BA32EA60B29
:102D5000A32E00002000A9019A2E2708A500A60195
:102D60002608003A0319B52EBD2E2508323A03195C
:102D70008A2E013A03199D2EBD2E2A080319C12E51
:102D8000C22E7D2E2808031DC62EC72EE92EE32E47
:102D900001309F3151279631003A0319D02ED12EA0
:102DA000D52E2000A901AA01AA0A01309F316C2763
:102DB0009631003A0319DD2EDE2EE32E2000A90104
:102DC000A90AAA01AA0A20002A080319E82EE92E56
:102DD000C82E29080800A030860001308700C130C5
:102DE00084000030850014302100B60016001A005F
:102DF000B60BF62EBE30860001308700B730840057
:102E0000003085000A30B60016001A00B60B042FF9
:102E100001309D31A325963101309D31B025963189
:102E200000309D319625963100309D3189259631AF
:102E3000210031082000AF00210030082000AE0042
:102E4000E530B000A030B1005E30B200A030B30079
:102E5000AD30B400A030B5009431C3249631C130F8
:102E60002000B3000030B400210031082000B6007B
:102E7000210030082000B5009E31A42696312000A4
:102E800034082100D600200033082100D500560860
:102E90002000B400210055082000B300B730B50071
:102EA0000030B6009E31A42696312000340821005F
:102EB000AE00200033082100AD009E318E269631F1
:102EC0009331E623963120000F1D672F682F632F63
:102ED000210032088600330887008101340886000B
:102EE00035088700810108002000AB002B08A900ED
:102EF00029082100E30000309E31792697319C306B
:102F00002000A900D730890B832FA90B832F033012
:102F10009E31EB2697311A302000A900F830890B3A
:102F20008F2FA90B8F2F000003309E31EB26973196
:102F30001A302000A900F830890B9C2FA90B9C2F78
:102F4000000003309E31EB2697311A302000A90093
:102F5000F830890BA92FA90BA92F000002309E3150
:102F6000EB2697311A302000A900F830890BB62FD4
:102F7000A90BB62F000028309E31EB269731023086
:102F80002000AA000430A900BA30890BC52FA90B74
:102F9000C52FAA0BC52F00000C309E31EB269731B0
:102FA00002302000AA000430A900BA30890BD62FC5
:102FB000A90BD62FAA0BD62F000001309E31EB268D
:102FC000973102302000AA000430A900BA30890BE2
:102FD000E72FA90BE72FAA0BE72F000006309E3141
:102FE000EB26973102302000AA000430A900BA3045
:102FF000890BF82FA90BF82FAA0BF82F0000080057
:10300000AD341C3410341D3400341D346634153492
:10301000A0341334F2341C3459341234B2341C3416
:10302000B7341C34BC341C34C1341C34C6341C3496
:10303000CB341C34D0341C34D5341C34D13411344A
:103040002D343E34203454344534533454342034F5
:1030500043344F344E3446344F3452344D34453477
:1030600020342D34203441345434543445344E34D7
:103070005434453420344134433451345534493484
:103080005434543445344D3445344E3454340D3472
:103090000A34003441345434543445344E345434B6
:1030A00045342034563441344C344934443441346A
:1030B000543449344F344E34203442344C34553433
:1030C000453454344F344F34543448340D340A3476
:1030D000003441347434743465346E34743465347B
:1030E0002034763461346C3469346434613474343B
:1030F00069346F346E3420346C3465346434203475
:1031000072346F347534673465340D340A340034E6
:1038F400080008340130080024009614080024004D
:103904001615080024009615080024001108080064
:103914002000911508002000911108009F313627DE
:103924009C31080023001D121D1608002400961661
:1039340016160800240096121616080092312B223F
:103944009C3108001630210097000800F000700830
:103954002400910008002300E410E3010E30080065
:103964009C317E249C31013008009C317E249C31A2
:10397400023008009C317E249C31013008009C31C7
:1039840081249C31003008009C319C249C310530FA
:1039940008009C3198249C310A3008009C319824FA
:1039A4009C31093008002300E410E3010E300800C4
:1039B4002400160E890C890C013908009D316425F8
:1039C4009C312400161408009D3164259C31240088
:1039D40016150800640080010131890BED2C0034B8
:1039E400230064109C3184249C310430080020009E
:1039F400A50025089131FE219C31080023006414A0
:103A04005E359C31A8249D3103300800F03021003C
:103A14009E009B019C0101309D000800230064145A
:103A240003145E0D9C31A8249D310530080020004C
:103A340024082200BF00200023082200BE00080042
:103A4400200024082200C300200023082200C20012
:103A54000800200024082200C100200023082200BE
:103A6400C0000800200024082200C500200023080C
:103A74002200C4000800200024082200C7002000FF
:103A840023082200C600080001309E31EB269D3138
:103A94003530890B4B2D00000800C0302400940001
:103AA4000830950096014F30920095120800283096
:103AB40024009500960194012730920021008E1570
:103AC4000E16080024001419682D692D642D16089B
:103AD4001F39031D6E2D6F2D642D080070302100D9
:103AE400990098012200960121001A1F7A2D7B2D3E
:103AF400762D08007608F1007508F0007708F800C4
:103B04007808F200003091317B219D3108002000BB
:103B1400A300230803198F2D902D932D22000C143C
:103B2400952D22000C1008002000A300230803197F
:103B34009C2D9D2DA02D22001014A22D22001010CA
:103B440008002000A30023080319A92DAA2DAD2DD8
:103B540022009014AF2D2200901008002000A30032
:103B640023080319B62DB72DBA2D22001015BC2D2C
:103B74002200101108002000A30023080319C32DFC
:103B8400C42DC72D22008C14C92D22008C100800CE
:103B94002000A30023080319D02DD12DD42D2200F9
:103BA4000C15D62D22000C1108002000A3002308B8
:103BB4000319DD2DDE2DE12D22000C16E32D22004C
:103BC4000C1208002000A30023080319EA2DEB2D92
:103BD400EE2D22008C16F02D22008C1208002000FD
:103BE400A30023080319F72DF82DFB2D22008C15B3
:103BF400FD2D22008C110800F3002300E41D032E88
:103C0400042E0D2E7308F2007208DF007108E10023
:103C14007008E000E41108000230F0000030F10008
:103C240079089D31FE259E310030F500F600F7013C
:103C34009D317C259E31043008000130F0000030B5
:103C4400F10079089D31FE259E310030F500F60023
:103C5400F7019D317C259E31023008000230F000CE
:103C64000030F10079089D31FE259E310030F500C9
:103C7400F600F7019D317C259E31023008000130A9
:103C8400F0000030F10079089D31FE259E310030AE
:103C9400F500F600F7019D317C259E3104300800C3
:103CA4009D314F259E319F31A3279E319D31702533
:103CB4009E319C31A4249E319D3108259E3194313E
:103CC4002E249E3108002D343E34203445345234A1
:103CD40052344534553452343A34203400340034A8
:103CE4000034003400340034003400340034200044
:103CF400A4009C31E0249E3121006308903100200F
:103D04009E312000240822006E04903100209E3150
:103D14009C31E6249E310800AF302000E900690898
:103D24002100AF002E082000E50021002D0820000E
:103D3400E400AF30E9006908E60000309231E62281
:103D44009E31080020003408A4003308A3009F31EA
:103D54001C279E31200023083307A7002408343D84
:103D6400A8003608AA003508A900913103219E3124
:103D74000800790886008701403FF000413FF100C8
:103D84007908023E8600870101089D31FE259E3197
:103D94000030F500F600F7019D317C259E3102309C
:103DA40008002000A600210064082000A5002508C2
:103DB400A604260804389E3179269E312000260860
:103DC400FB399E3179269E314230890BE72E003231
:103DD40008002000A8002100E40120002808F03990
:103DE4009E31D3269E3120002808A7000330A73532
:103DF400FF3E031DF92E2735F0399E31D3269E311F
:103E040008002000A8002100E401E40A200028089A
:103E1400F0399E31D3269F3120002808A7000330B3
:103E2400A735FF3E031D122F2735F0399E31D326C7
:103E34009F31080020002408A6002308A500262F8F
:103E44000130A3070030A43D23088600240887001E
:103E54000108031D2E2F2F2F222F25082302A30034
:103E64002608243BA400080023001908F0002000C1
:103E74006C08283E860001308700700881000130FC
:103E8400F0007008EC0708306C02031C4A2F4B2F1B
:103E94004C2FEC010130F0007008EA070800200004
:103EA400A400A30124080319582F592F5F2F8F1B37
:103EB4005C2F5D2F5F2FA301A30A2408031D632F2A
:103EC400642F6A2F8F1F672F682F6A2FA301A30AFD
:103ED400230808002000A400A30124080319732F59
:103EE400742F7A2F0F19772F782F7A2FA301A30A13
:103EF4002408031D7E2F7F2F852F0F1D822F832FD4
:103F0400852FA301A30A2308080020003708803A5C
:103F1400B80080303802031D912F01303602031897
:103F2400942F952FA22F20003609B8003709B90025
:103F3400B80A0319B90A3808B6003908B700A22F1D
:103F44000800220090018F018C018D018E01083040
:103F5400210090008C01EF308D00BF308E00FF30C7
:103F64008F0023008F013F308D0090013C308C0086
:103F7400240090018D012100951722009D01080065
:103F840022000C1706302000A4001330A300AD302B
:103F9400890BCA2FA30BCA2FA40BCA2F00322200ED
:103FA4000C1306302000A4001330A300AD30890B9D
:103FB400D92FA30BD92FA40BD92F0032080020002E
:103FC400AC01AD01F42F29082C0784002A082D3DEB
:103FD400850000089F3103279F3101302000AC0782
:103FE4000030AD3D29082C0784002A082D3D8500AA
:103FF4001200031DFE2FFF2FE52F08002D343E3441
:104004002034543445345334543420344D344134FE
:104014004E34553445344C34203445344E342034F5
:1040240043344F345534523453340D340A34003449
:1040340041345434543445344E34543445342034A7
:10404400563441344C34493444344134543449347E
:104054004F344E3420344C344534443453340D34CA
:104064000A3400342D343E342034463449344E343A
:104074002034543445345334543420344D3441348E
:104084004E34553445344C340D340A3400345034F1
:1040940052344534533453344534523420344F3439
:1040A4004B3420344F345534203445345234523454
:1040B4004534553452340034413454345434453442
:1040C4004E3454344534203441344334513455341B
:1040D40049345434543445344D3445344E345434D2
:1040E4000034543445345334543420345234313449
:1040F40020344F344634463420342D342034523462
:10410400323420344F344E34003454344534533430
:10411400543420345234323420344F344634463408
:1041240020342D3420345234333420344F344E343C
:1041340000342D343E342034543445345334543410
:104144002034413443345134553449345434543490
:1041540045340D340A34003454344534533454341F
:1041640020344334413452345434453420344434B8
:1041740039343234353445344434343400345634E8
:104184004534523449344634493445345234203465
:10419400503431342034453454342034503432349F
:1041A400003452344534533455344C34543441344B
:1041B4005434203443344F344E3446344934523426
:1041C4004D34453400345434453453345434203459
:1041D4004E344F344E34203443344F344E3446340A
:1041E4004F3452344D34453400344134543454340F
:1041F40045344E34543445342034443445344D34F9
:104204004134523452344134473445340034503408
:104214004F3453344934543449344F344E344E3487
:1042240045345234203443344134523454344534C4
:104234000034543445345334543420343334203427
:10424400523445344C3441344934533420344F349B
:1042540046344634003443344C34413456344934BF
:10426400453452342034453443344C344134493495
:10427400523445343F34003450345234453453348A
:1042840053344534523420344F344B3420342F3497
:1042940020344E344F344B34003454344534533486
:1042A4005434203433342034523445344C3441347F
:1042B4004934533420344F344E3400345434453468
:1042C4005334543420344C3445344434203443344B
:1042D4004C34413456344934453452340034433434
:1042E4004C34413456344934453452342034453402
:1042F4005434453449344E3454343F340034543403
:1043040045345334543420344C34453444345334D5
:104314002034433441345234543445340034453425
:1043240052345234453455345234203456344134A2
:104334004C344934443445344534003454344534DD
:104344005334543420344C344534443420345234BB
:104354004F3455344734453400345434453453349D
:10436400543420344C3445344434203456344534A5
:10437400523454344534003454344534533454346E
:1043840020344C3445344434203442344C344534A1
:10439400553445340034543445345334543420347F
:1043A40042344C345534453454344F344F345434FB
:1043B400483400344134503450345534593445343D
:1043C4005234203453345534523420344F344B3423
:1043D40000342D343E34203454344534533454346E
:1043E40020344F34463446340D340A3400345234C5
:1043F40045345434493452344534523420344334EB
:10440400413452345434453400344C344534443407
:104414005334203441344C344C3455344D344534C5
:104424004534533400342D343E342034543445342C
:104434005334543420344F344E340D340A3400345D
:104444005434453453345434203448344F3452347F
:104454004C344F34473445340034543445345334A5
:1044640054342034533446344C3441345334483473
:104474000034463449344E342034443445342034F2
:104484005434453453345434003456344F3449345A
:10449400523420344134503450344C344934003490
:1044A4005434453453345434203452343134203465
:1044B4004F344E340034453454344134503445344C
:1044C400203431343034003445345434413450349D
:1044D4004534203431343234003454344534533484
:1044E4005434203442345034323400344534543457
:1044F4004134503445342034313433340034453479
:104504005434413450344534203431343434003458
:104514004534543441345034453420343134353402
:104524000034453454344134503445342034313427
:104534003634003445345434413450344534203412
:1045440031343734003445345434413450344534F0
:1045540020343134383400345434453453345434EE
:1045640020344F344B3400344534543441345034C3
:1045740045342034313400345434453453345434C1
:1045840020345034313400344534543441345034BC
:1045940045342034323400345434453453345434A0
:1045A400203450343234003445345434413450349B
:1045B4004534203433340034453454344134503495
:1045C4004534203434340034453454344134503484
:1045D4004534203435340034453454344134503473
:1045E4004534203436340034453454344134503462
:1045F4004534203437340034453454344134503451
:10460400453420343834003445345434413450343F
:0E461400453420343934003425346434003405
:020000040001F9
:08000000FF3FFF3FFF3FFF3F00
:04000E00E43FFF3F8D
:00000001FF
