:1000000080314728053008007E1480310B1F0928F5
:100010000A2845282100111E0E280F281A28200022
:10002000111E132814281A2841088A0040080A00C3
:10003000803145282100911E1E281F282A282000D3
:10004000911E232824282A283F088A003E080A00F7
:10005000803145282100921D2E282F283A28200083
:10006000921D332834283A2845088A0044080A009B
:10007000803145282100911D3E283F284528200039
:10008000911D43284428452834287E1009008031DA
:10009000492889319C218031EC00FD012030840009
:1000A000003085002E308A3131228031A03084002A
:1000B000003085001D308A31312280317E102000D1
:1000C000803162288B31732380318B170B178A3173
:1000D0006A2280314E3087315D2780312100BD0199
:1000E00074302000DC009030DD00AB30DE0090305A
:1000F000DF008130E0009130E100E330E200913038
:10010000E3008F315A27803115302000EB004B304F
:10011000EA00BE30890B8A28EA0B8A28EB0B8A2872
:10012000000074302000DC009030DD009930DE00EB
:100130009030DF00CF30E0009030E1008130E2000D
:100140009130E3008F315A27803103302000EB00DB
:100150000830EA007730890BAB28EA0BAB28EB0BB1
:10016000AB288A312B2280312C302000DC009230E9
:10017000DD001330DE009130DF00E330E00091302D
:10018000E100E330E2009130E3008F315A27803103
:100190002100BE01BE0A00308A319A22803100302F
:1001A0008A31A722803101308A31B4228031013076
:1001B0008A31CE22803101308A31DB228031033016
:1001C0002000EB000830EA007730890BE528EA0BC5
:1001D000E528EB0BE52801308A31C1228031293036
:1001E0002000EB009630EA007F30890BF528EA0BFF
:1001F000F528EB0BF52801308C31AC248031003A26
:10020000031903290429172901308C31CF248031A7
:10021000003A03190C290D29172901308C31F224D9
:100220008031003A0319152916291729312921008F
:10023000BE0100308A31CE22803100308A31DB228B
:1002400080312C302000E6009230E700BE30EA001A
:100250006A08E800BD30EB006B08E9008E311E260D
:10026000803115302000EB004B30EA00BE30890BA6
:100270003729EA0B3729EB0B3729000000308A3188
:10028000CE22803100308A31DB22803121003E08CD
:1002900003194B294C29A3293C302000DC00923063
:1002A000DD00BD30DE009030DF00E330E000913053
:1002B000E100E330E2009130E3008F315A278031D2
:1002C00000308A31CE22803100308A31DB22803109
:1002D0000B302000EB002630EA005D30890B6E29E0
:1002E000EA0B6E29EB0B6E29003201308C31AC2405
:1002F0008031003A031D7D297E29912901308C31FE
:10030000CF248031003A031D8629872991290130A5
:100310008C31F2248031003A031D8F2990299129D4
:10032000A3292100BE013C302000E6009230E70006
:10033000BE30EA006A08E800BD30EB006B08E90057
:100340008E311E26803121003E080319A829A929D3
:10035000F0294C302000DC009230DD004530DE001A
:100360009130DF00E330E0009130E100E330E20063
:100370009130E3008F315A27803101308A31CE220B
:10038000803106302000EB001330EA00AD30890BDD
:10039000C729EA0BC729EB0BC729003200308A3185
:1003A000CE2280318E318F2680312000EA006A080B
:1003B0002100BD003D08031DDE29DF29F029BE0113
:1003C0004C302000E6009230E700BE30EA006A08B8
:1003D000E800BD30EB006B08E9008E311E2680314D
:1003E00021003E080319F529F6293D2A5430200042
:1003F000DC009230DD007230DE009130DF00E3304F
:10040000E0009130E100E330E2009130E3008F3111
:100410005A27803101308A31CE22803106302000C7
:10042000EB001330EA00AD30890B142AEA0B142AD2
:10043000EB0B142A003200308A31CE2280318E310B
:100440008F2680312000EA006A082100BD003D08A7
:10045000031D2B2A2C2A3D2ABE0154302000E60021
:100460009230E700BE30EA006A08E800BD30EB00D9
:100470006B08E9008E311E26803121003E080319E9
:10048000422A432A8A2A5C302000DC009230DD00B8
:100490006330DE009130DF00E330E0009130E100B6
:1004A000E330E2009130E3008F315A278031013090
:1004B0008A31CE22803106302000EB001330EA0072
:1004C000AD30890B612AEA0B612AEB0B612A0032FD
:1004D00000308A31CE2280318E318F26803120004B
:1004E000EA006A082100BD003D08031D782A792A28
:1004F0008A2ABE015C302000E6009230E700BE3060
:10050000EA006A08E800BD30EB006B08E9008E31B4
:100510001E26803121003E0803198F2A902AE22AE4
:1005200064302000DC009230DD00D030DE009130FD
:10053000DF00E330E0009130E100E330E200913091
:10054000E3008F315A27803101308A31CE22803149
:1005500015302000EB004B30EA00BE30890BAE2A8C
:10056000EA0BAE2AEB0BAE2A000000308A31CE2215
:10057000803115302000EB004B30EA00BE30890B93
:10058000BF2AEA0BBF2AEB0BBF2A000001308C31D7
:10059000AC248031003A0319CE2ACF2AD02AE22A8D
:1005A0002100BE0164302000E6009230E700BE303A
:1005B000EA006A08E800BD30EB006B08E9008E3104
:1005C0001E26803121003E080319E72AE82A432B22
:1005D0006C302000DC009230DD004C30DE009030CA
:1005E000DF00E330E0009130E100E330E2009130E1
:1005F000E3008F315A27803101308A31CE22803199
:1006000015302000EB004B30EA00BE30890B062B82
:10061000EA0B062BEB0B062B000000308A31CE22B2
:10062000803115302000EB004B30EA00BE30890BE2
:10063000172BEA0B172BEB0B172B000000308C311C
:10064000AC248031003A0319262B272B312B0130A3
:100650008C31CF248031003A03192F2B302B312BD2
:10066000432B2100BE016C302000E6009230E700F1
:10067000BE30EA006A08E800BD30EB006B08E90014
:100680008E311E26803121003E080319482B492B4C
:10069000A42B74302000DC009230DD006030DE00DE
:1006A0009030DF00E330E0009130E100E330E20021
:1006B0009130E3008F315A27803101308A31CE22C8
:1006C000803115302000EB004B30EA00BE30890B42
:1006D000672BEA0B672BEB0B672B000000308A318E
:1006E000CE22803115302000EB004B30EA00BE30C6
:1006F000890B782BEA0B782BEB0B782B0000003062
:100700008C31CF248031003A0319872B882B922B10
:1007100001308C31F2248031003A0319902B912B57
:10072000922BA42B2100BE0174302000E6009230F1
:10073000E700BE30EA006A08E800BD30EB006B0855
:10074000E9008E311E26803121003E080319A92BB5
:10075000AA2BF12B7C302000DC009230DD0024300D
:10076000DE009130DF00E030E0009030E100023048
:10077000E2009130E3008F315A27803101308A3115
:10078000CE22803106302000EB001330EA00AD307D
:10079000890BC82BEA0BC82BEB0BC82B003200309F
:1007A0008A31CE2280318E318F2680312000EA00BE
:1007B0006A082100BD003D08031DDF2BE02BF12B53
:1007C000BE017C302000E6009230E700BE30EA0037
:1007D0006A08E800BD30EB006B08E9008E311E2688
:1007E000803121003E080319F62BF72B3E2CDB301D
:1007F0002000DC009130DD002430DE009130DF008D
:100800003530E0009130E1000230E2009130E30049
:100810008F315A27803101308A31CE228031063023
:100820002000EB001330EA00AD30890B152CEA0BE9
:10083000152CEB0B152C003200308A31CE22803182
:100840008E318F2680312000EA006A082100BD0029
:100850003D08031D2C2C2D2C3E2CBE01DB3020002E
:10086000E6009130E700BE30EA006A08E800BD30DB
:10087000EB006B08E9008E311E26803121003E0816
:100880000319432C442CF42CE4302000DC0091307C
:10089000DD00B830DE009130DF00E330E000913061
:1008A000E100E330E2009130E3008F315A278031DC
:1008B0000B302000EB002630EA005D30890B5E2C07
:1008C000EA0B5E2CEB0B5E2C003201308A31CE221B
:1008D000803106302000EB001330EA00AD30890B88
:1008E0006F2CEA0B6F2CEB0B6F2C003200308A312F
:1008F000CE2280313D302000EB00E130EA003F3075
:10090000890B802CEA0B802CEB0B802C0032013001
:100910008A31CE22803106302000EB001330EA000D
:10092000AD30890B912CEA0B912CEB0B912C003202
:1009300000308A31CE22803110302000EB00393077
:10094000EA000D30890BA22CEA0BA22CEB0BA22C97
:10095000003201308C31AC248031003A0319B12CC3
:10096000B22CC52C01308C31CF248031003A0319D0
:10097000BA2CBB2CC52C00308C31F2248031003ACB
:100980000319C32CC42CC52CDF2C2100BE01003060
:100990008A31CE22803100308A31DB228031E4304E
:1009A0002000E6009130E700BE30EA006A08E80067
:1009B000BD30EB006B08E9008E311E26803115300A
:1009C0002000EB004B30EA00BE30890BE52CEA0B2F
:1009D000E52CEB0BE52C000000308A31CE22803173
:1009E00000308A31DB22803121003E080319F92CC6
:1009F000FA2C412DF6302000DC009130DD0054301F
:100A0000DE009130DF00AB30E0009130E1000230D9
:100A1000E2009130E3008F315A27803101308A3172
:100A2000CE22803106302000EB001330EA00AD30DA
:100A3000890B182DEA0B182DEB0B182D0032003006
:100A40008A31CE2280318E318F2680312000EA001B
:100A50006A082100BD003D08031D2F2D302D412DBA
:100A6000BE01F6302000E6009130E700BE30EA001B
:100A70006A08E800BD30EB006B08E9008E311E26E5
:100A8000803121003E080319462D472DAB2DFF3044
:100A90002000DC009130DD00ED30DE009130DF0021
:100AA000E330E0009130E100E330E2009130E30018
:100AB0008F315A27803101308A31DB228031063074
:100AC0002000EB001330EA00AD30890B652DEA0BF6
:100AD000652DEB0B652D003200308A31DB22803131
:100AE0000B302000EB002630EA005D30890B762DBC
:100AF000EA0B762DEB0B762D003201308C31AC24D5
:100B00008031003A0319852D862D992D01308C31C5
:100B1000CF248031003A03198E2D8F2D992D01306D
:100B20008C31F2248031003A0319972D982D992D9C
:100B3000AB2D2100BE01FF302000E6009130E70020
:100B4000BE30EA006A08E800BD30EB006B08E9003F
:100B50008E311E26803121003E080319B02DB12DA3
:100B6000152E08302000DC009230DD009E30DE00C3
:100B70009130DF00E330E0009130E100E330E2004B
:100B80009130E3008F315A27803101308B310223BD
:100B9000803106302000EB001330EA00AD30890BC5
:100BA000CF2DEA0BCF2DEB0BCF2D003200308B3148
:100BB000022380310B302000EB002630EA005D304C
:100BC000890BE02DEA0BE02DEB0BE02D003200301D
:100BD0008C31AC248031003A0319EF2DF02D032E17
:100BE00000308C31CF248031003A0319F82DF92DD3
:100BF000032E00308C31F2248031003A0319012E8B
:100C0000022E032E152E2100BE0108302000E60022
:100C10009230E700BE30EA006A08E800BD30EB0021
:100C20006B08E9008E311E26803121003E08031931
:100C30001A2E1B2E7F2E11302000DC009230DD009A
:100C40003430DE009230DF00E330E0009130E1002C
:100C5000E330E2009130E3008F315A2780310130D8
:100C60008A31E822803119302000EB005A30EA0046
:100C7000B130890B392EEA0B392EEB0B392E0032AD
:100C800000308A31E82280310B302000EB00263022
:100C9000EA005D30890B4A2EEA0B4A2EEB0B4A2EF6
:100CA000003201308C31AC248031003A0319592EC6
:100CB0005A2E6D2E01308C31CF248031003A031929
:100CC000622E632E6D2E01308C31F2248031003A79
:100CD00003196B2E6C2E6D2E7F2E2100BE0111305C
:100CE0002000E6009230E700BE30EA006A08E80023
:100CF000BD30EB006B08E9008E311E2680312100EB
:100D00003E080319842E852EE92E1A302000DC00BF
:100D10009230DD004430DE009230DF00E330E0004E
:100D20009130E100E330E2009130E3008F315A2747
:100D3000803101308A31F522803119302000EB00FA
:100D40005A30EA00B130890BA32EEA0BA32EEB0B2D
:100D5000A32E003200308A31F52280310B30200082
:100D6000EB002630EA005D30890BB42EEA0BB42E7E
:100D7000EB0BB42E003200308C31AC248031003AC1
:100D80000319C32EC42ED72E00308C31CF248031CE
:100D9000003A0319CC2ECD2ED72E00308C31F22400
:100DA0008031003A0319D52ED62ED72EE92E2100F8
:100DB000BE011A302000E6009230E700BE30EA00A3
:100DC0006A08E800BD30EB006B08E9008E311E2692
:100DD000803121003E080319EE2EEF2E242F233000
:100DE0002000DC009230DD002030DE009030DF009B
:100DF000F130E0009030E1000230E2009130E30099
:100E00008F315A2780318C314C2480318E318F269E
:100E100080312000EA006A082100BD003D08031D62
:100E2000122F132F242FBE0123302000E600923012
:100E3000E700BE30EA006A08E800BD30EB006B084E
:100E4000E9008E311E26803121003E080319292F2A
:100E50002A2F9128C4302000DC009130DD00903032
:100E6000DE009030DF009030E0009130E10037305C
:100E7000E2009030E3008F315A27803101308A310F
:100E80009A2280318A312B228031BD302000EA0045
:100E90006A08D200BE308D313B25803129302000D8
:100EA000EB009630EA007F30890B542FEA0B542F69
:100EB000EB0B542F9128803147282000D900590886
:100EC000D7005708C60000308B31862387319C300D
:100ED0002000D700D730890B6B2FD70B6B2F033037
:100EE0008B31B02387311A302000D700F830890BBE
:100EF000772FD70B772F000003308B31B02387314A
:100F00001A302000D700F830890B842FD70B842F9C
:100F1000000003308B31B02387311A302000D70016
:100F2000F830890B912FD70B912F000002308B31B5
:100F3000B02387311A302000D700F830890B9E2F5C
:100F4000D70B9E2F000028308B31B0238731023021
:100F50002000D8000430D700BA30890BAD2FD70B52
:100F6000AD2FD80BAD2F00000C308B31B023873163
:100F700002302000D8000430D700BA30890BBE2FD1
:100F8000D70BBE2FD80BBE2F000001308B31B02302
:100F9000873102302000D8000430D700BA30890BE6
:100FA000CF2FD70BCF2FD80BCF2F000006308B3190
:100FB000B023873102302000D8000430D700BA3087
:100FC000890BE02FD70BE02FD80BE02F0000080093
:100FD000790886008701403FF000413FF100790821
:100FE000023E8600870101088B310F2387310030D4
:100FF000F500F600F7018A318D22873102300800B2
:101336000800083401300800240096140800240030
:101346001615080024009615080024001108080048
:101356002000911508002000911108008B31DD2333
:101366008931080023001D121D1608002400961658
:101376001616080024009612161608008D319225BE
:10138600893108001630210097000800F000700827
:101396002400910008002100BC10BB010E3008009B
:1013A60089319F2189310130080089319F21893196
:1013B6000230080089319F218931013008008931C6
:1013C600A2218931003008008931BD2189310530DB
:1013D60008008931B92189310A3008008931B921DB
:1013E6008931093008002100BC10BB010E3008000D
:1013F6002400160E890C890C013908008A317522E1
:101406008A312400161408008A3175228A31240094
:101416001615080020005208B9005108B800080047
:1014260020005208BD005108BC00080020005208E8
:10143600BB005108BA00080020005208BF0051083E
:10144600BE00080020005208C1005108C000080074
:1014560020000F192F2A302A2B2A08006400800149
:101466000131890B322A003421003C108931A52133
:101476008A310430080021003C1436358931C921EF
:101486008A3103300800F03021009E009B019C0148
:1014960001309D00080021003C140314360D8931EB
:1014A600C9218A310530080001308B31B0238A31D9
:1014B6003530890B5C2A00000800C03024009400F7
:1014C6000830950096014F3092009512080028309A
:1014D60024009500960194012730920021008E1574
:1014E6000E16080024001419792A7A2A752A160875
:1014F6001F39031D7F2A802A752A080070302100B3
:10150600990098012200960121001A1F8B2A8C2A25
:10151600872A08007608F1007508F0007708F800B9
:101526007808F20000308D3115258A310800200038
:10153600D10051080319A02AA12AA42A22001014B6
:10154600A62A2200101008002000D1005108031915
:10155600AD2AAE2AB12A22009014B32A2200901096
:1015660008002000D10051080319BA2ABB2ABE2A56
:1015760022001015C02A2200101108002000D100F8
:1015860051080319C72AC82ACB2A22000C14CD2ACF
:1015960022000C1008002000D10051080319D42A9B
:1015A600D52AD82A22008C14DA2A22008C100800A8
:1015B6002000D10051080319E12AE22AE52A220077
:1015C6000C15E72A22000C1108002000D100510852
:1015D6000319EE2AEF2AF22A22000C16F42A220018
:1015E6000C1208002000D10051080319FB2AFC2A1E
:1015F600FF2A22008C16012B22008C1208002000E4
:10160600D10051080319082B092B0C2B22008C152D
:101616000E2B22008C110800F3002100BC1D142B98
:10162600152B1E2B7308F2007208B7007108B9005B
:101636007008B800BC1108002000D1008A3175225C
:101646008B3120005108240091002000911D2C2B85
:101656002D2B282B911108000230F0000030F100EC
:1016660079088B310F238B310030F500F600F70136
:101676008A318D228B31043008000130F0000030B1
:10168600F10079088B310F238B310030F500F6001D
:10169600F7018A318D228B31023008000230F000CA
:1016A6000030F10079088B310F238B310030F500C3
:1016B600F600F7018A318D228B31023008000130A5
:1016C600F0000030F10079088B310F238B310030A8
:1016D600F500F600F7018A318D228B3104300800BF
:1016E6008A3160228B318C312D248B318A318122D3
:1016F6008B318931C5218B318A3146228B318E312E
:10170600CF268B3108002000D2008A3101228B318E
:10171600200046088B311F238B31200052086C04B1
:101726008B311F238B318A3107228B310800200031
:10173600D4004708D3005308D404540804388B3126
:1017460086238B3120005408FB398B3186238B315D
:101756004230890BAC2B003208002000D600C701AE
:101766005608F0398B319A238B3120005608D50064
:101776000330D535FF3E031DBC2B5535F0398B3173
:101786009A238B3108002000D600C701C70A5608E5
:10179600F0398B319A238B3120005608D50003305F
:1017A600D535FF3E031DD32B5535F0398B319A23A2
:1017B6008B31080023001908F00020004A08283E53
:1017C60086008701700881000130F0007008CA07A2
:1017D60008304A02031CF02BF12BF22BCA01013010
:1017E600F0007008C90708002000D200D101520895
:1017F6000319FE2BFF2B052C8F1B022C032C052C0B
:10180600D101D10A5208031D092C0A2C102C8F1F56
:101816000D2C0E2C102CD101D10A510808002000E5
:10182600D200D10152080319192C1A2C202C0F1999
:101836001D2C1E2C202CD101D10A5208031D242C4C
:10184600252C2B2C0F1D282C292C2B2CD101D10A11
:1018560051080800220090018F018C018D018E0134
:101866000830210090008C01EF308D00BF308E00D3
:10187600FF308F0023008F013F308D0090013C30F8
:101886008C00240090018D012100951722009D01F6
:10189600080022000C1706302000D2001330D100B9
:1018A600AD30890B542CD10B542CD20B542C003256
:1018B60022000C1306302000D2001330D100AD30C8
:1018C600890B632CD10B632CD20B632C00320800DE
:1018D6002000DA01DB017E2C57085A0784005808DD
:1018E6005B3D850000088B31C6238C31013020001A
:1018F600DA070030DB3D57085A07840058085B3D7D
:1019060085001200031D882C892C6F2C08000830D6
:1019160020004B020318902C912CA92C4C08303E29
:1019260086008701010823009A000130F000700844
:101936002000CC0708304C02031CA22CA32CA42C9C
:10194600CC010130F0007008CB07AB2C210011123E
:1019560008002000D200D10152080319B32CB42C80
:10196600BE2C0F1CB72CB82CBE2C8F18BB2CBC2C35
:10197600BE2CD101D10A5208031DC22CC32CCD2C7A
:101986000F18C62CC72CCD2C8F1CCA2CCB2CCD2CBB
:10199600D101D10A510808002000D200D101520815
:1019A6000319D62CD72CE12C8F1DDA2CDB2CE12C3D
:1019B6000F1ADE2CDF2CE12CD101D10A5208031DAF
:1019C600E52CE62CF02C8F19E92CEA2CF02C0F1EB6
:1019D600ED2CEE2CF02CD101D10A51080800200084
:1019E600D200D10152080319F92CFA2C042D8F1EAE
:1019F600FD2CFE2C042D0F1B012D022D042DD101D3
:101A0600D10A5208031D082D092D132D8F1A0C2DEE
:101A16000D2D132D0F1F102D112D132DD101D10AB0
:101A260051080800F4007008710403191B2D1C2DC1
:101A36002D2D7435A03E860087017008C03F7108C1
:101A4600C13F7208F3007408AC3E86008701730834
:101A560081003A2D7435A03E860087019D30C03F37
:101A66000930C13F7408AC3E860087018101080039
:101A76002000D300530886008701810152088600A2
:101A86008701810100308A319A228D3100308A31F6
:101A9600A7228D3100308A31B4228D3100308A314F
:101AA600C1228D3100308A31CE228D3100308A310B
:101AB600DB228D3100308A31E8228D3100308A31C7
:101AC600F5228D31080021003C100230FA007A0818
:101AD600BB00752D8931DD218D31912D8931E221B2
:101AE6008D31912D2E08FA007A08F9000430A03EB7
:101AF60086008701413F8A00403F0A008D31FB0086
:101B0600FC017C08003A0319892D712D7B08023AE5
:101B160003196D2D013A03196D2D712D08008931B8
:101B2600AE218D3121003C1C992D9A2DA82D89318D
:101B3600FB218D31003A0319A12DA22DA82D0F30BE
:101B46002000CE004E082100BA0021003A082000ED
:101B5600CE00CF01CE35CF0D00304E078400903039
:101B66004F3D8500013F8A00003F0A008D3120006D
:101B7600D00050082100BA0008002100BC15D02D65
:101B86008931DD218D31EE2D8931AB218D31033047
:101B9600EE2D8931E2218D31EE2D2C08FA007A08DE
:101BA600F90021088A0020080A008D31FB00FC019B
:101BB6007C08003A0319E02DCC2D7B08013A031965
:101BC600CC2D033A0319C32D013A0319C32D073A45
:101BD6000319C72DCC2D08002000DA000A2E57085D
:101BE600BF3E8B31B0238D311D2E5708933E8B316E
:101BF600B0238D311D2E5708D33E8B31B0238D3146
:101C06001D2E57087F3E8B31B0238D311D2E5A086D
:101C1600D800D9015908003A0319122E042E580883
:101C2600023A0319F22D013A0319F82D073A03195E
:101C3600FE2D042E080001308A31A7228E31003095
:101C46008A31B4228E3100308A319A228E312000B8
:101C56006708DD006608DC008730DE009030DF00B4
:101C66003730E0009030E100E330E2009130E300ED
:101C76008F315A278E3120000F19422E432E3E2EC9
:101C86000F1D462E472E432E00308A31A7228E3155
:101C9600200068088600870181016908860087019F
:101CA6008101080020004A08203E86008701810144
:101CB60023001D1D5F2E602E6B2E20004A08203E3D
:101CC6008600870181143D088A003C080A008E318F
:101CD60023009D1C6F2E702E7B2E20004A08203E6E
:101CE6008600870101153B088A003A080A008E31F2
:101CF60020004A08203E8600870101080319842E29
:101D0600852E8B2E39088A0038080A008E318E2ED1
:101D16008B31DD238E3108002000D30100308C3159
:101D260012248E31003A0319992E9A2EA32E0030D2
:101D36008B31F7238E31003A031DA22EA32E912E4E
:101D460001308B31F7238E31003A0319AB2EAC2EBE
:101D5600AE2E2000D30101308C3112248E31003A90
:101D66000319B62EB72EBA2E2000D301D30A01309E
:101D76008C3112248E31003A031DC22EC32EBA2E88
:101D860001308B31F7238E31003A031DCB2ECC2E3A
:101D9600BA2E200053080800210091125530200069
:101DA600D1000E30D2008A311F228E31210011124D
:101DB6008A302000D1000C30D2008A3125228E31A3
:101DC600083023009F0090309D0024309E00403054
:101DD6009B0003309C009B302000D1000930D200CC
:101DE6008A3113228E31B5302000D1000930D2005D
:101DF6008A3119228E31B1302000D1000930D2004B
:101E06008A310D228E312000C801CD01CC01083067
:101E1600D3005308CB00CA01FD01C9012100911668
:101E260008008931A8218F31FA0021003708860081
:101E360087017A0881000130FA007A08B707013075
:101E4600B8020030B93B3808390403192B2F2C2F60
:101E5600312F8931BD218F310530592FBC153B2FCC
:101E66008931F1218F31592F8931EC218F31592F49
:101E76002C08FA007A08F90021088A0020080A00CE
:101E86008F31FB00FC017C08003A03194B2F372FDA
:101E96007B08013A0319372F033A0319332F013A06
:101EA6000319332F073A0319372F372F08008A31C2
:101EB60057228F3106308B31B0238F31023020000C
:101EC600E5000430E400BA30890B672FE40B672F76
:101ED600E50B672F00002000D701D70A01308D31AE
:101EE600EF258F3120005D08D8005C08D7008C31C3
:101EF6006B248F312000D701D70A02308D31EF25B0
:101F06008F3120005F08D8005E08D7008C316B2423
:101F16008F312000D701D70A03308D31EF258F315D
:101F260020006108D8006008D7008C316B248F31FF
:101F36002000D701D70A04308D31EF258F312000DC
:101F46006308D8006208D7008C316B248F310800F3
:101F56008931FB218F31003A0319B22FB32FE32FBA
:101F6600C02F8931D3218F31FF2F8931D8218F316D
:101F7600FF2F8931E2218F31FF2F21002F08FA0030
:101F86007A08F9000630A03E86008701413F8A00A4
:101F9600403F0A008F31FB00FC017C08003A031920
:101FA600D52FBC2F7B08013A0319BC2F033A03191E
:101FB600B42F013A0319B82F073A0319BC2FBC2FC7
:101FC60021003C101730A03E86008701403F840068
:101FD6008501810A00088931C9218F31013021002C
:101FE600B8020030B93B38083904031DFB2FFC2F1B
:101FF600FE2F0630FF2F03300800CE3409344E344E
:102006000A343E340A34AB340F3414340F343734C4
:102016000A34C0340D34D3340934D8340934DD34A9
:102026000934E2340934E7340934EC340934F13440
:102036000934F634093466340D3450345234453498
:102046005334533445345234203454344F34553495
:10205600433448344534203443344C3441345634C4
:1020660049344534523400344134543454344534BC
:102076004E34543445342034413443345134553489
:1020860049345434543445344D3445344E34543440
:1020960000345434453453345434203452343134B7
:1020A60020344F344634463420342D3420345234D0
:1020B600323420344F344E3400345434453453349F
:1020C600543420345234323420344F344634463477
:1020D60020342D3420345234333420344F344E34AB
:1020E6000034543445345334543420344334413466
:1020F600523454344534203444343934323435344B
:10210600453444343434003454344534533454342C
:1021160020344E344F344E34203443344F344E340E
:1021260046344F3452344D344534003441345434FB
:10213600543445344E3454344534203444344534D0
:102146004D344134523452344134473445340034EA
:1021560050344F3453344934543449344F344E3464
:102166004E3445345234203443344134523454349A
:1021760045340034543445345334543420343334E1
:102186002034523445344C344134493453342034A9
:102196004F3446344634003452344534543449348A
:1021A600523445345234203450343134203465347A
:1021B6007434203450343234003443344C34413493
:1021C60056344934453452342034453443344C343F
:1021D60041344934523445343F3400345434453460
:1021E6005334543445345234203442344C34553408
:1021F600453454344F344F34543448340034503416
:1022060052344534533453344534523420344F34E5
:102216004B3420342F3420344E344F344B34003476
:102226005434453453345434203433342034523403
:1022360045344C3441344934533420344F344E34CD
:102246000034543445345334543420344C344534F7
:102256004434203443344C344134563449344534C0
:102266005234003443344C344134563449344534C2
:102276005234203445345434453449344E3454347D
:102286003F340034543445345334543420344C34BD
:1022960045344434203452344F345534473445346D
:1022A6000034543445345334543420344C34453497
:1022B60044342034433441345234543445340034A5
:1022C600543445345334543420344C344534443433
:1022D600203456344534523454344534003454345E
:1022E60045345334543420344C3445344434203447
:1022F60042344C344534553445340034413450343A
:1023060050345534593445345234203453345534CA
:10231600523420344F344B34003452344534543420
:1023260049345234453452342034433441345234DF
:1023360054344534003454344534533454342034FE
:1023460048344F3452344C344F34473445340034D7
:102356004C3445344434203441344C344C345534B4
:102366004D344534453453340034543445345334B1
:1023760054342034533446344C3441345334483482
:102386000034463449344E34203444344534203401
:10239600543445345334543400345434453453346B
:1023A600543420345234313420344F344E340034D3
:1023B6004534543441345034453420343134303487
:1023C60000344534543441345034453420343134A7
:1023D6003234003454344534533454342034423483
:1023E6005034323400344534543441345034453456
:1023F6002034313433340034453454344134503489
:102406004534203431343434003445345434413482
:102416005034453420343134353400344534543462
:102426004134503445342034313436340034453464
:102436005434413450344534203431343734003444
:1024460045345434413450344534203431343834EE
:102456000034453454344134503445342034313416
:1024660000345434453453345434203450343134E5
:1024760000344534543441345034453420343234F5
:1024860000345434453453345434203450343234C4
:1024960000344534543441345034453420343334D4
:1024A60000344534543441345034453420343434C3
:1024B60000344534543441345034453420343534B2
:1024C60000344534543441345034453420343634A1
:1024D6000034453454344134503445342034373490
:1024E600003445345434413450344534203438347F
:1024F600003445345434413450344534203439346E
:0225060000349F
:020000040001F9
:08000000FF3FFF3FFF3FFF3F00
:04000E00E43FFF3F8D
:00000001FF
