:1000000080314A28053008007E1480310B1F0928F2
:100010000A2848282100111E0E280F281B2820001E
:10002000111E132814281B28220047088A0046089E
:100030000A00803148282100911E1F2820282C28E2
:100040002000911E242825282C28220045088A00FB
:1000500044080A00803148282100921D30283128A8
:100060003D282000921D352836283D2822004B08C7
:100070008A004A080A00803148282100911D412841
:10008000422848282000911D46284728482836281D
:100090007E10090080314C2822009B31AA23803138
:1000A000EF006130840090308500A0308600013080
:1000B000870028309C31212480310030840090302A
:1000C0008500403086000230870014309C312124A6
:1000D0008031FD012000EA01EB01EC012100E1018A
:1000E000E201E301E401E5012030840001308500F4
:1000F0002E309C311B248031C830840001308500B3
:100100001D309C311B24803120308400023085005A
:1001100020309C311B2480317E10200080319028BB
:100120009D31802580318B170B178831002080315D
:100130004E309631872680312400E301E201E1014F
:1001400000302000AE00A130AF005B30B000A13025
:10015000B1002E30B200A230B300FF30B400A030A6
:10016000B50094313224803115302100DF004B304E
:10017000DE00BE30890BBA28DE0BBA28DF0BBA28A6
:10018000000020000E1CC528C628CC2822008C1791
:100190002400DD01DD0AD0282400DD0122008C13BB
:1001A00020008E18D428D528D9282400E001E00AA0
:1001B000DB282400E00100302000AE00A130AF00B9
:1001C0004930B000A130B100FF30B200A030B30020
:1001D0002E30B400A230B500943132248031033087
:1001E0002100DF000830DE007730890BF528DE0BB8
:1001F000F528DF0BF52863302100DE005E08B00033
:10020000613095312C2580319031142080310830B7
:100210002000AE00A330AF00A130B000A130B1008B
:10022000FF30B200A030B300FF30B400A030B50002
:100230009431322480312400E301E30A00309C3100
:10024000B424803100309C31C124803101309C3194
:10025000CE24803122008C13240060080319312938
:10026000322935299E313626803101309C31DB24FC
:10027000803101309C31E824803115302100DF00CD
:100280004B30DE00BE30890B4329DE0B4329DF0BE8
:100290004329000001309C31A724803129302100FE
:1002A000DF009630DE007F30890B5429DE0B5429A5
:1002B000DF0B542901309F3197278031003A031911
:1002C00062296329762901309F31BA278031003AAB
:1002D00003196B296C29762901309F31DD27803184
:1002E000003A0319742975297629A0292400E3010D
:1002F00000309C31DB24803100309C31E824803197
:1003000008302100B000A330B1006330B2000230E9
:10031000B3006230B4000230B5009531FE25803163
:1003200061302100B8000230B9006330BA000230F9
:10033000BB006230BC000230BD009331E623803147
:1003400015302100DF004B30DE00BE30890BA629BE
:10035000DE0BA629DF0BA629000000309C31DB2430
:10036000803100309C31E82480312400600803197A
:10037000BA29BB29BE299E31362680312400630864
:100380000319C329C4292B2A18302000AE00A3303A
:10039000AF006D30B000A130B100FF30B200A0302E
:1003A000B300FF30B400A030B50094313224803166
:1003B00000309C31DB24803100309C31E8248031D6
:1003C0000B302100DF002630DE005D30890BE6298E
:1003D000DE0BE629DF0BE629003201309F3197273B
:1003E0008031003A031DF529F629092A01309F3191
:1003F000BA278031003A031DFE29FF29092A01305E
:100400009F31DD278031003A031D072A082A092A77
:100410002B2A2400E30118302100B000A330B100E2
:100420006330B2000230B3006230B4000230B50075
:100430009531FE25803161302100B8000230B900CD
:100440006330BA000230BB006230BC000230BD0035
:100450009331E6238031240060080319302A312AC1
:10046000342A9E3136268031240063080319392A44
:100470003A2AA12A28302000AE00A330AF00F23083
:10048000B000A130B100FF30B200A030B300FF30A7
:10049000B400A030B50094313224803101309C3159
:1004A000DB24803106302100DF001330DE00AD3068
:1004B000890B582ADE0B582ADF0B582A00320030ED
:1004C0009C31DB24803124005D080319682A692AE5
:1004D000A12A1F302100AD00A030AE009D31A8251B
:1004E0008031240061089531862580312100DE00AD
:1004F0005E082400E2006208031D7F2A802AA12AE8
:10050000E30128302100B000A330B1006330B20015
:100510000230B3006230B4000230B5009531FE25E0
:10052000803161302100B8000230B9006330BA0078
:100530000230BB006230BC000230BD009331E623C4
:100540008031240060080319A72A88316728883180
:100550006A282000CA003F08D3004008D4004108A0
:10056000D5004208D6004308D7004408D800450803
:10057000D9004608DA005330860000308700473F34
:10058000C700C71BC42AC62A0130C72A0030200072
:10059000C800C9014808D1004908D20051085204D6
:1005A0000319D32AD42AF22AD309D409D509D609A2
:1005B000D709D809D909DA09D30A031DF22AD40ABE
:1005C000031DF22AD50A031DF22AD60A031DF22AB8
:1005D000D70A031DF22AD80A031DF22AD90A031DDD
:1005E000F22ADA0A2200BD1BF62AF72AFC2AFD307D
:1005F0002100E105FF30E20522003D08803A20009D
:10060000C70080304702031D082B013022003C0246
:1006100003180B2B0C2B122B01302000CD000030C7
:10062000CE001A2B22003D082000CE0022003C08FC
:100630002000CD0022003B082000D00022003A0814
:100640002000CF0051085204031D272B282B2D2BEF
:100650002100611D2C2B2D2B322BFF302000CF07CA
:10066000FF30D03D1F302000DB000030DC002400D4
:10067000BF01A32BFF302000DB07FF30DC3D0A3039
:10068000A300A401A501A601A701A801A901AA012F
:100690005308AB005408AC005508AD005608AE0036
:1006A0005708AF005808B0005908B1005A08B20006
:1006B00097311327823120002408B7002308B600A1
:1006C0009E31BA26823120003608303EC7005B08D2
:1006D000203E86000230870047088100FF30CD07AA
:1006E000FF30CE3DFF30CF07FF30D03D0A30A300B2
:1006F000A401A501A601A701A801A901AA01530807
:10070000AB005408AC005508AD005608AE005708C1
:10071000AF005808B0005908B1005A08B20086313D
:100720008D26823120002308D3002408D400250818
:10073000D5002608D6002708D7002808D8002908A1
:10074000D9002A08DA0020005C08803AC70080300F
:100750004702031DAD2B01305B02031CB02BB12BF4
:10076000DE2B200053085404550456045704580443
:1007700059045A04031DBD2BBE2B3A2B4E08803A58
:10078000C70080304702031DC72B01304D020318FC
:10079000CA2BCB2B3A2B20005008803AC700803060
:1007A0004702031DD52B01304F02031CD82BD92B38
:1007B000DE2B2100E118DD2BDE2B3A2B2000510827
:1007C0005204031DE42BE52BEA2B2100611DE92BCC
:1007D000EA2B072CFF302000DB07FF30DC3D5108FF
:1007E0005204031DF42BF52BFA2B2B30CB000030D9
:1007F000CC00FE2B2D30CB000030CC004B08C700C6
:100800005B08203E860002308700470881002000F8
:100810005B08203EC7004708B6005008B8004F08E4
:10082000B7004A0888310B20823120003708C00009
:100830003608BF000800403086000230870058307C
:1008400084000130850014302100DC0016001A00FD
:10085000DC0B262CB4308600013087004E3084003B
:10086000013085000A30DC0016001A00DC0B342C45
:1008700001309C31C124843101309C31CE2484313B
:1008800000309C31B4248431210058082000AF008E
:10089000210057082000AE003730B000A130B10071
:1008A0001330B200A130B3008730B400A030B500DF
:1008B00094313224843158302000B3000130B40028
:1008C000210058082000B600210057082000B5007C
:1008D0009D31BE258431200034082200ED00200027
:1008E00033082200EC006D082000B40022006C08E0
:1008F0002000B3004E30B5000130B6009D31BE255A
:100900008431200034082100AE002000330821008B
:10091000AD009D31A82584319331552384312100C8
:100920005B088600023087000108953186258431F6
:100930002100DC005C082200EE000B302100DD000D
:100940002630DC005D30890BA32CDC0BA32CDD0BE7
:10095000A32C003222006E080319AF2CB02CE02C1F
:100960002100590886000230870081015A0886005C
:10097000023087008101E5302000AE00A230AF00D8
:100980003C30B000A130B1002530B200A130B3003E
:100990009C30B400A030B500943132248431DB3077
:1009A0002100B8000030B900D930BA000030BB00D7
:1009B000DA30BC000030BD009331E6238431682D6D
:1009C000E5302000AE00A230AF001030B000A33000
:1009D000B100FF30B200A030B300FF30B400A0304F
:1009E000B50094313224843100309C31C1248431EB
:1009F00001309C31CE24843100309C31B4248431C8
:100A000001309C31F524843119302100DD005A3049
:100A1000DC00B130890B0A2DDC0B0A2DDD0B0A2D11
:100A2000003200309C31F524843115302100DD0086
:100A30004B30DC00BE30890B1B2DDC0B1B2DDD0B7E
:100A40001B2D000001309F3197278431003A031994
:100A50002A2D2B2D522D01309F31BA278431003A97
:100A60000319332D342D522D01309F31DD27843170
:100A7000003A03193C2D3D2D522DE5302000AE00EB
:100A8000A230AF001030B000A330B100E330B200AC
:100A9000A130B3000030B400A330B500943132244B
:100AA0008431682D210059088600023087008101B9
:100AB000E530B000A230B100D930B2000030B30050
:100AC000DA30B4000030B5009531FE258431CF2CEA
:100AD00008002100A90020005D0886008701403F32
:100AE000DF00413FE0005F088400600885001200DD
:100AF000253A031D7C2D7D2D672E5D08860087011C
:100B00000130810741310318810A2200BA01BB017B
:100B10002100E101E201FF302200BC00FF30BD00F6
:100B200020005D0886008701403FDF00413FE00074
:100B30005F088400600885001200643A0319A12D43
:100B4000A22DB32D5D0886008701403FDF00413FA5
:100B5000E0005F088400600885001200693A031D08
:100B6000B22DB32D012E5D0886008701013081076B
:100B700041310318810A5E0886008701010884005C
:100B8000850102308107003FDF00013FE0005F0880
:100B90002100A000200060082100A100890D893BF0
:100BA0008909A200A300A400A500A600A7002008B0
:100BB0002000BF00210021082000C00021002208E1
:100BC0002000C100210023082000C20021002408C9
:100BD0002000C300210025082000C40021002608B1
:100BE0002000C500210027082000C6002100290898
:100BF0008231A922853120004008DE003F08DD0057
:100C00008C2E5D0886008701403FDF00413FE000F9
:100C10005F0884006008850012006E3A031D112EE3
:100C2000122E322E5D088600870101308107413186
:100C30000318810A5E0886008701403F8400850111
:100C4000810A0008DF005F082100A800280886004C
:100C5000870122003808C03F3908C13F2000DD016C
:100C6000DE018C2E5D0886008701403FDF00413F9A
:100C7000E0005F088400600885001200253A031D2B
:100C8000422E432E5E2E5D088600870101308107CB
:100C900041310318810A2530A6000030A700210049
:100CA00029082000DF005F08A800943183248531E3
:100CB00001302000DD000030DE008C2E5D08860053
:100CC00087010130810741310318810A2E2E5D080A
:100CD00086008701403FDF00413FE0005F0884005D
:100CE000600885000008E100E2016108A6006208D2
:100CF000A700210029082000E3006308A800943120
:100D00008324853120005D0886008701013081073A
:100D100041310318810A582E08002000B501233004
:100D2000860000308700473FB300B31F982E992EEE
:100D3000BB2E2000A309A409A509A609A709A80993
:100D4000A909AA09A30A031DB82EA40A031DB82ED7
:100D5000A50A031DB82EA60A031DB82EA70A031D57
:100D6000B82EA80A031DB82EA90A031DB82EAA0A78
:100D70002000B501B50A2B30860000308700473FC0
:100D80002000B300B31FC52EC62EEA2E2000AB09EB
:100D9000AC09AD09AE09AF09B009B109B209AB0A96
:100DA000031DE52EAC0A031DE52EAD0A031DE52E3D
:100DB000AE0A031DE52EAF0A031DE52EB00A031D82
:100DC000E52EB10A031DE52EB20A01302000B30062
:100DD0003308B50636308600003087000830200022
:100DE000B30000301E00B30BF22E230824042504A8
:100DF00026042704280429042A040319002F012F9C
:100E00005D2FB401B40A102FA335A40DA50DA60DB6
:100E1000A70DA80DA90DAA0D0130B3003308B40722
:100E2000AA1F132F142F042FB635B70DB80DB90D07
:100E3000BA0DBB0DBC0DBD0D2A083202031D3A2FA1
:100E400029083102031D3A2F28083002031D3A2FCA
:100E500027082F02031D3A2F26082E02031D3A2FC2
:100E600025082D02031D3A2F24082C02031D3A2FBA
:100E700023082B02031C3D2F3E2F4F2F2308AB02CC
:100E80002408AC3B2508AD3B2608AE3B2708AF3B0A
:100E90002808B03B2908B13B2A08B23B3614AA36D1
:100EA000A90CA80CA70CA60CA50CA40CA30C013033
:100EB000B402031D5C2F5D2F142F35080319612F19
:100EC000622F802FB609B709B809B909BA09BB0959
:100ED000BC09BD09B60A031D802FB70A031D802F68
:100EE000B80A031D802FB90A031D802FBA0A031DFB
:100EF000802FBB0A031D802FBC0A031D802FBD0A53
:100F000020003608A3003708A4003808A5003908D7
:100F1000A6003A08A7003B08A8003C08A9003D0825
:100F2000AA0008002100B701ED2F20000F19992F0A
:100F30009A2FAF2F72302100AD00A030AE009D314E
:100F4000A82587312100B701B70A3008860031088B
:100F50008700810132088600330887008101200064
:100F60006A080319B42FB52FED2F9131EE21873187
:100F70002100B4003408B600E02FED30AD00A03001
:100F8000AE009D31A8258731210030088600310848
:100F90008700810132088600330887008101023012
:100FA0002100B5000430B400BA30890BD52FB40B42
:100FB000D52FB50BD52F00002100B701B70AED2FB3
:100FC0003608B400B5013508003A0319E82FED2FB3
:100FD0003408343A0319BD2FED2F210037080319C7
:100FE000F22FF32F952F08007030210099009801FF
:100FF0002200960121001A1FFE2FFF2FFA2F080052
:101000002830240095009601940127309200210099
:101010008E150E1608002000BE002100611C11284C
:1010200012281B2820003E08B9003908AE003608F7
:101030009031892088312000B81B1F2820282528BE
:101040003808BD003708BC002728BC01BD01BA0123
:10105000BB013B2820302000A6000030A7003E083E
:10106000B9003908A8009431832488310130200068
:10107000BA070030BB3D3B08803AB9003D08803AD2
:101080003902031D45283C083A02031C4828492818
:101090002A28210061184D284E28572820003E0894
:1010A000B9003908AE003608903189208831200017
:1010B0003608A3000230A4009E314F26883120005C
:1010C0003C082307B6003D08243DB70008009E31C8
:1010D000362688312400630803196F287028CE282B
:1010E00030302000AE00A330AF001030B000A2308E
:1010F000B100FF30B200A030B300FF30B400A03028
:10110000B50094313224883101309C31DB248831A0
:1011100006302100DF001330DE00AD30890B8E2851
:10112000DE0B8E28DF0B8E28003200309C31DB2452
:10113000883124005D0803199E289F28CE28610865
:101140009531862588312100DE005E082400E2000A
:101150006208031DAC28AD28CE28E3013030210001
:10116000B000A330B1006330B2000230B30062308F
:10117000B4000230B5009531FE2588316130210080
:10118000B8000230B9006330BA000230BB006230F0
:10119000BC000230BD009331E62388312400600892
:1011A0000319D328D428D7289E3136268831240025
:1011B00063080319DC28DD283B2938302000AE0005
:1011C000A330AF000130B000A230B100FF30B20058
:1011D000A030B300FF30B400A030B5009431322409
:1011E000883101309C31DB24883106302100DF005A
:1011F0001330DE00AD30890BFB28DE0BFB28DF0B44
:10120000FB28003200309C31DB24883124005D084B
:1012100003190B290C293B29610895318625883152
:101220002100DE005E082400E2006208031D192987
:101230001A293B29E30138302100B000A330B10066
:101240006330B2000230B3006230B4000230B50047
:101250009531FE25883161302100B8000230B90097
:101260006330BA000230BB006230BC000230BD0007
:101270009331E6238831240060080319402941296D
:1012800044299E31362688312400630803194929F0
:101290004A29AC2940302000AE00A330AF00A43072
:1012A000B000A230B100FF30B200A030B300FF3078
:1012B000B400A030B50094313224883101309C3123
:1012C000DB24883115302100DF004B30DE00BE30DA
:1012D000890B6829DE0B6829DF0B682900000030C4
:1012E0009C31DB24883115302100DF004B30DE00DB
:1012F000BE30890B7929DE0B7929DF0B79290000B3
:1013000001309F3197278831003A031988298929AC
:101310008A29AC292400E30140302100B000A33029
:10132000B1006330B2000230B3006230B40002306A
:10133000B5009531FE25883161302100B8000230BA
:10134000B9006330BA000230BB006230BC0002302A
:10135000BD009331E6238831240060080319B129C8
:10136000B229B5299E313626883124006308031935
:10137000BA29BB29262A48302000AE00A330AF008E
:10138000C530B000A030B100FF30B200A030B300D3
:10139000FF30B400A030B5009431322488310130E0
:1013A0009C31DB24883115302100DF004B30DE001A
:1013B000BE30890BD929DE0BD929DF0BD9290000D2
:1013C00000309C31DB24883115302100DF004B30A8
:1013D000DE00BE30890BEA29DE0BEA29DF0BEA29A1
:1013E000000000309F3197278831003A0319F9290E
:1013F000FA29042A01309F31BA278831003A0319AB
:10140000022A032A042A262A2400E3014830210064
:10141000B000A330B1006330B2000230B3006230DC
:10142000B4000230B5009531FE25883161302100CD
:10143000B8000230B9006330BA000230BB0062303D
:10144000BC000230BD009331E623883124006008DF
:1014500003192B2A2C2A2F2A9E3136268831240064
:1014600063080319342A352AA02A50302000AE0020
:10147000A330AF00D930B000A030B100FF30B200CF
:10148000A030B300FF30B400A030B5009431322456
:10149000883101309C31DB24883115302100DF0098
:1014A0004B30DE00BE30890B532ADE0B532ADF0B94
:1014B000532A000000309C31DB2488311530210094
:1014C000DF004B30DE00BE30890B642ADE0B642A5D
:1014D000DF0B642A000000309F31BA278831003AC0
:1014E0000319732A742A7E2A01309F31DD2788313F
:1014F000003A03197C2A7D2A7E2AA02A2400E301CF
:1015000050302100B000A330B1006330B20002308F
:10151000B3006230B4000230B5009531FE25883149
:1015200061302100B8000230B9006330BA000230E7
:10153000BB006230BC000230BD009331E62388312D
:10154000240060080319A52AA62AA92A9E31362656
:101550008831240063080319AE2AAF2A4A2B583079
:101560002000AE00A330AF00B230B000A130B10017
:101570007F30B200A130B300FF30B400A030B5001E
:1015800094313224883101309C31DB24883106309B
:101590002100DF001330DE00AD30890BCD2ADE0BD9
:1015A000CD2ADF0BCD2A003200309C31DB2488317C
:1015B0000B302100DF002630DE005D30890BDE2A93
:1015C000DE0BDE2ADF0BDE2A00320C309F313327A0
:1015D0008831200024082400DF0020002308240094
:1015E000DE0060302100AD00A330AE0024005F08B3
:1015F0002100B00024005E082100AF005830923175
:101600005422883121002E082400D50021002D0805
:101610002400D4005F08803A2100DE0083305E029F
:10162000031D152B203024005E020318182B192BE4
:101630001C2B22008C173E2B58302100B000A33009
:10164000B1006330B2000230B3006230B400023047
:10165000B5009531FE25883122008C1361302100C0
:10166000B8000230B9006330BA000230BB0062300B
:10167000BC000230BD009331E623883129302100BF
:10168000DF009630DE007F30890B442BDE0B442BCD
:10169000DF0B442B2400600803194F2B502B532BD6
:1016A0009E3136268831240063080319582B592BA4
:1016B000082CAF302000AE00A230AF00B230B00036
:1016C000A130B100C330B200A130B300FF30B4008C
:1016D000A030B50094313224883101309C31DB24B4
:1016E000883106302100DF001330DE00AD30890B79
:1016F000772BDE0B772BDF0B772B003200309C3102
:10170000DB2488310B302100DF002630DE005D3025
:10171000890B882BDE0B882BDF0B882B00320C30DB
:101720009F3133278831200024082400DF00200067
:1017300023082400DE0060302100AD00A330AE009D
:1017400024005F082100B00024005E082100AF00E3
:10175000583092315422883121002E082400D700BD
:1017600021002D082400D6005F08803A2100DE0009
:1017700082305E02031DBF2B8A3024005E020318F4
:10178000C22BC32BC62B22008C13FC2BAF302100A5
:10179000B000A230B1006330B2000230B30062305A
:1017A000B4000230B5009531FE258831AF302000FD
:1017B000AE00A230AF00B230B000A130B10058305E
:1017C000B2000230B300FF30B400A030B500943155
:1017D0003224883122008C1761302100B800023099
:1017E000B9006330BA000230BB006230BC00023086
:1017F000BD009331E623883129302100DF00963087
:10180000DE007F30890B022CDE0B022CDF0B022C5A
:101810002400600803190D2C0E2C112C9E31362645
:101820008831240063080319162C172CD72CB830E4
:101830002000AE00A230AF008130B000A230B10075
:10184000FF30B200A030B300FF30B400A030B500CC
:101850009431322488310B302100DF002630DE0045
:101860005D30890B312CDE0B312CDF0B312C00323B
:1018700001309C31DB24883106302100DF00133039
:10188000DE00AD30890B422CDE0B422CDF0B422CEC
:10189000003200309C31DB2488313D302100DF00F4
:1018A000E130DE003F30890B532CDE0B532CDF0B75
:1018B000532C003201309C31DB248831063021006A
:1018C000DF001330DE00AD30890B642CDE0B642C9E
:1018D000DF0B642C003200309C31DB248831103067
:1018E0002100DF003930DE000D30890B752CDE0B56
:1018F000752CDF0B752C003201309F319727883112
:10190000003A0319842C852C982C01309F31BA277A
:101910008831003A03198D2C8E2C982C00309F3181
:10192000DD278831003A0319962C972C982CC22C6D
:101930002400E30100309C31DB24883100309C31ED
:10194000E8248831B8302100B000A230B100633003
:10195000B2000230B3006230B4000230B5009531FD
:10196000FE25883161302100B8000230B9006330B3
:10197000BA000230BB006230BC000230BD009331BF
:10198000E623883115302100DF004B30DE00BE3009
:10199000890BC82CDE0BC82CDF0BC82C00000030D4
:1019A0009C31DB24883100309C31E82488312400CC
:1019B00060080319DC2CDD2CE02C9E3136268831A2
:1019C000240063080319E52CE62C472DCA302000BB
:1019D000AE00A230AF00D330B000A130B10059301A
:1019E000B200A230B3009030B400A130B500943101
:1019F0003224883101309C31DB24883106302100CB
:101A0000DF001330DE00AD30890B042DDE0B042D1A
:101A1000DF0B042D003200309C31DB24883158303C
:101A20002100AD00A030AE009D31A82588312400F2
:101A300061089531862588312100DE005E0824008A
:101A4000E2006208031D252D262D472DE301CA3033
:101A50002100B000A230B1006330B2000230B30008
:101A60006230B4000230B5009531FE258831613016
:101A70002100B8000230B9006330BA000230BB0068
:101A80006230BC000230BD009331E623883124006F
:101A9000600803194C2D4D2D502D9E31362688316E
:101AA000240063080319552D562DCA2DD33020006C
:101AB000AE00A230AF00C130B000A230B100FF30A4
:101AC000B200A030B300FF30B400A030B5009431B4
:101AD0003224883101309C31E824883106302100DD
:101AE000DF001330DE00AD30890B742DDE0B742D5A
:101AF000DF0B742D003200309C31E82488310B302C
:101B00002100DF002630DE005D30890B852DDE0BE5
:101B1000852DDF0B852D003201309F3197278831CD
:101B2000003A0319942D952DA82D01309F31BA2725
:101B30008831003A03199D2D9E2DA82D01309F312B
:101B4000DD278831003A0319A62DA72DA82DCA2D0F
:101B50002400E301D3302100B000A230B100633093
:101B6000B2000230B3006230B4000230B5009531EB
:101B7000FE25883161302100B8000230B9006330A1
:101B8000BA000230BB006230BC000230BD009331AD
:101B9000E6238831240060080319CF2DD02DD32DE2
:101BA0009E3136268831240063080319D82DD92D9B
:101BB0004D2EDC302000AE00A230AF007430B000FB
:101BC000A230B100FF30B200A030B300FF30B4004B
:101BD000A030B50094313224883101309D310F2579
:101BE000883106302100DF001330DE00AD30890B74
:101BF000F72DDE0BF72DDF0BF72D003200309D3176
:101C00000F2588310B302100DF002630DE005D30EB
:101C1000890B082EDE0B082EDF0B082E0032003059
:101C20009F3197278831003A0319172E182E2B2E33
:101C300000309F31BA278831003A0319202E212E17
:101C40002B2E00309F31DD278831003A0319292ED1
:101C50002A2E2B2E4D2E2400E301DC302100B00073
:101C6000A230B1006330B2000230B3006230B40081
:101C70000230B5009531FE25883161302100B80071
:101C80000230B9006330BA000230BB006230BC00E1
:101C90000230BD009331E623883124006008031927
:101CA000522E532E562E9E3136268831240063083C
:101CB00003195B2E5C2EC22EE5302000AE00A23050
:101CC000AF001030B000A330B100FF30B200A03040
:101CD000B300FF30B400A030B50094313224883115
:101CE00001309C31F524883119302100DF005A3051
:101CF000DE00B130890B7A2EDE0B7A2EDF0B7A2EC6
:101D0000003200309C31F52488310B302100DF0097
:101D10002630DE005D30890B8B2EDE0B8B2EDF0B29
:101D20008B2E003201309F3197278831003A0319FA
:101D30009A2E9B2EAE2E01309F31BA278831003A61
:101D40000319A32EA42EAE2E01309F31DD2788313A
:101D5000003A0319AC2EAD2EAE2EC22EE530210076
:101D6000D700A230D8006330DE005E08D9006230B0
:101D7000DF005F08DA006130E0006008DB008431DA
:101D80001B248831240060080319C72EC82ECB2ECF
:101D90009E3136268831240063080319D02ED12EB7
:101DA000452FEE302000AE00A230AF002030B00052
:101DB000A330B100FF30B200A030B300FF30B40058
:101DC000A030B50094313224883101309D31022594
:101DD000883119302100DF005A30DE00B130890B24
:101DE000EF2EDE0BEF2EDF0BEF2E003200309D3199
:101DF000022588310B302100DF002630DE005D3007
:101E0000890B002FDE0B002FDF0B002F003200307C
:101E10009F3197278831003A03190F2F102F232F56
:101E200000309F31BA278831003A0319182F192F33
:101E3000232F00309F31DD278831003A0319212FED
:101E4000222F232F452F2400E301EE302100B00084
:101E5000A230B1006330B2000230B3006230B4008F
:101E60000230B5009531FE25883161302100B8007F
:101E70000230B9006330BA000230BB006230BC00EF
:101E80000230BD009331E623883124006008031935
:101E90004A2F4B2F4E2F9E3136268831240063085F
:101EA0000319532F542FAF2FF7302000AE00A2306C
:101EB000AF001F30B000A230B1009930B200A230A4
:101EC000B3009030B400A130B50094313224883191
:101ED0009E31F526883100302100AD00A030AE00E3
:101EE0009D31A825883124006108953186258831E7
:101EF0002100DE005E082400E2006208031D812F3D
:101F0000822FAF2FE301F7302100B000A230B100E3
:101F10006330B2000230B3006230B4000230B5006A
:101F20009531FE25883161302100B8000230B900BA
:101F30006330BA000230BB006230BC000230BD002A
:101F40009331E623883129302100DF009630DE000E
:101F50007F30890BA92FDE0BA92FDF0BA92F2400BF
:101F600063080319B42FB62F8031C1288D302000AB
:101F7000AE00A230AF004030B000A130B1004B3015
:101F8000B200A230B3009C30B400A030B500943150
:101F90003224883101309C31B424883100309C31A6
:101FA000A72488319F315427883161302100B00047
:101FB0000230B1006330B2000230B30087319227A3
:101FC000883163302100B0000230B1006230B200CD
:101FD0000230B3006130B4000230B5009231CD223E
:101FE000883129302100DF009630DE007F30890BF8
:101FF000F72FDE0BF72FDF0BF72FB42F80314A2896
:102000002D343E3420344534523452344534553422
:1020100052343A3420340034003400340034003474
:1020200000340034003400342000A801A9019031AC
:10203000DC2090310B302000A7002630A6005D3058
:10204000890B2028A60B2028A70B2028003201305E
:102050002000A8070030A93D2908803AA60080305A
:102060002602031D352802302802031C382839288F
:102070001728080020002A08B0002908AF00280807
:10208000B2002708B1003208AC003108AB00B10A39
:102090000319B20A2B0886002C0887003008AE000E
:1020A0002F08AD00AF0A0319B00A2D0884002E08CE
:1020B00085000008C03F8908031D5F286028432869
:1020C00008002D343E3420344534523452344534E3
:1020D000553452343A34203400340034003400345F
:1020E000003400340034003400340D340A34003439
:1020F00000340034003400340034003400340D3433
:102100000A34003400340034003400340034003425
:1021100000342000B500B301B401A1283208AF009B
:10212000B0012F08A6003008A7002E08B100310822
:10213000A80094318324903101302000B30700308F
:10214000B43D33083507AF002F0886000230870002
:102150000108B0003008B2003208031DB028B128D1
:102160008E280800F400700871040319B828B928F3
:10217000CC287435C83E8600013087007008C03F07
:102180007108C13F7208F3007408D43E8600013024
:10219000870073088100DB287435C83E8600013053
:1021A0008700AB30C03F1B30C13F7408D43E86006F
:1021B00001308700810108002000A401A501220050
:1021C0000D1606302000A3003030890BE528A30B44
:1021D000E528000022000D1206302000A300303058
:1021E000890BF028A30BF028000001302000A40781
:1021F0000030A53D2508803AA30080302302031D4E
:10220000032932302402031C06290729DF2808008D
:10221000230064100230FA007A08E30017299B318A
:10222000EB23913134299B31F02391313429560825
:10223000FA007A08F9000430C83E860001308700B1
:10224000413F8A00403F0A009131FB00FC017C08BD
:10225000003A03192C2913297B08023A03190F2984
:10226000013A03190F29132908002000A4002100B6
:10227000640803193C293D293729111A40294129AD
:1022800046292000240823009A005F29111220000B
:102290002408A3007D08303E860001308700230813
:1022A00081000130A3002308FD0708307D02031CD4
:1022B0005A295B295C29FD0101302100E40221003B
:1022C000111608009B31BC2391312300641C69293D
:1022D0006A2978299C3109249131003A031971291E
:1022E000722978290F302000A00020082300E20086
:1022F000230062082000A000A101A035A10D00303C
:10230000200784009830213D8500013F8A00003F6E
:102310000A0091312000A20022082300E2000800F8
:102320002300E415A0299B31EB239131BE299B3179
:10233000B92391310330BE299B31F0239131BE295D
:102340005408FA007A08F90049088A0048080A0087
:102350009131FB00FC017C08003A0319B0299C294B
:102360007B08013A03199C29033A03199329013A7E
:1023700003199329073A031997299C29080020007B
:10238000AC00DA292908BF3E9E3105269131ED299E
:102390002908933E9E3105269131ED292908D33E27
:1023A0009E3105269131ED2929087F3E9E31052673
:1023B0009131ED292C08AA00AB012B08003A031932
:1023C000E229D4292A08023A0319C229013A031939
:1023D000C829073A0319CE29D429080020006A0821
:1023E0000319F329F429EE296B08203E86000130F9
:1023F00087000108A30023082200CD0020006B08FD
:10240000283E8600013087000108A3002308A400AD
:102410000130A3002308EB0708306B02031C112ACC
:10242000122A132AEB012100911201302000EA0246
:10243000210091162000240808002100AA00200095
:1024400065082100AC00200064082100AB002200D8
:10245000B801B901412AAB302000E7006708DD0070
:102460006608E8006808DE0021002A088531692531
:10247000923120005D082200B80720005E0822008B
:10248000B93D21002B0884002C0885001200031D93
:102490004A2A4B2A2B2A220039082000E500220074
:1024A00038082000E40008002100B400AF3020000C
:1024B000E90069082100B30034082000E900690838
:1024C0002100B500B601B701B801B9012E082000FE
:1024D000E50021002D082000E400B330E900690880
:1024E000E600B53092311D229231200065082100AE
:1024F000B200200064082100B10036083407200033
:10250000E900690886000230870081012100320855
:10251000AE003108AD00080020006C08203E8600A7
:1025200001308700810123001D1D972A982AA52AC2
:1025300020006C08203E86000130870081142200B4
:1025400043088A0042080A00923123009D1CA92AF0
:10255000AA2AB72A20006C08203E86000130870096
:102560000115220041088A0040080A00923120002B
:102570006C08203E86000130870001080319C12A3B
:10258000C22AC92A22003F088A003E080A00923166
:10259000CC2A9E3169269231080021003408860039
:1025A000350887000108031DD62AD72ADE2A723093
:1025B000AD00A030AE009D31A82592312100300839
:1025C00086003108870081013208860033088700C1
:1025D00081013408860035088700810100309C3174
:1025E000B424923100309C31C124923100309C31AE
:1025F000CE24923100309C31A724923100309C319E
:10260000DB24923100309C31E824923100309C313F
:10261000F524923100309D310225923108009B3122
:10262000B6239331FA0023005F08860087017A08F9
:1026300081000130FA007A08DF070130E002003043
:10264000E13B600861040319262B272B2C2B9B31BF
:10265000CB2393310530542BE415362B9B31FF23CC
:102660009331542B9B31FA239331542B5408FA00A5
:102670007A08F90049088A0048080A009331FB00EB
:10268000FC017C08003A0319462B322B7B08013AE7
:102690000319322B033A03192E2B013A03192E2B5F
:1026A000073A0319322B322B08002000A801A90198
:1026B0002000AA01AB019031DC2093310B302000C7
:1026C000A7002630A6005D30890B642BA60B642B77
:1026D000A70B642B003201302000AA070030AB3D6D
:1026E0002B08803AA60080302602031D792B043087
:1026F0002A02031C7C2B7D2B5B2B0B302000A700B8
:102700002630A6005D30890B832BA60B832BA70BED
:10271000832B003201302000A8070030A93D290892
:10272000803AA60080302602031D982B0430280230
:10273000031C9B2B9C2B582B0800210091128C30E2
:102740002000A3001230A4009C31692493312100A1
:10275000111275302000A3001F30A4009C31722498
:102760009331083023009F0090309D0024309E005C
:1027700040309B0003309C00A9302000A3001B3098
:10278000A4009C3157249331C3302000A3001B3098
:10279000A4009C3160249331BF302000A3001B3083
:1027A000A4009C314E2493312200CD01FD01210073
:1027B000E50108302000A50025082100E4002000E4
:1027C000EC01EB01EA012100911608002100380814
:1027D0008600390887000108BE00BF013E08B0002E
:1027E0003F08B1003A0886003B0887000108C00096
:1027F000C1014008B2004108B300873192279331EC
:1028000021003A0886003B0887000108BE00BF018E
:102810003E08B0003F08B1003C0886003D08870034
:102820000108C000C1014008B2004108B3003808E7
:102830008600390887000108C200C3014208B400BD
:102840004308B5009231CD22933129302100BF00D9
:102850009630BE007F30890B2B2CBE0B2B2CBF0B70
:102860002B2C08009C317B24943106309E310526A8
:10287000943102302000B7000430B600BA30890B22
:102880003F2CB60B3F2CB70B3F2C00002000A901BA
:10289000A90A01309131BF21943120002F08AA00EC
:1028A0002E08A9009F31142794312000A901A90AFC
:1028B00002309131BF21943120003108AA00300844
:1028C000A9009F31142794312000A901A90A0330DF
:1028D0009131BF21943120003308AA003208A900A9
:1028E0009F31142794312000A901A90A04309131A5
:1028F000BF21943120003508AA003408A9009F3177
:10290000142794310800200028080319882C892CEA
:102910008E2C2808031D8D2C8E2C932C26089C3180
:102920002E249431D42C2808033E860087011600FB
:10293000010403199C2C9D2CBA2C2808033E860008
:102940008701403FA900413FAA00280A860087016D
:10295000403FAB00413FAC002C08803AAD002A0854
:10296000803A2D02031DB62C29082B020318B92C1E
:10297000BA2CD42C20002608A9002808860087013C
:10298000280A8400850100080107AA002A08860099
:102990000230870029088100280A8600870101305B
:1029A000810741310318810A08009C3109249431C0
:1029B000003A0319DC2CDD2C0E2DEA2C9B31E1238F
:1029C00094312B2D9B31E62394312B2D9B31F02319
:1029D00094312B2D23005708FA007A08F9000630AD
:1029E000C83E860001308700413F8A00403F0A0010
:1029F0009431FB00FC017C08003A0319002DE62C01
:102A00007B08013A0319E62C033A0319DE2C013A3C
:102A10000319E22C073A0319E62CE62C2300641074
:102A20001730C83E860001308700403F8400850192
:102A3000810A00089B31D723943101302300E00242
:102A40000030E13B60086104031D272D282D2A2D4D
:102A500006302B2D033008002100B500B4017F2D76
:102A600020000F19342D352D452D3E302100AD00AD
:102A7000A030AE009D31A82595312100B401B40AE3
:102A80003508860002308700810120006A0803199A
:102A90004A2D4B2D7F2D9131EE2195312100B10032
:102AA0003108B300722D6730AD00A230AE009D3109
:102AB000A825953121003508860002308700810164
:102AC000810A02302100B2000430B100BA30890B13
:102AD000672DB10B672DB20B672D00002100B401EB
:102AE000B40A7F2D3308B100B2013208003A03194D
:102AF0007A2D7F2D3108313A0319532D7F2D210076
:102B000034080319842D852D302D08002000A800DD
:102B1000A901AA01280803198E2D8F2DD52DD02D9E
:102B20006A080319942D952DD02D9131EE21953100
:102B30002000A5002508A700C02D02302000A60017
:102B40000430A500BA30890BA32DA50BA32DA60B2D
:102B5000A32D00002000A901A90AAA01AA0AD02DCC
:102B600002302000A6000430A500BA30890BB62D33
:102B7000A50BB62DA60BB62D00002000A901AD2D8A
:102B80002708A500A6012608003A0319C82DD02D54
:102B90002508323A03199D2D013A0319B02DD02D85
:102BA0002A080319D42DD52D902D2808031DD92DC1
:102BB000DA2DFC2DF62D01309E3184269531003A18
:102BC0000319E32DE42DE82D2000A901AA01AA0A8A
:102BD00001309E319F269531003A0319F02DF12DD9
:102BE000F62D2000A901A90AAA01AA0A20002A0894
:102BF0000319FB2DFC2DDB2D29080800A0308600D1
:102C000001308700C130840000308500143021007D
:102C1000B60016001A00B60B092EBE308600013031
:102C20008700B7308400003085000A30B6001600F7
:102C30001A00B60B172E01309C31C124953101309A
:102C40009C31CE24953100309C31B4249531003034
:102C50009C31A7249531210031082000AF002100CC
:102C600030082000AE003730B000A130B1009C30F9
:102C7000B200A030B300FF30B400A030B5009431F2
:102C800032249531C1302000B3000030B40021005F
:102C900031082000B600210030082000B5009D3129
:102CA000BE259531200034082100D60020003308CD
:102CB0002100D50056082000B4002100550820004E
:102CC000B300B730B5000030B6009D31BE25953158
:102CD000200034082100AE00200033082100AD00A0
:102CE0009D31A825953193315523953120000F1D35
:102CF0007A2E7B2E762E210032088600330887003C
:102D00008101340886003508870081010800200011
:102D1000AB002B08A90029082200CC0000309D310F
:102D2000932596319C302000A900D730890B962E30
:102D3000A90B962E03309E31052696311A302000BD
:102D4000A900F830890BA22EA90BA22E0000033097
:102D50009E31052696311A302000A900F830890BE3
:102D6000AF2EA90BAF2E000003309E310526963101
:102D70001A302000A900F830890BBC2EA90BBC2EFC
:102D8000000002309E31052696311A302000A9003D
:102D9000F830890BC92EA90BC92E000028309E31AE
:102DA0000526963102302000AA000430A900BA306E
:102DB000890BD82EA90BD82EAA0BD82E00000C30C8
:102DC0009E310526963102302000AA000430A90069
:102DD000BA30890BE92EA90BE92EAA0BE92E0000C7
:102DE00001309E310526963102302000AA000430C1
:102DF000A900BA30890BFA2EA90BFA2EAA0BFA2ECB
:102E0000000006309E310526963102302000AA00CF
:102E10000430A900BA30890B0B2FA90B0B2FAA0B7A
:102E20000B2F000008002000B5012B308600003079
:102E30008700473FB300B31F1E2F1F2F412F2000D5
:102E4000AB09AC09AD09AE09AF09B009B109B209C6
:102E5000AB0A031D3E2FAC0A031D3E2FAD0A031D16
:102E60003E2FAE0A031D3E2FAF0A031D3E2FB00AB0
:102E7000031D3E2FB10A031D3E2FB20A2000B501EB
:102E8000B50A2330860000308700473F2000B3009A
:102E9000B31F4B2F4C2F6B2F2000A309A409A509AA
:102EA000A609A709A809A909AA09A30A031D6B2F46
:102EB000A40A031D6B2FA50A031D6B2FA60A031D71
:102EC0006B2FA70A031D6B2FA80A031D6B2FA90ADE
:102ED000031D6B2FAA0A20002308240425042604BE
:102EE0002704280429042A040319772F782FCB2FCD
:102EF000B401B40A872FA335A40DA50DA60DA70D07
:102F0000A80DA90DAA0D0130B3003308B407AA1FFC
:102F10008A2F8B2F7B2F2A083202031DA92F290805
:102F20003102031DA92F28083002031DA92F2708ED
:102F30002F02031DA92F26082E02031DA92F2508E5
:102F40002D02031DA92F24082C02031DA92F2308DD
:102F50002B02031CAC2FAD2FBD2F2308AB0224087E
:102F6000AC3B2508AD3B2608AE3B2708AF3B280805
:102F7000B03B2908B13B2A08B23BAA36A90CA80CE1
:102F8000A70CA60CA50CA40CA30C0130B402031DC5
:102F9000CA2FCB2F8B2F35080319CF2FD02FEE2F11
:102FA000AB09AC09AD09AE09AF09B009B109B20965
:102FB000AB0A031DEE2FAC0A031DEE2FAD0A031D55
:102FC000EE2FAE0A031DEE2FAF0A031DEE2FB00A3F
:102FD000031DEE2FB10A031DEE2FB20A20002B08AD
:102FE000A3002C08A4002D08A5002E08A6002F0879
:102FF000A7003008A8003108A9003208AA0008007C
:10300000DC341B3445341C3435341C34D53414348E
:103010000F34133427341C3490341134E1341B340E
:10302000E6341B34EB341B34F0341B34F5341B34DE
:10303000FA341B34FF341B3404341C340834113488
:103040002D343E34203454344534533454342034F5
:1030500043344F344E3446344F3452344D34453477
:1030600020342D34203441345434543445344E34D7
:103070005434453420344134433451345534493484
:103080005434543445344D3445344E3454340D3472
:043090000A340034CA
:1037520008000834013008002400961408002400F0
:103762001615080024009615080024001108080008
:103772002000911508002000911108009E31692651
:103782009B31080023001D121D1608002400961606
:1037920016160800240096121616080091316221AE
:1037A2009B3108001630210097000800F0007008D5
:1037B2002400910008002300E410E3010E30080009
:1037C2009B31AD239B31013008009B31AD239B31EE
:1037D200023008009B31AD239B31013008009B3140
:1037E200B0239B31003008009B31CB239B31053045
:1037F20008009B31C7239B310A3008009B31C72345
:103802009B31093008002300E410E3010E30080068
:103812002400160E890C890C013908009C318E2473
:103822009C312400161408009C318E249C31240003
:1038320016150800640080010131890B1C2C00342C
:10384200FE0012001E00FE0B222C00342300641026
:103852009B31B3239C31043008002000A5002508C9
:10386200913135219C310800230064145E359B316F
:10387200D7239C3103300800F03021009E009B01C9
:103882009C0101309D0008002300641403145E0DA6
:103892009B31D7239C3105300800200024082200E8
:1038A200BF00200023082200BE00080020002408D8
:1038B2002200C300200023082200C20008002000CA
:1038C20024082200C100200023082200C0000800B2
:1038D200200024082200C500200023082200C40082
:1038E2000800200024082200C7002000230822002C
:1038F200C600080001309E3105269C313530890B07
:10390200802C00000800C03024009400083095008C
:1039120096014F3092009512080024001419922C3F
:10392200932C8E2C16081F39031D982C992C8E2C43
:1039320008007608F1007508F0007708F8007808AA
:10394200F20000309031B2209C3108002000A30028
:1039520023080319AD2CAE2CB12C22000C14B32C6D
:1039620022000C1008002000A30023080319BA2C1F
:10397200BB2CBE2C22001014C02C220010100800F8
:103982002000A30023080319C72CC82CCB2C22002B
:103992009014CD2C2200901008002000A3002308D0
:1039A2000319D42CD52CD82C22001015DA2C220085
:1039B200101108002000A30023080319E12CE22CB7
:1039C200E52C22008C14E72C22008C100800200029
:1039D200A30023080319EE2CEF2CF22C22000C1565
:1039E200F42C22000C1108002000A3002308031964
:1039F200FB2CFC2CFF2C22000C16012D22000C1299
:103A020008002000A30023080319082D092D0C2DFE
:103A120022008C160E2D22008C1208002000A3001A
:103A220023080319152D162D192D22008C151B2D77
:103A320022008C110800F3002300E41D212D222D09
:103A42002B2D7308F2007208DF007108E100700884
:103A5200E000E41108002000A3009C318E249D3177
:103A620020002308240091002000911D392D3A2DB9
:103A7200352D911108000230F0000030F100790874
:103A82009D311C259D310030F500F600F7019C3177
:103A92009A249D31043008000130F0000030F1001A
:103AA20079089D311C259D310030F500F600F701A3
:103AB2009C319A249D31023008000230F00000301F
:103AC200F10079089D311C259D310030F500F6008A
:103AD200F7019C319A249D31023008000130F00038
:103AE2000030F10079089D311C259D310030F50030
:103AF200F600F7019C319A249D31043008009C3174
:103B020084249D319E31D6269D318731F4279D3103
:103B12009B31D3239D319C313D249D3193319D2393
:103B22009D3108002000A4009C310F249D31220009
:103B32004C089D312C259D312000240822006F0461
:103B42009D312C259D319C3115249D310800AF30CB
:103B52002000E90069082100AF002E082000E500DE
:103B620021002D082000E400AF30E9006908E600DA
:103B7200003092311D229D31080020003408A4003B
:103B82003308A3009E314F269D31200023083307BE
:103B9200A7002408343DA8003608AA003508A90069
:103BA20090313A209D310800790886008701403F14
:103BB200F000413FF1007908023E860087010108CA
:103BC2009D311C259D310030F500F600F7019C3136
:103BD2009A249D31023008002000A60021006308CB
:103BE2002000A5002508A604260804389D31932547
:103BF2009D3120002608FB399D3193259D314230AD
:103C0200890B012E003208002000A8002100E301E8
:103C120020002808F0399D31ED259E31200028082A
:103C2200A7000330A735FF3E031D132E2735F039B9
:103C32009D31ED259E3108002000A8002100E301FE
:103C4200E30A20002808F0399D31ED259E3120003D
:103C52002808A7000330A735FF3E031D2C2E273569
:103C6200F0399D31ED259E3108002100B001B130BF
:103C7200AD00A030AE009D31A8259E31482E200017
:103C82000F19442E452E482E2100B001B00A210002
:103C9200300803194D2E4E2E402E08002000240815
:103CA200A6002308A500592E0130A3070030A43D29
:103CB20023088600240887000108031D612E622E56
:103CC200552E25082302A3002608243BA400080041
:103CD20023001908F00020006C08283E86000130FD
:103CE2008700700881000130F0007008EC0708308E
:103CF2006C02031C7D2E7E2E7F2EEC010130F00023
:103D02007008EA0708002000A400A3012408031990
:103D12008B2E8C2E922E8F1B8F2E902E922EA301E5
:103D2200A30A2408031D962E972E9D2E8F1F9A2ECE
:103D32009B2E9D2EA301A30A230808002000A400A5
:103D4200A30124080319A62EA72EAD2E0F19AA2E01
:103D5200AB2EAD2EA301A30A2408031DB12EB22E51
:103D6200B82E0F1DB52EB62EB82EA301A30A230816
:103D7200080020003708803AB80080303802031D5E
:103D8200C42E013036020318C72EC82ED52E2000AD
:103D92003609B8003709B900B80A0319B90A380850
:103DA200B6003908B700D52E0800220090018F0115
:103DB2008C018D018E010830210090008C01EF30C2
:103DC2008D00BF308E00FF308F0023008F013F3007
:103DD2008D0090013C308C00240090018D01210067
:103DE200951722009D01080022000C1706302000C2
:103DF200A4001330A300AD30890BFD2EA30BFD2EC2
:103E0200A40BFD2E003222000C1306302000A40069
:103E12001330A300AD30890B0C2FA30B0C2FA40B76
:103E22000C2F003208002000AC01AD01272F290819
:103E32002C0784002A082D3D850000089E311D268E
:103E42009F3101302000AC070030AD3D29082C071E
:103E520084002A082D3D85001200031D312F322FC8
:103E6200182F08002000A6002608A500A50DA50D04
:103E720021001D08200025068339250621009D000A
:103E82001D140D30890B432F000021009D149D1835
:103E92004B2F4C2F482F1C082000A40021001B0888
:103EA2002000A300080020302100AD009830AE00B1
:103EB2009D31A8259F312100B101B201903114201A
:103EC2009F3101302100B1070030B23D3208803A03
:103ED200B00080303002031D702F02303102031C0B
:103EE200732F742F5F2F080008302100640203181B
:103EF2007B2F7C2F952F6508303E8600013087008E
:103F0200010823009A000130F00070082100E50743
:103F120008306502031C8E2F8F2F902FE501013090
:103F2200F0007008E407962F111208002000A40088
:103F3200A301240803199E2F9F2FA92F0F1CA22F24
:103F4200A32FA92F8F18A62FA72FA92FA301A30A4A
:103F52002408031DAD2FAE2FB82F0F18B12FB22F8B
:103F6200B82F8F1CB52FB62FB82FA301A30A230891
:103F720008002000A400A30124080319C12FC22FA6
:103F8200CC2F8F1DC52FC62FCC2F0F1AC92FCA2F8A
:103F9200CC2FA301A30A2408031DD02FD12FDB2F7E
:103FA2008F19D42FD52FDB2F0F1ED82FD92FDB2F10
:103FB200A301A30A230808002000A400A3012408E7
:103FC2000319E42FE52FEF2F8F1EE82FE92FEF2F94
:103FD2000F1BEC2FED2FEF2FA301A30A2408031DC3
:103FE200F32FF42FFE2F8F1AF72FF82FFE2F0F1F0C
:103FF200FB2FFC2FFE2FA301A30A23080800413444
:104002005434543445344E345434453420345634C4
:1040120041344C34493444344134543449344F34B7
:104022004E34203442344C345534453454344F34B5
:104032004F34543448340D340A3400344134743427
:10404200743465346E3474346534203476346134B7
:104052006C34693464346134743469346F346E346A
:1040620020346C3465346434203472346F347534E3
:10407200673465340D340A3400342D343E34203430
:10408200543445345334543420344D3441344E3452
:10409200553445344C34203445344E342034433482
:1040A2004F345534523453340D340A3400344134CD
:1040B2005434543445344E34543445342034563414
:1040C20041344C34493444344134543449344F3407
:1040D2004E3420344C344534443453340D340A3491
:1040E20000342D343E342034463449344E342034A6
:1040F200543445345334543420344D3441344E34E2
:10410200553445344C340D340A340034503452346E
:104112004534533453344534523420344F344B34C1
:1041220020344F34553420344534523452344534DB
:1041320055345234003441345434543445344E34BA
:1041420054344534203441344334513455344934A1
:104152005434543445344D3445344E34543400349C
:104162002D343E3420344134703470347534793413
:1041720065347234203473347534723420344F34DD
:104182004B340D340A3400345434453453345434EB
:1041920020345234313420344F34463446342034BF
:1041A2002D3420345234323420344F344E340034DF
:1041B2005434453453345434203452343234203459
:1041C2004F344634463420342D3420345234333480
:1041D20020344F344E3400342D343E3420345434A1
:1041E20045345334543420344134433451345534F7
:1041F20049345434543445340D340A34003454347C
:1042020045345334543420344334413452345434D6
:10421200453420344434393432343534453444342A
:1042220034340034563445345234493446344934F3
:1042320045345234203450343134203445345434EB
:1042420020345034323400345234453453345534EB
:104252004C34543441345434203443344F344E3487
:104262004634493452344D344534003454344534A0
:104272005334543420344E344F344E342034433487
:104282004F344E3446344F3452344D344534003476
:1042920041345434543445344E3454344534203447
:1042A200443445344D344134523452344134473429
:1042B2004534003450344F3453344934543449343F
:1042C2004F344E344E344534523420344334413426
:1042D2005234543445340034543445345334543411
:1042E200203433342034523445344C34413449344C
:1042F200533420344F3446344634003443344C343F
:1043020041345634493445345234203445344334EC
:104312004C3441344934523445343F3400345034FF
:1043220052344534533453344534523420344F34A8
:104332004B3420342F3420344E344F344B34003439
:1043420054344534533454342034333420345234C6
:1043520045344C3441344934533420344F344E3490
:104362000034543445345334543420344C344534BA
:104372004434203443344C34413456344934453483
:104382005234003443344C34413456344934453485
:104392005234203445345434453449344E34543440
:1043A2003F340034543445345334543420344C3480
:1043B2004534443453342034433441345234543435
:1043C2004534003445345234523445345534523431
:1043D2002034563441344C34493444344534453421
:1043E2000034543445345334543420344C3445343A
:1043F2004434203452344F34553447344534003435
:10440200543445345334543420344C3445344434D5
:104412002034563445345234543445340034543400
:1044220045345334543420344C34453444342034E9
:1044320042344C34453455344534003454344534D4
:1044420053345434203442344C3455344534543487
:104452004F344F345434483400344134503450349F
:10446200553459344534523420345334553452344B
:1044720020344F344B3400342D343E342034543401
:1044820045345334543420344F34463446340D3496
:104492000A340034523445345434493452344534A5
:1044A2005234203443344134523454344534003489
:1044B2004C34453444345334203441344C344C3439
:1044C20055344D3445344534533400342D343E3460
:1044D2002034543445345334543420344F344E341D
:1044E2000D340A34003454344534533454342034B3
:1044F20048344F3452344C344F344734453400340A
:1045020054344534533454342034533446344C34C4
:104512004134533448340034463449344E34203420
:104522004434453420345434453453345434003400
:1045320056344F3449345234203441345034503498
:104542004C344934003454344534533454342034D4
:104552005234313420344F344E34003445345434E0
:10456200413450344534203431343034003445340D
:1045720054344134503445342034313432340034EC
:104582005434453453345434203442345034323465
:1045920000344534543441345034453420343134B9
:1045A20033340034453454344134503445342034A7
:1045B2003134343400344534543441345034453485
:1045C2002034313435340034453454344134503499
:1045D2004534203431343634003445345434413493
:1045E2005034453420343134373400344534543473
:1045F2004134503445342034313438340034543466
:1046020045345334543420344F344B34003445341D
:104612005434413450344534203431340034543429
:104622004534533454342034503431340034453416
:104632005434413450344534203432340034543408
:1046420045345334543420345034323400344534F5
:1046520054344134503445342034333400344534F6
:1046620054344134503445342034343400344534E5
:1046720054344134503445342034353400344534D4
:1046820054344134503445342034363400344534C3
:1046920054344134503445342034373400344534B2
:1046A20054344134503445342034383400344534A1
:1046B20054344134503445342034393400342534B0
:0446C2006434003428
:020000040001F9
:08000000FF3FFF3FFF3FFF3F00
:04000E00E43FFF3F8D
:00000001FF
