:1000000080314728053008007E1480310B1F0928F5
:100010000A2845282100111E0E280F281A28200022
:10002000111E132814281A2839088A0038080A00D3
:10003000803145282100911E1E281F282A282000D3
:10004000911E232824282A2837088A0036080A0007
:10005000803145282100921D2E282F283A28200083
:10006000921D332834283A283D088A003C080A00AB
:10007000803145282100911D3E283F284528200039
:10008000911D43284428452834287E1009008031DA
:100090004928883182208031E900FD012030840028
:1000A00000308500263089311B218031A03084004A
:1000B00000308500253089311B2180317E102000E1
:1000C000803162288A31562280318B170B17893193
:1000D0004D2180314E308F31752780312000E7016E
:1000E0005D30D4009030D5009430D6009030D700E9
:1000F0006930D8009130D900D730DA009130DB0078
:100100008E31CF26803115302000E3004B30E200E5
:10011000BE30890B8928E20B8928E30B892800006F
:1001200020000E1C942895289B2822008C17200064
:10013000E601E60A9E28E60122008C135D302000CD
:10014000D4009030D5008230D6009030D700B8303F
:10015000D8009030D9006930DA009130DB008E3160
:10016000CF26803103302000E3000830E2007730F2
:10017000890BB828E20BB828E30BB8288931152180
:1001800080318C315724803120302000D4009230CF
:10019000D500EB30D6009030D700D730D800913062
:1001A000D900D730DA009130DB008E31CF26803194
:1001B0002000E801E80A003089318A2180310030CE
:1001C00089319721803101308931A4218031220089
:1001D0008C1301308931B121803101308931BE2148
:1001E000803103302000E3000830E2007730890BD3
:1001F000F728E20BF728E30BF728013089317D213E
:10020000803129302000E3009630E2007F30890BF6
:100210000729E20B0729E30B072901308B31C8239B
:100220008031003A031915291629292901308B310B
:10023000EB238031003A03191E291F292929013097
:100240008C310E248031003A0319272928292929C5
:1002500043292000E80100308931B121803100308C
:100260008931BE21803120302000DE009230DF0055
:100270006830E2006208E0006730E3006308E100F4
:100280008D31C625803115302000E3004B30E2006F
:10029000BE30890B4929E20B4929E30B49290000AB
:1002A00000308931B121803100308931BE21803167
:1002B0002000680803195D295E29B3293030D40075
:1002C0009230D500A630D6009030D700D730D80075
:1002D0009130D900D730DA009130DB008E31CF2653
:1002E000803100308931B121803100308931BE2127
:1002F00080310B302000E3002630E2005D30890BB6
:100300007F29E20B7F29E30B7F29003201308B31FB
:10031000C8238031003A031D8E298F29A22901307C
:100320008B31EB238031003A031D97299829A229AC
:1003300001308C310E248031003A031DA029A129FF
:10034000A229B3292000E8013030DE009230DF001E
:100350006830E2006208E0006730E3006308E10013
:100360008D31C6258031200068080319B829B929C4
:10037000032A4030D4009230D5002D30D600913081
:10038000D700D730D8009130D900D730DA0091307B
:10039000DB008E31CF26803101308931B1218031AF
:1003A00006302000E3001330E200AD30890BD6297F
:1003B000E20BD629E30BD629003200308931B12176
:1003C0008031200066080319E629E729032A8E31C7
:1003D000042680312000E2006208E7006708031D60
:1003E000F229F329032AE8014030DE009230DF00D1
:1003F0006830E2006208E0006730E3006308E10073
:100400008D31C6258031200068080319082A092A81
:10041000532A4830D4009230D5004B30D60091306A
:10042000D700D730D8009130D900D730DA009130DA
:10043000DB008E31CF26803101308931B12180310E
:1004400006302000E3001330E200AD30890B262A8D
:10045000E20B262AE30B262A003200308931B12133
:100460008031200066080319362A372A532A8E3134
:10047000042680312000E2006208E7006708031DBF
:10048000422A432A532AE8014830DE009230DF0036
:100490006830E2006208E0006730E3006308E100D2
:1004A0008D31C6258031200068080319582A592A41
:1004B000A32A5030D4009230D5003C30D600913081
:1004C000D700D730D8009130D900D730DA0091303A
:1004D000DB008E31CF26803101308931B12180316E
:1004E00006302000E3001330E200AD30890B762A9D
:1004F000E20B762AE30B762A003200308931B121F3
:100500008031200066080319862A872AA32A8E31A3
:10051000042680312000E2006208E7006708031D1E
:10052000922A932AA32AE8015030DE009230DF009D
:100530006830E2006208E0006730E3006308E10031
:100540008D31C6258031200068080319A82AA92A00
:10055000F92A5830D4009230D500C430D6009130FA
:10056000D700D730D8009130D900D730DA00913099
:10057000DB008E31CF26803101308931B1218031CD
:1005800015302000E3004B30E200BE30890BC62A54
:10059000E20BC62AE30BC62A000000308931B121E4
:1005A000803115302000E3004B30E200BE30890B73
:1005B000D72AE20BD72AE30BD72A000001308B3170
:1005C000C8238031003A0319E62AE72AE82AF92AE3
:1005D0002000E8015830DE009230DF006830E20091
:1005E0006208E0006730E3006308E1008D31C62552
:1005F0008031200068080319FE2AFF2A582B60303A
:10060000D4009230D5003530D6009030D700D730A6
:10061000D8009130D900D730DA009130DB008E312C
:10062000CF26803101308931B12180311530200051
:10063000E3004B30E200BE30890B1C2BE20B1C2B7D
:10064000E30B1C2B000000308931B12180311530C3
:100650002000E3004B30E200BE30890B2D2BE20B73
:100660002D2BE30B2D2B000000308B31C823803164
:10067000003A03193C2B3D2B472B01308B31EB23E8
:100680008031003A0319452B462B472B582B20006D
:10069000E8016030DE009230DF006830E20062087E
:1006A000E0006730E3006308E1008D31C62580314A
:1006B0002000680803195D2B5E2BB72B6830D4002F
:1006C0009230D5004930D6009030D700D730D800CE
:1006D0009130D900D730DA009130DB008E31CF264F
:1006E000803101308931B121803115302000E300A3
:1006F0004B30E200BE30890B7B2BE20B7B2BE30BF4
:100700007B2B000000308931B12180311530200071
:10071000E3004B30E200BE30890B8C2BE20B8C2BBC
:10072000E30B8C2B000000308B31EB238031003A3F
:1007300003199B2B9C2BA62B01308C310E2480316E
:10074000003A0319A42BA52BA62BB72B2000E801F8
:100750006830DE009230DF006830E2006208E000BE
:100760006730E3006308E1008D31C6258031200049
:1007700068080319BC2BBD2B292C7030D400923093
:10078000D500FC30D6009030D700C930D80090306A
:10079000D900D730DA009130DB008E31CF2680319E
:1007A00001308931B121803106302000E30013305F
:1007B000E200AD30890BDA2BE20BDA2BE30BDA2BFC
:1007C000003200308931B12180310B302000E3004C
:1007D0002630E2005D30890BEB2BE20BEB2BE30BB9
:1007E000EB2B00320C308B318523803120004A08FE
:1007F000E5004908E4006508803AE20081306202C1
:10080000031D042CE03064020318072C082C0B2C69
:1008100022008C171D2C70302000DE009230DF008B
:100820006830E2006208E0006730E3006308E1003E
:100830008D31C625803122008C1329302000E30041
:100840009630E2007F30890B232CE20B232CE30B44
:10085000232C2000680803192E2C2F2C9B2CCF3022
:10086000D4009130D500FC30D6009030D7000D3048
:10087000D8009130D900D730DA009130DB008E31CA
:10088000CF26803101308931B121803106302000FE
:10089000E3001330E200AD30890B4C2CE20B4C2C02
:1008A000E30B4C2C003200308931B12180310B3008
:1008B0002000E3002630E2005D30890B5D2CE20B66
:1008C0005D2CE30B5D2C00320C308B3185238031A5
:1008D00020004A08E5004908E4006508803AE20083
:1008E00081306202031D762CE1306402031C792CF6
:1008F0007A2C7D2C22008C138F2CCF302000DE0030
:100900009130DF006830E2006208E0006730E30009
:100910006308E1008D31C625803122008C17293013
:100920002000E3009630E2007F30890B952CE20B2B
:10093000952CE30B952C200068080319A02CA12C02
:10094000502DD830D4009130D500A130D600913050
:10095000D700D730D8009130D900D730DA009130A5
:10096000DB008E31CF2680310B302000E3002630B3
:10097000E2005D30890BBA2CE20BBA2CE30BBA2CE7
:10098000003201308931B121803106302000E3008E
:100990001330E200AD30890BCB2CE20BCB2CE30BF8
:1009A000CB2C003200308931B12180313D30200024
:1009B000E300E130E2003F30890BDC2CE20BDC2C61
:1009C000E30BDC2C003201308931B121803106305B
:1009D0002000E3001330E200AD30890BED2CE20B78
:1009E000ED2CE30BED2C003200308931B121803148
:1009F00010302000E3003930E2000D30890BFE2C6E
:100A0000E20BFE2CE30BFE2C003201308B31C823AD
:100A10008031003A03190D2D0E2D212D01308B311F
:100A2000EB238031003A0319162D172D212D0030AC
:100A30008C310E248031003A03191F2D202D212DD9
:100A40003B2D2000E80100308931B1218031003098
:100A50008931BE218031D8302000DE009130DF00A6
:100A60006830E2006208E0006730E3006308E100FC
:100A70008D31C625803115302000E3004B30E20077
:100A8000BE30890B412DE20B412DE30B412D0000BF
:100A900000308931B121803100308931BE2180316F
:100AA000200068080319552D562D9A2DEA30D400E0
:100AB0009130D5001D30D6009130D7008630D80057
:100AC0009130D900DA30DA009030DB008E31CF2659
:100AD000803101308931B121803106302000E300BE
:100AE0001330E200AD30890B732DE20B732DE30B55
:100AF000732D003200308931B12180318E310426CE
:100B000080312000E2006208E7006708031D892D9C
:100B10008A2D9A2DE801EA30DE009130DF0068303E
:100B2000E2006208E0006730E3006308E1008D3115
:100B3000C62580312000680803199F2DA02D022EA4
:100B4000F330D4009130D500E130D6009130D70099
:100B5000D730D8009130D900D730DA009130DB009F
:100B60008E31CF26803101308931BE21803106306F
:100B70002000E3001330E200AD30890BBD2DE20B05
:100B8000BD2DE30BBD2D003200308931BE218031F7
:100B90000B302000E3002630E2005D30890BCE2DC3
:100BA000E20BCE2DE30BCE2D003201308B31C8236A
:100BB0008031003A0319DD2DDE2DF12D01308B310E
:100BC000EB238031003A0319E62DE72DF12D01309A
:100BD0008C310E248031003A0319EF2DF02DF12DC8
:100BE000022E2000E801F330DE009130DF00683093
:100BF000E2006208E0006730E3006308E1008D3145
:100C0000C6258031200068080319072E082E6A2E99
:100C1000FC30D4009130D5009430D6009130D7000C
:100C2000D730D8009130D900D730DA009130DB00CE
:100C30008E31CF26803101308931E5218031063077
:100C40002000E3001330E200AD30890B252EE20BCB
:100C5000252EE30B252E003200308931E52180312D
:100C60000B302000E3002630E2005D30890B362E89
:100C7000E20B362EE30B362E003200308B31C823C8
:100C80008031003A0319452E462E592E00308B3103
:100C9000EB238031003A03194E2E4F2E592E00308F
:100CA0008C310E248031003A0319572E582E592EBC
:100CB0006A2E2000E801FC30DE009130DF00683051
:100CC000E2006208E0006730E3006308E1008D3174
:100CD000C62580312000680803196F2E702ED22E91
:100CE0000530D4009230D5002830D6009230D7009D
:100CF000D730D8009130D900D730DA009130DB00FE
:100D00008E31CF26803101308931CB2180311930AD
:100D10002000E3005A30E200B130890B8D2EE20B47
:100D20008D2EE30B8D2E003200308931CB218031A6
:100D30000B302000E3002630E2005D30890B9E2E50
:100D4000E20B9E2EE30B9E2E003201308B31C82326
:100D50008031003A0319AD2EAE2EC12E01308B31F9
:100D6000EB238031003A0319B62EB72EC12E013085
:100D70008C310E248031003A0319BF2EC02EC12EB3
:100D8000D22E2000E8010530DE009230DF0068300E
:100D9000E2006208E0006730E3006308E1008D31A3
:100DA000C6258031200068080319D72ED82E3A2F87
:100DB0000E30D4009230D5003830D6009230D700B3
:100DC000D730D8009130D900D730DA009130DB002D
:100DD0008E31CF26803101308931D82180311930D0
:100DE0002000E3005A30E200B130890BF52EE20B0F
:100DF000F52EE30BF52E003200308931D8218031F9
:100E00000B302000E3002630E2005D30890B062F16
:100E1000E20B062FE30B062F003200308B31C82384
:100E20008031003A0319152F162F292F00308B31EE
:100E3000EB238031003A03191E2F1F2F292F00307A
:100E40008C310E248031003A0319272F282F292FA7
:100E50003A2F2000E8010E30DE009230DF006830CB
:100E6000E2006208E0006730E3006308E1008D31D2
:100E7000C62580312000680803193F2F402F722FAC
:100E80001730D4009230D5005A30D6009130D700B8
:100E9000B930D8009130D900DA30DA009030DB0078
:100EA0008E31CF2680318B31472380318E3104261D
:100EB00080312000E2006208E7006708031D612F0F
:100EC000622F722FE8011730DE009230DF006830A9
:100ED000E2006208E0006730E3006308E1008D3162
:100EE000C6258031200068080319772F782F9028B5
:100EF000AD30D4009130D5007930D6009030D70095
:100F00007830D8009130D9002030DA009030DB0002
:100F10008E31CF268031013089318A2180310030F5
:100F200089317D2180318831AF208031893115218F
:100F3000803167302000E2006208CA0068308C31DE
:100F40007D24803129302000E3009630E2007F309C
:100F5000890BA82FE20BA82FE30BA82F9028803134
:100F600047282000CE01CF012000D001D1018C31D3
:100F7000D42487310B302000CD002630CC005D30EA
:100F8000890BC02FCC0BC02FCD0BC02F00320130EE
:100F90002000D0070030D13D5108803ACC0080308D
:100FA0004C02031DD52F04305002031CD82FD92F1B
:100FB000B72F0B302000CD002630CC005D30890BE0
:100FC000DF2FCC0BDF2FCD0BDF2F003201302000C5
:100FD000CE070030CF3D4F08803ACC0080304C0225
:100FE000031DF42F04304E02031CF72FF82FB42FEB
:100FF000080021003C1088318B2087310430080024
:101102000800083401300800240096140800240066
:10111200161508002400961508002400110808007E
:101122002000911508002000911108008A31D82270
:101132008831080023001D121D160800240096168F
:101142001616080024009612161608008D31002586
:101152008831080016302100970008008C3157248E
:1011620088310800F0007008240091000800210076
:10117200BC10BB010E300800883185208831013057
:1011820008008831852088310230080088318520A6
:101192008831013008008831882088310030080009
:1011A2008831A32088310530080088319F2088319A
:1011B2000A30080088319F20883109300800210058
:1011C200BC10BB010E3008002400160E890C890CDD
:1011D2000139080089315821883124001614080089
:1011E20089315821883124001615080020004A0848
:1011F200B1004908B000080020004A08B5004908BB
:10120200B400080020004A08B3004908B2000800F0
:1012120020004A08B7004908B600080020004A0822
:10122200B9004908B800080020000F1919291A2925
:1012320015290800640080010131890B1C29003442
:1012420021003C1436358831B3208931033008003F
:10125200F03021009E009B019C0101309D0008009E
:1012620021003C140314360D8831B3208931053036
:10127200080001308A31932289313530890B3F29A8
:1012820000000800C0302400940008309500960148
:101292004F309200951208002830240095009601E4
:1012A20094012730920021008E150E1608002400AA
:1012B20014195C295D29582916081F39031D622952
:1012C20063295829080070302100990098012200F2
:1012D200960121001A1F6E296F296A2908007608D3
:1012E200F1007508F0007708F8007808F200003085
:1012F2008C313124893108002000C90049080319C2
:1013020083298429872922000C14892922000C10A0
:1013120008002000C900490803199029912994293D
:101322002200101496292200101008002000C90083
:10133200490803199D299E29A12922009014A32955
:101342002200901008002000C90049080319AA29A8
:10135200AB29AE2922001015B02922001011080075
:101362002000C90049080319B729B829BB2922005E
:101372008C14BD2922008C1008002000C9004908E5
:101382000319C429C529C82922000C15CA2922001B
:101392000C1108002000C90049080319D129D229DB
:1013A200D52922000C16D72922000C120800200091
:1013B200C90049080319DE29DF29E22922008C1617
:1013C200E42922008C1208002000C90049080319F0
:1013D200EB29EC29EF2922008C15F12922008C112E
:1013E2000800F3002100BC1DF729F829012A73081F
:1013F200F2007208B7007108B9007008B800BC1199
:1014020008002000C900893158218A31200049088A
:10141200240091002000911D0F2A102A0B2A9111FD
:1014220008000230F0000030F10079088931F22121
:101432008A310030F500F600F701893170218A31D6
:10144200043008000130F0000030F10079088931E1
:10145200F2218A310030F500F600F701893170215E
:101462008A31023008000230F0000030F1007908C1
:101472008931F2218A310030F500F600F701893115
:1014820070218A31023008000130F0000030F10092
:1014920079088931F2218A310030F500F600F7012E
:1014A200893170218A3104300800893143218A311F
:1014B2008B3128238A31893164218A318831AB20EA
:1014C2008A31893129218A318E3144268A310800B4
:1014D2002000CA008831EB208A3120003E088A3180
:1014E20002228A3120004A0869048A3102228A31A2
:1014F2008831F1208A3108002000CC003F08CB005F
:101502004B08CC044C0804388A3169228A31200005
:101512004C08FB398A3169228A314230890B8F2A81
:10152200003208002000CE00BF014E08F0398A3197
:101532007D228A3120004E08CD000330CD35FF3E9A
:10154200031D9F2A4D35F0398A317D228A310800E8
:101552002000CE00BF01BF0A4E08F0398A317D2239
:101562008A3120004E08CD000330CD35FF3E031DE9
:10157200B62A4D35F0398A317D228A310800790840
:1015820086008701403FF000413FF1007908023EAA
:101592008600870101088931F2218A310030F50085
:1015A200F600F701893170218A31023008002300E8
:1015B2001908F00020004208BD3E8600870170082D
:1015C20081000130F0007008C20708304202031C9B
:1015D200EB2AEC2AED2AC2010130F0007008C107A3
:1015E20008002000CA00C9014A080319F92AFA2A88
:1015F200002B8F1BFD2AFE2A002BC901C90A4A08AB
:10160200031D042B052B0B2B8F1F082B092B0B2BD8
:10161200C901C90A490808002000CA00C9014A08CC
:101622000319142B152B1B2B0F19182B192B1B2BE2
:10163200C901C90A4A08031D1F2B202B262B0F1D87
:10164200232B242B262BC901C90A49080800220092
:1016520090018F018C018D018E01083021009000D4
:101662008C01EF308D00BF308E00FF308F002300E1
:101672008F013F308D0090013C308C00240090019E
:101682008D012100951722009D01080022000C17F0
:1016920006302000CA001330C900AD30890B4F2B31
:1016A200C90B4F2BCA0B4F2B003222000C130630F2
:1016B2002000CA001330C900AD30890B5E2BC90B64
:1016C2005E2BCA0B5E2B003208002000D201D30130
:1016D200792B4F08520784005008533D85000008BB
:1016E2008A31A9228B3101302000D2070030D33D4C
:1016F2004F08520784005008533D85001200031D15
:10170200832B842B6A2B08002000CC004C08CB00D2
:10171200CB0DCB0D21001D0820004B0683394B0653
:1017220021009D001D140D30890B952B0000210016
:101732009D149D189D2B9E2B9A2B1C082000CA00DD
:1017420021001B082000C9000800083020004302C5
:101752000318AC2BAD2BC52B4408283E860087010D
:10176200010823009A000130F00070082000C4072D
:1017720008304402031CBE2BBF2BC02BC401013016
:10178200F0007008C307C72B2100111208002000C7
:10179200CA00C9014A080319CF2BD02BDA2B0F1C20
:1017A200D32BD42BDA2B8F18D72BD82BDA2BC901BA
:1017B200C90A4A08031DDE2BDF2BE92B0F18E22B87
:1017C200E32BE92B8F1CE62BE72BE92BC901C90A76
:1017D200490808002000CA00C9014A080319F22B6F
:1017E200F32BFD2B8F1DF62BF72BFD2B0F1AFA2B4C
:1017F200FB2BFD2BC901C90A4A08031D012C022C2F
:101802000C2C8F19052C062C0C2C0F1E092C0A2CC3
:101812000C2CC901C90A490808002000CA00C901E4
:101822004A080319152C162C202C8F1E192C1A2C41
:10183200202C0F1B1D2C1E2C202CC901C90A4A0862
:10184200031D242C252C2F2C8F1A282C292C2F2CCD
:101852000F1F2C2C2D2C2F2CC901C90A4908080056
:10186200F400700871040319372C382C492C743594
:10187200A03E860087017008C03F7108C13F720810
:10188200F3007408AC3E8600870173088100562C71
:101892007435A03E860087018330C03F0830C13FC7
:1018A2007408AC3E86008701810108002000CE0149
:1018B200CF018C31D4248C310B302000CD00263066
:1018C200CC005D30890B632CCC0B632CCD0B632CCD
:1018D200003201302000CE070030CF3D4F08803A61
:1018E200CC0080304C02031D782C04304E02031CC5
:1018F2007B2C7C2C5A2C08002000CB004B08860045
:10190200870181014A0886008701810100308931FF
:101912008A218C310030893197218C310030893114
:10192200A4218C31003089317D218C310030893104
:10193200B1218C3100308931BE218C3100308931A6
:10194200CB218C3100308931D8218C310800210023
:101952003C100230FA007A08BB00B72C8831C7204D
:101962008C31D32C8831CC208C31D32C2E08FA0028
:101972007A08F9000430A03E86008701413F8A00C0
:10198200403F0A008C31FB00FC017C08003A03193D
:10199200CB2CB32C7B08023A0319AF2C013A031962
:1019A200AF2CB32C08002000CA01CB0122000D1677
:1019B20006302000C9003030890BDD2CC90BDD2C2C
:1019C200000022000D1206302000C9003030890BC1
:1019D200E82CC90BE82C000001302000CA070030B7
:1019E200CB3D4B08803AC90080304902031DFB2CD5
:1019F20032304A02031CFE2CFF2CD72C08008831FF
:101A020094208D3121003C1C072D082D162D883184
:101A1200E5208D31003A03190F2D102D162D0F30B0
:101A22002000C60046082100BA0021003A08200022
:101A3200C600C701C635C70D003046078400903086
:101A4200473D8500013F8A00003F0A008D3120009A
:101A5200C80048082100BA0008002100BC153E2D2C
:101A62008831C7208D315C2D883191208D31033032
:101A72005C2D8831CC208D315C2D2C08FA007A083F
:101A8200F90021088A0020080A008D31FB00FC01C0
:101A92007C08003A03194E2D3A2D7B08013A0319AE
:101AA2003A2D033A0319312D013A0319312D073A20
:101AB2000319352D3A2D08002000D200782D4F0849
:101AC200BF3E8A3193228D318B2D4F08933E8A314E
:101AD20093228D318B2D4F08D33E8A3193228D3143
:101AE2008B2D4F087F3E8A3193228D318B2D5208E8
:101AF200D000D1015108003A0319802D722D5008EF
:101B0200023A0319602D013A0319662D073A0319A7
:101B12006C2D722D080020004208203E86008701AD
:101B2200810123001D1D962D972DA22D2000420814
:101B3200203E86008701811435088A0034080A0095
:101B42008D3123009D1CA62DA72DB22D2000420809
:101B5200203E86008701011533088A0032080A00F8
:101B62008D3120004208203E8600870101080319BA
:101B7200BB2DBC2DC22D31088A0030080A008D31E0
:101B8200C52D8A31D8228D31080001308931972143
:101B92008D3100308931A4218D31003089318A2183
:101BA2008D3120005F08D5005E08D4007030D60069
:101BB2009030D7002030D8009030D900D730DA00EA
:101BC2009130DB008E31CF268D318731B1278D31B7
:101BD200003089317D218D3120000F19F12DF22D38
:101BE200ED2D0F1DF52DF62DF22D003089319721A7
:101BF2008D3120006008860087018101610886001E
:101C02008701810108002000CB0100308B310D23B8
:101C12008E31003A03190E2E0F2E182E00308A3103
:101C2200F2228E31003A031D172E182E062E013095
:101C32008A31F2228E31003A0319202E212E232ED0
:101C42002000CB0101308B310D238E31003A031974
:101C52002B2E2C2E2F2E2000CB01CB0A01308B31C4
:101C62000D238E31003A031D372E382E2F2E0130D0
:101C72008A31F2228E31003A031D402E412E2F2E40
:101C820020004B080800210091128C302000C9006E
:101C92000D30CA00893109218E3121001112A6307E
:101CA2002000C9000B30CA0089310F218E31083063
:101CB20023009F0090309D0024309E0040309B0006
:101CC20003309C0081302000C9000830CA008831EE
:101CD200FD208E319B302000C9000830CA008931B6
:101CE20003218E3197302000C9000830CA008831A4
:101CF200F7208E312000C001C501C4010830CB009D
:101D02004B08C300C201FD01C10121009116080068
:101D120088318E208E31FA00210037088600870133
:101D22007A0881000130FA007A08B7070130B80258
:101D32000030B93B380839040319A02EA12EA62E73
:101D42008831A3208E310530CE2EBC15B02E8831BD
:101D5200DB208E31CE2E8831D6208E31CE2E2C082D
:101D6200FA007A08F90021088A0020080A008E3158
:101D7200FB00FC017C08003A0319C02EAC2E7B0844
:101D8200013A0319AC2E033A0319A82E013A03199A
:101D9200A82E073A0319AC2EAC2E080089313A213D
:101DA2008E3106308A3193228E3102302000DD00DE
:101DB2000430DC00BA30890BDC2EDC0BDC2EDD0BB0
:101DC200DC2E00002000CF01CF0A01308D315D25CD
:101DD2008E3120005508D0005408CF008B31662385
:101DE2008E312000CF01CF0A02308D315D258E3138
:101DF20020005708D0005608CF008B3166238E3161
:101E02002000CF01CF0A03308D315D258E312000B5
:101E12005908D0005808CF008B3166238E3120003C
:101E2200CF01CF0A04308D315D258E3120005B0851
:101E3200D0005A08CF008B3166238E3108008831DA
:101E4200E5208F31003A0319272F282F582F352FDD
:101E52008831BD208F31742F8831C2208F31742F89
:101E62008831CC208F31742F21002F08FA007A0894
:101E7200F9000630A03E86008701413F8A00403FBC
:101E82000A008F31FB00FC017C08003A03194A2F3B
:101E9200312F7B08013A0319312F033A0319292FF5
:101EA200013A03192D2F073A0319312F312F21003F
:101EB2003C101730A03E86008701403F8400850118
:101EC200810A00088831B3208F3101302100B80225
:101ED2000030B93B38083904031D702F712F732F5E
:101EE2000630742F033008002000D1005108CF00C3
:101EF2004F08BE0000308A3169228F319C302000A9
:101F0200CF00D730890B832FCF0B832F03308A3139
:101F120093228F311A302000CF00F830890B8F2F97
:101F2200CF0B8F2F000003308A3193228F311A306A
:101F32002000CF00F830890B9C2FCF0B9C2F000084
:101F420003308A3193228F311A302000CF00F830CB
:101F5200890BA92FCF0BA92F000002308A319322BF
:101F62008F311A302000CF00F830890BB62FCF0BFB
:101F7200B62F000028308A3193228F3102302000A0
:101F8200D0000430CF00BA30890BC52FCF0BC52F3C
:101F9200D00BC52F00000C308A3193228F310230D2
:101FA2002000D0000430CF00BA30890BD62FCF0BDF
:101FB200D62FD00BD62F000001308A3193228F31D9
:101FC20002302000D0000430CF00BA30890BE72F56
:101FD200CF0BE72FD00BE72F000006308A31932278
:101FE2008F3102302000D0000430CF00BA30890B8C
:101FF200F82FCF0BF82FD00BF82F00000800B834C1
:102002000834313409342134093420340F3489340A
:102012000E34F93407342E340D34BD340834C2344E
:102022000834C7340834CC340834D1340834D634B4
:102032000834DB340834E0340834A8340C34413436
:102042005434543445344E345434453420344134B9
:1020520043345134553449345434543445344D3472
:1020620045344E34543400345434453453345434A7
:1020720020345234313420344F3446344634203400
:102082002D3420345234323420344F344E34003420
:10209200543445345334543420345234323420349A
:1020A2004F344634463420342D34203452343334C1
:1020B20020344F344E340034543445345334543481
:1020C200203443344134523454344534203444347B
:1020D20039343234353445344434343400345434AD
:1020E20045345334543420344E344F344E34203437
:1020F20043344F344E3446344F3452344D344534E5
:10210200003441345434543445344E345434453418
:102112002034443445344D34413452345234413401
:1021220047344534003450344F34533449345434F2
:1021320049344F344E344E344534523420344334CF
:1021420041345234543445340034543445345334D5
:102152005434203433342034523445344C344134F2
:102162004934533420344F344634463400345234E4
:102172004534543449345234453452342034503482
:1021820031342034653474342034503432340034E1
:1021920043344C3441345634493445345234203477
:1021A200453443344C3441344934523445343F3459
:1021B2000034503452344534533453344534523459
:1021C20020344F344B3420342F3420344E344F34A7
:1021D2004B3400345434453453345434203433347F
:1021E2002034523445344C3441344934533420344D
:1021F2004F344E3400345434453453345434203440
:102202004C3445344434203443344C344134563411
:10221200493445345234003443344C344134563416
:1022220049344534523420344534543445344934E5
:102232004E3454343F3400345434453453345434DB
:1022420020344C3445344434533420344334413400
:1022520052345434453400345434453453345434B1
:1022620020344C3445344434203452344F345534C1
:1022720047344534003454344534533454342034D0
:102282004C34453444342034563445345234543476
:1022920045340034543445345334543420344C34AB
:1022A20045344434203442344C3445345534453476
:1022B20000345434453453345434203442344C348E
:1022C2005534453454344F344F3454344834003444
:1022D2004134503450345534593445345234203416
:1022E20053345534523420344F344B340034523446
:1022F200453454344934523445345234203443340E
:10230200413452345434453400344C34453444342A
:102312005334203441344C344C3455344D344534E8
:102322004534533400345434453453345434203413
:1023320048344F3452344C344F34473445340034EB
:1023420054344534533454342034533446344C34A6
:102352004134533448340034463449344E34203402
:1023620044344534203454344534533454340034E2
:1023720056344F344934523420344134503450347A
:102382004C344934003454344534533454342034B6
:102392005234313420344F344E34003445345434C2
:1023A20041345034453420343134303400344534EF
:1023B20054344134503445342034313432340034CE
:1023C2005434453453345434203442345034323447
:1023D200003445345434413450344534203431349B
:1023E2003334003445345434413450344534203489
:1023F2003134343400344534543441345034453467
:10240200203431343534003445345434413450347A
:102412004534203431343634003445345434413474
:102422005034453420343134373400344534543454
:102432004134503445342034313438340034453456
:10244200543441345034453420343134003454341B
:102452004534533454342034503431340034453408
:1024620054344134503445342034323400345434FA
:1024720045345334543420345034323400344534E7
:1024820054344134503445342034333400344534E8
:1024920054344134503445342034343400344534D7
:1024A20054344134503445342034353400344534C6
:1024B20054344134503445342034363400344534B5
:1024C20054344134503445342034373400344534A4
:1024D2005434413450344534203438340034453493
:0E24E2005434413450344534203439340034FD
:020000040001F9
:08000000FF3FFF3FFF3FFF3F00
:04000E00E43FFF3F8D
:00000001FF
