:1000000080314A28053008007E1480310B1F0928F2
:100010000A2848282100111E0E280F281B2820001E
:10002000111E132814281B2821005E088A005D0871
:100030000A00803148282100911E1F2820282C28E2
:100040002000911E242825282C2821005C088A00E5
:100050005B080A00803148282100921D3028312891
:100060003D282000921D352836283D2821006208B1
:100070008A0061080A00803148282100911D41282A
:10008000422848282000911D46284728482836281D
:100090007E10090080314C2821009431CE2480311B
:1000A000E400C3308400973085004830860001307A
:1000B00087001E308731FA278031FD0151308400DE
:1000C00000308500073095313F258031A030840015
:1000D00000308500443095313F2580312030840048
:1000E00001308500283095313F2580317E10200079
:1000F00080317A289631BD2680318B170B179531C8
:10010000A22580314E308E31C92680312000D001A9
:10011000CF01CE019930AE009830AF00D030B000A2
:100120009830B100A530B2009930B3009830B400D7
:100130009830B5008C318224803115302000CA00FF
:100140004B30C900BE30890BA328C90BA328CA0BAA
:10015000A328000020000E1CAE28AF28B5282200DE
:100160008C172000CD01CD0AB828CD0122008C13B8
:1001700099302000AE009830AF00BE30B00098300B
:10018000B100F430B2009830B300A530B40099301B
:10019000B5008C318224803103302000CA00083041
:1001A000C9007730890BD228C90BD228CA0BD228B4
:1001B00050302000C9004908C3004E308C31D32490
:1001C000803189315D21803177302000AE009A3056
:1001D000AF002730B0009930B1009830B2009830AD
:1001E000B3009830B4009830B5008C31822480314F
:1001F0002000D001D00A00309531DF258031003059
:100200009531EC25803101309531F925803122007E
:100210008C13013096310626803101309631132639
:10022000803103302000CA000830C9007730890BC4
:100230001729C90B1729CA0B172901309531D22567
:10024000803129302000CA009630C9007F30890BE8
:100250002729C90B2729CA0B272901308831CE202D
:100260008031003A0319352936294929013088316E
:10027000F1208031003A03193E293F2949290130F4
:10028000893114218031003A031947294829492925
:1002900063292000D00100309631062680310030DD
:1002A00096311326803177302000C3009A30C40085
:1002B0005030C9004908C5004F30CA004A08C6007E
:1002C0008E314F26803115302000CA004B30C900D6
:1002D000BE30890B6929C90B6929CA0B692900003D
:1002E0000030963106268031003096311326803159
:1002F0002000500803197D297E29D3298730AE00BC
:100300009A30AF00E230B0009830B1009830B200BF
:100310009830B3009830B4009830B5008C31822406
:100320008031003096310626803100309631132618
:1003300080310B302000CA002630C9005D30890BA7
:100340009F29C90B9F29CA0B9F2900320130883190
:10035000CE208031003A031DAE29AF29C2290130D9
:100360008831F1208031003A031DB729B829C2290C
:100370000130893114218031003A031DC029C1297F
:10038000C229D3292000D0018730C3009A30C4008D
:100390005030C9004908C5004F30CA004A08C6009D
:1003A0008E314F268031200050080319D829D929D1
:1003B0002C2A9730AE009A30AF006930B0009930E7
:1003C000B1009830B2009830B3009830B400983043
:1003D000B5008C318224803101309631062680317F
:1003E00006302000CA001330C900AD30890BF62951
:1003F000C90BF629CA0BF6290032003096310626C1
:10040000803120004D080319062A072A2C2A69305A
:10041000BF009030C0009631AB26803120004E08DE
:100420008D31D72580312000C9004908CF004F0801
:10043000031D1B2A1C2A2C2AD0019730C3009A3096
:10044000C4005030C9004908C5004F30CA004A08EE
:10045000C6008E314F268031200050080319312A02
:10046000322A7D2A9F30AE009A30AF008730B0002C
:100470009930B1009830B2009830B3009830B40091
:100480009830B5008C3182248031013096310626B7
:10049000803106302000CA001330C900AD30890B0E
:1004A0004F2AC90B4F2ACA0B4F2A0032003096310F
:1004B0000626803120004D0803195F2A602A7D2A14
:1004C0004E088D31D72580312000C9004908CF0062
:1004D0004F08031D6C2A6D2A7D2AD0019F30C3006E
:1004E0009A30C4005030C9004908C5004F30CA00D6
:1004F0004A08C6008E314F2680312000500803196B
:10050000822A832ACE2AA730AE009A30AF007830F4
:10051000B0009930B1009830B2009830B3009830F4
:10052000B4009830B5008C3182248031013096318E
:100530000626803106302000CA001330C900AD30D5
:10054000890BA02AC90BA02ACA0BA02A00320030AE
:1005500096310626803120004D080319B02AB12AB1
:10056000CE2A4E088D31D72580312000C900490898
:10057000CF004F08031DBD2ABE2ACE2AD001A730C6
:10058000C3009A30C4005030C9004908C5004F303C
:10059000CA004A08C6008E314F268031200050081C
:1005A0000319D32AD42A242BAF30AE009A30AF00DF
:1005B0001B30B0009A30B1009830B2009830B300D0
:1005C0009830B4009830B5008C31822480310130ED
:1005D00096310626803115302000CA004B30C90004
:1005E000BE30890BF12AC90BF12ACA0BF12A00008F
:1005F000003096310626803115302000CA004B307D
:10060000C900BE30890B022BC90B022BCA0B022B6F
:10061000000001308831CE208031003A0319112BBF
:10062000122B132B242B2000D001AF30C3009A30A3
:10063000C4005030C9004908C5004F30CA004A08FC
:10064000C6008E314F268031200050080319292B17
:100650002A2B832BB730AE009A30AF005E30B0004B
:100660009830B1009830B2009830B3009830B400A0
:100670009830B5008C3182248031013096310626C5
:10068000803115302000CA004B30C900BE30890BC4
:10069000472BC90B472BCA0B472B00000030963164
:1006A0000626803115302000CA004B30C900BE300C
:1006B000890B582BC90B582BCA0B582B0000003044
:1006C0008831CE208031003A0319672B682B722BBA
:1006D00001308831F1208031003A0319702B712BE1
:1006E000722B832B2000D001B730C3009A30C40096
:1006F0005030C9004908C5004F30CA004A08C6003A
:100700008E314F268031200050080319882B892B09
:10071000E22BBF30AE009A30AF007230B00098309C
:10072000B1009830B2009830B3009830B4009830DF
:10073000B5008C318224803101309631062680311B
:1007400015302000CA004B30C900BE30890BA62BE3
:10075000C90BA62BCA0BA62B00000030963106262B
:10076000803115302000CA004B30C900BE30890BE3
:10077000B72BC90BB72BCA0BB72B00000030883141
:10078000F1208031003A0319C62BC72BD12B013041
:10079000893114218031003A0319CF2BD02BD12B72
:1007A000E22B2000D001BF30C3009A30C40050308B
:1007B000C9004908C5004F30CA004A08C6008E313A
:1007C0004F268031200050080319E72BE82B542CCA
:1007D000C730AE009A30AF003830B0009930B10069
:1007E0000530B2009930B3009830B4009830B500AD
:1007F0008C318224803101309631062680310630DA
:100800002000CA001330C900AD30890B052CC90B7C
:10081000052CCA0B052C003200309631062680319B
:100820000B302000CA002630C9005D30890B162C21
:10083000C90B162CCA0B162C00320C3088314820FC
:10084000803120002408CC002308CB004C08803ADB
:10085000C90081304902031D2F2CE0304B020318E0
:10086000322C332C362C22008C17482CC730200019
:10087000C3009A30C4005030C9004908C5004F3049
:10088000CA004A08C6008E314F26803122008C13E0
:1008900029302000CA009630C9007F30890B4E2CC9
:1008A000C90B4E2CCA0B4E2C200050080319592C92
:1008B0005A2CC62C2630AE009A30AF003830B0002B
:1008C0009930B1004930B2009930B3009830B4008B
:1008D0009830B5008C318224803101309631062663
:1008E000803106302000CA001330C900AD30890BBA
:1008F000772CC90B772CCA0B772C0032003096313D
:10090000062680310B302000CA002630C9005D3039
:10091000890B882CC90B882CCA0B882C00320C3010
:1009200088314820803120002408CC002308CB00E7
:100930004C08803AC90081304902031DA12CE130E6
:100940004B02031CA42CA52CA82C22008C13BA2C1F
:1009500026302000C3009A30C4005030C900490836
:10096000C5004F30CA004A08C6008E314F2680317C
:1009700022008C1729302000CA009630C9007F3031
:10098000890BC02CC90BC02CCA0BC02C20005008EE
:100990000319CB2CCC2C7B2D2F30AE009A30AF001E
:1009A000F830B0009930B1009830B2009830B30000
:1009B0009830B4009830B5008C31822480310B30EF
:1009C0002000CA002630C9005D30890BE52CC90B18
:1009D000E52CCA0BE52C0032013096310626803119
:1009E00006302000CA001330C900AD30890BF62C48
:1009F000C90BF62CCA0BF62C0032003096310626B5
:100A000080313D302000CA00E130C9003F30890B01
:100A1000072DC90B072DCA0B072D00320130963167
:100A20000626803106302000CA001330C900AD30E0
:100A3000890B182DC90B182DCA0B182D0032003048
:100A400096310626803110302000CA003930C900A6
:100A50000D30890B292DC90B292DCA0B292D0032E8
:100A600001308831CE208031003A0319382D392DDC
:100A70004C2D01308831F1208031003A0319412D8D
:100A8000422D4C2D0030893114218031003A031958
:100A90004A2D4B2D4C2D662D2000D0010030963173
:100AA0000626803100309631132680312F30200009
:100AB000C3009A30C4005030C9004908C5004F3007
:100AC000CA004A08C6008E314F26803115302000FA
:100AD000CA004B30C900BE30890B6C2DC90B6C2D80
:100AE000CA0B6C2D00000030963106268031003094
:100AF000963113268031200050080319802D812D56
:100B0000CF2D4130AE009A30AF005930B00099304F
:100B1000B100D030B2009930B3001630B400993033
:100B2000B5008C3182248031013096310626803127
:100B300006302000CA001330C900AD30890B9E2D4D
:100B4000C90B9E2DCA0B9E2D003200309631062611
:100B500080311A302000BF009830C0009631AB269B
:100B6000803120004E088D31D72580312000C9000A
:100B70004908CF004F08031DBE2DBF2DCF2DD0013A
:100B80004130C3009A30C4005030C9004908C50044
:100B90004F30CA004A08C6008E314F2680312000EF
:100BA00050080319D42DD52D372E4A30AE009A3077
:100BB000AF003830B0009A30B1009830B2009830B1
:100BC000B3009830B4009830B5008C318224803165
:100BD000013096311326803106302000CA001330D0
:100BE000C900AD30890BF22DC90BF22DCA0BF22DC5
:100BF000003200309631132680310B302000CA00BD
:100C00002630C9005D30890B032EC90B032ECA0B99
:100C1000032E003201308831CE208031003A031992
:100C2000122E132E262E01308831F1208031003A09
:100C300003191B2E1C2E262E0130893114218031E0
:100C4000003A0319242E252E262E372E2000D001FF
:100C50004A30C3009A30C4005030C9004908C5006A
:100C60004F30CA004A08C6008E314F26803120001E
:100C7000500803193C2E3D2E9F2E5330AE009A3063
:100C8000AF00EB30B0009930B1009830B20098302E
:100C9000B3009830B4009830B5008C318224803194
:100CA000013096313A26803106302000CA001330D8
:100CB000C900AD30890B5A2EC90B5A2ECA0B5A2EB9
:100CC0000032003096313A2680310B302000CA00C5
:100CD0002630C9005D30890B6B2EC90B6B2ECA0BF9
:100CE0006B2E003200308831CE208031003A03195B
:100CF0007A2E7B2E8E2E00308831F1208031003A02
:100D00000319832E842E8E2E0030893114218031D8
:100D1000003A03198C2E8D2E8E2E9F2E2000D0018E
:100D20005330C3009A30C4005030C9004908C50090
:100D30004F30CA004A08C6008E314F26803120004D
:100D400050080319A42EA52E072F5C30AE009A3050
:100D5000AF007F30B0009A30B1009830B2009830C8
:100D6000B3009830B4009830B5008C3182248031C3
:100D7000013096312026803119302000CA005A30C7
:100D8000C900B130890BC22EC90BC22ECA0BC22EAC
:100D9000003200309631202680310B302000CA000E
:100DA0002630C9005D30890BD32EC90BD32ECA0B58
:100DB000D32E003201308831CE208031003A031921
:100DC000E22EE32EF62E01308831F1208031003AF8
:100DD0000319EB2EEC2EF62E0130893114218031CF
:100DE000003A0319F42EF52EF62E072F2000D0011D
:100DF0005C30C3009A30C4005030C9004908C500B7
:100E00004F30CA004A08C6008E314F26803120007C
:100E1000500803190C2F0D2F6F2F6530AE009A303C
:100E2000AF008F30B0009A30B1009830B2009830E7
:100E3000B3009830B4009830B5008C3182248031F2
:100E4000013096312D26803119302000CA005A30E9
:100E5000C900B130890B2A2FC90B2A2FCA0B2A2FA0
:100E60000032003096312D2680310B302000CA0030
:100E70002630C9005D30890B3B2FC90B3B2FCA0BB5
:100E80003B2F003200308831CE208031003A0319E8
:100E90004A2F4B2F5E2F00308831F1208031003AED
:100EA0000319532F542F5E2F0030893114218031C4
:100EB000003A03195C2F5D2F5E2F6F2F2000D001A9
:100EC0006530C3009A30C4005030C9004908C500DD
:100ED0004F30CA004A08C6008E314F2680312000AC
:100EE00050080319742F752FB12F6E30AE009A3051
:100EF000AF009630B0009930B1001030B2009A3097
:100F0000B3001630B4009930B5008C3182248031A2
:100F100088310A2080314A302000BF009030C00064
:100F20009631AB26803120004E088D31D725803197
:100F30002000C9004908CF004F08031DA02FA12F92
:100F4000B12FD0016E30C3009A30C4005030C900B8
:100F50004908C5004F30CA004A08C6008E314F26E6
:100F60008031200050080319B62FB72FAA2804306B
:100F7000AE009A30AF00B530B0009830B100C2304A
:100F8000B2009930B3004930B4009830B5008C31CC
:100F90008224803101309531DF2580310030953158
:100FA000D225803188316920803150302000C9003D
:100FB0004908C3004E308D317C2580314F302000F0
:100FC000C9004908C3004E30CA004A08C400503066
:100FD0008B312E23803129302000CA009630C90081
:100FE0007F30890BF12FC90BF12FCA0BF12FAA28E3
:100FF00080314A28FE0012001E00FE0BFB2F003439
:10100000C030240094000830950096014F309200C3
:101010009512080022000C1706302000A40013309F
:10102000A300AD30890B1228A30B1228A40B1228A1
:10103000003222000C1306302000A4001330A3005D
:10104000AD30890B2128A30B2128A40B21280032C5
:1010500008002000AC01AD013C2829082C078400C1
:101060002A082D3D8500000897311127883101306D
:101070002000AC070030AD3D29082C0784002A0869
:101080002D3D85001200031D462847282D28080005
:101090002000A6002608A500A50DA50D21001D080D
:1010A000200025068339250621009D001D140D30E2
:1010B000890B5828000021009D149D186028612884
:1010C0005D281C082000A40021001B082000A300AC
:1010D000080020302000BF009030C0009631AB26C1
:1010E00088312000C401C50189315D21883101307A
:1010F0002000C4070030C53D4508803AC300803059
:101100004302031D852802304402031C88288928D5
:1011100074280800083020005502031890289128F0
:10112000A9285608C53E86008701010823009A00B9
:101130000130F00070082000D60708305602031C6A
:10114000A228A328A428D6010130F0007008D507F2
:10115000AB282100111208002000AF002908AD00C3
:101160002808AC002F08AA002A08AE002E08860026
:1011700001308700AE0A2D08AB002C08AA00AC0A8B
:101180000319AD0A2A0884002B0885000008C03F17
:101190008908031DCC28CD28B62808002000A4000B
:1011A000A30124080319D528D628E0280F1CD92824
:1011B000DA28E0288F18DD28DE28E028A301A30A1A
:1011C0002408031DE428E528EF280F18E828E9285B
:1011D000EF288F1CEC28ED28EF28A301A30A230891
:1011E00008002000A400A30124080319F828F92806
:1011F00003298F1DFC28FD2803290F1A0029012926
:101200000329A301A30A2408031D07290829122979
:101210008F190B290C2912290F1E0F2910291229A9
:10122000A301A30A230808002000A400A3012408A6
:1012300003191B291C2926298F1E1F29202926292D
:101240000F1B232924292629A301A30A2408031DEF
:101250002A292B2935298F1A2E292F2935290F1FA5
:10126000322933293529A301A30A23080800F400F1
:101270007008710403193D293E294F297435A03E99
:10128000860087017008C03F7108C13F7208F300F3
:101290007408AC3E86008701730881005C297435B0
:1012A000A03E86008701CF30C03F1430C13F740894
:1012B000AC3E86008701810108002000A801A90139
:1012C0008931DA2189310B302000A7002630A600B1
:1012D0005D30890B6929A60B6929A70B69290032A2
:1012E00001302000A8070030A93D2908803AA60057
:1012F00080302602031D7E2902302802031C81292A
:101300008229602908002000A400550803198929B2
:101310008A2985292100111A8E298F2994292000D4
:10132000240823009A00AB29111220002408A300EE
:101330005708C53E86008701230881000130A300BD
:101340002308D70708305702031CA729A829A92971
:10135000D7010130D50221001116080021003C10F0
:101360000230FA007A08BB00BD2995310F2589317A
:10137000D929953114258931D9292E08FA007A08FE
:10138000F9000430A03E86008701413F8A00403FBB
:101390000A008931FB00FC017C08003A0319D129BD
:1013A000B9297B08023A0319B529013A0319B5296D
:1013B000B92908002000A401A50122000D1606305D
:1013C0002000A3003030890BE329A30BE3290000A0
:1013D00022000D1206302000A3003030890BEE29C8
:1013E000A30BEE29000001302000A4070030A53D2A
:1013F0002508803AA30080302302031D012A3230E1
:101400002402031C042A052ADD2908009431E02463
:101410008A3121003C1C0D2A0E2A1C2A95312D25CB
:101420008A31003A0319152A162A1C2A0F30200087
:10143000A00020082100BA0021003A082000A000E6
:10144000A101A035A10D0030200784009030213D7E
:101450008500013F8A00003F0A008A312000A20077
:1014600022082100BA000800200052080319392A76
:101470003A2A342A5308BD3E860087010108A3009A
:1014800023082100E30020005308403E860001307D
:1014900087000108A3002308A4000130A30023084B
:1014A000D30708305302031C562A572A582AD3015F
:1014B0002100911201302000D2022100911620005B
:1014C000240808002100BC15722A95310F258A31A5
:1014D000902A9431DD248A310330902A95311425E5
:1014E0008A31902A2C08FA007A08F90021088A002B
:1014F00020080A008A31FB00FC017C08003A03192D
:10150000822A6E2A7B08013A03196E2A033A0319CC
:10151000652A013A0319652A073A0319692A6E2ACE
:1015200008002000AC00AC2A2908BF3E9631FB26FB
:101530008A31BF2A2908933E9631FB268A31BF2A79
:101540002908D33E9631FB268A31BF2A29087F3EDF
:101550009631FB268A31BF2A2C08AA00AB012B0842
:10156000003A0319B42AA62A2A08023A0319942A2F
:10157000013A03199A2A073A0319A02AA62A080051
:101580002000BC003808BE003708BD002100CD0196
:10159000CE01DE2A3D30BA003A08AE003908BB0061
:1015A0003B08AF003C088F3154278A3120002E08B9
:1015B0002100CD0720002F082100CE3D20003D084E
:1015C00084003E0885001200031DE72AE82ACA2A83
:1015D00021004E082000B80021004D082000B7006F
:1015E000080020005408BD3E8600870181012300C9
:1015F0001D1DFB2AFC2A082B20005408BD3E860036
:101600008701811421005A088A0059080A008B3189
:1016100023009D1C0C2B0D2B192B20005408BD3EC4
:10162000860087010115210058088A0057080A0022
:101630008B3120005408BD3E860087010108031944
:10164000222B232B2A2B210056088A0055080A003A
:101650008B312D2B973157278A3108002000C50088
:101660004408860087010108031D372B382B3F2BC8
:101670003430BF009830C0009631AB268B3120004B
:1016800045088600870181014308860087018101A2
:10169000440886008701810100309531DF258B31B8
:1016A00000309531EC258B3100309531F9258B31A7
:1016B00000309531D2258B310030963106268B31A2
:1016C0000030963113268B310030963120268B3135
:1016D000003096312D268B31080020002808031990
:1016E000722B732B782B2808031D772B782B7D2BDF
:1016F000260895314C258B31AD2B2808033E8600FA
:101700008701160001040319862B872BA42B2808B8
:10171000033E86008701403FA900413FAA00280AF6
:1017200086008701403FAB00413FAC002C08803A67
:10173000AD002A08803A2D02031DA02B29082B0298
:101740000318A32BA42BAD2B2000280A86008701A9
:101750000130810741310318810A08009431DA24ED
:101760008B31FA0021003708860087017A08810052
:101770000130FA007A08B7070130B8020030B93BEF
:10178000380839040319C52BC62BCB2B9431EF2411
:101790008B310530F32BBC15D52B953123258B319F
:1017A000F32B95311E258B31F32B2C08FA007A0888
:1017B000F90021088A0020080A008B31FB00FC0197
:1017C0007C08003A0319E52BD12B7B08013A031959
:1017D000D12B033A0319CD2B013A0319CD2B073A2C
:1017E0000319D12BD12B080021009112F1302000D8
:1017F000A3000A30A400953187258B3121001112F6
:101800008A302000A3000830A400953190258B3148
:10181000083023009F0090309D0024309E0040300F
:101820009B0003309C00CD302000A3001430A400A6
:10183000953175258B31E7302000A3001430A400CA
:1018400095317E258B31E3302000A3001430A400B5
:1018500095316C258B312100E3012000D701D601A1
:101860000830A5002508D500D401D301D2012100FC
:10187000911608002000A801A9012000AA01AB01CF
:101880008931DA218C310B302000A7002630A600E8
:101890005D30890B492CA60B492CA70B492C003233
:1018A00001302000AA070030AB3D2B08803AA6008B
:1018B00080302602031D5E2C04302A02031C612C9A
:1018C000622C402C0B302000A7002630A6005D3093
:1018D000890B682CA60B682CA70B682C00320130F2
:1018E0002000A8070030A93D2908803AA6008030D2
:1018F0002602031D7D2C04302802031C802C812C21
:101900003D2C0800953199258C3106309631FB2607
:101910008C3102302000B7000430B600BA30890B99
:101920008F2CB60B8F2CB70B8F2C00002000A90139
:10193000A90A01308A3191228C3120002F08AA0097
:101940002E08A900883129208C312000A901A90A7C
:1019500002308A3191228C3120003108AA003008EF
:10196000A900883129208C312000A901A90A03305F
:101970008A3191228C3120003308AA003208A90054
:10198000883129208C312000A901A90A04308A312C
:1019900091228C3120003508AA003408A900883132
:1019A00029208C3108002000C800C701212D0F1903
:1019B000DA2CDB2CE92C0030BF009830C0009631C7
:1019C000AB268C312000C701C70A48088600870172
:1019D000810152080319ED2CEE2C212D8A3134227D
:1019E0008C312000C4004408C600142DDE30BF0036
:1019F0009930C0009631AB268C3120004808860013
:101A000087018101810A02302000C5000430C40032
:101A1000BA30890B092DC40B092DC50B092D000007
:101A20002000C701C70A212D4608C400C50145088A
:101A3000003A03191C2D212D4408313A0319F62CC4
:101A4000212D47080319252D262DD72C0800953167
:101A50002D258D31003A03192E2D2F2D5F2D3C2D74
:101A6000953105258D317B2D95310A258D317B2DC5
:101A7000953114258D317B2D21002F08FA007A082D
:101A8000F9000630A03E86008701413F8A00403FB2
:101A90000A008D31FB00FC017C08003A0319512D2E
:101AA000382D7B08013A0319382D033A0319302DDC
:101AB000013A0319342D073A0319382D382D210026
:101AC0003C101730A03E86008701403F840085010E
:101AD000810A00089431FB248D3101302100B802C5
:101AE0000030B93B38083904031D772D782D7A2D45
:101AF00006307B2D033008002000C800C701D12D1F
:101B00000F19832D842D962D3430BF009830C000DE
:101B10009631AB268D312000C701C70A48088600E0
:101B2000870181014308860087018101520803195A
:101B30009A2D9B2DD12D8A3134228D312000C40065
:101B40004408C600C42D8630BF009830C0009631CE
:101B5000AB268D31200048088600870181014308AB
:101B600086008701810102302000C5000430C400D6
:101B7000BA30890BB92DC40BB92DC50BB92D000096
:101B80002000C701C70AD12D4608C400C501450879
:101B9000003A0319CC2DD12D4408343A0319A32D52
:101BA000D12D47080319D52DD62D802D08002000F2
:101BB000A800A901AA0128080319DF2DE02D262E6F
:101BC000212E52080319E52DE62D212E8A313422CB
:101BD0008D312000A5002508A700112E023020001D
:101BE000A6000430A500BA30890BF42DA50BF42D06
:101BF000A60BF42D00002000A901A90AAA01AA0A37
:101C0000212E02302000A6000430A500BA30890B36
:101C1000072EA50B072EA60B072E00002000A901FA
:101C2000FE2D2708A500A6012608003A0319192E43
:101C3000212E2508323A0319EE2D013A0319012EFF
:101C4000212E2A080319252E262EE12D2808031DF2
:101C50002A2E2B2E4D2E472E013097318D278D3178
:101C6000003A0319342E352E392E2000A901AA017D
:101C7000AA0A01309731A8278D31003A0319412E65
:101C8000422E472E2000A901A90AAA01AA0A200073
:101C90002A0803194C2E4D2E2C2E290808004830F6
:101CA000860001308700A0308400013085001430A8
:101CB0002000C70016001A00C70B5A2E5C308600A1
:101CC00001308700B4308400013085000A30C7003D
:101CD00016001A00C70B682E01309531EC258E31A5
:101CE00000309531F9258E3100309531DF258E3168
:101CF00000309531D2258E3120004408AF004308D2
:101D0000AE00AC30B0009830B1004930B20098302D
:101D1000B3009830B4009830B5008C3182248E31F5
:101D200020004408B1004308B000A03097312827B4
:101D30008E312000C70047082300BE00B4302000C9
:101D4000B0000130B10023003E08973128278E31C2
:101D50002000BF000130C0009631AB268E318C319F
:101D60003A248E3120000F19B62EB72EB22E0F1D39
:101D7000BA2EBB2EB72E00309531EC258E312000C7
:101D80004508860087018101460886008701810198
:101D900008002000AB002B08A9002908D100003062
:101DA0009631D0268E319C302000A900D730890B87
:101DB000D72EA90BD72E03309631FB268E311A3041
:101DC0002000A900F830890BE32EA90BE32E0000B8
:101DD00003309631FB268E311A302000A900F830EE
:101DE000890BF02EA90BF02E000003309631FB2654
:101DF0008E311A302000A900F830890BFD2EA90B76
:101E0000FD2E000002309631FB268E311A30200064
:101E1000A900F830890B0A2FA90B0A2F00002830DF
:101E20009631FB268E3102302000AA000430A90032
:101E3000BA30890B192FA90B192FAA0B192F0000E3
:101E40000C309631FB268E3102302000AA0004307F
:101E5000A900BA30890B2A2FA90B2A2FAA0B2A2FE7
:101E6000000001309631FB268E3102302000AA009E
:101E70000430A900BA30890B3B2FA90B3B2FAA0BCA
:101E80003B2F000006309631FB268E3102302000B9
:101E9000AA000430A900BA30890B4C2FA90B4C2F93
:101EA000AA0B4C2F000008002000B6002E08860068
:101EB0008701403FB000413FB10030088400310845
:101EC00085001200253A031D662F672FDC2F2E0890
:101ED000860087010130810741310318810A210002
:101EE000CF01D001D301D401FF30D100FF30D200A7
:101EF00020002E0886008701403FB000413FB1001E
:101F0000300884003108850012006E3A031D892FC5
:101F10008A2FA92F2E0886008701013081074131C1
:101F20000318810A2F0886008701403F840085013D
:101F3000810A0008B0003008B50035088600870126
:101F400021004D08C03F4E08C13F2000AE01AF0147
:101F5000FF2F2E0886008701403FB000413FB100AF
:101F600030088400310885001200253A031DB92F7E
:101F7000BA2FD32F2E088600870101308107413107
:101F80000318810A2530A6000030A7003608B000EB
:101F90003008A8008B316D238F3101302000AE0056
:101FA0000030AF00FF2F2E08860087010130810727
:101FB00041310318810AA52F2E0886008701403F72
:101FC000B000413FB10030088400310885000008AE
:101FD000B200B3013208A6003308A7003608B400E7
:101FE0003408A8008B316D238F3120002E08860025
:101FF00087010130810741310318810ACD2F080084
:1020000000341534633415345334153427340D3407
:10201000AE340B344534153462340A340534153487
:102020000A3415340F341534143415341934153476
:102030001E3415342334153428341534AE340934A1
:102040002D343E3420345434453453345434203405
:1020500043344F344E3446344F3452344D34453487
:1020600020342D34203441345434543445344E34E7
:102070005434453420344134433451345534493494
:102080005434543445344D3445344E3454340D3482
:102090000A34003441345434543445344E345434C6
:1020A00045342034563441344C344934443441347A
:1020B000543449344F344E34203442344C34553443
:1020C000453454344F344F34543448340D340A3486
:1020D000003441347434743465346E34743465348B
:1020E0002034763461346C3469346434613474344B
:1020F00069346F346E3420346C3465346434203485
:1021000072346F347534673465340D340A340034F6
:10299A0008000834013008002400961408002400B6
:1029AA0016150800240096150800240011080800CE
:1029BA00200091150800200091110800973157272F
:1029CA009431080023001D121D16080024009616D3
:1029DA001616080024009612161608008A310622D6
:1029EA00943108001630210097000800F0007008A2
:1029FA002400910008002100BC10BB010E30080021
:102A0A009431D1249531013008009431D124953183
:102A1A00023008009431D1249531013008009431F4
:102A2A00D4249531003008009431EF2495310530D3
:102A3A0008009431EB2495310A3008009431EB24D4
:102A4A009531093008002100BC10BB010E30080086
:102A5A002400160E890C890C013908009531AD2520
:102A6A0095312400161408009531AD2595312400BE
:102A7A0016150800640080010131890B402D0034CD
:102A8A0021003C109431D7249531043008002000ED
:102A9A00A5002508893183219531080021003C14BD
:102AAA0036359431FB24953103300800F03021008B
:102ABA009E009B019C0101309D00080021003C14EE
:102ACA000314360D9431FB2495310530080020009B
:102ADA0024082100D600200023082100D500080080
:102AEA00200024082100DA00200023082100D90050
:102AFA000800200024082100D80020002308210013
:102B0A00D7000800200024082100DC002000230848
:102B1A002100DB000800200024082100DE0020003C
:102B2A0023082100DD00080001309631FB2695318B
:102B3A003530890B9E2D00000800283024009500AE
:102B4A00960194012730920021008E150E16080076
:102B5A0024001419B12DB22DAD2D16081F39031DED
:102B6A00B72DB82DAD2D08007030210099009801BD
:102B7A002200960121001A1FC32DC42DBF2D080063
:102B8A007608F1007508F0007708F8007808F20076
:102B9A00003089313721953108002000A30023082D
:102BAA000319D82DD92DDC2D22000C14DE2D22007C
:102BBA000C1008002000A30023080319E52DE62DB8
:102BCA00E92D22001014EB2D22001010080020001D
:102BDA00A30023080319F22DF32DF62D22009014D9
:102BEA00F82D2200901008002000A30023080319E2
:102BFA00FF2D002E032E22001015052E2200101183
:102C0A0008002000A300230803190C2E0D2E102EF5
:102C1A0022008C14122E22008C1008002000A3001F
:102C2A0023080319192E1A2E1D2E22000C151F2EE9
:102C3A0022000C1108002000A30023080319262EE5
:102C4A00272E2A2E22000C162C2E22000C120800E7
:102C5A002000A30023080319332E342E372E220016
:102C6A008C16392E22008C1208002000A30023089B
:102C7A000319402E412E442E22008C15462E220086
:102C8A008C110800F3002100BC1D4C2E4D2E562E2F
:102C9A007308F2007208B7007108B9007008B8002A
:102CAA00BC1108002000A3009531AD259631200003
:102CBA002308240091002000911D642E652E602EA9
:102CCA00911108000230F0000030F10079089631C5
:102CDA00472696310030F500F600F7019531C525F3
:102CEA009631043008000130F0000030F100790814
:102CFA009631472696310030F500F600F7019531F6
:102D0A00C5259631023008000230F0000030F1008B
:102D1A0079089631472696310030F500F600F7011A
:102D2A009531C5259631023008000130F000003097
:102D3A00F10079089631472696310030F500F60001
:102D4A00F7019531C525963104300800413020003D
:102D5A00C1004108C2004008B8003F08B70042302D
:102D6A00C1004108B90000308A31C02296310800FA
:102D7A008831002096319731E12796319531B9256E
:102D8A0096319431F724963195315B2596318B3102
:102D9A00F423963108002000A4009531332596319A
:102DAA002000510896315726963120002408210028
:102DBA0064049631572696319531392596310800A3
:102DCA002000A6007D08A5002508A60426080438C8
:102DDA009631D026963120002608FB399631D02626
:102DEA0096314230890BF72E003208002000A800E5
:102DFA00FD012808F0399631E52696312000280889
:102E0A00A7000330A735FF3E031D072F2735F039EA
:102E1A009631E526963108002000A800FD01FD0A3A
:102E2A002808F0399631E526973120002808A700AE
:102E3A000330A735FF3E031D1E2F2735F039963183
:102E4A00E526973108002000B4003108A9003008AF
:102E5A00A800340897317227973120002308B2005E
:102E6A002408B300340832078831AC209731200097
:102E7A0034080800790886008701403FF000413F86
:102E8A00F1007908023E860087010108963147263B
:102E9A0097310030F500F600F7019531C5259731D5
:102EAA000230080023001908F00020005408403EB0
:102EBA00860001308700700881000130F000700838
:102ECA00D40708305402031C6B2F6C2F6D2FD401CA
:102EDA000130F0007008D20708002000A700270878
:102EEA00A5002508A6007D2F0130A5002508A70703
:102EFA0027088600013087000108031D852F862FC9
:102F0A00792F26082702A300A401A31BA403080003
:102F1A002000A400A30124080319942F952F9B2FA6
:102F2A008F1B982F992F9B2FA301A30A2408031DF7
:102F3A009F2FA02FA62F8F1FA32FA42FA62FA30149
:102F4A00A30A230808002000A400A30124080319E7
:102F5A00AF2FB02FB62F0F19B32FB42FB62FA3014F
:102F6A00A30A2408031DBA2FBB2FC12F0F1DBE2F82
:102F7A00BF2FC12FA301A30A230808002D343E3412
:102F8A0020344534523452344534553452343A3468
:102F9A002034003400340034003400340034003467
:102FAA00003400340D340A34003400340034003460
:102FBA000034003400340034220090018F018C0167
:102FCA008D018E010830210090008C01EF308D00B8
:102FDA00BF308E00FF308F0023008F013F308D00FD
:102FEA0090013C308C00240090018D01210095173E
:102FFA0022009D0108002D343E34203454344534D7
:10300A005334543420344D3441344E3455344534D9
:10301A004C34203445344E34203443344F34553400
:10302A00523453340D340A34003441345434543451
:10303A0045344E34543445342034563441344C34B7
:10304A00493444344134543449344F344E342034AE
:10305A004C344534443453340D340A3400342D345A
:10306A003E342034463449344E34203454344534C2
:10307A005334543420344D3441344E345534453469
:10308A004C340D340A340034413454345434453405
:10309A004E34543445342034413443345134553455
:1030AA0049345434543445344D3445344E3454340C
:1030BA000034543445345334543420345234313483
:1030CA0020344F344634463420342D34203452349C
:1030DA00323420344F344E3400345434453453346B
:1030EA00543420345234323420344F344634463443
:1030FA0020342D3420345234333420344F344E3477
:10310A0000342D343E34203454344534533454344A
:10311A0020344134433451345534493454345434CA
:10312A0045340D340A340034543445345334543459
:10313A0020344334413452345434453420344434F2
:10314A003934323435344534443434340034543424
:10315A0045345334543420344E344F344E342034AE
:10316A0043344F344E3446344F3452344D3445345C
:10317A00003441345434543445344E345434453490
:10318A002034443445344D34413452345234413479
:10319A0047344534003450344F345334493454346A
:1031AA0049344F344E344E34453452342034433447
:1031BA00413452345434453400345434453453344D
:1031CA005434203433342034523445344C3441346A
:1031DA004934533420344F3446344634003452345C
:1031EA0045345434493452344534523420345034FA
:1031FA003134203465347434203450343234003459
:10320A0043344C34413456344934453452342034EE
:10321A00453443344C3441344934523445343F34D0
:10322A0000345034523445345334533445345234D0
:10323A0020344F344B3420342F3420344E344F341E
:10324A004B340034543445345334543420343334F6
:10325A002034523445344C344134493453342034C4
:10326A004F344E34003454344534533454342034B7
:10327A004C3445344434203443344C344134563489
:10328A00493445345234003443344C34413456348E
:10329A00493445345234203445345434453449345D
:1032AA004E3454343F340034543445345334543453
:1032BA0020344C3445344434533420344334413478
:1032CA005234543445340034543445345334543429
:1032DA0020344C3445344434203452344F34553439
:1032EA004734453400345434453453345434203448
:1032FA004C344534443420345634453452345434EE
:10330A0045340034543445345334543420344C3422
:10331A0045344434203442344C34453455344534ED
:10332A0000345434453453345434203442344C3405
:10333A005534453454344F344F34543448340034BB
:10334A00413450345034553459344534523420348D
:10335A0053345534523420344F344B3400342D34E2
:10336A003E342034543445345334543420344F34A6
:10337A00463446340D340A34003452344534543415
:10338A00493452344534523420344334413452346B
:10339A005434453400344C344534443453342034A2
:1033AA0041344C344C3455344D344534453453341B
:1033BA0000342D343E342034543445345334543498
:1033CA0020344F344E340D340A34003454344534E6
:1033DA0053345434203448344F3452344C344F34F8
:1033EA004734453400345434453453345434203447
:1033FA00533446344C34413453344834003446341C
:10340A0049344E3420344434453420345434453419
:10341A0053345434003456344F34493452342034FB
:10342A004134503450344C344934003454344534E3
:10343A005334543420345234313420344F344E34DB
:10344A000034453454344134503445342034313412
:10345A003034003445345434413450344534203403
:10346A0031343234003454344534533454342034EF
:10347A0042345034323400344534543441345034B4
:10348A0045342034313433340034453454344134EF
:10349A0050344534203431343434003445345434CF
:1034AA0041345034453420343134353400344534D1
:1034BA0054344134503445342034313436340034B1
:1034CA00453454344134503445342034313437345B
:1034DA000034453454344134503445342034313482
:1034EA00383400344534543441345034453420346B
:1034FA003134003454344534533454342034503441
:10350A003134003445345434413450344534203451
:10351A00323400345434453453345434203450341F
:10352A003234003445345434413450344534203430
:10353A00333400344534543441345034453420341F
:10354A00343400344534543441345034453420340E
:10355A0035340034453454344134503445342034FD
:10356A0036340034453454344134503445342034EC
:10357A0037340034453454344134503445342034DB
:10358A0038340034453454344134503445342034CA
:04359A00393400348C
:020000040001F9
:08000000FF3FFF3FFF3FFF3F00
:04000E00E43FFF3F8D
:00000001FF
