:1000000080314A28053008007E1480310B1F0928F2
:100010000A2848282100111E0E280F281B2820001E
:10002000111E132814281B28220041088A004008AA
:100030000A00803148282100911E1F2820282C28E2
:100040002000911E242825282C2822003F088A0001
:100050003E080A00803148282100921D30283128AE
:100060003D282000921D352836283D2822004508CD
:100070008A0044080A00803148282100911D412847
:10008000422848282000911D46284728482836281D
:100090007E10090080314C2822009931F9218031ED
:1000A000EB00A13084009E308500A0308600013036
:1000B00087002830883100208031E93084009B306F
:1000C00085004030860002308700143088310020DF
:1000D0008031FD012000EA01EB01EC012100E30188
:1000E00020308400013085002A309A316722803127
:1000F000C83084000130850025309A316722803174
:10010000203084000230850020309A31672280310F
:100110007E10200080318C289B31D62380318B17B4
:100120000B179A31CD2280314E30943160248031CA
:100130002400E301E201E101E001E00A793020005E
:10014000AE00A130AF00E630B000A130B100C83041
:10015000B200A230B3003A30B400A030B500913103
:10016000C321803115302100E0004B30DF00BE306C
:10017000890BB828DF0BB828E00BB8280000220054
:100180008C1320000E1CC528C628CA282400DD01B7
:10019000DD0ACC282400DD0120008E18D028D128CB
:1001A000D228D2287930AE00A130AF00D430B000D0
:1001B000A130B1003A30B200A030B300C830B40072
:1001C000A230B5009131C321803103302100E0001D
:1001D0000830DF007730890BEB28DF0BEB28E00BD2
:1001E000EB28FF2863302100DF005F08B00060309B
:1001F000E0006008B10061308231B3228031240018
:100200006308031904290529F228E0019E315426C8
:10021000803176302000AE00A430AF002C30B0002A
:10022000A230B1003A30B200A030B3003A30B4008E
:10023000A030B5009131C32180312400E301E30AED
:1002400000309B310A23803100309B3117238031ED
:1002500001309B312423803101309B3131238031A7
:1002600001309B313E23803115302100E0004B30BE
:10027000DF00BE30890B3A29DF0B3A29E00B3A291F
:10028000000001309A31FD22803129302100E00048
:100290009630DF007F30890B4B29DF0B4B29E00BB9
:1002A0004B2901309D31C6258031003A0319592967
:1002B0005A29752901309D31E9258031003A031909
:1002C00062296329752901309E310C268031003A5C
:1002D00003196B296C29752983302100AD00A330E7
:1002E000AE009C3112248031A3292400E3010030A8
:1002F0009B313123803100309B313E238031763079
:100300002100B000A430B1006330B2000230B3006D
:100310006230B4000230B5009331D72380316130B0
:100320002100B8000230B9006330BA000230BB00CF
:100330006230BC000230BD006030BE000230BF0041
:100340009231BD22803115302100E0004B30DF00BA
:10035000BE30890BA929DF0BA929E00BA9290000D0
:1003600000309B313123803100309B313E2380317E
:10037000240063080319BD29BE29312A86302000D4
:10038000AE00A430AF00F830B000A130B1003A3078
:10039000B200A030B3003A30B400A030B5009131C3
:1003A000C321803100309B313123803100309B31BB
:1003B0003E2380310B302100E0002630DF005D302D
:1003C000890BE029DF0BE029E00BE0290032013046
:1003D0009D31C6258031003A031DEF29F0290B2AF3
:1003E00001309D31E9258031003A031DF829F929B2
:1003F0000B2A01309E310C268031003A031D012A60
:10040000022A0B2A8F302100AD00A330AE009C31B0
:1004100012248031312A2400E30186302100B0000B
:10042000A430B1006330B2000230B3006230B400D7
:100430000230B5009331D723803161302100B800FC
:100440000230B9006330BA000230BB006230BC0039
:100450000230BD006030BE000230BF009231BD22CC
:100460008031240063080319362A372AAB2A9630D4
:100470002000AE00A430AF008C30B000A230B1003C
:100480003A30B200A030B3003A30B400A030B5002A
:100490009131C321803101309B31312380310630CD
:1004A0002100E0001330DF00AD30890B552ADF0B4F
:1004B000552AE00B552A003200309B313123803120
:1004C00024005D080319652A662AAB2A0030210042
:1004D000AD00A030AE009C311224803124006108B0
:1004E00087312C2780312100DF005F082400E200E3
:1004F0006208031D7C2A7D2AA32AE301963021008D
:10050000B000A430B1006330B2000230B3006230FA
:10051000B4000230B5009331D7238031613021001F
:10052000B8000230B9006330BA000230BB0062305C
:10053000BC000230BD006030BE000230BF0092310E
:10054000BD228031AB2A9B302100AD00A330AE002C
:100550009C3112248031240063080319B12A8831A8
:100560003D288831A8282100B600B501632C200061
:100570000F19BB2ABC2AD72A71302100AD00A03048
:10058000AE009C31122482312100B501B50A360833
:100590008600023087008101310886000230870022
:1005A000810130088600023087008101810A200025
:1005B0006A080319DC2ADD2A632C9031322082314B
:1005C0002100B2003208B400442C010001302100A7
:1005D000AD00A330AE009C311224823121003608D8
:1005E0008600023087008101810A300886000230CF
:1005F00087008101810A310886000230870081016D
:1006000002302100B3000430B200BA30890B062B4F
:10061000B20B062BB30B062B00002100B501B50A67
:10062000632C5730AD00A030AE009C3112248231D3
:1006300079302000AE00A130AF003A30B000A030D9
:10064000B100EB30B200A030B3003A30B400A030BB
:10065000B5009131C3218231210036088600023075
:1006600087008101810A02302100B3000430B2000A
:10067000BA30890B392BB20B392BB30B392B000055
:100680002100B501B50A30088600023087008101DB
:1006900022008C13632C3B30AD00A030AE009C31A7
:1006A0001224823179302000AE00A130AF003A3000
:1006B000B000A030B100C630B200A130B3003A3073
:1006C000B400A030B5009131C32182312100360839
:1006D0008600023087008101810A300886000230DE
:1006E00087008101310886000230870081010230D5
:1006F0002100B3000430B200BA30890B7D2BB20B5D
:100700007D2BB30B7D2B00002100B501B50A220023
:100710008C17632C1F30AD00A030AE009C3112242A
:10072000823179302000AE00A130AF003A30B00005
:10073000A030B100C230B200A130B3003A30B400F2
:10074000A030B5009131C3218231210036088600E6
:10075000023087008101810A02302100B300043099
:10076000B200BA30890BB22BB20BB22BB30BB22B47
:1007700000002100B501B50A30088600023087006C
:10078000810122008C13632CA530AD00A030AE0097
:100790009C311224823179302000AE00A130AF00AC
:1007A0003A30B000A030B1008130B200A230B300C6
:1007B0003A30B400A030B5009131C321823121001C
:1007C00036088600023087008101810A30088600E1
:1007D00002308700810131088600023087008101E4
:1007E000810A02302100B3000430B200BA30890B14
:1007F000F72BB20BF72BB30BF72B00002100B50141
:10080000B50A22008C17632CBE30AD00A030AE00BC
:100810009C311224823179302000AE00A130AF002B
:100820003A30B000A030B1007D30B200A230B30049
:100830003A30B400A030B5009131C321823121009B
:1008400036088600023087008101810A3008860060
:100850000230870081013108860002308700810163
:10086000810A02302100B3000430B200BA30890B93
:10087000372CB20B372CB30B372C00002100B501FD
:10088000B50A22008C13632C3408B200B30133087C
:10089000003A03194C2C632C3208303A0319E52A2C
:1008A000013A0319E62A043A0319042C033A0319FE
:1008B000112B013A03194B2B0F3A0319C42B013AA0
:1008C00003198A2B632C210035080319682C692C25
:1008D000B72A08002000CA003F08D3004008D4000F
:1008E0004108D5004208D6004308D7004408D80084
:1008F0004508D9004608DA005330860000308700EA
:10090000473FC700C71B852C872C0130882C00303F
:100910002000C800C9014808D1004908D200510888
:1009200052040319942C952CB32CD309D409D5095E
:10093000D609D709D809D909DA09D30A031DB32C76
:10094000D40A031DB32CD50A031DB32CD60A031DEC
:10095000B32CD70A031DB32CD80A031DB32CD90A14
:10096000031DB32CDA0A2200B51BB72CB82CBC2C03
:10097000FD30B605FF30B7053508803A2000C700C6
:1009800080304702031DC72C0130220034020318B7
:10099000CA2CCB2CD12C01302000CD000030CE0051
:1009A000D92C220035082000CE0022003408200077
:1009B000CD00220033082000D000220032082000A1
:1009C000CF0051085204031DE62CE72CEC2C22002A
:1009D000361DEB2CEC2CF12CFF302000CF07FF3024
:1009E000D03D1F302000DB000030DC002400BF01C0
:1009F000622DFF302000DB07FF30DC3D0A30A30012
:100A0000A401A501A601A701A801A901AA015308F3
:100A1000AB005408AC005508AD005608AE005708AE
:100A2000AF005808B0005908B1005A08B20094311C
:100A3000EC24843120002408B7002308B6009D313F
:100A40000B25843120003608303EC7005B08203E6D
:100A500086000230870047088100FF30CD07FF3055
:100A6000CE3DFF30CF07FF30D03D0A30A300A401B8
:100A7000A501A601A701A801A901AA015308AB007D
:100A80005408AC005508AD005608AE005708AF003A
:100A90005808B0005908B1005A08B2009531D9255C
:100AA000843120002308D3002408D4002508D50071
:100AB0002608D6002708D7002808D8002908D9001A
:100AC0002A08DA0020005C08803AC700803047021C
:100AD000031D6C2D01305B02031C6F2D702D9D2DAD
:100AE000200053085404550456045704580459046C
:100AF0005A04031D7C2D7D2DF92C4E08803AC70029
:100B000080304702031D862D01304D020318892DC8
:100B10008A2DF92C20005008803AC7008030470207
:100B2000031D942D01304F02031C972D982D9D2DF0
:100B30002200B6189C2D9D2DF92C2000510852043E
:100B4000031DA32DA42DA92D2200361DA82DA92DEE
:100B5000C62DFF302000DB07FF30DC3D510852047A
:100B6000031DB32DB42DB92D2B30CB000030CC009C
:100B7000BD2D2D30CB000030CC004B08C7005B08EA
:100B8000203E8600023087004708810020005B0875
:100B9000203EC7004708B6005008B8004F08B7000D
:100BA0004A0893311423843120003708C0003608E6
:100BB000BF000800403086000230870054308400B7
:100BC0000130850014302100DD0016001A00DD0B15
:100BD000E52DB4308600013087004A3084000130B2
:100BE00085000A30DD0016001A00DD0BF32D013000
:100BF0009B311723853101309B312423853100300F
:100C00009B310A238531210058082000AF002100C4
:100C100057082000AE00B030B000A130B1008C30D9
:100C2000B200A130B3000030B400A130B500913162
:100C3000C321853154302000B3000130B4002100BD
:100C400058082000B600210057082000B5009C314C
:100C500028248531200034082200E90020003308D0
:100C60002200E80069082000B40022006808200083
:100C7000B3004A30B5000130B6009C3128248531DC
:100C8000200034082100AE00200033082100AD0010
:100C90009C31122485319031E820853121005B0898
:100CA000860002308700010887312C27853121001A
:100CB000DD005D082200EA000B302100DE00263056
:100CC000DD005D30890B622EDD0B622EDE0B622EA5
:100CD000003222006A0803196E2E6F2EA32E210007
:100CE000590886000230870081015A0886000230C8
:100CF0008700810153302000AE00A430AF00B53032
:100D0000B000A130B1009E30B200A130B300153068
:100D1000B400A130B5009131C3218531DB30210011
:100D2000B8000030B900D930BA000030BB00DA306A
:100D3000BC000030BD00DC30BE000030BF0092318E
:100D4000BD2285312B2F53302000AE00A430AF00E0
:100D50007E30B000A430B1003A30B200A030B30011
:100D60003A30B400A030B5009131C3218531003054
:100D70009B311723853101309B312423853100308D
:100D80009B310A23853101309B314B23853119304A
:100D90002100DE005A30DD00B130890BCD2EDD0B95
:100DA000CD2EDE0BCD2E003200309B314B23853112
:100DB00015302100DE004B30DD00BE30890BDE2E09
:100DC000DD0BDE2EDE0BDE2E000001309D31C62550
:100DD0008531003A0319ED2EEE2E152F01309D318D
:100DE000E9258531003A0319F62EF72E152F01302B
:100DF0009E310C268531003A0319FF2E002F152F46
:100E000053302000AE00A430AF007E30B000A430DC
:100E1000B1006E30B200A230B3006E30B400A43026
:100E2000B5009131C32185312B2F2100590886004F
:100E30000230870081015330B000A430B100D930B6
:100E4000B2000030B300DA30B4000030B5009331A6
:100E5000D72385318E2E08002000A800A901AA0101
:100E600028080319342F352F982F922F6A08031959
:100E70003A2F3B2F922F9031322087312000A5004E
:100E80002508A7007C2F010002302000A6000430B6
:100E9000A500BA30890B4A2FA50B4A2FA60B4A2F63
:100EA00000002000A901A90AAA01AA0A922F023073
:100EB0002000A6000430A500BA30890B5D2FA50BD9
:100EC0005D2FA60B5D2F00002000A901542F0230DA
:100ED0002000A6000430A500BA30890B6D2FA50BA9
:100EE0006D2FA60B6D2F00002000A901A90AAA01F1
:100EF000AA0A22008C13922F2708A500A601260813
:100F0000003A0319842F922F2508303A0319432FF2
:100F1000023A0319442F013A0319572F0A3A0319C9
:100F2000672F922F20002A080319972F982F362F0A
:100F30002808031D9C2F9D2FBF2FB92F01309C31F6
:100F4000D5248731003A0319A62FA72FAB2F2000F5
:100F5000A901AA01AA0A01309C31F0248731003A84
:100F60000319B32FB42FB92F2000A901A90AAA0190
:100F7000AA0A20002A080319BE2FBF2F9E2F290876
:100F800008002100B400AF302000E900690821000A
:100F9000B30034082000E90069082100B500B6015B
:100FA000B701B801B9012E082000E50021002D0885
:100FB0002000E400B330E9006908E600B53088316C
:100FC00006208731200065082100B2002000640857
:100FD0002100B100360834072000E90069088600C6
:100FE00002308700810121003208AE003108AD00D7
:100FF00008002000A50025089F31A327873108009D
:10100000FE0012001E00FE0B012800342100AA0081
:10101000200065082100AC00200064082100AB001E
:101020002200B001B1012A28AB302000E700670898
:10103000DD006608E8006808DE0021002A08963115
:10104000DE26883120005D082200B00720005E08FF
:101050002200B13D21002B0884002C0885001200DD
:10106000031D332834281428220031082000E5000D
:10107000220030082000E40008009E302000AE006E
:10108000A430AF00AA30B000A230B1003A30B200B4
:10109000A030B3003A30B400A030B5009131C32184
:1010A000883101309B313123883106302100E00046
:1010B0001330DF00AD30890B5B28DF0B5B28E00BC2
:1010C0005B28003200309B313123883124005D08D9
:1010D00003196B286C28A828610887312C278831D0
:1010E0002100DF005F082400E2006208031D792868
:1010F0007A28A028E3019E302100B000A430B1007E
:101100006330B2000230B3006230B4000230B50088
:101110009331D723883161302100B8000230B90003
:101120006330BA000230BB006230BC000230BD0048
:101130006030BE000230BF009231BD228831A82845
:10114000A7302100AD00A330AE009C3112248831BD
:10115000240063080319AD28AE281929A630200001
:10116000AE00A430AF009B30B000A230B1003A30E6
:10117000B200A030B3003A30B400A030B5009131D5
:10118000C321883101309B31312388310630210061
:10119000E0001330DF00AD30890BCC28DF0BCC280A
:1011A000E00BCC28003200309B3131238831240001
:1011B0005D080319DC28DD281929610887312C27EF
:1011C00088312100DF005F082400E2006208031D6F
:1011D000EA28EB281129E301A6302100B000A43051
:1011E000B1006330B2000230B3006230B4000230AC
:1011F000B5009331D723883161302100B800023027
:10120000B9006330BA000230BB006230BC0002306B
:10121000BD006030BE000230BF009231BD22883177
:101220001929B3302100AD00A330AE009C31122447
:1012300088312400630803191E291F298D29AE3027
:101240002000AE00A430AF001230B000A430B100D6
:101250003A30B200A030B3003A30B400A030B5004C
:101260009131C321883101309B31312388311530D0
:101270002100E0004B30DF00BE30890B3D29DF0B41
:101280003D29E00B3D29000000309B31312388319E
:1012900015302100E0004B30DF00BE30890B4E29B5
:1012A000DF0B4E29E00B4E29000001309D31C62591
:1012B0008831003A03195D295E296729BF30210072
:1012C000AD00A330AE009C31122488318D2924005A
:1012D000E301AE302100B000A430B1006330B200B1
:1012E0000230B3006230B4000230B5009331D7232E
:1012F000883161302100B8000230B9006330BA0093
:101300000230BB006230BC000230BD006030BE0065
:101310000230BF009231BD228831240063080319D6
:10132000922993290A2AB6302000AE00A430AF00DB
:101330003E30B000A130B1003A30B200A030B3006E
:101340003A30B400A030B5009131C321883101306A
:101350009B313123883115302100E0004B30DF0014
:10136000BE30890BB129DF0BB129E00BB129000098
:1013700000309B313123883115302100E0004B30A3
:10138000DF00BE30890BC229DF0BC229E00BC22966
:10139000000000309D31C6258831003A0319D1295B
:1013A000D229E42901309D31E9258831003A031919
:1013B000DA29DB29E429CB302100AD00A330AE00CF
:1013C0009C31122488310A2A2400E301B63021001E
:1013D000B000A430B1006330B2000230B30062301C
:1013E000B4000230B5009331D72388316130210039
:1013F000B8000230B9006330BA000230BB0062307E
:10140000BC000230BD006030BE000230BF0092312F
:10141000BD2288312400630803190F2A102A872A65
:10142000BE302000AE00A430AF005230B000A1307A
:10143000B1003A30B200A030B3003A30B400A0306E
:10144000B5009131C321883101309B31312388317E
:1014500015302100E0004B30DF00BE30890B2E2A12
:10146000DF0B2E2AE00B2E2A000000309B313123A7
:10147000883115302100E0004B30DF00BE30890B91
:101480003F2ADF0B3F2AE00B3F2A000000309D314E
:10149000E9258831003A03194E2A4F2A612A013082
:1014A0009E310C268831003A0319572A582A612A9E
:1014B000D7302100AD00A330AE009C31122488311A
:1014C000872A2400E301BE302100B000A430B1001F
:1014D0006330B2000230B3006230B4000230B500B5
:1014E0009331D723883161302100B8000230B90030
:1014F0006330BA000230BB006230BC000230BD0075
:101500006030BE000230BF009231BD22883124001D
:10151000630803198C2A8D2A342BC6302000AE00B4
:10152000A430AF003D30B000A230B1000A30B200AC
:10153000A230B3003A30B400A030B5009131C321DD
:10154000883101309B313123883106302100E000A1
:101550001330DF00AD30890BAB2ADF0BAB2AE00B79
:10156000AB2A003200309B31312388310B3021000F
:10157000E0002630DF005D30890BBC2ADF0BBC2A7F
:10158000E00BBC2A00320C309D31842588312000CC
:1015900024082400DF00200023082400DE00CE30D1
:1015A0002100AD00A430AE0024005F082100B0008F
:1015B00024005E082100AF0058308731C1278831F0
:1015C00021002E082400D50021002D082400D4007D
:1015D0005F08803A2100DF0083305F02031DF32A99
:1015E000203024005E020318F62AF72A022B22007C
:1015F0008C17E3302100AD00A330AE009C311224E3
:101600008831282BC6302100B000A430B1006330EF
:10161000B2000230B3006230B4000230B500933142
:10162000D723883122008C1361302100B8000230AA
:10163000B9006330BA000230BB006230BC00023037
:10164000BD006030BE000230BF009231BD22883143
:1016500029302100E0009630DF007F30890B2E2BEF
:10166000DF0B2E2BE00B2E2B240063080319392BE4
:101670003A2BF52B1D302000AE00A430AF003D30DA
:10168000B000A230B1004E30B200A230B3003A3008
:10169000B400A030B5009131C321883101309B31B5
:1016A0003123883106302100E0001330DF00AD30F7
:1016B000890B582BDF0B582BE00B582B00320030D6
:1016C0009B31312388310B302100E0002630DF00D0
:1016D0005D30890B692BDF0B692BE00B692B003226
:1016E0000C309D3184258831200024082400DF003F
:1016F000200023082400DE00CE302100AD00A430FD
:10170000AE0024005F082100B00024005E08210024
:10171000AF0058308731C127883121002E082400BE
:10172000D70021002D082400D6005F08803A210050
:10173000DF0082305F02031DA02B8A3024005E028E
:101740000318A32BA42BAF2B22008C130E302100E7
:10175000AD00A330AE009C3112248831E92B1D303E
:101760002100B000A430B1006330B2000230B300F9
:101770006230B4000230B5009331D72388311D3078
:101780002000AE00A430AF003D30B000A230B10068
:101790005830B2000230B3003A30B400A030B50087
:1017A0009131C321883122008C1761302100B800AB
:1017B0000230B9006330BA000230BB006230BC00B6
:1017C0000230BD006030BE000230BF009231BD2249
:1017D000883129302100E0009630DF007F30890B0E
:1017E000EF2BDF0BEF2BE00BEF2B2400630803192B
:1017F000FA2BFB2BC72C26302000AE00A430AF0004
:10180000EF30B000A330B1003A30B200A030B300E6
:101810003A30B400A030B5009131C32188310B308B
:101820002100E0002630DF005D30890B152CDF0B36
:10183000152CE00B152C003201309B3131238831FF
:1018400006302100E0001330DF00AD30890B262C7C
:10185000DF0B262CE00B262C003200309B3131238D
:1018600088313D302100E000E130DF003F30890B5E
:10187000372CDF0B372CE00B372C003201309B313B
:101880003123883106302100E0001330DF00AD3015
:10189000890B482CDF0B482CE00B482C0032003021
:1018A0009B313123883110302100E0003930DF00D6
:1018B0000D30890B592CDF0B592CE00B592C0032C1
:1018C00001309D31C6258831003A0319682C692CF6
:1018D000842C01309D31E9258831003A0319712C9F
:1018E000722C842C00309E310C268831003A03196A
:1018F0007A2C7B2C842C1B302100AD00A330AE0051
:101900009C3112248831B22C2400E30100309B3139
:101910003123883100309B313E238831263021002D
:10192000B000A430B1006330B2000230B3006230C6
:10193000B4000230B5009331D723883161302100E3
:10194000B8000230B9006330BA000230BB00623028
:10195000BC000230BD006030BE000230BF009231DA
:10196000BD22883115302100E0004B30DF00BE3051
:10197000890BB82CDF0BB82CE00BB82C0000003022
:101980009B313123883100309B313E238831240044
:1019900063080319CC2CCD2C3B2D38302000AE0031
:1019A000A430AF005E30B000A230B100F330B2001E
:1019B000A230B3001B30B400A230B5009131C32176
:1019C000883101309B313123883106302100E0001D
:1019D0001330DF00AD30890BEB2CDF0BEB2CE00B71
:1019E000EB2C003200309B31312388318B302100C9
:1019F000AD00A030AE009C31122488312400610873
:101A000087312C2788312100DF005F082400E200A5
:101A10006208031D0C2D0D2D332DE30138302100FC
:101A2000B000A430B1006330B2000230B3006230C5
:101A3000B4000230B5009331D723883161302100E2
:101A4000B8000230B9006330BA000230BB00623027
:101A5000BC000230BD006030BE000230BF009231D9
:101A6000BD2288313B2D28302100AD00A330AE00CF
:101A70009C3112248831240063080319402D412D24
:101A8000C12D41302000AE00A430AF002F30B00097
:101A9000A430B1003A30B200A030B3003A30B40004
:101AA000A030B5009131C321883101309B313E23F4
:101AB000883106302100E0001330DF00AD30890BA3
:101AC0005F2DDF0B5F2DE00B5F2D003200309B316F
:101AD0003E2388310B302100E0002630DF005D30EE
:101AE000890B702DDF0B702DE00B702D0032013053
:101AF0009D31C6258831003A03197F2D802D9B2DFD
:101B000001309D31E9258831003A0319882D892D4E
:101B10009B2D01309E310C268831003A0319912DFE
:101B2000922D9B2D35302100AD00A330AE009C31AD
:101B300012248831C12D2400E30141302100B0007E
:101B4000A430B1006330B2000230B3006230B400A0
:101B50000230B5009331D723883161302100B800BD
:101B60000230B9006330BA000230BB006230BC0002
:101B70000230BD006030BE000230BF009231BD2295
:101B80008831240063080319C62DC72D472E4A301B
:101B90002000AE00A430AF007630B000A330B1001A
:101BA0003A30B200A030B3003A30B400A030B500F3
:101BB0009131C321883101309B3165238831063052
:101BC0002100E0001330DF00AD30890BE52DDF0B85
:101BD000E52DE00BE52D003200309B316523883187
:101BE0000B302100E0002630DF005D30890BF62D40
:101BF000DF0BF62DE00BF62D003200309D31C625AF
:101C00008831003A0319052E062E212E00309D3111
:101C1000E9258831003A03190E2E0F2E212E0030AF
:101C20009E310C268831003A0319172E182E212ECA
:101C300042302100AD00A330AE009C311224883127
:101C4000472E2400E3014A302100B000A430B10047
:101C50006330B2000230B3006230B4000230B5002D
:101C60009331D723883161302100B8000230B900A8
:101C70006330BA000230BB006230BC000230BD00ED
:101C80006030BE000230BF009231BD228831240096
:101C9000630803194C2E4D2EBF2E53302000AE008A
:101CA000A430AF007E30B000A430B1003A30B200B2
:101CB000A030B3003A30B400A030B5009131C32158
:101CC000883101309B314B23883119302100E000ED
:101CD0005A30DF00B130890B6B2EDF0B6B2EE00B1F
:101CE0006B2E003200309B314B2388310B302100AA
:101CF000E0002630DF005D30890B7C2EDF0B7C2E70
:101D0000E00B7C2E003201309D31C6258831003A2F
:101D100003198B2E8C2EA72E01309D31E925883199
:101D2000003A0319942E952EA72E01309E310C26D1
:101D30008831003A03199D2E9E2EA72E4F30210088
:101D4000AD00A330AE009C3112248831BF2E533039
:101D50002100D700A430D8006330DF005F08D9002D
:101D60006230E0006008DA006130E1006108DB0009
:101D70006030E2006208DC008531DA258831240019
:101D800063080319C42EC52E452F5C302000AE0019
:101D9000A430AF008E30B000A430B1003A30B200B1
:101DA000A030B3003A30B400A030B5009131C32167
:101DB000883101309B315823883119302100E000EF
:101DC0005A30DF00B130890BE32EDF0BE32EE00B3E
:101DD000E32E003200309B31582388310B30210034
:101DE000E0002630DF005D30890BF42EDF0BF42E8F
:101DF000E00BF42E003200309D31C6258831003AC8
:101E00000319032F042F1F2F00309D31E92588313E
:101E1000003A03190C2F0D2F1F2F00309E310C2676
:101E20008831003A0319152F162F1F2F5C3021001F
:101E3000AD00A330AE009C3112248831452F240020
:101E4000E3015C302100B000A430B1006330B20087
:101E50000230B3006230B4000230B5009331D723B2
:101E6000883161302100B8000230B9006330BA0017
:101E70000230BB006230BC000230BD006030BE00EA
:101E80000230BF009231BD2288312400630803195B
:101E90004A2F4B2FAB2F65302000AE00A430AF008F
:101EA000B930B000A230B1000730B200A430B300A6
:101EB0001B30B400A230B5009131C32188319D316F
:101EC000462588312400610887312C27883121007C
:101ED000DF005F082400E2006208031D702F712FED
:101EE000A32FE30165302100B000A430B1006330BE
:101EF000B2000230B3006230B4000230B50093315A
:101F0000D723883161302100B8000230B900633036
:101F1000BA000230BB006230BC000230BD0060304D
:101F2000BE000230BF009231BD228831293021002D
:101F3000E0009630DF007F30890B9C2FDF0B9C2F59
:101F4000E00B9C2FAB2F69302100AD00A330AE0019
:101F50009C3112248831240063080319B02FB22F5A
:101F60008031BF28FB302000AE00A330AF00B93075
:101F7000B000A130B100E530B200A230B30015309E
:101F8000B400A130B5009131C321883101309B31BB
:101F90000A23883100309A31FD2288319D31A525F0
:101FA000883161302100B0000230B1006330B200EE
:101FB0000230B30093317023883163302100B000C8
:101FC0000230B1006230B2000230B3006130B400C0
:101FD0000230B5006030B6000230B700913179218F
:101FE000883129302100E0009630DF007F30890BF6
:101FF000F72FDF0BF72FE00BF72FB02F80314A2898
:102000002000911108002000AC001E282908BF3EC6
:102010009C316F24903131282908933E9C316F24E4
:10202000903131282908D33E9C316F2490313128DA
:1020300029087F3E9C316F24903131282C08AA005A
:10204000AB012B08003A0319262818282A08023A5F
:1020500003190628013A03190C28073A0319122814
:102060001828080020006A08031937283828322861
:102070006B08203E8600013087000108A30023087A
:102080002200C80020006B08E53E86000130870072
:102090000108A3002308A4000130A3002308EB07D4
:1020A00008306B02031C552856285728EB012100E5
:1020B000911201302000EA0221009116200024082C
:1020C000080020006C08203E860001308700810156
:1020D00023001D1D6C286D287A2820006C08203EE6
:1020E000860001308700811422003D088A003C08E8
:1020F0000A00903123009D1C7E287F288C28200018
:102100006C08203E860001308700011522003B0844
:102110008A003A080A00903120006C08203E8600B0
:102120000130870001080319962897289E2822006D
:1021300039088A0038080A009031A1289C31BA2455
:10214000903108009A3105229031FA0023005F088F
:10215000860087017A0881000130FA007A08DF07DB
:102160000130E0020030E13B600861040319B92846
:10217000BA28BF289A31172290310530E728E41594
:10218000C9289A314B229031E7289A314622903162
:10219000E7285408FA007A08F90049088A00480834
:1021A0000A009031FB00FC017C08003A0319D92891
:1021B000C5287B08013A0319C528033A0319C12829
:1021C000013A0319C128073A0319C528C528080090
:1021D0002000A801A9012000AA01AB019F311C2702
:1021E00090310B302000A7002630A6005D30890B0F
:1021F000F728A60BF728A70BF7280032013020009C
:10220000AA070030AB3D2B08803AA600803026029A
:10221000031D0C2904302A02031C0F291029EE2863
:102220000B302000A7002630A6005D30890B162950
:10223000A60B1629A70B1629003201302000A8078B
:102240000030A93D2908803AA60080302602031DEF
:102250002B2904302802031C2E292F29EB280800E3
:102260002100911261302000A3001030A4009A31A7
:10227000A8229131210011122F302000A3001E301E
:10228000A4009A31B1229131083023009F00903090
:102290009D0024309E0040309B0003309C00F830AD
:1022A0002000A3001930A4009A31962291310F30FA
:1022B0002000A3001A30A4009A319F2291310B30E4
:1022C0002000A3001A30A4009A318D2291312200FF
:1022D000C801FD012100E30108302000A500250808
:1022E0002200C9002000EC01EB01EA012100911657
:1022F0000800210034088600350887000108031D06
:10230000822983298A29D630AD00A030AE009C31C5
:1023100012249131210030088600310887008101A4
:1023200032088600330887008101340886003508AA
:102330008700810136088600370887000130810058
:1023400000309B310A23913100309B3117239131AA
:1023500000309B312423913100309A31FD2291319C
:1023600000309B313123913100309B313E2391313C
:1023700000309B314B23913100309B3158239131F8
:1023800022008C1308009A31BA22913106309C3118
:102390006F24913102302000B7000430B600BA300B
:1023A000890BD029B60BD029B70BD029000020000B
:1023B000A901A90A013090310320913120002F0892
:1023C000AA002E08A9009D31652591312000A901A0
:1023D000A90A023090310320913120003108AA006F
:1023E0003008A9009D31652591312000A901A90A75
:1023F000033090310320913120003308AA003208C5
:10240000A9009D31652591312000A901A90A043058
:1024100090310320913120003508AA003408A9002A
:102420009D31652591310800200028080319192ADB
:102430001A2A1F2A2808031D1E2A1F2A242A2608B2
:102440008731F9279231652A2808033E86008701E3
:102450001600010403192D2A2E2A4B2A2808033EB0
:1024600086008701403FA900413FAA00280A860054
:102470008701403FAB00413FAC002C08803AAD00E3
:102480002A08803A2D02031D472A29082B02031827
:102490004A2A4B2A652A20002608A9002808860017
:1024A0008701280A8400850100080107AA002A087C
:1024B00086000230870029088100280A86008701EB
:1024C0000130810741310318810A08009A315522F1
:1024D0009231003A03196D2A6E2A9F2A7B2A9A317B
:1024E0002D229231BC2A9A3132229231BC2A9A3161
:1024F0003C229231BC2A23005708FA007A08F900DE
:102500000630C83E860001308700413F8A00403FC8
:102510000A009231FB00FC017C08003A0319912A61
:10252000772A7B08013A0319772A033A03196F2A9D
:10253000013A0319732A073A0319772A772A2300E5
:1025400064101730C83E860001308700403F840089
:102550008501810A00089A3123229231013023003B
:10256000E0020030E13B60086104031DB82AB92A8B
:10257000BB2A0630BC2A0330080021003808860038
:10258000390887000108C000C1014008B0004108B7
:10259000B1003A0886003B0887000108C200C30169
:1025A0004208B2004308B3009331702392312100F6
:1025B0003A0886003B0887000108C000C1014008B6
:1025C000B0004108B1003C0886003D0887000108C2
:1025D000C200C3014208B2004308B30038088600B5
:1025E000390887000108C400C5014408B400450843
:1025F000B5003E0886003F0887000108C600C701F5
:102600004608B6004708B700913179219231293048
:102610002100C1009630C0007F30890B0D2BC00B0C
:102620000D2BC10B0D2B08002000BE002200361C14
:102630001A2B1B2B242B20003E08B9003908AE00B2
:1026400036089E31C92693312000B81B282B292B30
:102650002E2B3808BD003708BC00302BBC01BD0153
:10266000BA01BB01442B20302000A6000030A70097
:102670003E08B9003908A800923114229331013084
:102680002000BA070030BB3D3B08803AB9003D0846
:10269000803A3902031D4E2B3C083A02031C512B91
:1026A000522B332B22003618562B572B602B200031
:1026B0003E08B9003908AE0036089E31C92693316C
:1026C00020003608A3000230A4009C31A0249331DE
:1026D00020003C082307B6003D08243DB700080051
:1026E0002100B701D02B20000F19772B782B8D2BD1
:1026F000D6302100AD00A030AE009C3112249331C1
:102700002100B701B70A300886003108870081012F
:102710003208860033088700810120006A08031907
:10272000922B932BD02B9031322093312100B40087
:102730003408B600C02B010066302100AD00A13086
:10274000AE009C31122493312100300886003108FC
:10275000870081013208860033088700810102303A
:102760002100B5000430B400BA30890BB52BB40B8E
:10277000B52BB50BB52B00002100B701B70AD02B44
:102780003608B400B5013508003A0319C82BD02B20
:102790003408303A03199B2B043A03199C2BD02B95
:1027A000210037080319D52BD62B732B0800A03036
:1027B000860001308700C13084000030850014306D
:1027C0002100B60016001A00B60BE22BBE308600C0
:1027D00001308700B7308400003085000A30B60031
:1027E00016001A00B60BF02B01309B3117239331E2
:1027F00001309B312423933100309B310A239331E4
:1028000000309A31FD229331210031082000AF00C1
:10281000210030082000AE00B030B000A130B1007F
:102820001530B200A130B3003A30B400A030B5008A
:102830009131C3219331C1302000B3000030B40086
:10284000210031082000B600210030082000B5002A
:102850009C3128249331200034082100D600200028
:1028600033082100D50056082000B4002100550887
:102870002000B300B730B5000030B6009C312824EA
:102880009331200034082100AE00200033082100DD
:10289000AD009C31122493319031E8209331200017
:1028A0000F1D532C542C4F2C210032088600330866
:1028B00087008101340886003508870081010800FF
:1028C0002000AB002B08A90029082200C600003018
:1028D0009B31FD2394319C302000A900D730890B17
:1028E0006F2CA90B6F2C03309C316F2494311A305C
:1028F0002000A900F830890B7B2CA90B7B2C000051
:1029000003309C316F2494311A302000A900F83034
:10291000890B882CA90B882C000003309C316F2474
:1029200094311A302000A900F830890B952CA90B9E
:10293000952C000002309C316F2494311A30200015
:10294000A900F830890BA22CA90BA22C000028307A
:102950009C316F24943102302000AA000430A90079
:10296000BA30890BB12CA90BB12CAA0BB12C0000E9
:102970000C309C316F24943102302000AA000430C6
:10298000A900BA30890BC22CA90BC22CAA0BC22CED
:10299000000001309C316F24943102302000AA00E5
:1029A0000430A900BA30890BD32CA90BD32CAA0B65
:1029B000D32C000006309C316F249431023020006B
:1029C000AA000430A900BA30890BE42CA90BE42C2E
:1029D000AA0BE42C000008002000B5012B30860073
:1029E00000308700473FB300B31FF72CF82C1A2D97
:1029F0002000AB09AC09AD09AE09AF09B009B109B6
:102A0000B209AB0A031D172DAC0A031D172DAD0A21
:102A1000031D172DAE0A031D172DAF0A031D172D19
:102A2000B00A031D172DB10A031D172DB20A20008D
:102A3000B501B50A2330860000308700473F2000EB
:102A4000B300B31F242D252D442D2000A309A40974
:102A5000A509A609A709A809A909AA09A30A031D86
:102A6000442DA40A031D442DA50A031D442DA60AC6
:102A7000031D442DA70A031D442DA80A031D442D40
:102A8000A90A031D442DAA0A2000230824042504B2
:102A900026042704280429042A040319502D512D43
:102AA000A42DB401B40A602DA335A40DA50DA60D67
:102AB000A70DA80DA90DAA0D0130B3003308B40766
:102AC000AA1F632D642D542D2A083202031D822D66
:102AD00029083102031D822D28083002031D822D92
:102AE00027082F02031D822D26082E02031D822D8A
:102AF00025082D02031D822D24082C02031D822D82
:102B000023082B02031C852D862D962D2308AB024E
:102B10002408AC3B2508AD3B2608AE3B2708AF3B5D
:102B20002808B03B2908B13B2A08B23BAA36A90CB9
:102B3000A80CA70CA60CA50CA40CA30C0130B40285
:102B4000031DA32DA42D642D35080319A82DA92D2F
:102B5000C72DAB09AC09AD09AE09AF09B009B10980
:102B6000B209AB0A031DC72DAC0A031DC72DAD0A60
:102B7000031DC72DAE0A031DC72DAF0A031DC72DA8
:102B8000B00A031DC72DB10A031DC72DB20A2000CC
:102B90002B08A3002C08A4002D08A5002E08A600D1
:102BA0002F08A7003008A8003108A9003208AA00A1
:102BB00008002000B5012330860000308700473F21
:102BC000B300B31FE42DE52D072E2000A309A409AF
:102BD000A509A609A709A809A909AA09A30A031D05
:102BE000042EA40A031D042EA50A031D042EA60A02
:102BF000031D042EA70A031D042EA80A031D042E7C
:102C0000A90A031D042EAA0A2000B501B50A2B301B
:102C1000860000308700473F2000B300B31F112E0D
:102C2000122E362E2000AB09AC09AD09AE09AF0952
:102C3000B009B109B209AB0A031D312EAC0A031D5C
:102C4000312EAD0A031D312EAE0A031D312EAF0AFF
:102C5000031D312EB00A031D312EB10A031D312E82
:102C6000B20A01302000B3003308B50636308600C2
:102C70000030870008302000B30000301E00B30B86
:102C80003E2E2308240425042604270428042904AE
:102C90002A0403194C2E4D2EA92EB401B40A5C2E21
:102CA000A335A40DA50DA60DA70DA80DA90DAA0D60
:102CB0000130B3003308B407AA1F5F2E602E502ED8
:102CC000B635B70DB80DB90DBA0DBB0DBC0DBD0DA8
:102CD0002A083202031D862E29083102031D862E82
:102CE00028083002031D862E27082F02031D862E7A
:102CF00026082E02031D862E25082D02031D862E72
:102D000024082C02031D862E23082B02031C892E67
:102D10008A2E9B2E2308AB022408AC3B2508AD3B32
:102D20002608AE3B2708AF3B2808B03B2908B13B3B
:102D30002A08B23B3614AA36A90CA80CA70CA60C7C
:102D4000A50CA40CA30C0130B402031DA82EA92EBF
:102D5000602E35080319AD2EAE2ECC2EB609B7095C
:102D6000B809B909BA09BB09BC09BD09B60A031DEE
:102D7000CC2EB70A031DCC2EB80A031DCC2EB90ADF
:102D8000031DCC2EBA0A031DCC2EBB0A031DCC2E6C
:102D9000BC0A031DCC2EBD0A20003608A30037084C
:102DA000A4003808A5003908A6003A08A7003B0887
:102DB000A8003C08A9003D08AA0008002100A900BD
:102DC00020005D0886008701403FDF00413FE000B2
:102DD0005F088400600885001200253A031DF12E6B
:102DE000F22EDA2F5D08860087010130810741311C
:102DF0000318810A2200B201B301B601B701FF3006
:102E0000B400FF30B50020005D0886008701403F18
:102E1000DF00413FE0005F08840060088500120089
:102E2000643A0319142F152F262F5D088600870199
:102E3000403FDF00413FE0005F08840060088500FC
:102E40001200693A031D252F262F742F5D08860076
:102E500087010130810741310318810A5E0886002D
:102E6000870101088400850102308107003FDF00EF
:102E7000013FE0005F082100A00020006008210061
:102E8000A100890D893B8909A200A300A400A50027
:102E9000A600A70020082000BF0021002108200074
:102EA000C000210022082000C100210023082000CA
:102EB000C200210024082000C300210025082000B2
:102EC000C400210026082000C5002100270820009A
:102ED000C6002100290884316A2496312000400868
:102EE000DE003F08DD00FF2F5D0886008701403FC0
:102EF000DF00413FE0005F088400600885001200A9
:102F00006E3A031D842F852FA52F5D08860087014B
:102F10000130810741310318810A5E08860087016C
:102F2000403F84008501810A0008DF005F0821001E
:102F3000A80028088600870122003008C03F310819
:102F4000C13F2000DD01DE01FF2F5D088600870103
:102F5000403FDF00413FE0005F08840060088500DB
:102F60001200253A031DB52FB62FD12F5D0886001C
:102F700087010130810741310318810A2530A600FD
:102F80000030A700210029082000DF005F08A8000A
:102F900092311422963101302000DD000030DE0035
:102FA000FF2F5D088600870101308107413103183A
:102FB000810AA12F5D0886008701403FDF00413F65
:102FC000E0005F088400600885000008E100E2017D
:102FD0006108A6006208A700210029082000E3007C
:102FE0006308A80092311422963120005D08860003
:102FF00087010130810741310318810ACB2F080076
:1030000028341A3484341A3474341A34663412343A
:10301000A23410346D341A34D1341F342D341A34A0
:1030200032341A3437341A343C341A3441341A34B2
:1030300046341A344B341A3450341A3448341F345A
:103040002D343E34203454344534533454342034F5
:1030500043344F344E3446344F3452344D34453477
:1030600020342D34203441345434543445344E34D7
:103070005434453420344134433451345534493484
:103080005434543445344D3445344E3454340D3472
:043090000A340034CA
:1033F0000800083401300800240096140800240056
:10340000161508002400961508002400110808006D
:103410002000911508009C31BA249A31080023003D
:103420001D121D160800240096161616080024000A
:103430009612161608009F3175279A31080016302B
:10344000210097000800F000700824009100080097
:103450002300E410E3010E3008009931FC219A3179
:10346000013008009931FC219A310230080099316D
:10347000FC219A31013008009931FF219A31003046
:1034800008009A3117229A31053008009A31132228
:103490009A310A3008009A3113229A310930080013
:1034A0002300E410E3010E3008002400160E890CFE
:1034B000890C013908009A31D8229A312400161457
:1034C00008009A31D8229A312400161508006400A9
:1034D00080010131890B682A0034230064109A317D
:1034E00002229A3104300800230064145E359A31B8
:1034F00023229A3103300800F03021009E009B0106
:103500009C0101309D0008002300641403145E0D2B
:103510009A3123229A310530080020002408220025
:10352000B900200023082200B80008002000240869
:103530002200BD00200023082200BC00080020005B
:1035400024082200BB00200023082200BA00080043
:10355000200024082200BF00200023082200BE0013
:103560000800200024082200C100200023082200B7
:10357000C000080001309C316F249A313530890B2E
:10358000BF2A00000800C0302400940008309500D5
:1035900096014F30920095120800283024009500C3
:1035A000960194012730920021008E150E16080016
:1035B00024001419DC2ADD2AD82A16081F39031D15
:1035C000E22AE32AD82A08007030210099009801E5
:1035D0002200960121001A1FEE2AEF2AEA2A08008B
:1035E0007608F1007508F0007708F8007808F20016
:1035F00000309E31F2269A3108002000A3002308F3
:103600000319032B042B072B22000C14092B220077
:103610000C1008002000A30023080319102B112B05
:10362000142B22001014162B22001010080020006A
:10363000A300230803191D2B1E2B212B22009014FD
:10364000232B2200901008002000A3002308031958
:103650002A2B2B2B2E2B22001015302B2200101181
:1036600008002000A30023080319372B382B3B2B1D
:1036700022008C143D2B22008C1008002000A30097
:1036800023080319442B452B482B22000C154A2BE9
:1036900022000C1108002000A30023080319512B5D
:1036A000522B552B22000C16572B22000C1208000F
:1036B0002000A300230803195E2B5F2B622B22003E
:1036C0008C16642B22008C1208002000A300230813
:1036D00003196B2B6C2B6F2B22008C15712B220086
:1036E0008C110800F3002300E41D772B782B812B2D
:1036F0007308F2007208DF007108E1007008E00052
:10370000E41108002000A3009A31D8229B31200048
:103710002308240091002000911D8F2B902B8B2BD0
:10372000911108000230F0000030F10079089B315F
:1037300072239B310030F500F600F7019A31F02238
:103740009B31043008000130F0000030F1007908AE
:103750009B3172239B310030F500F600F7019A315E
:10376000F0229B31023008000230F0000030F100FE
:1037700079089B3172239B310030F500F600F70188
:103780009A31F0229B31023008000130F000003005
:10379000F10079089B3172239B310030F500F6006F
:1037A000F7019A31F0229B31043008009A31C3228C
:1037B0009B319D3127259B319A31E4229B319A31EF
:1037C0001F229B319A317C229B31913130219B31D8
:1037D00008002D343E3420344534523452344534BC
:1037E000553452343A342034003400340034003438
:1037F000003400340034003400342000A4009A3136
:103800005B229B31220046089B3182239B312000A2
:10381000240822006B049B3182239B319A31612260
:103820009B310800AF302000E90069082100AF009B
:103830002E082000E50021002D082000E400AF3014
:10384000E9006908E6000030883106209C31080054
:1038500020003408A4003308A3009C31A0249C312C
:10386000200023083307A7002408343DA8003608A9
:10387000AA003508A9009E317A269C3108007908F3
:1038800086008701403FF000413FF1007908023E89
:103890008600870101089B3172239C310030F500BE
:1038A000F600F7019A31F0229C3102300800200026
:1038B000A600220047082000A5002508A604260827
:1038C00004389B31FD239C3120002608FB399B31B5
:1038D000FD239C314230890B6B2C00320800200004
:1038E000A8002200C70120002808F0399C31572485
:1038F0009C3120002808A7000330A735FF3E031D98
:103900007D2C2735F0399C3157249C31080020004C
:10391000A8002200C701C70A20002808F0399C31FE
:1039200057249C3120002808A7000330A735FF3E0C
:10393000031D962C2735F0399C3157249C31080003
:1039400020002408A6002308A500AA2C0130A30704
:103950000030A43D23088600240887000108031DC9
:10396000B22CB32CA62C25082302A3002608243B46
:10397000A400080023001908F00020006C08E53EB0
:10398000860001308700700881000130F000700867
:10399000EC0708306C02031CCE2CCF2CD02CEC0191
:1039A0000130F0007008EA0708002000A400A3011D
:1039B00024080319DC2CDD2CE32C8F1BE02CE12CDC
:1039C000E32CA301A30A2408031DE72CE82CEE2C0A
:1039D0008F1FEB2CEC2CEE2CA301A30A230808006C
:1039E0002000A400A30124080319F72CF82CFE2CB6
:1039F0000F19FB2CFC2CFE2CA301A30A2408031D89
:103A0000022D032D092D0F1D062D072D092DA301B4
:103A1000A30A2308080020003708803AB800803045
:103A20003802031D152D013036020318182D192DEB
:103A3000262D20003609B8003709B900B80A031945
:103A4000B90A3808B6003908B700262D0800220048
:103A500090018F018C018D018E01083021009000B2
:103A60008C01EF308D00BF308E00FF308F002300BF
:103A70008F013F308D0090013C308C00240090017C
:103A80008D012100951722009D01080022000C17CE
:103A900006302000A4001330A300AD30890B4E2D5A
:103AA000A30B4E2DA40B4E2D003222000C1306301A
:103AB0002000A4001330A300AD30890B5D2DA30BB3
:103AC0005D2DA40B5D2D003208002000AC01AD017E
:103AD000782D29082C0784002A082D3D8500000830
:103AE0009C3187249D3101302000AC070030AD3D72
:103AF00029082C0784002A082D3D85001200031D8B
:103B0000822D832D692D08002000A6002608A5001F
:103B1000A50DA50D21001D082000250683392506C9
:103B200021009D001D140D30890B942D00002100F3
:103B30009D149D189C2D9D2D992D1C082000A400DE
:103B400021001B082000A300080020302100AD0048
:103B50009830AE009C3112249D312100B101B20198
:103B60009E3154269D3101302100B1070030B23D15
:103B70003208803AB00080303002031DC12D02307F
:103B80003102031CC42DC52DB02D08002000A40057
:103B9000A30124080319CD2DCE2DD82D0F1CD12D16
:103BA000D22DD82D8F18D52DD62DD82DA301A30A0F
:103BB0002408031DDC2DDD2DE72D0F18E02DE12D50
:103BC000E72D8F1CE42DE52DE72DA301A30A230883
:103BD00008002000A400A30124080319F02DF12DF2
:103BE000FB2D8F1DF42DF52DFB2D0F1AF82DF92D22
:103BF000FB2DA301A30A2408031DFF2D002E0A2E6E
:103C00008F19032E042E0A2E0F1E072E082E0A2EA1
:103C1000A301A30A230808002000A400A30124088C
:103C20000319132E142E1E2E8F1E172E182E1E2E25
:103C30000F1B1B2E1C2E1E2EA301A30A2408031DDE
:103C4000222E232E2D2E8F1A262E272E2D2E0F1F9D
:103C50002A2E2B2E2D2EA301A30A2308080008309C
:103C6000220049020318352E362E512E21006308FA
:103C7000283E860001308700010823009A000130A9
:103C8000F00070082100E30708306302031C492E8E
:103C90004A2E4B2EE3010130F00070082200C907C4
:103CA000532E2100111208002000A801A9019F3104
:103CB0001C279E310B302000A7002630A6005D3067
:103CC000890B602EA60B602EA70B602E00320130F0
:103CD0002000A8070030A93D2908803AA6008030BE
:103CE0002602031D752E02302802031C782E792E21
:103CF000572E080020002A08B0002908AF00280825
:103D0000B2002708B1003208AC003108AB00B10A9C
:103D10000319B20A2B0886002C0887003008AE0071
:103D20002F08AD00AF0A0319B00A2D0884002E0831
:103D300085000008C03F8908031D9F2EA02E832EFA
:103D400008002D343E342034453452345234453446
:103D5000553452343A3420340034003400340034C2
:103D6000003400340034003400340D340A3400349C
:103D700000340034003400340034003400340D3496
:103D80000A34003400340034003400340034003489
:103D900000342000B500B301B401E12E3208AF00B9
:103DA000B0012F08A6003008A7002E08B100310886
:103DB000A800923114229E3101302000B307003058
:103DC000B43D33083507AF002F0886000230870066
:103DD0000108B0003008B2003208031DF02EF12EA9
:103DE000CE2E0800F400700871040319F82EF92E85
:103DF0000C2F7435C83E8600013087007008C03F24
:103E00007108C13F7208F3007408D43E8600013087
:103E10008700730881001B2F7435C83E860001306F
:103E20008700FA30C03F1930C13F7408D43E860085
:103E300001308700810108002000A401A5012200B3
:103E40000D1606302000A3003030890B252FA30B60
:103E5000252F000022000D1206302000A300303074
:103E6000890B302FA30B302F000001302000A40756
:103E70000030A53D2508803AA30080302302031DB1
:103E8000432F32302402031C462F472F1F2F0800D8
:103E9000230064100230FA007A08E300572F9A31A9
:103EA00037229F31742F9A313C229F31742F56084C
:103EB000FA007A08F9000430C83E86000130870015
:103EC000413F8A00403F0A009F31FB00FC017C0813
:103ED000003A03196C2F532F7B08023A03194F2F16
:103EE000013A03194F2F532F0800903100209F31C2
:103EF0002300641C7C2F7D2F8B2F9A3155229F31FC
:103F0000003A0319842F852F8B2F0F302000A0003B
:103F100020082300E200230062082000A000A10185
:103F2000A035A10D0030200784009830213D850088
:103F3000013F8A00003F0A009F312000A2002208B2
:103F40002300E20008002000A40022004908031911
:103F5000AA2FAB2FA52F2100111AAF2FB02FB52FED
:103F60002000240823009A00CE2F111220002408DC
:103F7000A3007D08283E86000130870023088100C9
:103F80000130A3002308FD0708307D02031CC92F60
:103F9000CA2FCB2FFD0101302200C90221001116CA
:103FA00008002300E415E12F9A3137229F31FF2FBB
:103FB0009A3108229F310330FF2F9A313C229F31E2
:103FC000FF2F5408FA007A08F90049088A004808C7
:103FD0000A009F31FB00FC017C08003A0319F12F15
:103FE000DD2F7B08013A0319DD2F033A0319D42F83
:103FF000013A0319D42F073A0319D82FDD2F0800EF
:1040000041347434743465346E347434653420341B
:10401000763461346C3469346434613474346934B2
:104020006F346E3420346C3465346434203472342C
:104030006F347534673465340D340A3400342D34EC
:104040003E342034503452344F34473452344134A7
:104050004D344D344134543449344F344E3420348B
:104060005434453452344D3449344E344534453457
:104070000D340A3400342D343E342034503452345C
:104080004F344734523441344D344D344134543438
:1040900049344F344E34203445344E342034433484
:1040A0004F345534523453340D340A3400342D34E3
:1040B0003E3420344534523452344534553452342D
:1040C0002034503452344F344734523441344D3418
:1040D0004D344134543449344F344E340D340A3461
:1040E00000342D343E342034543445345334543465
:1040F00020344D3441344E34553445344C3420341E
:1041000045344E34203443344F34553452345334D0
:104110000D340A34003441345434543445344E346C
:10412000543445342034563441344C3449344434C6
:104130004134543449344F344E3420344C344534B3
:10414000443453340D340A3400342D343E34203496
:104150004534463446344134433445344D34453493
:104160004E345434203445344E34203443344F34A8
:104170005534523453340D340A3400342D343E3423
:1041800020344534463446344134433445344D3488
:1041900045344E34543420345434453452344D3440
:1041A00049344E3445340D340A3400342D343E3411
:1041B0002034463449344E34203454344534533456
:1041C000543420344D3441344E34553445344C3419
:1041D0000D340A34003445345234523445345534A5
:1041E00052342034503452344F34473452344134F2
:1041F0004D344D344134543449344F344E3400340A
:1042000050345234453453345334453452342034CA
:104210004F344B3420344F345534203445345234E9
:1042200052344534553452340034413454345434C7
:1042300045344E34543445342034413443345134BD
:10424000553449345434543445344D3445344E3463
:10425000543400342D343E342034413470347034BE
:10426000753479346534723420347334753472346F
:1042700020344F344B340D340A3400345434453434
:104280005334543420345234313420344F3446348F
:10429000463420342D3420345234323420344F34D8
:1042A0004E3400345434453453345434203452346E
:1042B000323420344F344634463420342D342034C4
:1042C0005234333420344F344E3400342D343E34A1
:1042D000203454344534533454342034413443343A
:1042E0005134553449345434543445340D340A343B
:1042F000003454344534533454342034433441343A
:10430000523454344534203444343934323435341E
:10431000453444343434003456344534523449340A
:104320004634493445345234203450343134203406
:10433000453454342034503432340034523445340B
:10434000533455344C34543441345434203443348D
:104350004F344E344634493452344D3445340034AD
:10436000543445345334543420344E344F344E3462
:10437000203443344F344E3446344F3452344D3469
:1043800045340034463449344E34203450345234A9
:104390004F344734523441344D344D344134543425
:1043A00049344F344E340034413454345434453459
:1043B0004E34543445342034443445344D3441343F
:1043C00052345234413447344534003450344F343D
:1043D00053344934543449344F344E344E344534D4
:1043E000523420344334413452345434453400344C
:1043F0005434453453345434203433342034523418
:1044000045344C3441344934533420344F344634E9
:104410004634003443344C34413456344934453402
:1044200052342034453443344C34413449345234CA
:1044300045343F34003450345234453453345334CB
:104440004534523420344F344B3420342F3420340C
:104450004E344F344B340034543445345334543494
:10446000203433342034523445344C3441344934CC
:10447000533420344F344E340034543445345334A0
:10448000543420344C3445344434203443344C3494
:1044900041345634493445345234003443344C3476
:1044A000413456344934453452342034453454343C
:1044B000453449344E3454343F3400345434453454
:1044C0005334543420344C3445344434533420343D
:1044D0004334413452345434453400344534523436
:1044E00052344534553452342034563441344C34EB
:1044F00049344434453445340034463449344E3428
:1045000020344534463446344134433445344D3404
:1045100045344E34543400345434453453345434D4
:1045200020344C3445344434203452344F345534E0
:1045300047344534003454344534533454342034EF
:104540004C34453444342034563445345234543495
:1045500045340034543445345334543420344C34CA
:1045600045344434203442344C3445345534453495
:1045700000345434453453345434203442344C34AD
:104580005534453454344F344F3454344834003463
:104590004134503450345534593445345234203435
:1045A00053345534523420344F344B3400342D348A
:1045B0003E342034543445345334543420344F344E
:1045C000463446340D340A340034523445345434BD
:1045D0004934523445345234203443344134523413
:1045E0005434453400344C3445344434533420344A
:1045F00041344C344C3455344D34453445345334C3
:1046000000342D343E34203454344534533454343F
:1046100020344F344E340D340A3400342D343E34BB
:10462000203454344534533454343A3431343034EF
:104630003A34313400342D343E342034543445344B
:10464000533454343A34313432343A34313400341B
:104650002D343E34203454344534533454343A34B5
:10466000313433343A34313400342D343E34203450
:1046700054344534533454343A34313434343A3481
:10468000313400342D343E342034543445345334E2
:1046900054343A34313435343A34313400342D34EE
:1046A0003E34203454344534533454343A34313461
:1046B00036343A34313400342D343E3420345434DA
:1046C0004534533454343A34313437343A34313451
:1046D00000342D343E34203454344534533454346F
:1046E0003A34313438343A34313400345434453483
:1046F00053345434203448344F3452344C344F34CF
:104700004734453400342D343E3420345434453459
:10471000533454343A3431343A34313400342D344F
:104720003E34203454344534533454343A343234DF
:104730003A34313400342D343E342034543445344A
:10474000533454343A3433343A34313400342D341D
:104750003E34203454344534533454343A343434AD
:104760003A34313400342D343E342034543445341A
:10477000533454343A3435343A34313400342D34EB
:104780003E34203454344534533454343A3436347B
:104790003A34313400342D343E34203454344534EA
:1047A000533454343A3437343A34313400342D34B9
:1047B0003E34203454344534533454343A34383449
:1047C0003A34313400342D343E34203454344534BA
:1047D000533454343A3439343A3431340034543460
:1047E0004534533454342034533446344C344134F7
:1047F000533448340034463449344E34203444343D
:10480000453420345434453453345434003456340D
:104810004F344934523420344134503450344C34C1
:1048200049340034543445345334543420345234ED
:10483000313420344F344E34003445345434413410
:104840005034453420343134303400344534543419
:10485000413450344534203431343234003454340B
:1048600045345334543420344234503432340034D8
:1048700045345434413450344534203431343334A5
:1048800000344534543441345034453420343134C8
:1048900034340034453454344134503445342034B5
:1048A0003134353400344534543441345034453493
:1048B00020343134363400344534543441345034A7
:1048C00045342034313437340034453454344134A1
:1048D0005034453420343134383400345434453481
:1048E0005334543420344F344B340034453454342E
:1048F0004134503445342034313400345434453458
:104900005334543420345034313400344534543426
:104910004134503445342034323400345434453436
:104920005334543420345034323400344534543405
:104930004134503445342034333400344534543415
:104940004134503445342034343400344534543404
:1049500041345034453420343534003445345434F3
:1049600041345034453420343634003445345434E2
:1049700041345034453420343734003445345434D1
:1049800041345034453420343834003445345434C0
:1049900041345034453420343934003425346434BF
:0249A0000034E1
:020000040001F9
:08000000FF3FFF3FFF3FFF3F00
:04000E00E43FFF3F8D
:00000001FF
