:1000000080314A28053008007E1480310B1F0928F2
:100010000A2848282100111E0E280F281B2820001E
:10002000111E132814281B28220041088A004008AA
:100030000A00803148282100911E1F2820282C28E2
:100040002000911E242825282C2822003F088A0001
:100050003E080A00803148282100921D30283128AE
:100060003D282000921D352836283D2822004508CD
:100070008A0044080A00803148282100911D412847
:10008000422848282000911D46284728482836281D
:100090007E10090080314C2822009931672180317F
:1000A000EB000C3084009E308500A03086000130CB
:1000B00087002830883100208031543084009B3004
:1000C00085004030860002308700143088310020DF
:1000D0008031FD012000EA01EB01EC012100E30188
:1000E00020308400013085002A309931D8218031B8
:1000F000C83084000130850025309931D821803105
:10010000203084000230850020309931D8218031A0
:100110007E1020008B31472B9F302000AE00A53091
:10012000AF005C30B000A230B1002930B200A23084
:10013000B3005930B400A030B50091312E21803188
:1001400001309A31A922803106302100E0001330BD
:10015000DF00AD30890BAA28DF0BAA28E00BAA2804
:10016000003200309A31A92280310B302100E000AA
:100170002630DF005D30890BBB28DF0BBB28E00B8E
:10018000BB2800320C309C31EF2480312000240841
:100190002400DF00200023082400DE00A730210017
:1001A000AD00A530AE0024005F082100B00024009F
:1001B0005E082100AF0058308831062080312100D0
:1001C0002E082400D50021002D082400D4005F084B
:1001D000803A2100DF0083305F02031DF2282030C7
:1001E00024005E020318F528F628012922008C1746
:1001F000BC302100AD00A430AE009B317D238031A6
:100200002F299F302100B000A530B1006330B2002B
:100210000230B3006230B4000230B50093314223A3
:10022000803122008C1361302100B8000230B90007
:100230006330BA000230BB006230BC000230BD0047
:100240006030BE000230BF00923128228031503031
:100250002100AD00A430AE009B317D2380312930D8
:100260002100E0009630DF007F30890B3529DF0B5D
:100270003529E00B35292400630803194029412959
:10028000042AF6302000AE00A430AF005C30B0008D
:10029000A230B1006D30B200A230B3005930B400CA
:1002A000A030B50091312E21803101309A31A92240
:1002B000803106302100E0001330DF00AD30890BC3
:1002C0005F29DF0B5F29E00B5F29003200309A3194
:1002D000A92280310B302100E0002630DF005D30A4
:1002E000890B7029DF0B7029E00B702900320C306C
:1002F0009C31EF248031200024082400DF002000FE
:1003000023082400DE00A7302100AD00A530AE0098
:1003100024005F082100B00024005E082100AF0027
:10032000583088310620803121002E082400D70063
:1003300021002D082400D6005F08803A2100DF004C
:1003400082305F02031DA7298A3024005E02031851
:10035000AA29AB29B62922008C1395302100AD00C3
:10036000A330AE009B317D238031F829F630210087
:10037000B000A430B1006330B2000230B30062308C
:10038000B4000230B500933142238031F6302000B2
:10039000AE00A430AF005C30B000A230B1005830E5
:1003A000B2000230B3005930B400A030B500913132
:1003B0002E21803122008C1761302100B8000230DC
:1003C000B9006330BA000230BB006230BC000230BA
:1003D000BD006030BE000230BF0092312822803163
:1003E0002D302100AD00A330AE009B317D23803144
:1003F00029302100E0009630DF007F30890BFE2994
:10040000DF0BFE29E00BFE29240063080319092AEB
:100410000A2ADE2AFF302000AE00A430AF00C83028
:10042000B000A430B1005930B200A030B300593050
:10043000B400A030B50091312E2180310B30210065
:10044000E0002630DF005D30890B242ADF0B242AF0
:10045000E00B242A003201309A31A9228031063083
:100460002100E0001330DF00AD30890B352ADF0BAF
:10047000352AE00B352A003200309A31A92280312A
:100480003D302100E000E130DF003F30890B462A9B
:10049000DF0B462AE00B462A003201309A31A922AE
:1004A000803106302100E0001330DF00AD30890BD1
:1004B000572ADF0B572AE00B572A003200309A31B7
:1004C000A922803110302100E0003930DF000D30EA
:1004D000890B682ADF0B682AE00B682A003201309A
:1004E0009D3131258031003A0319772A782A932AE1
:1004F00001309D3154258031003A0319802A812A28
:10050000932A00309D3177258031003A0319892ADA
:100510008A2A932AA2302100AD00A330AE009B317D
:100520007D238031C92A2400E30100309A31A922B9
:10053000803100309A31B6228031FF302100B00086
:10054000A430B1006330B2000230B3006230B400B6
:100550000230B50093314223803161302100B80070
:100560000230B9006330BA000230BB006230BC0018
:100570000230BD006030BE000230BF009231282240
:1005800080313A302100AD00A330AE009B317D2395
:10059000803115302100E0004B30DF00BE30890B88
:1005A000CF2ADF0BCF2AE00BCF2A000000309A3190
:1005B000A922803100309A31B622803124006308AC
:1005C0000319E32AE42A5A2B11302000AE00A5308B
:1005D000AF007D30B000A230B1001230B200A330C5
:1005E000B3003A30B400A230B50091312E218031F1
:1005F00001309A31A922803106302100E000133009
:10060000DF00AD30890B022BDF0B022BE00B022B3E
:10061000003200309A31A9228031AA302100AD0089
:10062000A030AE009B317D238031240061089431DD
:10063000572480312100DF005F082400E2006208B7
:10064000031D232B242B522BE30111302100B0007A
:10065000A530B1006330B2000230B3006230B400A4
:100660000230B50093314223803161302100B8005F
:100670000230B9006330BA000230BB006230BC0007
:100680000230BD006030BE000230BF00923128222F
:10069000803147302100AD00A330AE009B317D2377
:1006A00080315A2B47302100AD00A330AE009B3182
:1006B0007D2380312400630803195F2B602BE82B16
:1006C0001A302000AE00A530AF000830B000A530D1
:1006D000B1005930B200A030B3005930B400A0309E
:1006E000B50091312E21803101309A31B62280310E
:1006F00006302100E0001330DF00AD30890B7E2B87
:10070000DF0B7E2BE00B7E2B003200309A31B622BD
:1007100080310B302100E0002630DF005D30890B96
:100720008F2BDF0B8F2BE00B8F2B003201309D3195
:1007300031258031003A03199E2B9F2BBA2B0130B3
:100740009D3154258031003A0319A72BA82BBA2BD1
:1007500001309D3177258031003A0319B02BB12B40
:10076000BA2BAF302100AD00A330AE009B317D230A
:100770008031E82B2400E3011A302100B000A530BD
:10078000B1006330B2000230B3006230B400023016
:10079000B50093314223803161302100B80002302E
:1007A000B9006330BA000230BB006230BC000230D6
:1007B000BD006030BE000230BF009231282280317F
:1007C00054302100AD00A330AE009B317D23803139
:1007D000240063080319ED2BEE2B762C2330200028
:1007E000AE00A530AF00E330B000A330B100593007
:1007F000B200A030B3005930B400A030B500913140
:100800002E218031013090310020803106302100CE
:10081000E0001330DF00AD30890B0C2CDF0B0C2C0B
:10082000E00B0C2C003200309031002080310B3076
:100830002100E0002630DF005D30890B1D2CDF0B2E
:100840001D2CE00B1D2C003200309D3131258031F4
:10085000003A03192C2C2D2C482C00309D315425A6
:100860008031003A0319352C362C482C00309D314C
:1008700077258031003A03193E2C3F2C482CBC30A0
:100880002100AD00A330AE009B317D238031762C5A
:100890002400E30123302100B000A530B100633013
:1008A000B2000230B3006230B4000230B5009331C0
:1008B0004223803161302100B8000230B90063303A
:1008C000BA000230BB006230BC000230BD006030B4
:1008D000BE000230BF0092312822803161302100F9
:1008E000AD00A330AE009B317D238031240063082E
:1008F00003197B2C7C2CF62C2C302000AE00A5306C
:10090000AF005730B000A530B1005930B200A03070
:10091000B3005930B400A030B50091312E218031A0
:1009200001309A31C322803119302100E0005A3061
:10093000DF00B130890B9A2CDF0B9A2CE00B9A2C3C
:10094000003200309A31C32280310B302100E000A8
:100950002630DF005D30890BAB2CDF0BAB2CE00BBE
:10096000AB2C003201309D3131258031003A031922
:10097000BA2CBB2CD62C01309D3154258031003A45
:100980000319C32CC42CD62C01309D31772580311E
:10099000003A0319CC2CCD2CD62CC9302100AD0047
:1009A000A330AE009B317D238031F62C2C3021000A
:1009B000D700A530D8006330DF005F08D90062306F
:1009C000E0006008DA006130E1006108DB006030BF
:1009D000E2006208DC0088313E2080316E30210068
:1009E000AD00A330AE009B317D238031240063082D
:1009F0000319FB2CFC2C842D35302000AE00A530D3
:100A0000AF006730B000A530B1005930B200A0305F
:100A1000B3005930B400A030B50091312E2180319F
:100A200001309A31D022803119302100E0005A3053
:100A3000DF00B130890B1A2DDF0B1A2DE00B1A2DB8
:100A4000003200309A31D02280310B302100E0009A
:100A50002630DF005D30890B2B2DDF0B2B2DE00BBB
:100A60002B2D003200309D3131258031003A0319A1
:100A70003A2D3B2D562D00309D3154258031003AC2
:100A80000319432D442D562D00309D31772580319B
:100A9000003A03194C2D4D2D562DD6302100AD00B6
:100AA000A330AE009B317D238031842D2400E301EF
:100AB00035302100B000A530B1006330B200023003
:100AC000B3006230B4000230B5009331422380316C
:100AD00061302100B8000230B9006330BA00023042
:100AE000BB006230BC000230BD006030BE0002308E
:100AF000BF009231282280317B302100AD00A3302D
:100B0000AE009B317D238031240063080319892DB9
:100B10008A2DFA2D3E302000AE00A530AF00D8302F
:100B2000B000A230B100E030B200A430B3003A30DF
:100B3000B400A230B50091312E2180319C31B12416
:100B4000803100302100AD00A030AE009B317D230C
:100B50008031240061089431572480312100DF0066
:100B60005F082400E2006208031DB72DB82DF22DA6
:100B7000E3013E302100B000A530B1006330B20087
:100B80000230B3006230B4000230B500933142232A
:100B9000803161302100B8000230B9006330BA0002
:100BA0000230BB006230BC000230BD006030BE00CD
:100BB0000230BF0092312822803129302100E0002C
:100BC0009630DF007F30890BE32DDF0BE32DE00B48
:100BD000E32D88302100AD00A330AE009B317D2392
:100BE0008031FA2D88302100AD00A330AE009B315A
:100BF0007D238031240063080319FF2D012E8B31E2
:100C00007A2BD4302000AE00A430AF00D830B00032
:100C1000A130B1000430B200A330B3003430B400CE
:100C2000A130B50091312E21803101309A318222DC
:100C3000803100309A31752280319D31102580310C
:100C400061302100B0000230B1006330B2000230E8
:100C5000B3009231DB22803163302100B0000230DA
:100C6000B1006230B2000230B3006130B400023033
:100C7000B5006030B6000230B7009031E42080311A
:100C800029302100E0009630DF007F30890B462EAE
:100C9000DF0B462EE00B462EFF2D80314A28200028
:100CA000CA003F08D3004008D4004108D5004208DC
:100CB000D6004308D7004408D8004508D9004608A4
:100CC000DA005330860000308700473FC700C71B5B
:100CD0006A2E6C2E01306D2E00302000C800C90134
:100CE0004808D1004908D200510852040319792E4E
:100CF0007A2E982ED309D409D509D609D709D8094F
:100D0000D909DA09D30A031D982ED40A031D982E97
:100D1000D50A031D982ED60A031D982ED70A031D47
:100D2000982ED80A031D982ED90A031D982EDA0A88
:100D30002200B51B9C2E9D2EA12EFD30B605FF3046
:100D4000B7053508803A2000C70080304702031DF0
:100D5000AC2E0130220034020318AF2EB02EB62E76
:100D600001302000CD000030CE00BE2E220035081C
:100D70002000CE00220034082000CD0022003308DD
:100D80002000D000220032082000CF005108520479
:100D9000031DCB2ECC2ED12E2200361DD02ED12ECF
:100DA000D62EFF302000CF07FF30D03D1F3020006F
:100DB000DB000030DC002400BF01472FFF302000A3
:100DC000DB07FF30DC3D0A30A300A401A501A6012A
:100DD000A701A801A901AA015308AB005408AC005F
:100DE0005508AD005608AE005708AF005808B000CF
:100DF0005908B1005A08B2009431EC248631200021
:100E00002408B7002308B6009C31762486312000E0
:100E10003608303EC7005B08203E8600023087005F
:100E200047088100FF30CD07FF30CE3DFF30CF07B0
:100E3000FF30D03D0A30A300A401A501A601A701FF
:100E4000A801A901AA015308AB005408AC00550839
:100E5000AD005608AE005708AF005808B00059085A
:100E6000B1005A08B2009531D925863120002308F7
:100E7000D3002408D4002508D5002608D60027086A
:100E8000D7002808D8002908D9002A08DA0020004D
:100E90005C08803AC70080304702031D512F0130A3
:100EA0005B02031C542F552F822F2000530854043B
:100EB000550456045704580459045A04031D612F5D
:100EC000622FDE2E4E08803AC70080304702031D95
:100ED0006B2F01304D0203186E2F6F2FDE2E200076
:100EE0005008803AC70080304702031D792F013037
:100EF0004F02031C7C2F7D2F822F2200B618812FDA
:100F0000822FDE2E200051085204031D882F892FC6
:100F10008E2F2200361D8D2F8E2FAB2FFF302000FD
:100F2000DB07FF30DC3D51085204031D982F992F39
:100F30009E2F2B30CB000030CC00A22F2D30CB00C9
:100F40000030CC004B08C7005B08203E8600023012
:100F500087004708810020005B08203EC700470843
:100F6000B6005008B8004F08B7004A0892317F22F7
:100F7000863120003708C0003608BF000800200076
:100F80006C08203E860001308700810123001D1D72
:100F9000CA2FCB2FD82F20006C08203E86000130AE
:100FA0008700811422003D088A003C080A0087312E
:100FB00023009D1CDC2FDD2FEA2F20006C08203E33
:100FC000860001308700011522003B088A003A089C
:100FD0000A00873120006C08203E8600013087001F
:100FE00001080319F42FF52FFC2F220039088A007D
:100FF00038080A008731FF2F9C31252487310800EB
:10100000FE0012001E00FE0B012800342100B40077
:10101000AF302000E90069082100B3003408200047
:10102000E90069082100B500B601B701B801B901AE
:101030002E082000E50021002D082000E400B33038
:10104000E9006908E600B5309F31C92788312000E2
:1010500065082100B200200064082100B1003608B4
:1010600034072000E900690886000230870081010A
:1010700021003208AE003108AD0008004030860083
:101080000230870054308400013085001430210084
:10109000DD0016001A00DD0B4928B430860001304F
:1010A00087004A308400013085000A30DD001600D8
:1010B0001A00DD0B572801309A318F228831013018
:1010C0009A319C22883100309A3182228831210065
:1010D00058082000AF00210057082000AE00CF3094
:1010E000B000A130B100AB30B200A130B3001F306E
:1010F000B400A130B50091312E2188315430200048
:10110000B3000130B400210058082000B6002100CF
:1011100057082000B5009B31932388312000340804
:101120002200E900200033082200E80069082000BE
:10113000B400220068082000B3004A30B500013036
:10114000B6009B3193238831200034082100AE0083
:10115000200033082100AD009B317D238831903180
:101160005320883121005B08860002308700010887
:101170009431572488312100DD005D082200EA0007
:101180000B302100DE002630DD005D30890BC628E3
:10119000DD0BC628DE0BC628003222006A080319C0
:1011A000D228D32807292100590886000230870059
:1011B00081015A0886000230870081012C3020000E
:1011C000AE00A530AF00D430B000A130B100BD30CA
:1011D000B200A130B3003430B400A130B500913179
:1011E0002E218831DB302100B8000030B900D93021
:1011F000BA000030BB00DA30BC000030BD00DC308B
:10120000BE000030BF009231282288318F292C3057
:101210002000AE00A530AF005730B000A530B100BF
:101220005930B200A030B3005930B400A030B5003E
:1012300091312E21883100309A318F22883101304E
:101240009A319C22883100309A31822288310130D3
:101250009A31C322883119302100DE005A30DD0076
:10126000B130890B3129DD0B3129DE0B31290032F8
:1012700000309A31C322883115302100DE004B3016
:10128000DD00BE30890B4229DD0B4229DE0B4229ED
:10129000000001309D3131258831003A0319512970
:1012A0005229792901309D3154258831003A03199A
:1012B0005A295B29792901309D3177258831003AF7
:1012C00003196329642979292C302000AE00A53048
:1012D000AF005730B000A530B1008D30B200A23061
:1012E000B3004730B400A530B50091312E218831CC
:1012F0008F292100590886000230870081012C3097
:10130000B000A530B100D930B2000030B300DA30FF
:10131000B4000030B500933142238831F228080030
:101320002100B600B501402B20000F1998299929FA
:10133000B42990302100AD00A030AE009B317D2358
:1013400089312100B501B50A3608860002308700D0
:101350008101310886000230870081013008860053
:10136000023087008101810A20006A080319B92927
:10137000BA29402B9F319A2789312100B2003208C7
:10138000B400212B010020302100AD00A330AE00BD
:101390009B317D2389312100360886000230870089
:1013A0008101810A30088600023087008101810AAC
:1013B0003108860002308700810102302100B3002D
:1013C0000430B200BA30890BE329B20BE329B30B26
:1013D000E32900002100B501B50A402B7630AD00AD
:1013E000A030AE009B317D23893198302000AE00C3
:1013F000A130AF005930B000A030B1000A30B200C7
:10140000A130B3005930B400A030B50091312E2185
:101410008931210036088600023087008101810A67
:1014200002302100B3000430B200BA30890B162A12
:10143000B20B162AB30B162A00002100B501B50A1B
:101440003008860002308700810122008C13402B77
:101450005A30AD00A030AE009B317D2389319830E9
:101460002000AE00A130AF005930B000A030B10074
:10147000E530B200A130B3005930B400A030B5005F
:1014800091312E21893121003608860002308700F3
:101490008101810A3008860002308700810131080D
:1014A000860002308700810102302100B300043041
:1014B000B200BA30890B5A2AB20B5A2AB30B5A2AF5
:1014C00000002100B501B50A22008C17402B3E30E8
:1014D000AD00A030AE009B317D23893198302000D3
:1014E000AE00A130AF005930B000A030B100E13003
:1014F000B200A130B3005930B400A030B500913132
:101500002E218931210036088600023087008101B2
:10151000810A02302100B3000430B200BA30890BD6
:101520008F2AB20B8F2AB30B8F2A00002100B5013E
:10153000B50A3008860002308700810122008C1332
:10154000402BC430AD00A030AE009B317D238931EB
:1015500098302000AE00A130AF005930B000A0306C
:10156000B100A030B200A230B3005930B400A030B6
:10157000B50091312E2189312100360886000230D4
:1015800087008101810A30088600023087008101CE
:1015900031088600023087008101810A0230210073
:1015A000B3000430B200BA30890BD42AB20BD42A6B
:1015B000B30BD42A00002100B501B50A22008C1714
:1015C000402BDD30AD00A030AE009B317D23893152
:1015D00098302000AE00A130AF005930B000A030EC
:1015E000B1009C30B200A230B3005930B400A0303A
:1015F000B50091312E218931210036088600023054
:1016000087008101810A300886000230870081014D
:1016100031088600023087008101810A02302100F2
:10162000B3000430B200BA30890B142BB20B142B68
:10163000B30B142B00002100B501B50A22008C1356
:10164000402B3408B200B3013308003A0319292BA8
:10165000402B3208303A0319C229013A0319C32931
:10166000043A0319E12A033A0319EE29013A03194E
:10167000282A0F3A0319A12A013A0319672A402B95
:10168000210035080319452B462B942908009B316E
:1016900041238B318B170B179A3145228B314E30FA
:1016A0009331CB238B312400E301E201E101E0011E
:1016B000E00A98302000AE00A130AF000530B00045
:1016C000A230B100E730B200A230B3005930B4000C
:1016D000A030B50091312E218B3115302100E00072
:1016E0004B30DF00BE30890B732BDF0B732BE00B0D
:1016F000732B000022008C1320000E1C802B812BEA
:10170000852B2400DD01DD0A872B2400DD0120006C
:101710008E188B2B8C2B8D2B8D2B9830AE00A130FF
:10172000AF00F330B000A130B1005930B200A030AA
:10173000B300E730B400A230B50091312E218B31D7
:1017400003302100E0000830DF007730890BA62B42
:10175000DF0BA62BE00BA62BBA2B63302100DF009A
:101760005F08B0006030E0006008B100613089318E
:1017700090218B31240063080319BF2BC02BAD2BA4
:10178000E0019D31BF258B314F302000AE00A530E8
:10179000AF004B30B000A230B1005930B200A030E1
:1017A000B3005930B400A030B50091312E218B31F7
:1017B0002400E301E30A00309A3182228B310030A9
:1017C0009A318F228B3101309A319C228B3101303A
:1017D0009A31A9228B3101309A31B6228B311530E2
:1017E0002100E0004B30DF00BE30890BF52BDF0B12
:1017F000F52BE00BF52B000001309A3175228B316F
:1018000029302100E0009630DF007F30890B062C64
:10181000DF0B062CE00B062C01309D3131258B317E
:10182000003A0319142C152C302C01309D3154250D
:101830008B31003A03191D2C1E2C302C01309D31A8
:1018400077258B31003A0319262C272C302C5C305D
:101850002100AD00A430AE009B317D238B31662C7E
:101860002400E30100309A31A9228B3100309A31F3
:10187000B6228B314F302100B000A530B10063306B
:10188000B2000230B3006230B4000230B5009331D0
:1018900042238B3161302100B8000230B90063303F
:1018A000BA000230BB006230BC000230BD006030C4
:1018B000BE000230BF00923128228B31F03021006F
:1018C000AD00A330AE009B317D238B31153021005C
:1018D000E0004B30DF00BE30890B6C2CDF0B6C2C32
:1018E000E00B6C2C000000309A31A9228B310030C3
:1018F0009A31B6228B31240063080319802C812C85
:10190000FC2C5F302000AE00A530AF001730B000D7
:10191000A230B1005930B200A030B3005930B40049
:10192000A030B50091312E218B3100309A31A9229F
:101930008B3100309A31B6228B310B302100E00020
:101940002630DF005D30890BA32CDF0BA32CE00BCE
:10195000A32C003201309D3131258B31003A031D1B
:10196000B22CB32CCE2C01309D3154258B31003A52
:10197000031DBB2CBC2CCE2C01309D3177258B3127
:10198000003A031DC42CC52CCE2C68302100AD00BC
:10199000A430AE009B317D238B31FC2C2400E3016D
:1019A0005F302100B000A530B1006330B2000230DA
:1019B000B3006230B4000230B500933142238B3162
:1019C00061302100B8000230B9006330BA00023043
:1019D000BB006230BC000230BD006030BE0002308F
:1019E000BF00923128228B31FC302100AD00A330A2
:1019F000AE009B317D238B31240063080319012D38
:101A0000022D7E2D6F302000AE00A530AF00AB3030
:101A1000B000A230B1005930B200A030B30059304C
:101A2000B400A030B50091312E218B3101309A31B4
:101A3000A9228B3106302100E0001330DF00AD30E9
:101A4000890B202DDF0B202DE00B202D00320030E4
:101A50009A31A9228B3124005D080319302D312DD4
:101A60007E2D1F302100AD00A030AE009B317D23C4
:101A70008B3124006108943157248B312100DF0021
:101A80005F082400E2006208031D472D482D762DD3
:101A9000E3016F302100B000A530B1006330B20027
:101AA0000230B3006230B4000230B50093314223FB
:101AB0008B3161302100B8000230B9006330BA00C8
:101AC0000230BB006230BC000230BD006030BE009E
:101AD0000230BF00923128228B3108302100AD0046
:101AE000A430AE009B317D238B317E2D74302100DC
:101AF000AD00A430AE009B317D238B312400630800
:101B00000319842D8D31862D8D31F92D77302000EC
:101B1000AE00A530AF00C930B000A230B1005930DE
:101B2000B200A030B3005930B400A030B5009131FC
:101B30002E218D3101309A31A9228D3106302100BC
:101B4000E0001330DF00AD30890BA42DDF0BA42D96
:101B5000E00BA42D003200309A31A9228D312400EF
:101B60005D080319B42DB52DF92D61089431572462
:101B70008D312100DF005F082400E2006208031DB0
:101B8000C22DC32DF12DE30177302100B000A53027
:101B9000B1006330B2000230B3006230B4000230F2
:101BA000B500933142238D3161302100B8000230FD
:101BB000B9006330BA000230BB006230BC000230B2
:101BC000BD006030BE000230BF00923128228D314E
:101BD00014302100AD00A430AE009B317D238D3147
:101BE000F92D80302100AD00A430AE009B317D2363
:101BF0008D31240063080319FE2DFF2D722E7F30D6
:101C00002000AE00A530AF00BA30B000A230B10065
:101C10005930B200A030B3005930B400A030B50044
:101C200091312E218D3101309A31A9228D3106302A
:101C30002100E0001330DF00AD30890B1D2EDF0BDB
:101C40001D2EE00B1D2E003200309A31A9228D315D
:101C500024005D0803192D2E2E2E722E610894315A
:101C600057248D312100DF005F082400E200620864
:101C7000031D3B2E3C2E6A2EE3017F302100B00075
:101C8000A530B1006330B2000230B3006230B4005E
:101C90000230B500933142238D3161302100B8000C
:101CA0000230B9006330BA000230BB006230BC00C1
:101CB0000230BD006030BE000230BF0092312822E9
:101CC0008D3120302100AD00A430AE009B317D234A
:101CD0008D31722E8C302100AD00A430AE009B31CE
:101CE0007D238D31240063080319772E782EEE2E84
:101CF00087302000AE00A530AF00EB30B000A4303C
:101D0000B1005930B200A030B3005930B400A03057
:101D1000B50091312E218D3101309A31A9228D31BA
:101D200015302100E0004B30DF00BE30890B962ECD
:101D3000DF0B962EE00B962E000000309A31A92280
:101D40008D3115302100E0004B30DF00BE30890BB3
:101D5000A72EDF0BA72EE00BA72E000001309D3130
:101D600031258D31003A0319B62EB72EC02E98308A
:101D70002100AD00A430AE009B317D238D31EE2ECD
:101D80002400E30187302100B000A530B1006330AA
:101D9000B2000230B3006230B4000230B5009331BB
:101DA00042238D3161302100B8000230B900633028
:101DB000BA000230BB006230BC000230BD006030AF
:101DC000BE000230BF00923128228D312C3021001C
:101DD000AD00A430AE009B317D238D31240063081B
:101DE0000319F32EF42E732F8F302000AE00A53090
:101DF000AF005D30B000A130B1005930B200A0306A
:101E0000B3005930B400A030B50091312E218D318E
:101E100001309A31A9228D3115302100E0004B307C
:101E2000DF00BE30890B122FDF0B122FE00B122FB9
:101E3000000000309A31A9228D3115302100E000D8
:101E40004B30DF00BE30890B232FDF0B232FE00B3D
:101E5000232F000000309D3131258D31003A0319C8
:101E6000322F332F452F01309D3154258D31003ACB
:101E700003193B2F3C2F452FA4302100AD00A43087
:101E8000AE009B317D238D31732F2400E3018F3011
:101E90002100B000A530B1006330B2000230B300C1
:101EA0006230B4000230B500933142238D3161308D
:101EB0002100B8000230B9006330BA000230BB0024
:101EC0006230BC000230BD006030BE000230BF0096
:101ED000923128228D3138302100AD00A430AE007F
:101EE0009B317D238D31240063080319782F792FCE
:101EF000F82F97302000AE00A530AF007130B00051
:101F0000A130B1005930B200A030B3005930B40054
:101F1000A030B50091312E218D3101309A31A922A6
:101F20008D3115302100E0004B30DF00BE30890BD1
:101F3000972FDF0B972FE00B972F000000309A317F
:101F4000A9228D3115302100E0004B30DF00BE307A
:101F5000890BA82FDF0BA82FE00BA82F0000003063
:101F60009D3154258D31003A0319B72FB82FCA2F50
:101F700001309D3177258D31003A0319C02FC12FD3
:101F8000CA2FB0302100AD00A430AE009B317D23BC
:101F90008D31F82F2400E30197302100B000A530E7
:101FA000B1006330B2000230B3006230B4000230DE
:101FB000B500933142238D3161302100B8000230E9
:101FC000B9006330BA000230BB006230BC0002309E
:101FD000BD006030BE000230BF00923128228D313A
:101FE00044302100AD00A430AE009B317D238D3103
:101FF000240063080319FE2F80318C2881313B298E
:102000002000A30023080319062807280A28220015
:102010008C150C2822008C11080099317321903105
:10202000FA0023005F08860087017A0881000130EA
:10203000FA007A08DF070130E0020030E13B600877
:1020400061040319242825282A28993188219031F0
:1020500005305228E41534289931BC21903152289A
:102060009931B721903152285408FA007A08F900C2
:1020700049088A0048080A009031FB00FC017C08EE
:10208000003A0319442830287B08013A0319302804
:10209000033A03192C28013A03192C28073A03198B
:1020A0003028302808002000A801A9012000AA013A
:1020B000AB019E31872690310B302000A7002630DF
:1020C000A6005D30890B6228A60B6228A70B622848
:1020D000003201302000AA070030AB3D2B08803AC7
:1020E000A60080302602031D772804302A02031C34
:1020F0007A287B2859280B302000A7002630A6001C
:102100005D30890B8128A60B8128A70B812800321E
:1021100001302000A8070030A93D2908803AA60018
:1021200080302602031D962804302802031C9928BB
:102130009A285628080021009112BF302000A300E1
:102140000730A4009A3120229031210011129A30D8
:102150002000A3001D30A4009A31292290310830BC
:1021600023009F0090309D0024309E0040309B0053
:1021700003309C0066302000A3001930A4009A317F
:102180000E22903180302000A3001930A4009A3133
:10219000172290317C302000A3001930A4009A311E
:1021A000052290312200C801FD012100E301083021
:1021B0002000A50025082200C9002000EC01EB0149
:1021C000EA01210091160800210034088600350834
:1021D00087000108031DED28EE28F528F530AD0035
:1021E000A030AE009B317D23903121003008860065
:1021F0003108870081013208860033088700810199
:1022000034088600350887008101360886003708C3
:1022100087000130810000309A31822290310030F5
:102220009A318F22903100309A319C2290310030C7
:102230009A317522903100309A31A92290310030C4
:102240009A31B622903100309A31C3229031003059
:102250009A31D022903122008C1308009A31322218
:10226000913106309B31DA23913102302000B700E2
:102270000430B600BA30890B3B29B60B3B29B70BAB
:102280003B2900002000A901A90A01309F316B27DA
:10229000913120002F08AA002E08A9009C31D024DB
:1022A00091312000A901A90A02309F316B27913199
:1022B00020003108AA003008A9009C31D0249131B7
:1022C0002000A901A90A03309F316B27913120001A
:1022D0003308AA003208A9009C31D0249131200093
:1022E000A901A90A04309F316B27913120003508DC
:1022F000AA003408A9009C31D024913108002000A4
:1023000028080319842985298A292808031D892971
:102310008A298F2926089931E5219131D029280869
:10232000033E8600870116000104031998299929A4
:10233000B6292808033E86008701403FA900413F97
:10234000AA00280A86008701403FAB00413FAC004D
:102350002C08803AAD002A08803A2D02031DB229CC
:1023600029082B020318B529B629D02920002608F0
:10237000A900280886008701280A84008501000832
:102380000107AA002A088600023087002908810078
:10239000280A860087010130810741310318810A2C
:1023A00008009931C6219131003A0319D829D92959
:1023B0000A2AE62999319E219131272A9931A321B0
:1023C0009131272A9931AD219131272A23005708CD
:1023D000FA007A08F9000630C83E8600013087000E
:1023E000413F8A00403F0A009131FB00FC017C081C
:1023F000003A0319FC29E2297B08013A0319E22972
:10240000033A0319DA29013A0319DE29073A0319B5
:10241000E229E229230064101730C83E860001300B
:102420008700403F84008501810A0008993194218A
:10243000913101302300E0020030E13B600861048B
:10244000031D232A242A262A0630272A03300800BF
:10245000210038088600390887000108C000C10142
:102460004008B0004108B1003A0886003B088700E8
:102470000108C200C3014208B2004308B300923110
:10248000DB22923121003A0886003B0887000108D0
:10249000C000C1014008B0004108B1003C088600FE
:1024A0003D0887000108C200C3014208B20043088A
:1024B000B30038088600390887000108C400C50148
:1024C0004408B4004508B5003E0886003F08870070
:1024D0000108C600C7014608B6004708B70090319A
:1024E000E420923129302100C1009630C0007F30B5
:1024F000890B782AC00B782AC10B782A08002000A3
:10250000BE002200361C852A862A8F2A20003E081B
:10251000B9003908AE0036089E31342692312000C9
:10252000B81B932A942A992A3808BD003708BC00A2
:102530009B2ABC01BD01BA01BB01AF2A203020009B
:10254000A6000030A7003E08B9003908A800913164
:102550007F21923101302000BA070030BB3D3B089B
:10256000803AB9003D08803A3902031DB92A3C0877
:102570003A02031CBC2ABD2A9E2A22003618C12A10
:10258000C22ACB2A20003E08B9003908AE0036081E
:102590009E313426923120003608A3000230A40078
:1025A0009C310B24923120003C082307B6003D08E3
:1025B000243DB70008002100B7013B2B20000F1974
:1025C000E22AE32AF82AF5302100AD00A030AE005F
:1025D0009B317D2392312100B701B70A3008860074
:1025E00031088700810132088600330887008101A5
:1025F00020006A080319FD2AFE2A3B2B9F319A27E7
:1026000092312100B4003408B6002B2B0100853034
:102610002100AD00A130AE009B317D23923121001D
:1026200030088600310887008101320886003308AF
:102630008700810102302100B5000430B400BA30B7
:10264000890B202BB40B202BB50B202B0000210075
:10265000B701B70A3B2B3608B400B5013508003A7C
:102660000319332B3B2B3408303A0319062B043A59
:102670000319072B3B2B210037080319402B412B53
:10268000DE2A0800A030860001308700C1308400B7
:102690000030850014302100B60016001A00B60B79
:1026A0004D2BBE30860001308700B73084000030EB
:1026B00085000A30B60016001A00B60B5B2B0130FD
:1026C0009A318F22933101309A319C22933100301C
:1026D0009A318222933100309A3175229331210050
:1026E00031082000AF00210030082000AE00CF30BC
:1026F000B000A130B1003430B200A130B300593085
:10270000B400A030B50091312E219331C1302000AA
:10271000B3000030B400210031082000B6002100D1
:1027200030082000B5009B319323933120003408FA
:102730002100D600200033082100D50056082000D3
:10274000B400210055082000B300B730B5000030B8
:10275000B6009B3193239331200034082100AE0052
:10276000200033082100AD009B317D23933190314F
:102770005320933120000F1DBE2BBF2BBA2B2100FD
:102780003208860033088700810134088600350846
:102790008700810108002000AB002B08A900290850
:1027A0002200C60000309B31682393319C3020000A
:1027B000A900D730890BDA2BA90BDA2B03309B3118
:1027C000DA2393311A302000A900F830890BE62B68
:1027D000A90BE62B000003309B31DA2393311A302A
:1027E0002000A900F830890BF32BA90BF32B000074
:1027F00003309B31DA2393311A302000A900F830DE
:10280000890B002CA90B002C000002309B31DA232D
:1028100093311A302000A900F830890B0D2CA90B38
:102820000D2C000028309B31DA2393310230200038
:10283000AA000430A900BA30890B1C2CA90B1C2C4F
:10284000AA0B1C2C00000C309B31DA239331023090
:102850002000AA000430A900BA30890B2D2CA90B46
:102860002D2CAA0B2D2C000001309B31DA23933143
:1028700002302000AA000430A900BA30890B3E2C97
:10288000A90B3E2CAA0B3E2C000006309B31DA230C
:10289000933102302000AA000430A900BA30890B1D
:1028A0004F2CA90B4F2CAA0B4F2C00000800200026
:1028B000A800A901AA01280803195F2C602CC32CC9
:1028C000BD2C6A080319652C662CBD2C9F319A27F4
:1028D00094312000A5002508A700A72C0100023094
:1028E0002000A6000430A500BA30890B752CA50B7A
:1028F000752CA60B752C00002000A901A90AAA01BD
:10290000AA0ABD2C02302000A6000430A500BA306F
:10291000890B882CA50B882CA60B882C0000200086
:10292000A9017F2C02302000A6000430A500BA3097
:10293000890B982CA50B982CA60B982C0000200036
:10294000A901A90AAA01AA0A22008C13BD2C2708F2
:10295000A500A6012608003A0319AF2CBD2C2508B6
:10296000303A03196E2C023A03196F2C013A0319FD
:10297000822C0A3A0319922CBD2C20002A08031934
:10298000C22CC32C612C2808031DC72CC82CEA2C90
:10299000E42C01309C3140249431003A0319D12CAD
:1029A000D22CD62C2000A901AA01AA0A01309C3100
:1029B0005B249431003A0319DE2CDF2CE42C200038
:1029C000A901A90AAA01AA0A20002A080319E92CC8
:1029D000EA2CC92C290808002000B5012B308600FC
:1029E00000308700473FB300B31FF72CF82C1A2D97
:1029F0002000AB09AC09AD09AE09AF09B009B109B6
:102A0000B209AB0A031D172DAC0A031D172DAD0A21
:102A1000031D172DAE0A031D172DAF0A031D172D19
:102A2000B00A031D172DB10A031D172DB20A20008D
:102A3000B501B50A2330860000308700473F2000EB
:102A4000B300B31F242D252D442D2000A309A40974
:102A5000A509A609A709A809A909AA09A30A031D86
:102A6000442DA40A031D442DA50A031D442DA60AC6
:102A7000031D442DA70A031D442DA80A031D442D40
:102A8000A90A031D442DAA0A2000230824042504B2
:102A900026042704280429042A040319502D512D43
:102AA000A42DB401B40A602DA335A40DA50DA60D67
:102AB000A70DA80DA90DAA0D0130B3003308B40766
:102AC000AA1F632D642D542D2A083202031D822D66
:102AD00029083102031D822D28083002031D822D92
:102AE00027082F02031D822D26082E02031D822D8A
:102AF00025082D02031D822D24082C02031D822D82
:102B000023082B02031C852D862D962D2308AB024E
:102B10002408AC3B2508AD3B2608AE3B2708AF3B5D
:102B20002808B03B2908B13B2A08B23BAA36A90CB9
:102B3000A80CA70CA60CA50CA40CA30C0130B40285
:102B4000031DA32DA42D642D35080319A82DA92D2F
:102B5000C72DAB09AC09AD09AE09AF09B009B10980
:102B6000B209AB0A031DC72DAC0A031DC72DAD0A60
:102B7000031DC72DAE0A031DC72DAF0A031DC72DA8
:102B8000B00A031DC72DB10A031DC72DB20A2000CC
:102B90002B08A3002C08A4002D08A5002E08A600D1
:102BA0002F08A7003008A8003108A9003208AA00A1
:102BB00008002000B5012330860000308700473F21
:102BC000B300B31FE42DE52D072E2000A309A409AF
:102BD000A509A609A709A809A909AA09A30A031D05
:102BE000042EA40A031D042EA50A031D042EA60A02
:102BF000031D042EA70A031D042EA80A031D042E7C
:102C0000A90A031D042EAA0A2000B501B50A2B301B
:102C1000860000308700473F2000B300B31F112E0D
:102C2000122E362E2000AB09AC09AD09AE09AF0952
:102C3000B009B109B209AB0A031D312EAC0A031D5C
:102C4000312EAD0A031D312EAE0A031D312EAF0AFF
:102C5000031D312EB00A031D312EB10A031D312E82
:102C6000B20A01302000B3003308B50636308600C2
:102C70000030870008302000B30000301E00B30B86
:102C80003E2E2308240425042604270428042904AE
:102C90002A0403194C2E4D2EA92EB401B40A5C2E21
:102CA000A335A40DA50DA60DA70DA80DA90DAA0D60
:102CB0000130B3003308B407AA1F5F2E602E502ED8
:102CC000B635B70DB80DB90DBA0DBB0DBC0DBD0DA8
:102CD0002A083202031D862E29083102031D862E82
:102CE00028083002031D862E27082F02031D862E7A
:102CF00026082E02031D862E25082D02031D862E72
:102D000024082C02031D862E23082B02031C892E67
:102D10008A2E9B2E2308AB022408AC3B2508AD3B32
:102D20002608AE3B2708AF3B2808B03B2908B13B3B
:102D30002A08B23B3614AA36A90CA80CA70CA60C7C
:102D4000A50CA40CA30C0130B402031DA82EA92EBF
:102D5000602E35080319AD2EAE2ECC2EB609B7095C
:102D6000B809B909BA09BB09BC09BD09B60A031DEE
:102D7000CC2EB70A031DCC2EB80A031DCC2EB90ADF
:102D8000031DCC2EBA0A031DCC2EBB0A031DCC2E6C
:102D9000BC0A031DCC2EBD0A20003608A30037084C
:102DA000A4003808A5003908A6003A08A7003B0887
:102DB000A8003C08A9003D08AA0008002100A900BD
:102DC00020005D0886008701403FDF00413FE000B2
:102DD0005F088400600885001200253A031DF12E6B
:102DE000F22EDA2F5D08860087010130810741311C
:102DF0000318810A2200B201B301B601B701FF3006
:102E0000B400FF30B50020005D0886008701403F18
:102E1000DF00413FE0005F08840060088500120089
:102E2000643A0319142F152F262F5D088600870199
:102E3000403FDF00413FE0005F08840060088500FC
:102E40001200693A031D252F262F742F5D08860076
:102E500087010130810741310318810A5E0886002D
:102E6000870101088400850102308107003FDF00EF
:102E7000013FE0005F082100A00020006008210061
:102E8000A100890D893B8909A200A300A400A50027
:102E9000A600A70020082000BF0021002108200074
:102EA000C000210022082000C100210023082000CA
:102EB000C200210024082000C300210025082000B2
:102EC000C400210026082000C5002100270820009A
:102ED000C6002100290886314F269631200040087F
:102EE000DE003F08DD00FF2F5D0886008701403FC0
:102EF000DF00413FE0005F088400600885001200A9
:102F00006E3A031D842F852FA52F5D08860087014B
:102F10000130810741310318810A5E08860087016C
:102F2000403F84008501810A0008DF005F0821001E
:102F3000A80028088600870122003008C03F310819
:102F4000C13F2000DD01DE01FF2F5D088600870103
:102F5000403FDF00413FE0005F08840060088500DB
:102F60001200253A031DB52FB62FD12F5D0886001C
:102F700087010130810741310318810A2530A600FD
:102F80000030A700210029082000DF005F08A8000A
:102F900091317F21963101302000DD000030DE00CC
:102FA000FF2F5D088600870101308107413103183A
:102FB000810AA12F5D0886008701403FDF00413F65
:102FC000E0005F088400600885000008E100E2017D
:102FD0006108A6006208A700210029082000E3007C
:102FE0006308A80091317F21963120005D0886009A
:102FF00087010130810741310318810ACB2F080076
:1030000099341934FC341934EC341934D134113472
:103010000D341034DE3419343C341F349E341934EA
:10302000A3341934A8341934AD341934B2341934F2
:10303000B7341934BC341934C1341934B3341E34A0
:103040002D343E34203454344534533454342034F5
:1030500043344F344E3446344F3452344D34453477
:1030600020342D34203441345434543445344E34D7
:103070005434453420344134433451345534493484
:103080005434543445344D3445344E3454340D3472
:043090000A340034CA
:1032CC00080008340130080024009614080024007B
:1032DC001615080024009615080024001108080093
:1032EC002000911508002000911108009C31252424
:1032FC009931080023001D121D1608002400961693
:10330C001616080024009612161608009E31E026A8
:10331C00993108001630210097000800F000700861
:10332C002400910008002300E410E3010E30080093
:10333C0099316A2199310130080099316A2199310A
:10334C000230080099316A21993101300800993115
:10335C006D2199310030080099318821993105305F
:10336C0008009931842199310A300800993184215F
:10337C009931093008002300E410E3010E300800F5
:10338C002400160E890C890C013908009A31502240
:10339C0099312400161408009A31502299312400D6
:1033AC0016150800640080010131890BD9290034FD
:1033BC0023006410993170219931043008002000E9
:1033CC00A50025089F310E279931080023006414AD
:1033DC005E3599319421993103300800F030210089
:1033EC009E009B019C0101309D0008002300641489
:1033FC0003145E0D99319421993105300800200099
:10340C0024082200B900200023082200B80008007C
:10341C00200024082200BD00200023082200BC004C
:10342C000800200024082200BB00200023082200F2
:10343C00BA000800200024082200BF002000230846
:10344C002200BE000800200024082200C100200039
:10345C0023082200C000080001309B31DA239A3186
:10346C003530890B372A00000800C0302400940046
:10347C000830950096014F309200951208002830C4
:10348C0024009500960194012730920021008E159E
:10349C000E16080024001419542A552A502A16080E
:1034AC001F39031D5A2A5B2A502A0800703021004C
:1034BC00990098012200960121001A1F662A672A9A
:1034CC00622A08007608F1007508F0007708F80009
:1034DC007808F20000309E315D269A3108002000F9
:1034EC00A300230803197B2A7C2A7F2A22000C14B0
:1034FC00812A22000C1008002000A30023080319C5
:10350C00882A892A8C2A220010148E2A2200101054
:10351C0008002000A30023080319952A962A992A4B
:10352C00220090149B2A2200901008002000A30077
:10353C0023080319A22AA32AA62A22001015A82AB6
:10354C002200101108002000A30023080319AF2A41
:10355C00B02AB32A22008C14B52A22008C10080041
:10356C002000A30023080319BC2ABD2AC02A22006C
:10357C000C15C22A22000C1108002000A3002308FD
:10358C000319C92ACA2ACD2A22000C16CF2A2200D6
:10359C000C1208002000A30023080319D62AD72AEE
:1035AC00DA2A22008C16DC2A22008C120800F30086
:1035BC002300E41DE22AE32AEC2A7308F2007208C5
:1035CC00DF007108E1007008E000E4110800200041
:1035DC00A3009A3150229A31200023082400910034
:1035EC002000911DFA2AFB2AF62A911108000230BC
:1035FC00F0000030F10079089A31DD229A31003068
:10360C00F500F600F7019A3168229A31043008006F
:10361C000130F0000030F10079089A31DD229B3145
:10362C000030F500F600F7019A3168229B31023028
:10363C0008000230F0000030F10079089A31DD22E8
:10364C009B310030F500F600F7019A3168229B316E
:10365C00023008000130F0000030F10079089A3196
:10366C00DD229B310030F500F600F7019A3168221B
:10367C009B31043008009A313B229B319C319224BF
:10368C009B319A315C229B31993190219B3199313C
:10369C00F4219B3190319B209B3108002D343E341A
:1036AC0020344534523452344534553452343A343F
:1036BC00203400340034003400340034003400343E
:1036CC00003400342000A4009931CC219B3122001D
:1036DC0046089A31ED229B312000240822006B040D
:1036EC009A31ED229B319931D2219B310800AF30B8
:1036FC002000E90069082100AF002E082000E50039
:10370C0021002D082000E400AF30E9006908E60034
:10371C0000309F31C9279B31080020003408A400D9
:10372C003308A3009C310B249B3120002308330762
:10373C00A7002408343DA8003608AA003508A900C3
:10374C009D31E5259B310800790886008701403FB3
:10375C00F000413FF1007908023E86008701010824
:10376C009A31DD229B310030F500F600F7019A31D9
:10377C0068229B31023008002000A6002200470876
:10378C002000A5002508A604260804389B316823D0
:10379C009B3120002608FB399B3168239B3142303A
:1037AC00890BD62B003208002000A8002200C7018C
:1037BC0020002808F0399B31C2239B3120002808B7
:1037CC00A7000330A735FF3E031DE82B2735F03942
:1037DC009B31C2239B3108002000A8002200C701A6
:1037EC00C70A20002808F0399B31C2239B312000E6
:1037FC002808A7000330A735FF3E031D012C2735F1
:10380C00F0399B31C2239B31080020002408A6000C
:10381C002308A500152C0130A3070030A43D230874
:10382C008600240887000108031D1D2C1E2C112C5A
:10383C0025082302A3002608243BA400080023002B
:10384C001908F00020006C08E53E86000130870066
:10385C00700881000130F0007008EC0708306C0231
:10386C00031C392C3A2C3B2CEC010130F000700875
:10387C00EA0708002000A400A30124080319472C20
:10388C00482C4E2C8F1B4B2C4C2C4E2CA301A30ADA
:10389C002408031D522C532C592C8F1F562C572C9B
:1038AC00592CA301A30A230808002000A400A3019B
:1038BC0024080319622C632C692C0F19662C672CB5
:1038CC00692CA301A30A2408031D6D2C6E2C742CE7
:1038DC000F1D712C722C742CA301A30A2308080051
:1038EC0020003708803AB80080303802031D802C45
:1038FC00013036020318832C842C912C20003609BD
:10390C00B8003709B900B80A0319B90A3808B60063
:10391C003908B700912C0800220090018F018C010E
:10392C008D018E010830210090008C01EF308D004C
:10393C00BF308E00FF308F0023008F013F308D0091
:10394C0090013C308C00240090018D0121009517D2
:10395C0022009D01080022000C1706302000A40054
:10396C001330A300AD30890BB92CA30BB92CA40BCD
:10397C00B92C003222000C1306302000A4001330A6
:10398C00A300AD30890BC82CA30BC82CA40BC82CDE
:10399C00003208002000AC01AD01E32C29082C07F3
:1039AC0084002A082D3D850000089B31F2239C31B0
:1039BC0001302000AC070030AD3D29082C078400F5
:1039CC002A082D3D85001200031DED2CEE2CD42C65
:1039DC0008002000A6002608A500A50DA50D2100B5
:1039EC001D08200025068339250621009D001D1485
:1039FC000D30890BFF2C000021009D149D18072D04
:103A0C00082D042D1C082000A40021001B082000F8
:103A1C00A300080020302100AD009830AE009B318F
:103A2C007D239D312100B101B2019D31BF259D3116
:103A3C0001302100B1070030B23D3208803AB000AD
:103A4C0080303002031D2C2D02303102031C2F2D2F
:103A5C00302D1B2D08002000A400A30124080319FD
:103A6C00382D392D432D0F1C3C2D3D2D432D8F18FA
:103A7C00402D412D432DA301A30A2408031D472DDE
:103A8C00482D522D0F184B2D4C2D522D8F1C4F2D78
:103A9C00502D522DA301A30A230808002000A400D6
:103AAC00A301240803195B2D5C2D662D8F1D5F2D42
:103ABC00602D662D0F1A632D642D662DA301A30AAC
:103ACC002408031D6A2D6B2D752D8F196E2D6F2DEE
:103ADC00752D0F1E722D732D752DA301A30A2308AE
:103AEC0008002000A400A301240803197E2D7F2DBB
:103AFC00892D8F1E822D832D892D0F1B862D872DB1
:103B0C00892DA301A30A2408031D8D2D8E2D982D1C
:103B1C008F1A912D922D982D0F1F952D962D982D36
:103B2C00A301A30A23080800083022004902031845
:103B3C00A02DA12DBC2D21006308283E860001304C
:103B4C008700010823009A000130F0007008210062
:103B5C00E30708306302031CB42DB52DB62DE30129
:103B6C000130F00070082200C907BE2D210011128F
:103B7C0008002000A801A9019E3187269D310B3039
:103B8C002000A7002630A6005D30890BCB2DA60B9C
:103B9C00CB2DA70BCB2D003201302000A807003015
:103BAC00A93D2908803AA60080302602031DE02D8D
:103BBC0002302802031CE32DE42DC22D0800200046
:103BCC002A08B0002908AF002808B2002708B10065
:103BDC003208AC003108AB00B10A0319B20A2B0849
:103BEC0086002C0887003008AE002F08AD00AF0A05
:103BFC000319B00A2D0884002E0885000008C03F68
:103C0C008908031D0A2E0B2EEE2D08002D343E3490
:103C1C0020344534523452344534553452343A34C9
:103C2C0020340034003400340034003400340034C8
:103C3C00003400340D340A340034003400340034C1
:103C4C0000340034003400340D340A3400340034B1
:103C5C000034003400340034003400342000B5004B
:103C6C00B301B4014C2E3208AF00B0012F08A600EE
:103C7C003008A7002E08B1003108A80091317F212F
:103C8C009E3101302000B3070030B43D33083507B6
:103C9C00AF002F088600023087000108B000300802
:103CAC00B2003208031D5B2E5C2E392E0800F40086
:103CBC00700871040319632E642E772E7435C83E78
:103CCC008600013087007008C03F7108C13F720840
:103CDC00F3007408D43E860001308700730881001D
:103CEC00862E7435C83E8600013087006830C03F90
:103CFC001930C13F7408D43E860001308700810121
:103D0C0008002000A401A50122000D160630200099
:103D1C00A3003030890B902EA30B902E00002200B4
:103D2C000D1206302000A3003030890B9B2EA30B04
:103D3C009B2E000001302000A4070030A53D250873
:103D4C00803AA30080302302031DAE2E32302402B1
:103D5C00031CB12EB22E8A2E0800230064100230F0
:103D6C00FA007A08E300C22E9931A8219E31DF2E89
:103D7C009931AD219E31DF2E5608FA007A08F900F0
:103D8C000430C83E860001308700413F8A00403F26
:103D9C000A009E31FB00FC017C08003A0319D72E67
:103DAC00BE2E7B08023A0319BA2E013A0319BA2E19
:103DBC00BE2E0800993179219E312300641CE72E18
:103DCC00E82EF62E9931C6219E31003A0319EF2EBA
:103DDC00F02EF62E0F302000A00020082300E20069
:103DEC00230062082000A000A101A035A10D003025
:103DFC00200784009830213D8500013F8A00003F58
:103E0C000A009F312000A20022082300E2000800D3
:103E1C002000A400220049080319152F162F102F7B
:103E2C002100111A1A2F1B2F202F200024082300E9
:103E3C009A00392F111220002408A3007D08283E77
:103E4C00860001308700230881000130A30023087D
:103E5C00FD0708307D02031C342F352F362FFD0152
:103E6C0001302200C9022100111608002300E415BC
:103E7C004C2F9931A8219F316A2F993176219F318E
:103E8C0003306A2F9931AD219F316A2F5408FA0003
:103E9C007A08F90049088A0048080A009F31FB009B
:103EAC00FC017C08003A03195C2F482F7B08013A6F
:103EBC000319482F033A03193F2F013A03193F2FD7
:103ECC00073A0319432F482F08002000AC00862F17
:103EDC002908BF3E9B31DA239F31992F2908933E45
:103EEC009B31DA239F31992F2908D33E9B31DA235A
:103EFC009F31992F29087F3E9B31DA239F31992FCF
:103F0C002C08AA00AB012B08003A03198E2F802F26
:103F1C002A08023A03196E2F013A0319742F073A33
:103F2C0003197A2F802F080020006A0803199F2F8D
:103F3C00A02F9A2F6B08203E8600013087000108C5
:103F4C00A30023082200C80020006B08E53E860071
:103F5C00013087000108A3002308A4000130A3004E
:103F6C002308EB0708306B02031CBD2FBE2FBF2F9D
:103F7C00EB012100911201302000EA022100911680
:103F8C002000240808002100AA0020006508210058
:103F9C00AC00200064082100AB002200B001B1018C
:103FAC00ED2FAB302000E7006708DD006608E80065
:103FBC006808DE0021002A089631DE269F31200099
:103FCC005D082200B00720005E082200B13D2100F0
:103FDC002B0884002C0885001200031DF62FF72FE8
:103FEC00D72F220031082000E500220030082000E5
:103FFC00E400080041345434543445344E345434C1
:10400C0045342034563441344C34493444344134EE
:10401C00543449344F344E34203442344C345534B7
:10402C00453454344F344F34543448340D340A34FA
:10403C00003441347434743465346E3474346534FF
:10404C002034763461346C346934643461347434BF
:10405C0069346F346E3420346C34653464342034F9
:10406C0072346F347534673465340D340A3400346B
:10407C002D343E342034503452344F34473452347F
:10408C0041344D344D344134543449344F344E342E
:10409C0020345434453452344D3449344E34453440
:1040AC0045340D340A3400342D343E34203450342D
:1040BC0052344F344734523441344D344D344134FE
:1040CC00543449344F344E34203445344E34203437
:1040DC0043344F345534523453340D340A34003491
:1040EC002D343E3420344534523452344534553416
:1040FC0052342034503452344F34473452344134D7
:10410C004D344D344134543449344F344E340D34E1
:10411C000A3400342D343E34203454344534533472
:10412C00543420344D3441344E34553445344C34AD
:10413C00203445344E34203443344F3455345234C7
:10414C0053340D340A34003441345434543445342B
:10415C004E34543445342034563441344C34493480
:10416C0044344134543449344F344E3420344C3478
:10417C004534443453340D340A3400342D343E3435
:10418C0020344534463446344134433445344D347C
:10419C0045344E345434203445344E342034433476
:1041AC004F345534523453340D340A3400342D34D6
:1041BC003E3420344534463446344134433445345B
:1041CC004D3445344E345434203454344534523404
:1041DC004D3449344E3445340D340A3400342D34C6
:1041EC003E342034463449344E342034543445342F
:1041FC005334543420344D3441344E3455344534D6
:10420C004C340D340A340034453452345234453471
:10421C00553452342034503452344F3447345234A1
:10422C0041344D344D344134543449344F344E348C
:10423C0000345034523445345334533445345234AE
:10424C0020344F344B3420344F34553420344534DF
:10425C00523452344534553452340034413454348D
:10426C00543445344E34543445342034413443347E
:10427C005134553449345434543445344D34453424
:10428C004E34543400342D343E34203441347034A4
:10429C007034753479346534723420347334753435
:1042AC00723420344F344B340D340A3400345434CB
:1042BC0045345334543420345234313420344F3454
:1042CC004634463420342D342034523432342034A5
:1042DC004F344E3400345434453453345434203435
:1042EC005234323420344F344634463420342D3456
:1042FC0020345234333420344F344E3400342D3483
:10430C003E34203454344534533454342034413402
:10431C0043345134553449345434543445340D34C5
:10432C000A34003454344534533454342034433434
:10433C0041345234543445342034443439343234D6
:10434C0035344534443434340034563445345234E2
:10435C0049344634493445345234203450343134A1
:10436C0020344534543420345034323400345234F4
:10437C004534533455344C3454344134543420344F
:10438C0043344F344E344634493452344D3445342E
:10439C000034543445345334543420344E344F3474
:1043AC004E34203443344F344E3446344F3452342C
:1043BC004D3445340034463449344E342034503472
:1043CC0052344F344734523441344D344D344134EB
:1043DC00543449344F344E3400344134543454340E
:1043EC0045344E34543445342034443445344D34FF
:1043FC00413452345234413447344534003450340F
:10440C004F3453344934543449344F344E344E348D
:10441C0045345234203443344134523454344534CA
:10442C00003454344534533454342034333420342D
:10443C00523445344C3441344934533420344F34A1
:10444C0046344634003443344C34413456344934C5
:10445C00453452342034453443344C34413449349B
:10446C00523445343F340034503452344534533490
:10447C0053344534523420344F344B3420342F349D
:10448C0020344E344F344B3400345434453453348C
:10449C005434203433342034523445344C34413485
:1044AC004934533420344F344E340034543445346E
:1044BC005334543420344C34453444342034433451
:1044CC004C3441345634493445345234003443343A
:1044DC004C34413456344934453452342034453408
:1044EC005434453449344E3454343F340034543409
:1044FC0045345334543420344C34453444345334DC
:10450C00203443344134523454344534003445342B
:10451C0052345234453455345234203456344134A8
:10452C004C344934443445344534003446344934ED
:10453C004E342034453446344634413443344534C7
:10454C004D3445344E34543400345434453453349F
:10455C00543420344C3445344434203452344F34A5
:10456C00553447344534003454344534533454347E
:10457C0020344C344534443420345634453452348D
:10458C005434453400345434453453345434203486
:10459C004C3445344434203442344C344534553452
:1045AC004534003454344534533454342034423478
:1045BC004C345534453454344F344F3454344834DB
:1045CC000034413450345034553459344534523419
:1045DC00203453345534523420344F344B3400345B
:1045EC002D343E3420345434453453345434203434
:1045FC004F34463446340D340A3400345234453486
:10460C0054344934523445345234203443344134D4
:10461C0052345434453400344C34453444345334DB
:10462C00203441344C344C3455344D3445344534B9
:10463C00533400342D343E34203454344534533404
:10464C00543420344F344E340D340A3400342D3469
:10465C003E34203454344534533454343A343134A5
:10466C0030343A34303400342D343E342034543425
:10467C004534533454343A34313432343A3430349B
:10468C0000342D343E3420345434453453345434B3
:10469C003A34313433343A34303400342D343E34FB
:1046AC00203454344534533454343A34313434345F
:1046BC003A34303400342D343E34203454344534C0
:1046CC00533454343A34313435343A34303400348D
:1046DC002D343E34203454344534533454343A3429
:1046EC00313436343A34303400342D343E342034C2
:1046FC0054344534533454343A34313437343A34F2
:10470C00303400342D343E34203454344534533456
:10471C0054343A34313438343A34303400342D345F
:10472C003E34203454344534533454343A343134D4
:10473C0030343A34313400342D343E342034543453
:10474C004534533454343A34313432343A343134C9
:10475C0000342D343E3420345434453453345434E2
:10476C003A34313434343A34313400342D343E3428
:10477C00203454344534533454343A34313435348D
:10478C003A34313400342D343E34203454344534EE
:10479C00533454343A34313436343A3431340034BA
:1047AC002D343E34203454344534533454343A3458
:1047BC00313437343A34313400345434453453348E
:1047CC005434203448344F3452344C344F344734FE
:1047DC00453400342D343E34203454344534533471
:1047EC0054343A3431343A34303400342D343E3489
:1047FC00203454344534533454343A3432343A3407
:10480C00303400342D343E34203454344534533455
:10481C0054343A3433343A34303400342D343E3456
:10482C00203454344534533454343A3434343A34D4
:10483C00303400342D343E34203454344534533425
:10484C0054343A3435343A34303400342D343E3424
:10485C00203454344534533454343A3436343A34A2
:10486C00303400342D343E342034543445345334F5
:10487C0054343A3437343A34303400342D343E34F2
:10488C00203454344534533454343A3438343A3470
:10489C00303400342D343E342034543445345334C5
:1048AC0054343A3439343A34303400342D343E34C0
:1048BC00203454344534533454343A3431343A3447
:1048CC00313400342D343E34203454344534533494
:1048DC0054343A3432343A34313400342D343E3496
:1048EC00203454344534533454343A3433343A3415
:1048FC00313400342D343E34203454344534533464
:10490C0054343A3434343A34313400342D343E3463
:10491C00203454344534533454343A3435343A34E2
:10492C00313400342D343E34203454344534533433
:10493C0054343A3436343A34313400342D343E3431
:10494C00203454344534533454343A3437343A34B0
:10495C00313400342D343E34203454344534533403
:10496C0054343A3438343A34313400342D343E34FF
:10497C00203454344534533454343A3439343A347E
:10498C003134003454344534533454342034533497
:10499C0046344C344134533448340034463449346E
:1049AC004E34203444344534203454344534533458
:1049BC005434003456344F34493452342034413456
:1049CC00503450344C34493400345434453453341A
:1049DC00543420345234313420344F344E34003477
:1049EC00453454344134503445342034313430342B
:1049FC00003445345434413450344534203431344B
:104A0C003234003454344534533454342034423426
:104A1C0050343234003445345434413450344534F9
:104A2C00203431343334003445345434413450342C
:104A3C004534203431343434003445345434413426
:104A4C005034453420343134353400344534543406
:104A5C004134503445342034313436340034453408
:104A6C0054344134503445342034313437340034E8
:104A7C004534543441345034453420343134383492
:104A8C000034543445345334543420344F344B3480
:104A9C0000344534543441345034453420343134AA
:104AAC000034543445345334543420345034313479
:104ABC000034453454344134503445342034323489
:104ACC000034543445345334543420345034323458
:104ADC000034453454344134503445342034333468
:104AEC000034453454344134503445342034343457
:104AFC000034453454344134503445342034353446
:104B0C000034453454344134503445342034363434
:104B1C000034453454344134503445342034373423
:104B2C000034453454344134503445342034383412
:104B3C000034453454344134503445342034393401
:084B4C00003425346434003408
:020000040001F9
:08000000FF3FFF3FFF3FFF3F00
:04000E00E43FFF3F8D
:00000001FF
