:1000000080314A28053008007E1480310B1F0928F2
:100010000A2848282100111E0E280F281B2820001E
:10002000111E132814281B2821005E088A005D0871
:100030000A00803148282100911E1F2820282C28E2
:100040002000911E242825282C2821005C088A00E5
:100050005B080A00803148282100921D3028312891
:100060003D282000921D352836283D2821006208B1
:100070008A0061080A00803148282100911D41282A
:10008000422848282000911D46284728482836281D
:100090007E10090080314C282100883100208031F9
:1000A000E400FF308400963085004830860001303F
:1000B00087001E308731FA278031FD0151308400DE
:1000C00000308500073094317E248031A0308400D8
:1000D00000308500443094317E248031203084000B
:1000E00001308500283094317E2480317E1020003C
:1000F00080317A289531F92580318B170B1794318F
:10010000EB2480314E308D31AE2580312000D0017E
:10011000CF01CE01D730AE009830AF000E30B00026
:100120009930B100E330B2009930B300FF30B40031
:100130009930B5008B31C223803115302000CA00C0
:100140004B30C900BE30890BA328C90BA328CA0BAA
:10015000A328000020000E1CAE28AF28B5282200DE
:100160008C172000CD01CD0AB828CD0122008C13B8
:10017000D7302000AE009830AF00FC30B00098308F
:10018000B1003230B2009930B300E330B40099309E
:10019000B5008B31C223803103302000CA00083003
:1001A000C9007730890BD228C90BD228CA0BD228B4
:1001B00050302000C9004908C3004E308C31132450
:1001C000803188319D208031C3302000AE009A30CC
:1001D000AF006530B0009930B100FF30B200993007
:1001E000B300FF30B4009930B5008B31C2238031A9
:1001F0002000D001D00A0030953128258031003010
:1002000095313525803101309531422580312200EC
:100210008C13013095314F258031013095315C25AB
:10022000803103302000CA000830C9007730890BC4
:100230001729C90B1729CA0B1729013095311B251E
:10024000803129302000CA009630C9007F30890BE8
:100250002729C90B2729CA0B2729013088310E20ED
:100260008031003A0319352936294929013088316E
:1002700031208031003A03193E293F2949290130B4
:10028000883154208031003A0319472948294929E7
:1002900063292000D001003095314F258031003096
:1002A00095315C258031C3302000C3009A30C400F2
:1002B0005030C9004908C5004F30CA004A08C6007E
:1002C0008D313425803115302000CA004B30C900F3
:1002D000BE30890B6929C90B6929CA0B692900003D
:1002E000003095314F258031003095315C258031CB
:1002F0002000500803197D297E29D329D330AE0070
:100300009A30AF002030B0009930B100FF30B20019
:100310009930B300FF30B4009930B5008B31C2235F
:100320008031003095314F258031003095315C258A
:1003300080310B302000CA002630C9005D30890BA7
:100340009F29C90B9F29CA0B9F2900320130883190
:100350000E208031003A031DAE29AF29C229013099
:10036000883131208031003A031DB729B829C229CC
:100370000130883154208031003A031DC029C12941
:10038000C229D3292000D001D330C3009A30C40041
:100390005030C9004908C5004F30CA004A08C6009D
:1003A0008D3134258031200050080319D829D929EE
:1003B0002C2AE330AE009A30AF00A730B00099305D
:1003C000B100FF30B2009930B300FF30B400993073
:1003D000B5008B31C2238031013095314F258031FA
:1003E00006302000CA001330C900AD30890BF62951
:1003F000C90BF629CA0BF6290032003095314F257A
:10040000803120004D080319062A072A2C2A1F30A4
:10041000BF009830C0009531E725803120004E089C
:100420008C31BC2480312000C9004908CF004F081E
:10043000031D1B2A1C2A2C2AD001E330C3009A304A
:10044000C4005030C9004908C5004F30CA004A08EE
:10045000C6008D3134258031200050080319312A1F
:10046000322A7D2AEB30AE009A30AF00C530B000A2
:100470009930B100FF30B2009930B300FF30B400C2
:100480009930B5008B31C2238031013095314F2531
:10049000803106302000CA001330C900AD30890B0E
:1004A0004F2AC90B4F2ACA0B4F2A00320030953110
:1004B0004F25803120004D0803195F2A602A7D2ACC
:1004C0004E088C31BC2480312000C9004908CF007F
:1004D0004F08031D6C2A6D2A7D2AD001EB30C30022
:1004E0009A30C4005030C9004908C5004F30CA00D6
:1004F0004A08C6008D313425803120005008031988
:10050000822A832ACE2AF330AE009A30AF00B6306A
:10051000B0009930B100FF30B2009930B300FF3025
:10052000B4009930B5008B31C22380310130953150
:100530004F25803106302000CA001330C900AD308D
:10054000890BA02AC90BA02ACA0BA02A00320030AE
:1005500095314F25803120004D080319B02AB12A6A
:10056000CE2A4E088C31BC2480312000C9004908B5
:10057000CF004F08031DBD2ABE2ACE2AD001F3307A
:10058000C3009A30C4005030C9004908C5004F303C
:10059000CA004A08C6008D31342580312000500839
:1005A0000319D32AD42A242BFB30AE009A30AF0093
:1005B0006730B0009A30B100FF30B2009930B3001C
:1005C000FF30B4009930B5008B31C2238031013047
:1005D00095314F25803115302000CA004B30C900BD
:1005E000BE30890BF12AC90BF12ACA0BF12A00008F
:1005F000003095314F25803115302000CA004B3036
:10060000C900BE30890B022BC90B022BCA0B022B6F
:100610000000013088310E208031003A0319112B7F
:10062000122B132B242B2000D001FB30C3009A3057
:10063000C4005030C9004908C5004F30CA004A08FC
:10064000C6008D3134258031200050080319292B34
:100650002A2B832B0330AE009B30AF009C30B000C0
:100660009830B100FF30B2009930B300FF30B400D1
:100670009930B5008B31C2238031013095314F253F
:10068000803115302000CA004B30C900BE30890BC4
:10069000472BC90B472BCA0B472B00000030953165
:1006A0004F25803115302000CA004B30C900BE30C4
:1006B000890B582BC90B582BCA0B582B0000003044
:1006C00088310E208031003A0319672B682B722B7A
:1006D0000130883131208031003A0319702B712BA1
:1006E000722B832B2000D0010330C3009B30C40049
:1006F0005030C9004908C5004F30CA004A08C6003A
:100700008D3134258031200050080319882B892B26
:10071000E22B0B30AE009B30AF00B030B000983011
:10072000B100FF30B2009930B300FF30B40099300F
:10073000B5008B31C2238031013095314F25803196
:1007400015302000CA004B30C900BE30890BA62BE3
:10075000C90BA62BCA0BA62B0000003095314F25E4
:10076000803115302000CA004B30C900BE30890BE3
:10077000B72BC90BB72BCA0BB72B00000030883141
:1007800031208031003A0319C62BC72BD12B013001
:10079000883154208031003A0319CF2BD02BD12B34
:1007A000E22B2000D0010B30C3009B30C40050303E
:1007B000C9004908C5004F30CA004A08C6008D313B
:1007C00034258031200050080319E72BE82B542CE6
:1007D0001330AE009B30AF007630B0009930B100DE
:1007E0004330B2009930B300FF30B4009930B50007
:1007F0008B31C2238031013095314F258031063055
:100800002000CA001330C900AD30890B052CC90B7C
:10081000052CCA0B052C0032003095314F25803154
:100820000B302000CA002630C9005D30890B162C21
:10083000C90B162CCA0B162C00320C3097317A27B4
:10084000803120002408CC002308CB004C08803ADB
:10085000C90081304902031D2F2CE0304B020318E0
:10086000322C332C362C22008C17482C13302000CD
:10087000C3009B30C4005030C9004908C5004F3048
:10088000CA004A08C6008D313425803122008C13FD
:1008900029302000CA009630C9007F30890B4E2CC9
:1008A000C90B4E2CCA0B4E2C200050080319592C92
:1008B0005A2CC62C7230AE009A30AF007630B000A1
:1008C0009930B1008730B2009930B300FF30B400E6
:1008D0009930B5008B31C2238031013095314F25DD
:1008E000803106302000CA001330C900AD30890BBA
:1008F000772CC90B772CCA0B772C0032003095313E
:100900004F2580310B302000CA002630C9005D30F1
:10091000890B882CC90B882CCA0B882C00320C3010
:1009200097317A27803120002408CC002308CB009F
:100930004C08803AC90081304902031DA12CE130E6
:100940004B02031CA42CA52CA82C22008C13BA2C1F
:1009500072302000C3009A30C4005030C9004908EA
:10096000C5004F30CA004A08C6008D313425803199
:1009700022008C1729302000CA009630C9007F3031
:10098000890BC02CC90BC02CCA0BC02C20005008EE
:100990000319CB2CCC2C7B2D7B30AE009A30AF00D2
:1009A0004430B0009A30B100FF30B2009930B3004B
:1009B000FF30B4009930B5008B31C22380310B3049
:1009C0002000CA002630C9005D30890BE52CC90B18
:1009D000E52CCA0BE52C0032013095314F258031D2
:1009E00006302000CA001330C900AD30890BF62C48
:1009F000C90BF62CCA0BF62C0032003095314F256E
:100A000080313D302000CA00E130C9003F30890B01
:100A1000072DC90B072DCA0B072D00320130953168
:100A20004F25803106302000CA001330C900AD3098
:100A3000890B182DC90B182DCA0B182D0032003048
:100A400095314F25803110302000CA003930C9005F
:100A50000D30890B292DC90B292DCA0B292D0032E8
:100A6000013088310E208031003A0319382D392D9C
:100A70004C2D0130883131208031003A0319412D4D
:100A8000422D4C2D0030883154208031003A03191A
:100A90004A2D4B2D4C2D662D2000D0010030953174
:100AA0004F258031003095315C2580317B3020002E
:100AB000C3009A30C4005030C9004908C5004F3007
:100AC000CA004A08C6008D31342580311530200017
:100AD000CA004B30C900BE30890B6C2DC90B6C2D80
:100AE000CA0B6C2D0000003095314F25803100304D
:100AF00095315C258031200050080319802D812D0F
:100B0000CF2D8D30AE009A30AF009730B0009930C5
:100B1000B1001C30B2009A30B3005430B4009930A8
:100B2000B5008B31C2238031013095314F258031A2
:100B300006302000CA001330C900AD30890B9E2D4D
:100B4000C90B9E2DCA0B9E2D0032003095314F25CA
:100B5000803158302000BF009830C0009531E72523
:100B6000803120004E088C31BC2480312000C90027
:100B70004908CF004F08031DBE2DBF2DCF2DD0013A
:100B80008D30C3009A30C4005030C9004908C500F8
:100B90004F30CA004A08C6008D313425803120000C
:100BA00050080319D42DD52D372E9630AE009A302B
:100BB000AF008430B0009A30B100FF30B2009930FD
:100BC000B300FF30B4009930B5008B31C2238031BF
:100BD000013095315C25803106302000CA00133089
:100BE000C900AD30890BF22DC90BF22DCA0BF22DC5
:100BF0000032003095315C2580310B302000CA0076
:100C00002630C9005D30890B032EC90B032ECA0B99
:100C1000032E0032013088310E208031003A031952
:100C2000122E132E262E0130883131208031003AC9
:100C300003191B2E1C2E262E0130883154208031A2
:100C4000003A0319242E252E262E372E2000D001FF
:100C50009630C3009A30C4005030C9004908C5001E
:100C60004F30CA004A08C6008D313425803120003B
:100C7000500803193C2E3D2E9F2E9F30AE009A3017
:100C8000AF003730B0009A30B100FF30B200993079
:100C9000B300FF30B4009930B5008B31C2238031EE
:100CA000013088310120803106302000CA00133025
:100CB000C900AD30890B5A2EC90B5A2ECA0B5A2EB9
:100CC000003200308831012080310B302000CA0012
:100CD0002630C9005D30890B6B2EC90B6B2ECA0BF9
:100CE0006B2E0032003088310E208031003A03191B
:100CF0007A2E7B2E8E2E0030883131208031003AC2
:100D00000319832E842E8E2E00308831542080319A
:100D1000003A03198C2E8D2E8E2E9F2E2000D0018E
:100D20009F30C3009A30C4005030C9004908C50044
:100D30004F30CA004A08C6008D313425803120006A
:100D400050080319A42EA52E072FA830AE009A3004
:100D5000AF00CB30B0009A30B100FF30B200993014
:100D6000B300FF30B4009930B5008B31C22380311D
:100D7000013095316925803119302000CA005A3080
:100D8000C900B130890BC22EC90BC22ECA0BC22EAC
:100D9000003200309531692580310B302000CA00C7
:100DA0002630C9005D30890BD32EC90BD32ECA0B58
:100DB000D32E0032013088310E208031003A0319E1
:100DC000E22EE32EF62E0130883131208031003AB8
:100DD0000319EB2EEC2EF62E013088315420803191
:100DE000003A0319F42EF52EF62E072F2000D0011D
:100DF000A830C3009A30C4005030C9004908C5006B
:100E00004F30CA004A08C6008D3134258031200099
:100E1000500803190C2F0D2F6F2FB130AE009A30F0
:100E2000AF00DB30B0009A30B100FF30B200993033
:100E3000B300FF30B4009930B5008B31C22380314C
:100E4000013095317625803119302000CA005A30A2
:100E5000C900B130890B2A2FC90B2A2FCA0B2A2FA0
:100E6000003200309531762580310B302000CA00E9
:100E70002630C9005D30890B3B2FC90B3B2FCA0BB5
:100E80003B2F0032003088310E208031003A0319A8
:100E90004A2F4B2F5E2F0030883131208031003AAD
:100EA0000319532F542F5E2F003088315420803186
:100EB000003A03195C2F5D2F5E2F6F2F2000D001A9
:100EC000B130C3009A30C4005030C9004908C50091
:100ED0004F30CA004A08C6008D31342580312000C9
:100EE00050080319742F752FB12FBA30AE009A3005
:100EF000AF00D430B0009930B1005C30B2009A300D
:100F0000B3005430B4009930B5008B31C223803126
:100F100097313C27803100302000BF009830C0005E
:100F20009531E725803120004E088C31BC2480317A
:100F30002000C9004908CF004F08031DA02FA12F92
:100F4000B12FD001BA30C3009A30C4005030C9006C
:100F50004908C5004F30CA004A08C6008D31342503
:100F60008031200050080319B62FB72FAA2850301F
:100F7000AE009A30AF00F330B0009830B1000E30C0
:100F8000B2009A30B3008730B4009830B5008B318E
:100F9000C2238031013095312825803100309531D0
:100FA0001B25803197319B27803150302000C900AC
:100FB0004908C3004E308E31E52680314F30200085
:100FC000C9004908C3004E30CA004A08C400503066
:100FD0008A316E22803129302000CA009630C90043
:100FE0007F30890BF12FC90BF12FCA0BF12FAA28E3
:100FF00080314A28FE0012001E00FE0BFB2F003439
:1010000008342000A30023080319072808280B2808
:1010100022008C150D2822008C1108002000A4004D
:10102000A301240803191528162820280F1C1928A5
:101030001A2820288F181D281E282028A301A30A5B
:101040002408031D242825282F280F18282829289C
:101050002F288F1C2C282D282F28A301A30A230812
:1010600008002000A400A301240803193828392807
:1010700043288F1D3C283D2843280F1A402841282B
:101080004328A301A30A2408031D472848285228FF
:101090008F194B284C2852280F1E4F2850285228B1
:1010A000A301A30A230808002000A400A301240828
:1010B00003195B285C2866288F1E5F286028662835
:1010C0000F1B632864286628A301A30A2408031DB4
:1010D0006A286B2875288F1A6E286F2875280F1FAD
:1010E000722873287528A301A30A23080800F400B6
:1010F0007008710403197D287E288F287435A03E5E
:10110000860087017008C03F7108C13F7208F30074
:101110007408AC3E86008701730881009C287435F2
:10112000A03E860087010E30C03F1430C13F7408D6
:10113000AC3E86008701810108002000A801A901BA
:1011400089311A2188310B302000A7002630A600F3
:101150005D30890BA928A60BA928A70BA928003266
:1011600001302000A8070030A93D2908803AA600D8
:1011700080302602031DBE2802302802031CC1282D
:10118000C228A02808002000A40055080319C92877
:10119000CA28C5282100111ACE28CF28D42820001B
:1011A000240823009A00EB28111220002408A30031
:1011B0005708C53E86008701230881000130A3003F
:1011C0002308D70708305702031CE728E828E92836
:1011D000D7010130D50221001116080021003C1072
:1011E0000230FA007A08BB00FD2894314E24883181
:1011F000192994315324883119292E08FA007A08C4
:10120000F9000430A03E86008701413F8A00403F3C
:101210000A008931FB00FC017C08003A03191129FE
:10122000F9287B08023A0319F528013A0319F52831
:10123000F92808002000A401A50122000D1606309F
:101240002000A3003030890B2329A30B23290000A1
:1012500022000D1206302000A3003030890B2E2909
:10126000A30B2E29000001302000A4070030A53D6B
:101270002508803AA30080302302031D4129323023
:101280002402031C442945291D29080094311F24E8
:10129000893121003C1C4D294E295C2994316C2454
:1012A0008931003A0319552956295C290F3020004D
:1012B000A00020082100BA0021003A082000A00068
:1012C000A101A035A10D0030200784009030213D00
:1012D0008500013F8A00003F0A0089312000A200FA
:1012E00022082100BA0008002000520803197929B9
:1012F0007A2974295308BD3E860087010108A3009E
:1013000023082100E30020005308403E86000130FE
:1013100087000108A3002308A4000130A3002308CC
:10132000D30708305302031C962997299829D30123
:101330002100911201302000D202210091162000DC
:10134000240808002100BC15B22994314E248931AB
:10135000D02994311C2489310330D029943153246D
:101360008931D0292C08FA007A08F90021088A006E
:1013700020080A008931FB00FC017C08003A0319AF
:10138000C229AE297B08013A0319AE29033A031991
:10139000A529013A0319A529073A0319A929AE2954
:1013A00008002000AC00EC292908BF3E9631372602
:1013B0008931FF292908933E963137268931FF2943
:1013C0002908D33E963137268931FF2929087F3EE7
:1013D000963137268931FF292C08AA00AB012B084A
:1013E000003A0319F429E6292A08023A0319D429F4
:1013F000013A0319DA29073A0319E029E629080016
:101400002000BC003808BE003708BD002100CD0117
:10141000CE011E2A3D30BA003A08AE003908BB00A2
:101420003B08AF003C088E3139268A3120002E0857
:101430002100CD0720002F082100CE3D20003D08CF
:1014400084003E0885001200031D272A282A0A2A44
:1014500021004E082000B80021004D082000B700F0
:10146000080020005408BD3E86008701810123004A
:101470001D1D3B2A3C2A482A20005408BD3E8600F8
:101480008701811421005A088A0059080A008A310C
:1014900023009D1C4C2A4D2A592A20005408BD3E89
:1014A000860087010115210058088A0057080A00A4
:1014B0008A3120005408BD3E8600870101080319C7
:1014C000622A632A6A2A210056088A0055080A00FF
:1014D0008A316D2A963193268A3108002000C50092
:1014E0004408860087010108031D772A782A7F2A8D
:1014F0007230BF009830C0009531E7258A31200056
:101500004508860087018101430886008701810123
:1015100044088600870181010030953128258A31F1
:101520000030953135258A310030953142258A3198
:10153000003095311B258A31003095314F258A3195
:10154000003095315C258A310030953169258A312A
:101550000030953176258A310800200028080319CB
:10156000B22AB32AB82A2808031DB72AB82ABD2AE6
:10157000260894318B248A31ED2A2808033E860000
:101580008701160001040319C62AC72AE42A28087D
:10159000033E86008701403FA900413FAA00280A78
:1015A00086008701403FAB00413FAC002C08803AE9
:1015B000AD002A08803A2D02031DE02A29082B02DB
:1015C0000318E32AE42AED2A2000280A860087016E
:1015D0000130810741310318810A08009431192430
:1015E0008A31FA0021003708860087017A088100D5
:1015F0000130FA007A08B7070130B8020030B93B71
:10160000380839040319052B062B0B2B94312E2493
:101610008A310530332BBC15152B943162248A3165
:10162000332B94315D248A31332B2C08FA007A084D
:10163000F90021088A0020080A008B31FB00FC0118
:101640007C08003A0319252B112B7B08013A03195A
:10165000112B033A03190D2B013A03190D2B073AED
:101660000319112B112B0800210091123130200099
:10167000A3000A30A4009431C6248B31210011123A
:10168000BC302000A3001730A4009431CF248B314C
:10169000083023009F0090309D0024309E00403091
:1016A0009B0003309C000D302000A3001430A400E8
:1016B0009431B4248B3126302000A3001430A400D0
:1016C0009431BD248B3122302000A3001430A400BB
:1016D0009431AB248B312100E3012000D701D601E6
:1016E0000830A5002508D500D401D301D20121007E
:1016F000911608002000A801A9012000AA01AB0151
:1017000089311A218B310B302000A7002630A6002A
:101710005D30890B892BA60B892BA70B892B0032F7
:1017200001302000AA070030AB3D2B08803AA6000C
:1017300080302602031D9E2B04302A02031CA12B9D
:10174000A22B802B0B302000A7002630A6005D3096
:10175000890BA82BA60BA82BA70BA82B00320130B6
:101760002000A8070030A93D2908803AA600803053
:101770002602031DBD2B04302802031CC02BC12BE5
:101780007D2B08009431D8248B31063096313726D2
:101790008B3102302000B7000430B600BA30890B1C
:1017A000CF2BB60BCF2BB70BCF2B00002000A901FE
:1017B000A90A01308931D1218B3120002F08AA00DC
:1017C0002E08A90097315B278B312000A901A90AB7
:1017D00002308931D1218B3120003108AA00300834
:1017E000A90097315B278B312000A901A90A03309A
:1017F0008931D1218B3120003308AA003208A90099
:1018000097315B278B312000A901A90A0430893167
:10181000D1218B3120003508AA003408A900973166
:101820005B278B3108002000C800C701612C0F190D
:101830001A2C1B2C292C3E30BF009830C00095314B
:10184000E7258C312000C701C70A480886008701B8
:101850008101520803192D2C2E2C612C8931742101
:101860008C312000C4004408C600542CF230BF0064
:101870009930C0009531E7258C312000480886005A
:1018800087018101810A02302000C5000430C400B4
:10189000BA30890B492CC40B492CC50B492C0000CC
:1018A0002000C701C70A612C4608C400C5014508CD
:1018B000003A03195C2C612C4408313A0319362C88
:1018C000612C47080319652C662C172C08009431ED
:1018D0006C248C31003A03196E2C6F2C9F2C7C2CBD
:1018E000943144248C31BB2C943149248C31BB2C51
:1018F000943153248C31BB2C21002F08FA007A0834
:10190000F9000630A03E86008701413F8A00403F33
:101910000A008C31FB00FC017C08003A0319912C71
:10192000782C7B08013A0319782C033A0319702CA0
:10193000013A0319742C073A0319782C782C2100EA
:101940003C101730A03E86008701403F840085018F
:10195000810A000894313A248C3101302100B80208
:101960000030B93B38083904031DB72CB82CBA2C09
:101970000630BB2C033008002000A800A901AA01F2
:1019800028080319C42CC52C0B2D062D5208031949
:10199000CA2CCB2C062D893174218C312000A50056
:1019A0002508A700F62C02302000A6000430A50070
:1019B000BA30890BD92CA50BD92CA60BD92C000039
:1019C0002000A901A90AAA01AA0A062D02302000B6
:1019D000A6000430A500BA30890BEC2CA50BEC2C2A
:1019E000A60BEC2C00002000A901E32C2708A50081
:1019F000A6012608003A0319FE2C062D2508323AC6
:101A00000319D32C013A0319E62C062D2A080319D1
:101A10000A2D0B2DC62C2808031D0F2D102D322D3D
:101A20002C2D01309631C9268C31003A0319192D1D
:101A30001A2D1E2D2000A901AA01AA0A01309631F3
:101A4000E4268C31003A0319262D272D2C2D200059
:101A5000A901A90AAA01AA0A20002A080319312DFE
:101A6000322D112D290808004830860001308700EA
:101A7000A03084000130850014302000C70016001B
:101A80001A00C70B3F2D5C30860001308700B43050
:101A90008400013085000A30C70016001A00C70B09
:101AA0004D2D0130953135258D3100309531422550
:101AB0008D310030953128258D31003095311B2531
:101AC0008D3120004408AF004308AE00EA30B0007A
:101AD0009830B1008730B2009830B300FF30B400C6
:101AE0009930B5008B31C2238D3120004408B100FC
:101AF0004308B000A030963164268D312000C70025
:101B000047082300BE00B4302000B0000130B1000F
:101B100023003E08963164268D312000BF0001303D
:101B2000C0009531E7258D318B317A238D3120002E
:101B30000F199B2D9C2D972D0F1D9F2DA02D9C2D9A
:101B40000030953135258D3120004508860087010C
:101B50008101460886008701810108002000AB0052
:101B60002B08A9002908D100003096310C268D31B0
:101B70009C302000A900D730890BBC2DA90BBC2DAF
:101B80000330963137268D311A302000A900F83005
:101B9000890BC82DA90BC82D0000033096313726BC
:101BA0008D311A302000A900F830890BD52DA90BF2
:101BB000D52D00000330963137268D311A302000A4
:101BC000A900F830890BE22DA90BE22D00000230AC
:101BD000963137268D311A302000A900F830890B54
:101BE000EF2DA90BEF2D00002830963137268D31CF
:101BF00002302000AA000430A900BA30890BFE2D63
:101C0000A90BFE2DAA0BFE2D00000C3096313726B5
:101C10008D3102302000AA000430A900BA30890BAF
:101C20000F2EA90B0F2EAA0B0F2E0000013096319C
:101C300037268D3102302000AA000430A900BA30C6
:101C4000890B202EA90B202EAA0B202E0000063077
:101C5000963137268D3102302000AA000430A900C9
:101C6000BA30890B312EA90B312EAA0B312E000070
:101C700008002000B6002E0886008701403FB00013
:101C8000413FB10030088400310885001200253A38
:101C9000031D4B2E4C2EC12E2E08860087010130CD
:101CA000810741310318810A2100CF01D001D301FE
:101CB000D401FF30D100FF30D20020002E08860072
:101CC0008701403FB000413FB10030088400310837
:101CD000850012006E3A031D6E2E6F2E8E2E2E087A
:101CE000860087010130810741310318810A2F08DE
:101CF00086008701403F84008501810A0008B0000A
:101D00003008B50035088600870121004D08C03F26
:101D10004E08C13F2000AE01AF01E42E2E08860020
:101D20008701403FB000413FB100300884003108D6
:101D300085001200253A031D9E2E9F2EB82E2E08D8
:101D4000860087010130810741310318810A25305F
:101D5000A6000030A7003608B0003008A8008A317D
:101D6000AD228E3101302000AE000030AF00E42EF5
:101D70002E08860087010130810741310318810A4E
:101D80008A2E2E0886008701403FB000413FB100F7
:101D900030088400310885000008B200B301320821
:101DA000A6003308A7003608B4003408A8008A311A
:101DB000AD228E3120002E08860087010130810778
:101DC00041310318810AB22E08002000C800C70163
:101DD0004808860087010108031DEF2EF02E8B2F87
:101DE0007C2F0F19F42EF52E0C2F43088600870147
:101DF0000108031DFC2EFD2E052F3E30BF0098303C
:101E0000C0009531E7258E310C2F7230BF0098301D
:101E1000C0009531E7258E31200052080319112F9B
:101E2000122F7C2F4808860087018101810A8931A1
:101E300074218E312000C4004408C600692F2A3066
:101E4000BF009A30C0009531E7258E312000480848
:101E5000860087018101810A02302000C50004301C
:101E6000C400BA30890B322FC40B322FC50B322F6E
:101E700000007C2F0030BF009A30C0009531E7256C
:101E80008E3102302000C5000430C400BA30890B06
:101E9000472FC40B472FC50B472F000020004808D1
:101EA0008600870181017C2FC430BF009830C000BC
:101EB0009531E7258E3102302000C5000430C40082
:101EC000BA30890B612FC40B612FC50B612F000045
:101ED0004E2F4608C400C5014508003A0319712F6A
:101EE0007C2F4408303A03193A2F013A03191F2F67
:101EF000053A0319542F7C2F20000F1D802F812FAE
:101F0000892F48088600870101080319882F892F27
:101F1000F12EC701C70A4808860087010108031986
:101F2000922F932FFF2FFA2F52080319982F992FD2
:101F3000FA2F4808860087018101810A89317421BE
:101F40008E312000C4004408C600E72F2A30BF00AD
:101F50009A30C0009531E7258E3102302000C5004F
:101F60000430C400BA30890BB32FC40BB32FC50B98
:101F7000B32F00002000C701C70A48088600870168
:101F80008101810AFA2F0030BF009A30C0009531DC
:101F9000E7258E3102302000C5000430C400BA307D
:101FA000890BD02FC40BD02FC50BD02F00002000E1
:101FB000C701C70A4808860087018101FA2FC4308B
:101FC000BF009830C0009531E7258E31CA2F4608F2
:101FD000C400C5014508003A0319EF2FFA2F440841
:101FE000303A0319C32F013A0319A62F053A0319F2
:101FF000DF2FFA2F47080319FE2FFF2F942F080019
:102000003F341434A23414349234143467340C340E
:10201000EE340A3484341434A2340934443414348D
:10202000493414344E34143453341434583414347E
:102030005D3414346234143467341434EE340834A8
:102040002D343E3420345434453453345434203405
:1020500043344F344E3446344F3452344D34453487
:1020600020342D34203441345434543445344E34E7
:102070005434453420344134433451345534493494
:102080005434543445344D3445344E3454340D3482
:042090000A340034DA
:10281A000800013008002400961408002400161548
:10282A00080024009615080024001108080020005A
:10283A0091150800200091110800963193269431D1
:10284A00080023001D121D160800240096161616ED
:10285A000800240096121616080089314621943180
:10286A0008001630210097000800F00070082400C4
:10287A00910008002100BC10BB010E300800943101
:10288A00102494310130080094311024943102301C
:10289A000800943110249431013008009431132433
:1028AA0094310030080094312E2494310530080008
:1028BA0094312A2494310A30080094312A2494311C
:1028CA00093008002100BC10BB010E3008002400AA
:1028DA00160E890C890C013908009431F6249431BA
:1028EA002400161408009431F62494312400161595
:1028FA000800640080010131890B7F2C003421001B
:10290A003C10943116249431043008002000A500AC
:10291A0025088831C3209431080021003C1436353B
:10292A0094313A24943103300800F03021009E009B
:10293A009B019C0101309D00080021003C140314F6
:10294A00360D94313A2494310530080020002408C9
:10295A002100D600200023082100D500080020000D
:10296A0024082100DA00200023082100D9000800E9
:10297A00200024082100D800200023082100D700C5
:10298A000800200024082100DC0020002308210080
:10299A00DB000800200024082100DE0020002308B4
:1029AA002100DD0008000130963137269431353098
:1029BA00890BDD2C00000800C03024009400083088
:1029CA00950096014F309200951208002830240095
:1029DA009500960194012730920021008E150E165B
:1029EA00080024001419FA2CFB2CF62C16081F399F
:1029FA00031D002D012DF62C0800703021009900CE
:102A0A0098012200960121001A1F0C2D0D2D082D68
:102A1A0008007608F1007508F0007708F8007808D1
:102A2A00F200003088317720953108002000A30099
:102A3A0023080319212D222D252D22000C14272DC0
:102A4A0022000C1008002000A300230803192E2DD1
:102A5A002F2D322D22001014342D220010100800C0
:102A6A002000A300230803193B2D3C2D3F2D2200F3
:102A7A009014412D2200901008002000A300230882
:102A8A000319482D492D4C2D220010154E2D2200D8
:102A9A00101108002000A30023080319552D562DF4
:102AAA00592D22008C145B2D22008C100800200066
:102ABA00A30023080319622D632D662D22000C152D
:102ACA00682D22000C1108002000A3002308031916
:102ADA006F2D702D732D22000C16752D22000C12ED
:102AEA0008002000A300230803197C2D7D2D802DCA
:102AFA0022008C16822D22008C120800F30021007D
:102B0A00BC1D882D892D922D7308F2007208B7001A
:102B1A007108B9007008B800BC1108002000A300B1
:102B2A009431F624953120002308240091002000D6
:102B3A00911DA02DA12D9C2D911108000230F000AD
:102B4A000030F10079089531832595310030F50080
:102B5A00F600F70195310E25953104300800013051
:102B6A00F0000030F1007908953183259531003065
:102B7A00F500F600F70195310E259531023008006F
:102B8A000230F0000030F100790895318325953143
:102B9A000030F500F600F70195310E259531023027
:102BAA0008000130F0000030F100790895318325E2
:102BBA0095310030F500F600F70195310E25953173
:102BCA000430080041302000C1004108C20040081A
:102BDA00B8003F08B7004230C1004108B9000030D0
:102BEA008A310022953108009431E12495319731D8
:102BFA001D27953195310225953194313624953129
:102C0A0094319A2495318B31342395310800200070
:102C1A00A4009431722496312000510895319325ED
:102C2A0096312000240821006404953193259631B9
:102C3A0094317824963108002000A6007D08A5006A
:102C4A002508A6042608043896310C269631200059
:102C5A002608FB3996310C2696314230890B332EE1
:102C6A00003208002000A800FD012808F03996313A
:102C7A002126963120002808A7000330A735FF3EF9
:102C8A00031D432E2735F039963121269631080047
:102C9A002000A800FD01FD0A2808F03996312126F6
:102CAA00963120002808A7000330A735FF3E031DF0
:102CBA005A2E2735F0399631212696310800200000
:102CCA00B4003108A9003008A80034089631AE26AD
:102CDA00963120002308B2002408B30034083207D2
:102CEA009731DE27963120003408080079088600DB
:102CFA008701403FF000413FF1007908023E86001B
:102D0A00870101089531832596310030F500F600D8
:102D1A00F70195310E259631023008002300190873
:102D2A00F00020005408403E8600013087007008F9
:102D3A0081000130F0007008D40708305402031CE7
:102D4A00A72EA82EA92ED4010130F0007008D207B0
:102D5A0008002000A7002708A5002508A600B92E0C
:102D6A000130A5002508A70727088600013087003B
:102D7A000108031DC12EC22EB52E26082702A30064
:102D8A00A401A31BA40308002000A400A301240893
:102D9A000319D02ED12ED72E8F1BD42ED52ED72E57
:102DAA00A301A30A2408031DDB2EDC2EE22E8F1FAB
:102DBA00DF2EE02EE22EA301A30A2308080020003A
:102DCA00A400A30124080319EB2EEC2EF22E0F19EE
:102DDA00EF2EF02EF22EA301A30A2408031DF62ECD
:102DEA00F72EFD2E0F1DFA2EFB2EFD2EA301A30A90
:102DFA00230808002D343E342034453452345234EA
:102E0A004534553452343A342034003400340034D2
:102E1A000034003400340034003400340D340A34F1
:102E2A0000340034003400340034003400340034F8
:102E3A00220090018F018C018D018E010830210042
:102E4A0090008C01EF308D00BF308E00FF308F0074
:102E5A0023008F013F308D0090013C308C0024000C
:102E6A0090018D012100951722009D010800220082
:102E7A000C1706302000A4001330A300AD30890BD4
:102E8A00442FA30B442FA40B442F003222000C130F
:102E9A0006302000A4001330A300AD30890B532F55
:102EAA00A30B532FA40B532F003208002000AC01B0
:102EBA00AD016E2F29082C0784002A082D3D8500B4
:102ECA00000896314D26973101302000AC070030BA
:102EDA00AD3D29082C0784002A082D3D85001200E3
:102EEA00031D782F792F5F2F08002000A6002608DF
:102EFA00A500A50DA50D21001D0820002506833972
:102F0A00250621009D001D140D30890B8A2F000013
:102F1A0021009D149D18922F932F8F2F1C0820009B
:102F2A00A40021001B082000A30008002030200074
:102F3A00BF009030C0009531E72597312000C401C9
:102F4A00C50188319D20973101302000C407003027
:102F5A00C53D4508803AC30080304302031DB72FA0
:102F6A0002304402031CBA2FBB2FA62F08000830D8
:102F7A00200055020318C22FC32FDB2F5608C53E67
:102F8A0086008701010823009A000130F0007008CA
:102F9A002000D60708305602031CD42FD52FD62F6F
:102FAA00D6010130F0007008D507DD2F210011127B
:102FBA0008002000AF002908AD002808AC002F083F
:102FCA00AA002A08AE002E08860001308700AE0A41
:102FDA002D08AB002C08AA00AC0A0319AD0A2A086E
:102FEA0084002B0885000008C03F8908031DFE2FB6
:102FFA00FF2FE82F080041345434543445344E34FA
:10300A00543445342034563441344C3449344434ED
:10301A004134543449344F344E34203442344C34DD
:10302A005534453454344F344F34543448340D34C1
:10303A000A34003441347434743465346E3474346C
:10304A0065342034763461346C34693464346134E0
:10305A00743469346F346E3420346C3465346434B7
:10306A00203472346F347534673465340D340A345D
:10307A0000342D343E3420345434453453345434DB
:10308A0020344D3441344E34553445344C34203494
:10309A0045344E34203443344F3455345234533447
:1030AA000D340A34003441345434543445344E34E3
:1030BA00543445342034563441344C34493444343D
:1030CA004134543449344F344E3420344C3445342A
:1030DA00443453340D340A3400342D343E3420340D
:1030EA00463449344E3420345434453453345434F9
:1030FA0020344D3441344E34553445344C340D3437
:10310A000A34003441345434543445344E3454343B
:10311A0045342034413443345134553449345434D9
:10312A00543445344D3445344E34543400345434D4
:10313A0045345334543420345234313420344F34E7
:10314A004634463420342D34203452343234203438
:10315A004F344E34003454344534533454342034C8
:10316A005234323420344F344634463420342D34E9
:10317A0020345234333420344F344E3400342D3416
:10318A003E34203454344534533454342034413496
:10319A0043345134553449345434543445340D3459
:1031AA000A340034543445345334543420344334C8
:1031BA00413452345434453420344434393432346A
:1031CA003534453444343434003454344534533477
:1031DA00543420344E344F344E34203443344F3434
:1031EA004E3446344F3452344D344534003441342D
:1031FA005434543445344E345434453420344434ED
:10320A0045344D34413452345234413447344534D0
:10321A00003450344F3453344934543449344F34DD
:10322A004E344E34453452342034433441345234CB
:10323A0054344534003454344534533454342034EB
:10324A0033342034523445344C34413449345334C1
:10325A0020344F34463446340034523445345434DE
:10326A0049345234453452342034503431342034C1
:10327A0065347434203450343234003443344C349A
:10328A004134563449344534523420344534433475
:10329A004C3441344934523445343F340034503488
:1032AA0052344534533453344534523420344F3431
:1032BA004B3420342F3420344E344F344B340034C2
:1032CA00543445345334543420343334203452344F
:1032DA0045344C3441344934533420344F344E3419
:1032EA000034543445345334543420344C34453443
:1032FA004434203443344C3441345634493445340C
:10330A005234003443344C3441345634493445340D
:10331A005234203445345434453449344E345434C8
:10332A003F340034543445345334543420344C3408
:10333A0045344434533420344334413452345434BD
:10334A0045340034543445345334543420344C34E2
:10335A0045344434203452344F3455344734453498
:10336A000034543445345334543420344C344534C2
:10337A0044342034563445345234543445340034B9
:10338A00543445345334543420344C34453444345E
:10339A00203442344C3445345534453400345434A2
:1033AA00453453345434203442344C34553445343F
:1033BA0054344F344F345434483400344134503444
:1033CA0050345534593445345234203453345534F6
:1033DA00523420344F344B3400342D343E342034AC
:1033EA00543445345334543420344F344E34323404
:1033FA000D340A3400342D343E34203454344534E8
:10340A005334543420344F34463446340D340A3459
:10341A0000345234453454344934523445345234E5
:10342A0020344334413452345434453400344C3417
:10343A00453444345334203441344C344C345534B8
:10344A004D3445344534533400342D343E3420341D
:10345A00543445345334543420344F344E340D34B8
:10346A000A34003454344534533454342034483400
:10347A004F3452344C344F34473445340034543486
:10348A004534533454342034533446344C34413460
:10349A00533448340034463449344E3420344434A6
:1034AA004534203454344534533454340034563477
:1034BA004F344934523420344134503450344C342B
:1034CA004934003454344534533454342034523457
:1034DA00313420344F344E3400344534543441347A
:1034EA005034453420343134303400344534543483
:1034FA004134503445342034313432340034543475
:10350A004534533454342034423450343234003441
:10351A00453454344134503445342034313433340E
:10352A000034453454344134503445342034313431
:10353A00343400344534543441345034453420341E
:10354A0031343534003445345434413450344534FC
:10355A002034313436340034453454344134503410
:10356A00453420343134373400344534543441340A
:10357A0050344534203431343834003445345434EA
:10358A0041345034453420343134003454344534D1
:10359A0053345434203450343134003445345434A0
:1035AA0041345034453420343234003454344534B0
:1035BA00533454342034503432340034453454347F
:1035CA00413450344534203433340034453454348F
:1035DA00413450344534203434340034453454347E
:1035EA00413450344534203435340034453454346D
:1035FA00413450344534203436340034453454345C
:10360A00413450344534203437340034453454344A
:10361A004134503445342034383400344534543439
:0C362A004134503445342034393400342D
:020000040001F9
:08000000FF3FFF3FFF3FFF3F00
:04000E00E43FFF3F8D
:00000001FF
